{
	"contracts/advance/03-bocai.sol": {
		"bocai": {
			"abi": [
				{
					"inputs": [
						{
							"internalType": "uint256",
							"name": "_minAmount",
							"type": "uint256"
						}
					],
					"stateMutability": "nonpayable",
					"type": "constructor"
				},
				{
					"inputs": [
						{
							"internalType": "bool",
							"name": "isBig",
							"type": "bool"
						}
					],
					"name": "bet",
					"outputs": [],
					"stateMutability": "payable",
					"type": "function"
				},
				{
					"inputs": [],
					"name": "endTime",
					"outputs": [
						{
							"internalType": "uint256",
							"name": "",
							"type": "uint256"
						}
					],
					"stateMutability": "view",
					"type": "function"
				},
				{
					"inputs": [],
					"name": "getBalance",
					"outputs": [
						{
							"internalType": "uint256",
							"name": "",
							"type": "uint256"
						},
						{
							"internalType": "uint256",
							"name": "",
							"type": "uint256"
						}
					],
					"stateMutability": "view",
					"type": "function"
				},
				{
					"inputs": [],
					"name": "getNow",
					"outputs": [
						{
							"internalType": "uint256",
							"name": "",
							"type": "uint256"
						}
					],
					"stateMutability": "view",
					"type": "function"
				},
				{
					"inputs": [],
					"name": "isFinished",
					"outputs": [
						{
							"internalType": "bool",
							"name": "",
							"type": "bool"
						}
					],
					"stateMutability": "view",
					"type": "function"
				},
				{
					"inputs": [],
					"name": "open",
					"outputs": [],
					"stateMutability": "payable",
					"type": "function"
				},
				{
					"inputs": [],
					"name": "owner",
					"outputs": [
						{
							"internalType": "address",
							"name": "",
							"type": "address"
						}
					],
					"stateMutability": "view",
					"type": "function"
				},
				{
					"inputs": [],
					"name": "totalBigAmount",
					"outputs": [
						{
							"internalType": "uint256",
							"name": "",
							"type": "uint256"
						}
					],
					"stateMutability": "view",
					"type": "function"
				},
				{
					"inputs": [],
					"name": "totalSmallAmount",
					"outputs": [
						{
							"internalType": "uint256",
							"name": "",
							"type": "uint256"
						}
					],
					"stateMutability": "view",
					"type": "function"
				}
			],
			"devdoc": {
				"kind": "dev",
				"methods": {},
				"version": 1
			},
			"evm": {
				"assembly": "    /* \"contracts/advance/03-bocai.sol\":144:2468  contract bocai {... */\n  mstore(0x40, 0x80)\n    /* \"contracts/advance/03-bocai.sol\":387:569  constructor(uint256 _minAmount){... */\n  callvalue\n  dup1\n  iszero\n  tag_1\n  jumpi\n  0x00\n  dup1\n  revert\ntag_1:\n  pop\n  mload(0x40)\n  sub(codesize, bytecodeSize)\n  dup1\n  bytecodeSize\n  dup4\n  codecopy\n  dup2\n  dup2\n  add\n  0x40\n  mstore\n  dup2\n  add\n  swap1\n  tag_2\n  swap2\n  swap1\n  tag_3\n  jump\t// in\ntag_2:\n    /* \"contracts/advance/03-bocai.sol\":436:446  msg.sender */\n  caller\n    /* \"contracts/advance/03-bocai.sol\":428:433  owner */\n  0x04\n  0x00\n    /* \"contracts/advance/03-bocai.sol\":428:446  owner = msg.sender */\n  0x0100\n  exp\n  dup2\n  sload\n  dup2\n  0xffffffffffffffffffffffffffffffffffffffff\n  mul\n  not\n  and\n  swap1\n  dup4\n  0xffffffffffffffffffffffffffffffffffffffff\n  and\n  mul\n  or\n  swap1\n  sstore\n  pop\n    /* \"contracts/advance/03-bocai.sol\":469:474  false */\n  0x00\n    /* \"contracts/advance/03-bocai.sol\":456:466  isFinished */\n  0x04\n  0x14\n    /* \"contracts/advance/03-bocai.sol\":456:474  isFinished = false */\n  0x0100\n  exp\n  dup2\n  sload\n  dup2\n  0xff\n  mul\n  not\n  and\n  swap1\n  dup4\n  iszero\n  iszero\n  mul\n  or\n  swap1\n  sstore\n  pop\n    /* \"contracts/advance/03-bocai.sol\":499:509  _minAmount */\n  dup1\n    /* \"contracts/advance/03-bocai.sol\":484:496  minBetAmount */\n  0x05\n    /* \"contracts/advance/03-bocai.sol\":484:509  minBetAmount = _minAmount */\n  dup2\n  swap1\n  sstore\n  pop\n    /* \"contracts/advance/03-bocai.sol\":547:551  1200 */\n  0x04b0\n    /* \"contracts/advance/03-bocai.sol\":529:544  block.timestamp */\n  timestamp\n    /* \"contracts/advance/03-bocai.sol\":529:551  block.timestamp + 1200 */\n  tag_6\n  swap2\n  swap1\n  tag_7\n  jump\t// in\ntag_6:\n    /* \"contracts/advance/03-bocai.sol\":519:526  endTime */\n  0x06\n    /* \"contracts/advance/03-bocai.sol\":519:551  endTime = block.timestamp + 1200 */\n  dup2\n  swap1\n  sstore\n  pop\n    /* \"contracts/advance/03-bocai.sol\":387:569  constructor(uint256 _minAmount){... */\n  pop\n    /* \"contracts/advance/03-bocai.sol\":144:2468  contract bocai {... */\n  jump(tag_8)\n    /* \"#utility.yul\":88:205   */\ntag_10:\n    /* \"#utility.yul\":197:198   */\n  0x00\n    /* \"#utility.yul\":194:195   */\n  dup1\n    /* \"#utility.yul\":187:199   */\n  revert\n    /* \"#utility.yul\":334:411   */\ntag_12:\n    /* \"#utility.yul\":371:378   */\n  0x00\n    /* \"#utility.yul\":400:405   */\n  dup2\n    /* \"#utility.yul\":389:405   */\n  swap1\n  pop\n    /* \"#utility.yul\":334:411   */\n  swap2\n  swap1\n  pop\n  jump\t// out\n    /* \"#utility.yul\":417:539   */\ntag_13:\n    /* \"#utility.yul\":490:514   */\n  tag_22\n    /* \"#utility.yul\":508:513   */\n  dup2\n    /* \"#utility.yul\":490:514   */\n  tag_12\n  jump\t// in\ntag_22:\n    /* \"#utility.yul\":483:488   */\n  dup2\n    /* \"#utility.yul\":480:515   */\n  eq\n    /* \"#utility.yul\":470:533   */\n  tag_23\n  jumpi\n    /* \"#utility.yul\":529:530   */\n  0x00\n    /* \"#utility.yul\":526:527   */\n  dup1\n    /* \"#utility.yul\":519:531   */\n  revert\n    /* \"#utility.yul\":470:533   */\ntag_23:\n    /* \"#utility.yul\":417:539   */\n  pop\n  jump\t// out\n    /* \"#utility.yul\":545:688   */\ntag_14:\n    /* \"#utility.yul\":602:607   */\n  0x00\n    /* \"#utility.yul\":633:639   */\n  dup2\n    /* \"#utility.yul\":627:640   */\n  mload\n    /* \"#utility.yul\":618:640   */\n  swap1\n  pop\n    /* \"#utility.yul\":649:682   */\n  tag_25\n    /* \"#utility.yul\":676:681   */\n  dup2\n    /* \"#utility.yul\":649:682   */\n  tag_13\n  jump\t// in\ntag_25:\n    /* \"#utility.yul\":545:688   */\n  swap3\n  swap2\n  pop\n  pop\n  jump\t// out\n    /* \"#utility.yul\":694:1045   */\ntag_3:\n    /* \"#utility.yul\":764:770   */\n  0x00\n    /* \"#utility.yul\":813:815   */\n  0x20\n    /* \"#utility.yul\":801:810   */\n  dup3\n    /* \"#utility.yul\":792:799   */\n  dup5\n    /* \"#utility.yul\":788:811   */\n  sub\n    /* \"#utility.yul\":784:816   */\n  slt\n    /* \"#utility.yul\":781:900   */\n  iszero\n  tag_27\n  jumpi\n    /* \"#utility.yul\":819:898   */\n  tag_28\n  tag_10\n  jump\t// in\ntag_28:\n    /* \"#utility.yul\":781:900   */\ntag_27:\n    /* \"#utility.yul\":939:940   */\n  0x00\n    /* \"#utility.yul\":964:1028   */\n  tag_29\n    /* \"#utility.yul\":1020:1027   */\n  dup5\n    /* \"#utility.yul\":1011:1017   */\n  dup3\n    /* \"#utility.yul\":1000:1009   */\n  dup6\n    /* \"#utility.yul\":996:1018   */\n  add\n    /* \"#utility.yul\":964:1028   */\n  tag_14\n  jump\t// in\ntag_29:\n    /* \"#utility.yul\":954:1028   */\n  swap2\n  pop\n    /* \"#utility.yul\":910:1038   */\n  pop\n    /* \"#utility.yul\":694:1045   */\n  swap3\n  swap2\n  pop\n  pop\n  jump\t// out\n    /* \"#utility.yul\":1051:1231   */\ntag_15:\n    /* \"#utility.yul\":1099:1176   */\n  0x4e487b7100000000000000000000000000000000000000000000000000000000\n    /* \"#utility.yul\":1096:1097   */\n  0x00\n    /* \"#utility.yul\":1089:1177   */\n  mstore\n    /* \"#utility.yul\":1196:1200   */\n  0x11\n    /* \"#utility.yul\":1193:1194   */\n  0x04\n    /* \"#utility.yul\":1186:1201   */\n  mstore\n    /* \"#utility.yul\":1220:1224   */\n  0x24\n    /* \"#utility.yul\":1217:1218   */\n  0x00\n    /* \"#utility.yul\":1210:1225   */\n  revert\n    /* \"#utility.yul\":1237:1428   */\ntag_7:\n    /* \"#utility.yul\":1277:1280   */\n  0x00\n    /* \"#utility.yul\":1296:1316   */\n  tag_32\n    /* \"#utility.yul\":1314:1315   */\n  dup3\n    /* \"#utility.yul\":1296:1316   */\n  tag_12\n  jump\t// in\ntag_32:\n    /* \"#utility.yul\":1291:1316   */\n  swap2\n  pop\n    /* \"#utility.yul\":1330:1350   */\n  tag_33\n    /* \"#utility.yul\":1348:1349   */\n  dup4\n    /* \"#utility.yul\":1330:1350   */\n  tag_12\n  jump\t// in\ntag_33:\n    /* \"#utility.yul\":1325:1350   */\n  swap3\n  pop\n    /* \"#utility.yul\":1373:1374   */\n  dup3\n    /* \"#utility.yul\":1370:1371   */\n  dup3\n    /* \"#utility.yul\":1366:1375   */\n  add\n    /* \"#utility.yul\":1359:1375   */\n  swap1\n  pop\n    /* \"#utility.yul\":1394:1397   */\n  dup1\n    /* \"#utility.yul\":1391:1392   */\n  dup3\n    /* \"#utility.yul\":1388:1398   */\n  gt\n    /* \"#utility.yul\":1385:1421   */\n  iszero\n  tag_34\n  jumpi\n    /* \"#utility.yul\":1401:1419   */\n  tag_35\n  tag_15\n  jump\t// in\ntag_35:\n    /* \"#utility.yul\":1385:1421   */\ntag_34:\n    /* \"#utility.yul\":1237:1428   */\n  swap3\n  swap2\n  pop\n  pop\n  jump\t// out\n    /* \"contracts/advance/03-bocai.sol\":144:2468  contract bocai {... */\ntag_8:\n  dataSize(sub_0)\n  dup1\n  dataOffset(sub_0)\n  0x00\n  codecopy\n  0x00\n  return\nstop\n\nsub_0: assembly {\n        /* \"contracts/advance/03-bocai.sol\":144:2468  contract bocai {... */\n      mstore(0x40, 0x80)\n      jumpi(tag_1, lt(calldatasize, 0x04))\n      shr(0xe0, calldataload(0x00))\n      dup1\n      0x7b352962\n      gt\n      tag_11\n      jumpi\n      dup1\n      0x7b352962\n      eq\n      tag_6\n      jumpi\n      dup1\n      0x8da5cb5b\n      eq\n      tag_7\n      jumpi\n      dup1\n      0xbbe4fd50\n      eq\n      tag_8\n      jumpi\n      dup1\n      0xf33d6b86\n      eq\n      tag_9\n      jumpi\n      dup1\n      0xfcfff16f\n      eq\n      tag_10\n      jumpi\n      jump(tag_1)\n    tag_11:\n      dup1\n      0x0d8a0df6\n      eq\n      tag_2\n      jumpi\n      dup1\n      0x12065fe0\n      eq\n      tag_3\n      jumpi\n      dup1\n      0x3197cbb6\n      eq\n      tag_4\n      jumpi\n      dup1\n      0x523afb0d\n      eq\n      tag_5\n      jumpi\n    tag_1:\n      0x00\n      dup1\n      revert\n        /* \"contracts/advance/03-bocai.sol\":241:272  uint256 public totalSmallAmount */\n    tag_2:\n      callvalue\n      dup1\n      iszero\n      tag_12\n      jumpi\n      0x00\n      dup1\n      revert\n    tag_12:\n      pop\n      tag_13\n      tag_14\n      jump\t// in\n    tag_13:\n      mload(0x40)\n      tag_15\n      swap2\n      swap1\n      tag_16\n      jump\t// in\n    tag_15:\n      mload(0x40)\n      dup1\n      swap2\n      sub\n      swap1\n      return\n        /* \"contracts/advance/03-bocai.sol\":2234:2375  function getBalance() public view returns(uint256, uint256){... */\n    tag_3:\n      callvalue\n      dup1\n      iszero\n      tag_17\n      jumpi\n      0x00\n      dup1\n      revert\n    tag_17:\n      pop\n      tag_18\n      tag_19\n      jump\t// in\n    tag_18:\n      mload(0x40)\n      tag_20\n      swap3\n      swap2\n      swap1\n      tag_21\n      jump\t// in\n    tag_20:\n      mload(0x40)\n      dup1\n      swap2\n      sub\n      swap1\n      return\n        /* \"contracts/advance/03-bocai.sol\":358:380  uint256 public endTime */\n    tag_4:\n      callvalue\n      dup1\n      iszero\n      tag_22\n      jumpi\n      0x00\n      dup1\n      revert\n    tag_22:\n      pop\n      tag_23\n      tag_24\n      jump\t// in\n    tag_23:\n      mload(0x40)\n      tag_25\n      swap2\n      swap1\n      tag_16\n      jump\t// in\n    tag_25:\n      mload(0x40)\n      dup1\n      swap2\n      sub\n      swap1\n      return\n        /* \"contracts/advance/03-bocai.sol\":611:1133  function bet(bool isBig) public payable {... */\n    tag_5:\n      tag_26\n      0x04\n      dup1\n      calldatasize\n      sub\n      dup2\n      add\n      swap1\n      tag_27\n      swap2\n      swap1\n      tag_28\n      jump\t// in\n    tag_27:\n      tag_29\n      jump\t// in\n    tag_26:\n      stop\n        /* \"contracts/advance/03-bocai.sol\":304:326  bool public isFinished */\n    tag_6:\n      callvalue\n      dup1\n      iszero\n      tag_30\n      jumpi\n      0x00\n      dup1\n      revert\n    tag_30:\n      pop\n      tag_31\n      tag_32\n      jump\t// in\n    tag_31:\n      mload(0x40)\n      tag_33\n      swap2\n      swap1\n      tag_34\n      jump\t// in\n    tag_33:\n      mload(0x40)\n      dup1\n      swap2\n      sub\n      swap1\n      return\n        /* \"contracts/advance/03-bocai.sol\":278:298  address public owner */\n    tag_7:\n      callvalue\n      dup1\n      iszero\n      tag_35\n      jumpi\n      0x00\n      dup1\n      revert\n    tag_35:\n      pop\n      tag_36\n      tag_37\n      jump\t// in\n    tag_36:\n      mload(0x40)\n      tag_38\n      swap2\n      swap1\n      tag_39\n      jump\t// in\n    tag_38:\n      mload(0x40)\n      dup1\n      swap2\n      sub\n      swap1\n      return\n        /* \"contracts/advance/03-bocai.sol\":2381:2466  function getNow() public view returns(uint256){... */\n    tag_8:\n      callvalue\n      dup1\n      iszero\n      tag_40\n      jumpi\n      0x00\n      dup1\n      revert\n    tag_40:\n      pop\n      tag_41\n      tag_42\n      jump\t// in\n    tag_41:\n      mload(0x40)\n      tag_43\n      swap2\n      swap1\n      tag_16\n      jump\t// in\n    tag_43:\n      mload(0x40)\n      dup1\n      swap2\n      sub\n      swap1\n      return\n        /* \"contracts/advance/03-bocai.sol\":206:235  uint256 public totalBigAmount */\n    tag_9:\n      callvalue\n      dup1\n      iszero\n      tag_44\n      jumpi\n      0x00\n      dup1\n      revert\n    tag_44:\n      pop\n      tag_45\n      tag_46\n      jump\t// in\n    tag_45:\n      mload(0x40)\n      tag_47\n      swap2\n      swap1\n      tag_16\n      jump\t// in\n    tag_47:\n      mload(0x40)\n      dup1\n      swap2\n      sub\n      swap1\n      return\n        /* \"contracts/advance/03-bocai.sol\":1139:2228  function open() public payable {... */\n    tag_10:\n      tag_48\n      tag_49\n      jump\t// in\n    tag_48:\n      stop\n        /* \"contracts/advance/03-bocai.sol\":241:272  uint256 public totalSmallAmount */\n    tag_14:\n      sload(0x03)\n      dup2\n      jump\t// out\n        /* \"contracts/advance/03-bocai.sol\":2234:2375  function getBalance() public view returns(uint256, uint256){... */\n    tag_19:\n        /* \"contracts/advance/03-bocai.sol\":2276:2283  uint256 */\n      0x00\n        /* \"contracts/advance/03-bocai.sol\":2285:2292  uint256 */\n      dup1\n        /* \"contracts/advance/03-bocai.sol\":2311:2332  address(this).balance */\n      selfbalance\n        /* \"contracts/advance/03-bocai.sol\":2353:2367  totalBigAmount */\n      sload(0x02)\n        /* \"contracts/advance/03-bocai.sol\":2334:2350  totalSmallAmount */\n      sload(0x03)\n        /* \"contracts/advance/03-bocai.sol\":2334:2367  totalSmallAmount + totalBigAmount */\n      tag_51\n      swap2\n      swap1\n      tag_52\n      jump\t// in\n    tag_51:\n        /* \"contracts/advance/03-bocai.sol\":2303:2368  return (address(this).balance, totalSmallAmount + totalBigAmount) */\n      swap2\n      pop\n      swap2\n      pop\n        /* \"contracts/advance/03-bocai.sol\":2234:2375  function getBalance() public view returns(uint256, uint256){... */\n      swap1\n      swap2\n      jump\t// out\n        /* \"contracts/advance/03-bocai.sol\":358:380  uint256 public endTime */\n    tag_24:\n      sload(0x06)\n      dup2\n      jump\t// out\n        /* \"contracts/advance/03-bocai.sol\":611:1133  function bet(bool isBig) public payable {... */\n    tag_29:\n        /* \"contracts/advance/03-bocai.sol\":670:680  isFinished */\n      0x04\n      0x14\n      swap1\n      sload\n      swap1\n      0x0100\n      exp\n      swap1\n      div\n      0xff\n      and\n        /* \"contracts/advance/03-bocai.sol\":669:680  !isFinished */\n      iszero\n        /* \"contracts/advance/03-bocai.sol\":661:701  require(!isFinished, \"Game is finished\") */\n      tag_54\n      jumpi\n      mload(0x40)\n      0x08c379a000000000000000000000000000000000000000000000000000000000\n      dup2\n      mstore\n      0x04\n      add\n      tag_55\n      swap1\n      tag_56\n      jump\t// in\n    tag_55:\n      mload(0x40)\n      dup1\n      swap2\n      sub\n      swap1\n      revert\n    tag_54:\n        /* \"contracts/advance/03-bocai.sol\":732:744  minBetAmount */\n      sload(0x05)\n        /* \"contracts/advance/03-bocai.sol\":719:728  msg.value */\n      callvalue\n        /* \"contracts/advance/03-bocai.sol\":719:744  msg.value >= minBetAmount */\n      lt\n      iszero\n        /* \"contracts/advance/03-bocai.sol\":711:772  require(msg.value >= minBetAmount, \"Bet's amount must > min\") */\n      tag_57\n      jumpi\n      mload(0x40)\n      0x08c379a000000000000000000000000000000000000000000000000000000000\n      dup2\n      mstore\n      0x04\n      add\n      tag_58\n      swap1\n      tag_59\n      jump\t// in\n    tag_58:\n      mload(0x40)\n      dup1\n      swap2\n      sub\n      swap1\n      revert\n    tag_57:\n        /* \"contracts/advance/03-bocai.sol\":808:815  endTime */\n      sload(0x06)\n        /* \"contracts/advance/03-bocai.sol\":790:805  block.timestamp */\n      timestamp\n        /* \"contracts/advance/03-bocai.sol\":790:815  block.timestamp < endTime */\n      lt\n        /* \"contracts/advance/03-bocai.sol\":782:830  require(block.timestamp < endTime, \"Over Time!\") */\n      tag_60\n      jumpi\n      mload(0x40)\n      0x08c379a000000000000000000000000000000000000000000000000000000000\n      dup2\n      mstore\n      0x04\n      add\n      tag_61\n      swap1\n      tag_62\n      jump\t// in\n    tag_61:\n      mload(0x40)\n      dup1\n      swap2\n      sub\n      swap1\n      revert\n    tag_60:\n        /* \"contracts/advance/03-bocai.sol\":842:862  Player memory player */\n      0x00\n        /* \"contracts/advance/03-bocai.sol\":865:894  Player(msg.sender, msg.value) */\n      mload(0x40)\n      dup1\n      0x40\n      add\n      0x40\n      mstore\n      dup1\n        /* \"contracts/advance/03-bocai.sol\":872:882  msg.sender */\n      caller\n        /* \"contracts/advance/03-bocai.sol\":865:894  Player(msg.sender, msg.value) */\n      0xffffffffffffffffffffffffffffffffffffffff\n      and\n      dup2\n      mstore\n      0x20\n      add\n        /* \"contracts/advance/03-bocai.sol\":884:893  msg.value */\n      callvalue\n        /* \"contracts/advance/03-bocai.sol\":865:894  Player(msg.sender, msg.value) */\n      dup2\n      mstore\n      pop\n        /* \"contracts/advance/03-bocai.sol\":842:894  Player memory player = Player(msg.sender, msg.value) */\n      swap1\n      pop\n        /* \"contracts/advance/03-bocai.sol\":907:912  isBig */\n      dup2\n        /* \"contracts/advance/03-bocai.sol\":904:1127  if(isBig){... */\n      iszero\n      tag_63\n      jumpi\n        /* \"contracts/advance/03-bocai.sol\":946:950  bigs */\n      0x00\n        /* \"contracts/advance/03-bocai.sol\":956:962  player */\n      dup2\n        /* \"contracts/advance/03-bocai.sol\":946:963  bigs.push(player) */\n      swap1\n      dup1\n      0x01\n      dup2\n      sload\n      add\n      dup1\n      dup3\n      sstore\n      dup1\n      swap2\n      pop\n      pop\n      0x01\n      swap1\n      sub\n      swap1\n      0x00\n      mstore\n      keccak256(0x00, 0x20)\n      swap1\n      0x02\n      mul\n      add\n      0x00\n      swap1\n      swap2\n      swap1\n      swap2\n      swap1\n      swap2\n      pop\n      0x00\n      dup3\n      add\n      mload\n      dup2\n      0x00\n      add\n      exp(0x0100, 0x00)\n      dup2\n      sload\n      dup2\n      0xffffffffffffffffffffffffffffffffffffffff\n      mul\n      not\n      and\n      swap1\n      dup4\n      0xffffffffffffffffffffffffffffffffffffffff\n      and\n      mul\n      or\n      swap1\n      sstore\n      pop\n      0x20\n      dup3\n      add\n      mload\n      dup2\n      0x01\n      add\n      sstore\n      pop\n      pop\n        /* \"contracts/advance/03-bocai.sol\":995:1004  msg.value */\n      callvalue\n        /* \"contracts/advance/03-bocai.sol\":977:991  totalBigAmount */\n      0x02\n      0x00\n        /* \"contracts/advance/03-bocai.sol\":977:1004  totalBigAmount += msg.value */\n      dup3\n      dup3\n      sload\n      tag_65\n      swap2\n      swap1\n      tag_52\n      jump\t// in\n    tag_65:\n      swap3\n      pop\n      pop\n      dup2\n      swap1\n      sstore\n      pop\n        /* \"contracts/advance/03-bocai.sol\":904:1127  if(isBig){... */\n      jump(tag_66)\n    tag_63:\n        /* \"contracts/advance/03-bocai.sol\":1054:1060  smalls */\n      0x01\n        /* \"contracts/advance/03-bocai.sol\":1066:1072  player */\n      dup2\n        /* \"contracts/advance/03-bocai.sol\":1054:1073  smalls.push(player) */\n      swap1\n      dup1\n      0x01\n      dup2\n      sload\n      add\n      dup1\n      dup3\n      sstore\n      dup1\n      swap2\n      pop\n      pop\n      0x01\n      swap1\n      sub\n      swap1\n      0x00\n      mstore\n      keccak256(0x00, 0x20)\n      swap1\n      0x02\n      mul\n      add\n      0x00\n      swap1\n      swap2\n      swap1\n      swap2\n      swap1\n      swap2\n      pop\n      0x00\n      dup3\n      add\n      mload\n      dup2\n      0x00\n      add\n      exp(0x0100, 0x00)\n      dup2\n      sload\n      dup2\n      0xffffffffffffffffffffffffffffffffffffffff\n      mul\n      not\n      and\n      swap1\n      dup4\n      0xffffffffffffffffffffffffffffffffffffffff\n      and\n      mul\n      or\n      swap1\n      sstore\n      pop\n      0x20\n      dup3\n      add\n      mload\n      dup2\n      0x01\n      add\n      sstore\n      pop\n      pop\n        /* \"contracts/advance/03-bocai.sol\":1107:1116  msg.value */\n      callvalue\n        /* \"contracts/advance/03-bocai.sol\":1087:1103  totalSmallAmount */\n      0x03\n      0x00\n        /* \"contracts/advance/03-bocai.sol\":1087:1116  totalSmallAmount += msg.value */\n      dup3\n      dup3\n      sload\n      tag_68\n      swap2\n      swap1\n      tag_52\n      jump\t// in\n    tag_68:\n      swap3\n      pop\n      pop\n      dup2\n      swap1\n      sstore\n      pop\n        /* \"contracts/advance/03-bocai.sol\":904:1127  if(isBig){... */\n    tag_66:\n        /* \"contracts/advance/03-bocai.sol\":651:1133  {... */\n      pop\n        /* \"contracts/advance/03-bocai.sol\":611:1133  function bet(bool isBig) public payable {... */\n      pop\n      jump\t// out\n        /* \"contracts/advance/03-bocai.sol\":304:326  bool public isFinished */\n    tag_32:\n      0x04\n      0x14\n      swap1\n      sload\n      swap1\n      0x0100\n      exp\n      swap1\n      div\n      0xff\n      and\n      dup2\n      jump\t// out\n        /* \"contracts/advance/03-bocai.sol\":278:298  address public owner */\n    tag_37:\n      0x04\n      0x00\n      swap1\n      sload\n      swap1\n      0x0100\n      exp\n      swap1\n      div\n      0xffffffffffffffffffffffffffffffffffffffff\n      and\n      dup2\n      jump\t// out\n        /* \"contracts/advance/03-bocai.sol\":2381:2466  function getNow() public view returns(uint256){... */\n    tag_42:\n        /* \"contracts/advance/03-bocai.sol\":2419:2426  uint256 */\n      0x00\n        /* \"contracts/advance/03-bocai.sol\":2444:2459  block.timestamp */\n      timestamp\n        /* \"contracts/advance/03-bocai.sol\":2437:2459  return block.timestamp */\n      swap1\n      pop\n        /* \"contracts/advance/03-bocai.sol\":2381:2466  function getNow() public view returns(uint256){... */\n      swap1\n      jump\t// out\n        /* \"contracts/advance/03-bocai.sol\":206:235  uint256 public totalBigAmount */\n    tag_46:\n      sload(0x02)\n      dup2\n      jump\t// out\n        /* \"contracts/advance/03-bocai.sol\":1139:2228  function open() public payable {... */\n    tag_49:\n        /* \"contracts/advance/03-bocai.sol\":1189:1199  isFinished */\n      0x04\n      0x14\n      swap1\n      sload\n      swap1\n      0x0100\n      exp\n      swap1\n      div\n      0xff\n      and\n        /* \"contracts/advance/03-bocai.sol\":1188:1199  !isFinished */\n      iszero\n        /* \"contracts/advance/03-bocai.sol\":1180:1220  require(!isFinished, \"Game is finished\") */\n      tag_71\n      jumpi\n      mload(0x40)\n      0x08c379a000000000000000000000000000000000000000000000000000000000\n      dup2\n      mstore\n      0x04\n      add\n      tag_72\n      swap1\n      tag_56\n      jump\t// in\n    tag_72:\n      mload(0x40)\n      dup1\n      swap2\n      sub\n      swap1\n      revert\n    tag_71:\n        /* \"contracts/advance/03-bocai.sol\":1256:1263  endTime */\n      sload(0x06)\n        /* \"contracts/advance/03-bocai.sol\":1238:1253  block.timestamp */\n      timestamp\n        /* \"contracts/advance/03-bocai.sol\":1238:1263  block.timestamp < endTime */\n      lt\n        /* \"contracts/advance/03-bocai.sol\":1230:1278  require(block.timestamp < endTime, \"Over Time!\") */\n      tag_73\n      jumpi\n      mload(0x40)\n      0x08c379a000000000000000000000000000000000000000000000000000000000\n      dup2\n      mstore\n      0x04\n      add\n      tag_74\n      swap1\n      tag_62\n      jump\t// in\n    tag_74:\n      mload(0x40)\n      dup1\n      swap2\n      sub\n      swap1\n      revert\n    tag_73:\n        /* \"contracts/advance/03-bocai.sol\":1329:1343  uint256 random */\n      0x00\n        /* \"contracts/advance/03-bocai.sol\":1415:1417  18 */\n      0x12\n        /* \"contracts/advance/03-bocai.sol\":1375:1390  block.timestamp */\n      timestamp\n        /* \"contracts/advance/03-bocai.sol\":1392:1402  msg.sender */\n      caller\n        /* \"contracts/advance/03-bocai.sol\":1404:1409  owner */\n      0x04\n      0x00\n      swap1\n      sload\n      swap1\n      0x0100\n      exp\n      swap1\n      div\n      0xffffffffffffffffffffffffffffffffffffffff\n      and\n        /* \"contracts/advance/03-bocai.sol\":1364:1410  abi.encode(block.timestamp, msg.sender, owner) */\n      add(0x20, mload(0x40))\n      tag_75\n      swap4\n      swap3\n      swap2\n      swap1\n      tag_76\n      jump\t// in\n    tag_75:\n      mload(0x40)\n      0x20\n      dup2\n      dup4\n      sub\n      sub\n      dup2\n      mstore\n      swap1\n      0x40\n      mstore\n        /* \"contracts/advance/03-bocai.sol\":1354:1411  keccak256(abi.encode(block.timestamp, msg.sender, owner)) */\n      dup1\n      mload\n      swap1\n      0x20\n      add\n      keccak256\n        /* \"contracts/advance/03-bocai.sol\":1346:1412  uint256(keccak256(abi.encode(block.timestamp, msg.sender, owner))) */\n      0x00\n      shr\n        /* \"contracts/advance/03-bocai.sol\":1346:1417  uint256(keccak256(abi.encode(block.timestamp, msg.sender, owner))) % 18 */\n      tag_77\n      swap2\n      swap1\n      tag_78\n      jump\t// in\n    tag_77:\n        /* \"contracts/advance/03-bocai.sol\":1329:1417  uint256 random = uint256(keccak256(abi.encode(block.timestamp, msg.sender, owner))) % 18 */\n      swap1\n      pop\n        /* \"contracts/advance/03-bocai.sol\":1440:1441  8 */\n      0x08\n        /* \"contracts/advance/03-bocai.sol\":1430:1436  random */\n      dup2\n        /* \"contracts/advance/03-bocai.sol\":1430:1441  random <= 8 */\n      gt\n        /* \"contracts/advance/03-bocai.sol\":1427:2222  if(random <= 8){... */\n      tag_79\n      jumpi\n        /* \"contracts/advance/03-bocai.sol\":1481:1490  uint256 i */\n      0x00\n        /* \"contracts/advance/03-bocai.sol\":1477:1758  for(uint256 i = 0; i < smalls.length; i++){... */\n    tag_80:\n        /* \"contracts/advance/03-bocai.sol\":1500:1506  smalls */\n      0x01\n        /* \"contracts/advance/03-bocai.sol\":1500:1513  smalls.length */\n      dup1\n      sload\n      swap1\n      pop\n        /* \"contracts/advance/03-bocai.sol\":1496:1497  i */\n      dup2\n        /* \"contracts/advance/03-bocai.sol\":1496:1513  i < smalls.length */\n      lt\n        /* \"contracts/advance/03-bocai.sol\":1477:1758  for(uint256 i = 0; i < smalls.length; i++){... */\n      iszero\n      tag_81\n      jumpi\n        /* \"contracts/advance/03-bocai.sol\":1537:1557  Player memory player */\n      0x00\n        /* \"contracts/advance/03-bocai.sol\":1560:1566  smalls */\n      0x01\n        /* \"contracts/advance/03-bocai.sol\":1567:1568  i */\n      dup3\n        /* \"contracts/advance/03-bocai.sol\":1560:1569  smalls[i] */\n      dup2\n      sload\n      dup2\n      lt\n      tag_83\n      jumpi\n      tag_84\n      tag_85\n      jump\t// in\n    tag_84:\n    tag_83:\n      swap1\n      0x00\n      mstore\n      keccak256(0x00, 0x20)\n      swap1\n      0x02\n      mul\n      add\n        /* \"contracts/advance/03-bocai.sol\":1537:1569  Player memory player = smalls[i] */\n      mload(0x40)\n      dup1\n      0x40\n      add\n      0x40\n      mstore\n      swap1\n      dup2\n      0x00\n      dup3\n      add\n      0x00\n      swap1\n      sload\n      swap1\n      0x0100\n      exp\n      swap1\n      div\n      0xffffffffffffffffffffffffffffffffffffffff\n      and\n      0xffffffffffffffffffffffffffffffffffffffff\n      and\n      0xffffffffffffffffffffffffffffffffffffffff\n      and\n      dup2\n      mstore\n      0x20\n      add\n      0x01\n      dup3\n      add\n      sload\n      dup2\n      mstore\n      pop\n      pop\n      swap1\n      pop\n        /* \"contracts/advance/03-bocai.sol\":1587:1600  uint256 bonus */\n      0x00\n        /* \"contracts/advance/03-bocai.sol\":1676:1679  100 */\n      0x64\n        /* \"contracts/advance/03-bocai.sol\":1671:1673  90 */\n      0x5a\n        /* \"contracts/advance/03-bocai.sol\":1652:1668  totalSmallAmount */\n      sload(0x03)\n        /* \"contracts/advance/03-bocai.sol\":1636:1642  player */\n      dup5\n        /* \"contracts/advance/03-bocai.sol\":1636:1649  player.amount */\n      0x20\n      add\n      mload\n        /* \"contracts/advance/03-bocai.sol\":1619:1633  totalBigAmount */\n      sload(0x02)\n        /* \"contracts/advance/03-bocai.sol\":1619:1649  totalBigAmount * player.amount */\n      tag_87\n      swap2\n      swap1\n      tag_88\n      jump\t// in\n    tag_87:\n        /* \"contracts/advance/03-bocai.sol\":1619:1668  totalBigAmount * player.amount / totalSmallAmount */\n      tag_89\n      swap2\n      swap1\n      tag_90\n      jump\t// in\n    tag_89:\n        /* \"contracts/advance/03-bocai.sol\":1619:1673  totalBigAmount * player.amount / totalSmallAmount * 90 */\n      tag_91\n      swap2\n      swap1\n      tag_88\n      jump\t// in\n    tag_91:\n        /* \"contracts/advance/03-bocai.sol\":1619:1679  totalBigAmount * player.amount / totalSmallAmount * 90 / 100 */\n      tag_92\n      swap2\n      swap1\n      tag_90\n      jump\t// in\n    tag_92:\n        /* \"contracts/advance/03-bocai.sol\":1603:1609  player */\n      dup3\n        /* \"contracts/advance/03-bocai.sol\":1603:1616  player.amount */\n      0x20\n      add\n      mload\n        /* \"contracts/advance/03-bocai.sol\":1603:1679  player.amount + totalBigAmount * player.amount / totalSmallAmount * 90 / 100 */\n      tag_93\n      swap2\n      swap1\n      tag_52\n      jump\t// in\n    tag_93:\n        /* \"contracts/advance/03-bocai.sol\":1587:1679  uint256 bonus = player.amount + totalBigAmount * player.amount / totalSmallAmount * 90 / 100 */\n      swap1\n      pop\n        /* \"contracts/advance/03-bocai.sol\":1715:1721  player */\n      dup2\n        /* \"contracts/advance/03-bocai.sol\":1715:1726  player.addr */\n      0x00\n      add\n      mload\n        /* \"contracts/advance/03-bocai.sol\":1707:1736  payable(player.addr).transfer */\n      0xffffffffffffffffffffffffffffffffffffffff\n      and\n        /* \"contracts/advance/03-bocai.sol\":1707:1743  payable(player.addr).transfer(bonus) */\n      0x08fc\n        /* \"contracts/advance/03-bocai.sol\":1737:1742  bonus */\n      dup3\n        /* \"contracts/advance/03-bocai.sol\":1707:1743  payable(player.addr).transfer(bonus) */\n      swap1\n      dup2\n      iszero\n      mul\n      swap1\n      mload(0x40)\n      0x00\n      mload(0x40)\n      dup1\n      dup4\n      sub\n      dup2\n      dup6\n      dup9\n      dup9\n      call\n      swap4\n      pop\n      pop\n      pop\n      pop\n      iszero\n      dup1\n      iszero\n      tag_95\n      jumpi\n      returndatasize\n      0x00\n      dup1\n      returndatacopy\n      revert(0x00, returndatasize)\n    tag_95:\n      pop\n        /* \"contracts/advance/03-bocai.sol\":1519:1758  {... */\n      pop\n      pop\n        /* \"contracts/advance/03-bocai.sol\":1515:1518  i++ */\n      dup1\n      dup1\n      tag_96\n      swap1\n      tag_97\n      jump\t// in\n    tag_96:\n      swap2\n      pop\n      pop\n        /* \"contracts/advance/03-bocai.sol\":1477:1758  for(uint256 i = 0; i < smalls.length; i++){... */\n      jump(tag_80)\n    tag_81:\n      pop\n        /* \"contracts/advance/03-bocai.sol\":1779:1784  owner */\n      0x04\n      0x00\n      swap1\n      sload\n      swap1\n      0x0100\n      exp\n      swap1\n      div\n      0xffffffffffffffffffffffffffffffffffffffff\n      and\n        /* \"contracts/advance/03-bocai.sol\":1771:1794  payable(owner).transfer */\n      0xffffffffffffffffffffffffffffffffffffffff\n      and\n        /* \"contracts/advance/03-bocai.sol\":1771:1821  payable(owner).transfer(totalBigAmount * 10 / 100) */\n      0x08fc\n        /* \"contracts/advance/03-bocai.sol\":1817:1820  100 */\n      0x64\n        /* \"contracts/advance/03-bocai.sol\":1812:1814  10 */\n      0x0a\n        /* \"contracts/advance/03-bocai.sol\":1795:1809  totalBigAmount */\n      sload(0x02)\n        /* \"contracts/advance/03-bocai.sol\":1795:1814  totalBigAmount * 10 */\n      tag_98\n      swap2\n      swap1\n      tag_88\n      jump\t// in\n    tag_98:\n        /* \"contracts/advance/03-bocai.sol\":1795:1820  totalBigAmount * 10 / 100 */\n      tag_99\n      swap2\n      swap1\n      tag_90\n      jump\t// in\n    tag_99:\n        /* \"contracts/advance/03-bocai.sol\":1771:1821  payable(owner).transfer(totalBigAmount * 10 / 100) */\n      swap1\n      dup2\n      iszero\n      mul\n      swap1\n      mload(0x40)\n      0x00\n      mload(0x40)\n      dup1\n      dup4\n      sub\n      dup2\n      dup6\n      dup9\n      dup9\n      call\n      swap4\n      pop\n      pop\n      pop\n      pop\n      iszero\n      dup1\n      iszero\n      tag_101\n      jumpi\n      returndatasize\n      0x00\n      dup1\n      returndatacopy\n      revert(0x00, returndatasize)\n    tag_101:\n      pop\n        /* \"contracts/advance/03-bocai.sol\":1427:2222  if(random <= 8){... */\n      jump(tag_102)\n    tag_79:\n        /* \"contracts/advance/03-bocai.sol\":1873:1882  uint256 i */\n      0x00\n        /* \"contracts/advance/03-bocai.sol\":1869:2146  for(uint256 i = 0; i < bigs.length; i++){... */\n    tag_103:\n        /* \"contracts/advance/03-bocai.sol\":1892:1896  bigs */\n      0x00\n        /* \"contracts/advance/03-bocai.sol\":1892:1903  bigs.length */\n      dup1\n      sload\n      swap1\n      pop\n        /* \"contracts/advance/03-bocai.sol\":1888:1889  i */\n      dup2\n        /* \"contracts/advance/03-bocai.sol\":1888:1903  i < bigs.length */\n      lt\n        /* \"contracts/advance/03-bocai.sol\":1869:2146  for(uint256 i = 0; i < bigs.length; i++){... */\n      iszero\n      tag_104\n      jumpi\n        /* \"contracts/advance/03-bocai.sol\":1927:1947  Player memory player */\n      0x00\n        /* \"contracts/advance/03-bocai.sol\":1950:1954  bigs */\n      dup1\n        /* \"contracts/advance/03-bocai.sol\":1955:1956  i */\n      dup3\n        /* \"contracts/advance/03-bocai.sol\":1950:1957  bigs[i] */\n      dup2\n      sload\n      dup2\n      lt\n      tag_106\n      jumpi\n      tag_107\n      tag_85\n      jump\t// in\n    tag_107:\n    tag_106:\n      swap1\n      0x00\n      mstore\n      keccak256(0x00, 0x20)\n      swap1\n      0x02\n      mul\n      add\n        /* \"contracts/advance/03-bocai.sol\":1927:1957  Player memory player = bigs[i] */\n      mload(0x40)\n      dup1\n      0x40\n      add\n      0x40\n      mstore\n      swap1\n      dup2\n      0x00\n      dup3\n      add\n      0x00\n      swap1\n      sload\n      swap1\n      0x0100\n      exp\n      swap1\n      div\n      0xffffffffffffffffffffffffffffffffffffffff\n      and\n      0xffffffffffffffffffffffffffffffffffffffff\n      and\n      0xffffffffffffffffffffffffffffffffffffffff\n      and\n      dup2\n      mstore\n      0x20\n      add\n      0x01\n      dup3\n      add\n      sload\n      dup2\n      mstore\n      pop\n      pop\n      swap1\n      pop\n        /* \"contracts/advance/03-bocai.sol\":1975:1988  uint256 bonus */\n      0x00\n        /* \"contracts/advance/03-bocai.sol\":2064:2067  100 */\n      0x64\n        /* \"contracts/advance/03-bocai.sol\":2059:2061  90 */\n      0x5a\n        /* \"contracts/advance/03-bocai.sol\":2042:2056  totalBigAmount */\n      sload(0x02)\n        /* \"contracts/advance/03-bocai.sol\":2026:2032  player */\n      dup5\n        /* \"contracts/advance/03-bocai.sol\":2026:2039  player.amount */\n      0x20\n      add\n      mload\n        /* \"contracts/advance/03-bocai.sol\":2007:2023  totalSmallAmount */\n      sload(0x03)\n        /* \"contracts/advance/03-bocai.sol\":2007:2039  totalSmallAmount * player.amount */\n      tag_109\n      swap2\n      swap1\n      tag_88\n      jump\t// in\n    tag_109:\n        /* \"contracts/advance/03-bocai.sol\":2007:2056  totalSmallAmount * player.amount / totalBigAmount */\n      tag_110\n      swap2\n      swap1\n      tag_90\n      jump\t// in\n    tag_110:\n        /* \"contracts/advance/03-bocai.sol\":2007:2061  totalSmallAmount * player.amount / totalBigAmount * 90 */\n      tag_111\n      swap2\n      swap1\n      tag_88\n      jump\t// in\n    tag_111:\n        /* \"contracts/advance/03-bocai.sol\":2007:2067  totalSmallAmount * player.amount / totalBigAmount * 90 / 100 */\n      tag_112\n      swap2\n      swap1\n      tag_90\n      jump\t// in\n    tag_112:\n        /* \"contracts/advance/03-bocai.sol\":1991:1997  player */\n      dup3\n        /* \"contracts/advance/03-bocai.sol\":1991:2004  player.amount */\n      0x20\n      add\n      mload\n        /* \"contracts/advance/03-bocai.sol\":1991:2067  player.amount + totalSmallAmount * player.amount / totalBigAmount * 90 / 100 */\n      tag_113\n      swap2\n      swap1\n      tag_52\n      jump\t// in\n    tag_113:\n        /* \"contracts/advance/03-bocai.sol\":1975:2067  uint256 bonus = player.amount + totalSmallAmount * player.amount / totalBigAmount * 90 / 100 */\n      swap1\n      pop\n        /* \"contracts/advance/03-bocai.sol\":2103:2109  player */\n      dup2\n        /* \"contracts/advance/03-bocai.sol\":2103:2114  player.addr */\n      0x00\n      add\n      mload\n        /* \"contracts/advance/03-bocai.sol\":2095:2124  payable(player.addr).transfer */\n      0xffffffffffffffffffffffffffffffffffffffff\n      and\n        /* \"contracts/advance/03-bocai.sol\":2095:2131  payable(player.addr).transfer(bonus) */\n      0x08fc\n        /* \"contracts/advance/03-bocai.sol\":2125:2130  bonus */\n      dup3\n        /* \"contracts/advance/03-bocai.sol\":2095:2131  payable(player.addr).transfer(bonus) */\n      swap1\n      dup2\n      iszero\n      mul\n      swap1\n      mload(0x40)\n      0x00\n      mload(0x40)\n      dup1\n      dup4\n      sub\n      dup2\n      dup6\n      dup9\n      dup9\n      call\n      swap4\n      pop\n      pop\n      pop\n      pop\n      iszero\n      dup1\n      iszero\n      tag_115\n      jumpi\n      returndatasize\n      0x00\n      dup1\n      returndatacopy\n      revert(0x00, returndatasize)\n    tag_115:\n      pop\n        /* \"contracts/advance/03-bocai.sol\":1909:2146  {... */\n      pop\n      pop\n        /* \"contracts/advance/03-bocai.sol\":1905:1908  i++ */\n      dup1\n      dup1\n      tag_116\n      swap1\n      tag_97\n      jump\t// in\n    tag_116:\n      swap2\n      pop\n      pop\n        /* \"contracts/advance/03-bocai.sol\":1869:2146  for(uint256 i = 0; i < bigs.length; i++){... */\n      jump(tag_103)\n    tag_104:\n      pop\n        /* \"contracts/advance/03-bocai.sol\":2167:2172  owner */\n      0x04\n      0x00\n      swap1\n      sload\n      swap1\n      0x0100\n      exp\n      swap1\n      div\n      0xffffffffffffffffffffffffffffffffffffffff\n      and\n        /* \"contracts/advance/03-bocai.sol\":2159:2182  payable(owner).transfer */\n      0xffffffffffffffffffffffffffffffffffffffff\n      and\n        /* \"contracts/advance/03-bocai.sol\":2159:2211  payable(owner).transfer(totalSmallAmount * 10 / 100) */\n      0x08fc\n        /* \"contracts/advance/03-bocai.sol\":2207:2210  100 */\n      0x64\n        /* \"contracts/advance/03-bocai.sol\":2202:2204  10 */\n      0x0a\n        /* \"contracts/advance/03-bocai.sol\":2183:2199  totalSmallAmount */\n      sload(0x03)\n        /* \"contracts/advance/03-bocai.sol\":2183:2204  totalSmallAmount * 10 */\n      tag_117\n      swap2\n      swap1\n      tag_88\n      jump\t// in\n    tag_117:\n        /* \"contracts/advance/03-bocai.sol\":2183:2210  totalSmallAmount * 10 / 100 */\n      tag_118\n      swap2\n      swap1\n      tag_90\n      jump\t// in\n    tag_118:\n        /* \"contracts/advance/03-bocai.sol\":2159:2211  payable(owner).transfer(totalSmallAmount * 10 / 100) */\n      swap1\n      dup2\n      iszero\n      mul\n      swap1\n      mload(0x40)\n      0x00\n      mload(0x40)\n      dup1\n      dup4\n      sub\n      dup2\n      dup6\n      dup9\n      dup9\n      call\n      swap4\n      pop\n      pop\n      pop\n      pop\n      iszero\n      dup1\n      iszero\n      tag_120\n      jumpi\n      returndatasize\n      0x00\n      dup1\n      returndatacopy\n      revert(0x00, returndatasize)\n    tag_120:\n      pop\n        /* \"contracts/advance/03-bocai.sol\":1427:2222  if(random <= 8){... */\n    tag_102:\n        /* \"contracts/advance/03-bocai.sol\":1170:2228  {... */\n      pop\n        /* \"contracts/advance/03-bocai.sol\":1139:2228  function open() public payable {... */\n      jump\t// out\n        /* \"#utility.yul\":7:84   */\n    tag_121:\n        /* \"#utility.yul\":44:51   */\n      0x00\n        /* \"#utility.yul\":73:78   */\n      dup2\n        /* \"#utility.yul\":62:78   */\n      swap1\n      pop\n        /* \"#utility.yul\":7:84   */\n      swap2\n      swap1\n      pop\n      jump\t// out\n        /* \"#utility.yul\":90:208   */\n    tag_122:\n        /* \"#utility.yul\":177:201   */\n      tag_145\n        /* \"#utility.yul\":195:200   */\n      dup2\n        /* \"#utility.yul\":177:201   */\n      tag_121\n      jump\t// in\n    tag_145:\n        /* \"#utility.yul\":172:175   */\n      dup3\n        /* \"#utility.yul\":165:202   */\n      mstore\n        /* \"#utility.yul\":90:208   */\n      pop\n      pop\n      jump\t// out\n        /* \"#utility.yul\":214:436   */\n    tag_16:\n        /* \"#utility.yul\":307:311   */\n      0x00\n        /* \"#utility.yul\":345:347   */\n      0x20\n        /* \"#utility.yul\":334:343   */\n      dup3\n        /* \"#utility.yul\":330:348   */\n      add\n        /* \"#utility.yul\":322:348   */\n      swap1\n      pop\n        /* \"#utility.yul\":358:429   */\n      tag_147\n        /* \"#utility.yul\":426:427   */\n      0x00\n        /* \"#utility.yul\":415:424   */\n      dup4\n        /* \"#utility.yul\":411:428   */\n      add\n        /* \"#utility.yul\":402:408   */\n      dup5\n        /* \"#utility.yul\":358:429   */\n      tag_122\n      jump\t// in\n    tag_147:\n        /* \"#utility.yul\":214:436   */\n      swap3\n      swap2\n      pop\n      pop\n      jump\t// out\n        /* \"#utility.yul\":442:774   */\n    tag_21:\n        /* \"#utility.yul\":563:567   */\n      0x00\n        /* \"#utility.yul\":601:603   */\n      0x40\n        /* \"#utility.yul\":590:599   */\n      dup3\n        /* \"#utility.yul\":586:604   */\n      add\n        /* \"#utility.yul\":578:604   */\n      swap1\n      pop\n        /* \"#utility.yul\":614:685   */\n      tag_149\n        /* \"#utility.yul\":682:683   */\n      0x00\n        /* \"#utility.yul\":671:680   */\n      dup4\n        /* \"#utility.yul\":667:684   */\n      add\n        /* \"#utility.yul\":658:664   */\n      dup6\n        /* \"#utility.yul\":614:685   */\n      tag_122\n      jump\t// in\n    tag_149:\n        /* \"#utility.yul\":695:767   */\n      tag_150\n        /* \"#utility.yul\":763:765   */\n      0x20\n        /* \"#utility.yul\":752:761   */\n      dup4\n        /* \"#utility.yul\":748:766   */\n      add\n        /* \"#utility.yul\":739:745   */\n      dup5\n        /* \"#utility.yul\":695:767   */\n      tag_122\n      jump\t// in\n    tag_150:\n        /* \"#utility.yul\":442:774   */\n      swap4\n      swap3\n      pop\n      pop\n      pop\n      jump\t// out\n        /* \"#utility.yul\":861:978   */\n    tag_124:\n        /* \"#utility.yul\":970:971   */\n      0x00\n        /* \"#utility.yul\":967:968   */\n      dup1\n        /* \"#utility.yul\":960:972   */\n      revert\n        /* \"#utility.yul\":1107:1197   */\n    tag_126:\n        /* \"#utility.yul\":1141:1148   */\n      0x00\n        /* \"#utility.yul\":1184:1189   */\n      dup2\n        /* \"#utility.yul\":1177:1190   */\n      iszero\n        /* \"#utility.yul\":1170:1191   */\n      iszero\n        /* \"#utility.yul\":1159:1191   */\n      swap1\n      pop\n        /* \"#utility.yul\":1107:1197   */\n      swap2\n      swap1\n      pop\n      jump\t// out\n        /* \"#utility.yul\":1203:1319   */\n    tag_127:\n        /* \"#utility.yul\":1273:1294   */\n      tag_156\n        /* \"#utility.yul\":1288:1293   */\n      dup2\n        /* \"#utility.yul\":1273:1294   */\n      tag_126\n      jump\t// in\n    tag_156:\n        /* \"#utility.yul\":1266:1271   */\n      dup2\n        /* \"#utility.yul\":1263:1295   */\n      eq\n        /* \"#utility.yul\":1253:1313   */\n      tag_157\n      jumpi\n        /* \"#utility.yul\":1309:1310   */\n      0x00\n        /* \"#utility.yul\":1306:1307   */\n      dup1\n        /* \"#utility.yul\":1299:1311   */\n      revert\n        /* \"#utility.yul\":1253:1313   */\n    tag_157:\n        /* \"#utility.yul\":1203:1319   */\n      pop\n      jump\t// out\n        /* \"#utility.yul\":1325:1458   */\n    tag_128:\n        /* \"#utility.yul\":1368:1373   */\n      0x00\n        /* \"#utility.yul\":1406:1412   */\n      dup2\n        /* \"#utility.yul\":1393:1413   */\n      calldataload\n        /* \"#utility.yul\":1384:1413   */\n      swap1\n      pop\n        /* \"#utility.yul\":1422:1452   */\n      tag_159\n        /* \"#utility.yul\":1446:1451   */\n      dup2\n        /* \"#utility.yul\":1422:1452   */\n      tag_127\n      jump\t// in\n    tag_159:\n        /* \"#utility.yul\":1325:1458   */\n      swap3\n      swap2\n      pop\n      pop\n      jump\t// out\n        /* \"#utility.yul\":1464:1787   */\n    tag_28:\n        /* \"#utility.yul\":1520:1526   */\n      0x00\n        /* \"#utility.yul\":1569:1571   */\n      0x20\n        /* \"#utility.yul\":1557:1566   */\n      dup3\n        /* \"#utility.yul\":1548:1555   */\n      dup5\n        /* \"#utility.yul\":1544:1567   */\n      sub\n        /* \"#utility.yul\":1540:1572   */\n      slt\n        /* \"#utility.yul\":1537:1656   */\n      iszero\n      tag_161\n      jumpi\n        /* \"#utility.yul\":1575:1654   */\n      tag_162\n      tag_124\n      jump\t// in\n    tag_162:\n        /* \"#utility.yul\":1537:1656   */\n    tag_161:\n        /* \"#utility.yul\":1695:1696   */\n      0x00\n        /* \"#utility.yul\":1720:1770   */\n      tag_163\n        /* \"#utility.yul\":1762:1769   */\n      dup5\n        /* \"#utility.yul\":1753:1759   */\n      dup3\n        /* \"#utility.yul\":1742:1751   */\n      dup6\n        /* \"#utility.yul\":1738:1760   */\n      add\n        /* \"#utility.yul\":1720:1770   */\n      tag_128\n      jump\t// in\n    tag_163:\n        /* \"#utility.yul\":1710:1770   */\n      swap2\n      pop\n        /* \"#utility.yul\":1666:1780   */\n      pop\n        /* \"#utility.yul\":1464:1787   */\n      swap3\n      swap2\n      pop\n      pop\n      jump\t// out\n        /* \"#utility.yul\":1793:1902   */\n    tag_129:\n        /* \"#utility.yul\":1874:1895   */\n      tag_165\n        /* \"#utility.yul\":1889:1894   */\n      dup2\n        /* \"#utility.yul\":1874:1895   */\n      tag_126\n      jump\t// in\n    tag_165:\n        /* \"#utility.yul\":1869:1872   */\n      dup3\n        /* \"#utility.yul\":1862:1896   */\n      mstore\n        /* \"#utility.yul\":1793:1902   */\n      pop\n      pop\n      jump\t// out\n        /* \"#utility.yul\":1908:2118   */\n    tag_34:\n        /* \"#utility.yul\":1995:1999   */\n      0x00\n        /* \"#utility.yul\":2033:2035   */\n      0x20\n        /* \"#utility.yul\":2022:2031   */\n      dup3\n        /* \"#utility.yul\":2018:2036   */\n      add\n        /* \"#utility.yul\":2010:2036   */\n      swap1\n      pop\n        /* \"#utility.yul\":2046:2111   */\n      tag_167\n        /* \"#utility.yul\":2108:2109   */\n      0x00\n        /* \"#utility.yul\":2097:2106   */\n      dup4\n        /* \"#utility.yul\":2093:2110   */\n      add\n        /* \"#utility.yul\":2084:2090   */\n      dup5\n        /* \"#utility.yul\":2046:2111   */\n      tag_129\n      jump\t// in\n    tag_167:\n        /* \"#utility.yul\":1908:2118   */\n      swap3\n      swap2\n      pop\n      pop\n      jump\t// out\n        /* \"#utility.yul\":2124:2250   */\n    tag_130:\n        /* \"#utility.yul\":2161:2168   */\n      0x00\n        /* \"#utility.yul\":2201:2243   */\n      0xffffffffffffffffffffffffffffffffffffffff\n        /* \"#utility.yul\":2194:2199   */\n      dup3\n        /* \"#utility.yul\":2190:2244   */\n      and\n        /* \"#utility.yul\":2179:2244   */\n      swap1\n      pop\n        /* \"#utility.yul\":2124:2250   */\n      swap2\n      swap1\n      pop\n      jump\t// out\n        /* \"#utility.yul\":2256:2352   */\n    tag_131:\n        /* \"#utility.yul\":2293:2300   */\n      0x00\n        /* \"#utility.yul\":2322:2346   */\n      tag_170\n        /* \"#utility.yul\":2340:2345   */\n      dup3\n        /* \"#utility.yul\":2322:2346   */\n      tag_130\n      jump\t// in\n    tag_170:\n        /* \"#utility.yul\":2311:2346   */\n      swap1\n      pop\n        /* \"#utility.yul\":2256:2352   */\n      swap2\n      swap1\n      pop\n      jump\t// out\n        /* \"#utility.yul\":2358:2476   */\n    tag_132:\n        /* \"#utility.yul\":2445:2469   */\n      tag_172\n        /* \"#utility.yul\":2463:2468   */\n      dup2\n        /* \"#utility.yul\":2445:2469   */\n      tag_131\n      jump\t// in\n    tag_172:\n        /* \"#utility.yul\":2440:2443   */\n      dup3\n        /* \"#utility.yul\":2433:2470   */\n      mstore\n        /* \"#utility.yul\":2358:2476   */\n      pop\n      pop\n      jump\t// out\n        /* \"#utility.yul\":2482:2704   */\n    tag_39:\n        /* \"#utility.yul\":2575:2579   */\n      0x00\n        /* \"#utility.yul\":2613:2615   */\n      0x20\n        /* \"#utility.yul\":2602:2611   */\n      dup3\n        /* \"#utility.yul\":2598:2616   */\n      add\n        /* \"#utility.yul\":2590:2616   */\n      swap1\n      pop\n        /* \"#utility.yul\":2626:2697   */\n      tag_174\n        /* \"#utility.yul\":2694:2695   */\n      0x00\n        /* \"#utility.yul\":2683:2692   */\n      dup4\n        /* \"#utility.yul\":2679:2696   */\n      add\n        /* \"#utility.yul\":2670:2676   */\n      dup5\n        /* \"#utility.yul\":2626:2697   */\n      tag_132\n      jump\t// in\n    tag_174:\n        /* \"#utility.yul\":2482:2704   */\n      swap3\n      swap2\n      pop\n      pop\n      jump\t// out\n        /* \"#utility.yul\":2710:2890   */\n    tag_133:\n        /* \"#utility.yul\":2758:2835   */\n      0x4e487b7100000000000000000000000000000000000000000000000000000000\n        /* \"#utility.yul\":2755:2756   */\n      0x00\n        /* \"#utility.yul\":2748:2836   */\n      mstore\n        /* \"#utility.yul\":2855:2859   */\n      0x11\n        /* \"#utility.yul\":2852:2853   */\n      0x04\n        /* \"#utility.yul\":2845:2860   */\n      mstore\n        /* \"#utility.yul\":2879:2883   */\n      0x24\n        /* \"#utility.yul\":2876:2877   */\n      0x00\n        /* \"#utility.yul\":2869:2884   */\n      revert\n        /* \"#utility.yul\":2896:3087   */\n    tag_52:\n        /* \"#utility.yul\":2936:2939   */\n      0x00\n        /* \"#utility.yul\":2955:2975   */\n      tag_177\n        /* \"#utility.yul\":2973:2974   */\n      dup3\n        /* \"#utility.yul\":2955:2975   */\n      tag_121\n      jump\t// in\n    tag_177:\n        /* \"#utility.yul\":2950:2975   */\n      swap2\n      pop\n        /* \"#utility.yul\":2989:3009   */\n      tag_178\n        /* \"#utility.yul\":3007:3008   */\n      dup4\n        /* \"#utility.yul\":2989:3009   */\n      tag_121\n      jump\t// in\n    tag_178:\n        /* \"#utility.yul\":2984:3009   */\n      swap3\n      pop\n        /* \"#utility.yul\":3032:3033   */\n      dup3\n        /* \"#utility.yul\":3029:3030   */\n      dup3\n        /* \"#utility.yul\":3025:3034   */\n      add\n        /* \"#utility.yul\":3018:3034   */\n      swap1\n      pop\n        /* \"#utility.yul\":3053:3056   */\n      dup1\n        /* \"#utility.yul\":3050:3051   */\n      dup3\n        /* \"#utility.yul\":3047:3057   */\n      gt\n        /* \"#utility.yul\":3044:3080   */\n      iszero\n      tag_179\n      jumpi\n        /* \"#utility.yul\":3060:3078   */\n      tag_180\n      tag_133\n      jump\t// in\n    tag_180:\n        /* \"#utility.yul\":3044:3080   */\n    tag_179:\n        /* \"#utility.yul\":2896:3087   */\n      swap3\n      swap2\n      pop\n      pop\n      jump\t// out\n        /* \"#utility.yul\":3093:3262   */\n    tag_134:\n        /* \"#utility.yul\":3177:3188   */\n      0x00\n        /* \"#utility.yul\":3211:3217   */\n      dup3\n        /* \"#utility.yul\":3206:3209   */\n      dup3\n        /* \"#utility.yul\":3199:3218   */\n      mstore\n        /* \"#utility.yul\":3251:3255   */\n      0x20\n        /* \"#utility.yul\":3246:3249   */\n      dup3\n        /* \"#utility.yul\":3242:3256   */\n      add\n        /* \"#utility.yul\":3227:3256   */\n      swap1\n      pop\n        /* \"#utility.yul\":3093:3262   */\n      swap3\n      swap2\n      pop\n      pop\n      jump\t// out\n        /* \"#utility.yul\":3268:3434   */\n    tag_135:\n        /* \"#utility.yul\":3408:3426   */\n      0x47616d652069732066696e697368656400000000000000000000000000000000\n        /* \"#utility.yul\":3404:3405   */\n      0x00\n        /* \"#utility.yul\":3396:3402   */\n      dup3\n        /* \"#utility.yul\":3392:3406   */\n      add\n        /* \"#utility.yul\":3385:3427   */\n      mstore\n        /* \"#utility.yul\":3268:3434   */\n      pop\n      jump\t// out\n        /* \"#utility.yul\":3440:3806   */\n    tag_136:\n        /* \"#utility.yul\":3582:3585   */\n      0x00\n        /* \"#utility.yul\":3603:3670   */\n      tag_184\n        /* \"#utility.yul\":3667:3669   */\n      0x10\n        /* \"#utility.yul\":3662:3665   */\n      dup4\n        /* \"#utility.yul\":3603:3670   */\n      tag_134\n      jump\t// in\n    tag_184:\n        /* \"#utility.yul\":3596:3670   */\n      swap2\n      pop\n        /* \"#utility.yul\":3679:3772   */\n      tag_185\n        /* \"#utility.yul\":3768:3771   */\n      dup3\n        /* \"#utility.yul\":3679:3772   */\n      tag_135\n      jump\t// in\n    tag_185:\n        /* \"#utility.yul\":3797:3799   */\n      0x20\n        /* \"#utility.yul\":3792:3795   */\n      dup3\n        /* \"#utility.yul\":3788:3800   */\n      add\n        /* \"#utility.yul\":3781:3800   */\n      swap1\n      pop\n        /* \"#utility.yul\":3440:3806   */\n      swap2\n      swap1\n      pop\n      jump\t// out\n        /* \"#utility.yul\":3812:4231   */\n    tag_56:\n        /* \"#utility.yul\":3978:3982   */\n      0x00\n        /* \"#utility.yul\":4016:4018   */\n      0x20\n        /* \"#utility.yul\":4005:4014   */\n      dup3\n        /* \"#utility.yul\":4001:4019   */\n      add\n        /* \"#utility.yul\":3993:4019   */\n      swap1\n      pop\n        /* \"#utility.yul\":4065:4074   */\n      dup2\n        /* \"#utility.yul\":4059:4063   */\n      dup2\n        /* \"#utility.yul\":4055:4075   */\n      sub\n        /* \"#utility.yul\":4051:4052   */\n      0x00\n        /* \"#utility.yul\":4040:4049   */\n      dup4\n        /* \"#utility.yul\":4036:4053   */\n      add\n        /* \"#utility.yul\":4029:4076   */\n      mstore\n        /* \"#utility.yul\":4093:4224   */\n      tag_187\n        /* \"#utility.yul\":4219:4223   */\n      dup2\n        /* \"#utility.yul\":4093:4224   */\n      tag_136\n      jump\t// in\n    tag_187:\n        /* \"#utility.yul\":4085:4224   */\n      swap1\n      pop\n        /* \"#utility.yul\":3812:4231   */\n      swap2\n      swap1\n      pop\n      jump\t// out\n        /* \"#utility.yul\":4237:4410   */\n    tag_137:\n        /* \"#utility.yul\":4377:4402   */\n      0x426574277320616d6f756e74206d757374203e206d696e000000000000000000\n        /* \"#utility.yul\":4373:4374   */\n      0x00\n        /* \"#utility.yul\":4365:4371   */\n      dup3\n        /* \"#utility.yul\":4361:4375   */\n      add\n        /* \"#utility.yul\":4354:4403   */\n      mstore\n        /* \"#utility.yul\":4237:4410   */\n      pop\n      jump\t// out\n        /* \"#utility.yul\":4416:4782   */\n    tag_138:\n        /* \"#utility.yul\":4558:4561   */\n      0x00\n        /* \"#utility.yul\":4579:4646   */\n      tag_190\n        /* \"#utility.yul\":4643:4645   */\n      0x17\n        /* \"#utility.yul\":4638:4641   */\n      dup4\n        /* \"#utility.yul\":4579:4646   */\n      tag_134\n      jump\t// in\n    tag_190:\n        /* \"#utility.yul\":4572:4646   */\n      swap2\n      pop\n        /* \"#utility.yul\":4655:4748   */\n      tag_191\n        /* \"#utility.yul\":4744:4747   */\n      dup3\n        /* \"#utility.yul\":4655:4748   */\n      tag_137\n      jump\t// in\n    tag_191:\n        /* \"#utility.yul\":4773:4775   */\n      0x20\n        /* \"#utility.yul\":4768:4771   */\n      dup3\n        /* \"#utility.yul\":4764:4776   */\n      add\n        /* \"#utility.yul\":4757:4776   */\n      swap1\n      pop\n        /* \"#utility.yul\":4416:4782   */\n      swap2\n      swap1\n      pop\n      jump\t// out\n        /* \"#utility.yul\":4788:5207   */\n    tag_59:\n        /* \"#utility.yul\":4954:4958   */\n      0x00\n        /* \"#utility.yul\":4992:4994   */\n      0x20\n        /* \"#utility.yul\":4981:4990   */\n      dup3\n        /* \"#utility.yul\":4977:4995   */\n      add\n        /* \"#utility.yul\":4969:4995   */\n      swap1\n      pop\n        /* \"#utility.yul\":5041:5050   */\n      dup2\n        /* \"#utility.yul\":5035:5039   */\n      dup2\n        /* \"#utility.yul\":5031:5051   */\n      sub\n        /* \"#utility.yul\":5027:5028   */\n      0x00\n        /* \"#utility.yul\":5016:5025   */\n      dup4\n        /* \"#utility.yul\":5012:5029   */\n      add\n        /* \"#utility.yul\":5005:5052   */\n      mstore\n        /* \"#utility.yul\":5069:5200   */\n      tag_193\n        /* \"#utility.yul\":5195:5199   */\n      dup2\n        /* \"#utility.yul\":5069:5200   */\n      tag_138\n      jump\t// in\n    tag_193:\n        /* \"#utility.yul\":5061:5200   */\n      swap1\n      pop\n        /* \"#utility.yul\":4788:5207   */\n      swap2\n      swap1\n      pop\n      jump\t// out\n        /* \"#utility.yul\":5213:5373   */\n    tag_139:\n        /* \"#utility.yul\":5353:5365   */\n      0x4f7665722054696d652100000000000000000000000000000000000000000000\n        /* \"#utility.yul\":5349:5350   */\n      0x00\n        /* \"#utility.yul\":5341:5347   */\n      dup3\n        /* \"#utility.yul\":5337:5351   */\n      add\n        /* \"#utility.yul\":5330:5366   */\n      mstore\n        /* \"#utility.yul\":5213:5373   */\n      pop\n      jump\t// out\n        /* \"#utility.yul\":5379:5745   */\n    tag_140:\n        /* \"#utility.yul\":5521:5524   */\n      0x00\n        /* \"#utility.yul\":5542:5609   */\n      tag_196\n        /* \"#utility.yul\":5606:5608   */\n      0x0a\n        /* \"#utility.yul\":5601:5604   */\n      dup4\n        /* \"#utility.yul\":5542:5609   */\n      tag_134\n      jump\t// in\n    tag_196:\n        /* \"#utility.yul\":5535:5609   */\n      swap2\n      pop\n        /* \"#utility.yul\":5618:5711   */\n      tag_197\n        /* \"#utility.yul\":5707:5710   */\n      dup3\n        /* \"#utility.yul\":5618:5711   */\n      tag_139\n      jump\t// in\n    tag_197:\n        /* \"#utility.yul\":5736:5738   */\n      0x20\n        /* \"#utility.yul\":5731:5734   */\n      dup3\n        /* \"#utility.yul\":5727:5739   */\n      add\n        /* \"#utility.yul\":5720:5739   */\n      swap1\n      pop\n        /* \"#utility.yul\":5379:5745   */\n      swap2\n      swap1\n      pop\n      jump\t// out\n        /* \"#utility.yul\":5751:6170   */\n    tag_62:\n        /* \"#utility.yul\":5917:5921   */\n      0x00\n        /* \"#utility.yul\":5955:5957   */\n      0x20\n        /* \"#utility.yul\":5944:5953   */\n      dup3\n        /* \"#utility.yul\":5940:5958   */\n      add\n        /* \"#utility.yul\":5932:5958   */\n      swap1\n      pop\n        /* \"#utility.yul\":6004:6013   */\n      dup2\n        /* \"#utility.yul\":5998:6002   */\n      dup2\n        /* \"#utility.yul\":5994:6014   */\n      sub\n        /* \"#utility.yul\":5990:5991   */\n      0x00\n        /* \"#utility.yul\":5979:5988   */\n      dup4\n        /* \"#utility.yul\":5975:5992   */\n      add\n        /* \"#utility.yul\":5968:6015   */\n      mstore\n        /* \"#utility.yul\":6032:6163   */\n      tag_199\n        /* \"#utility.yul\":6158:6162   */\n      dup2\n        /* \"#utility.yul\":6032:6163   */\n      tag_140\n      jump\t// in\n    tag_199:\n        /* \"#utility.yul\":6024:6163   */\n      swap1\n      pop\n        /* \"#utility.yul\":5751:6170   */\n      swap2\n      swap1\n      pop\n      jump\t// out\n        /* \"#utility.yul\":6176:6618   */\n    tag_76:\n        /* \"#utility.yul\":6325:6329   */\n      0x00\n        /* \"#utility.yul\":6363:6365   */\n      0x60\n        /* \"#utility.yul\":6352:6361   */\n      dup3\n        /* \"#utility.yul\":6348:6366   */\n      add\n        /* \"#utility.yul\":6340:6366   */\n      swap1\n      pop\n        /* \"#utility.yul\":6376:6447   */\n      tag_201\n        /* \"#utility.yul\":6444:6445   */\n      0x00\n        /* \"#utility.yul\":6433:6442   */\n      dup4\n        /* \"#utility.yul\":6429:6446   */\n      add\n        /* \"#utility.yul\":6420:6426   */\n      dup7\n        /* \"#utility.yul\":6376:6447   */\n      tag_122\n      jump\t// in\n    tag_201:\n        /* \"#utility.yul\":6457:6529   */\n      tag_202\n        /* \"#utility.yul\":6525:6527   */\n      0x20\n        /* \"#utility.yul\":6514:6523   */\n      dup4\n        /* \"#utility.yul\":6510:6528   */\n      add\n        /* \"#utility.yul\":6501:6507   */\n      dup6\n        /* \"#utility.yul\":6457:6529   */\n      tag_132\n      jump\t// in\n    tag_202:\n        /* \"#utility.yul\":6539:6611   */\n      tag_203\n        /* \"#utility.yul\":6607:6609   */\n      0x40\n        /* \"#utility.yul\":6596:6605   */\n      dup4\n        /* \"#utility.yul\":6592:6610   */\n      add\n        /* \"#utility.yul\":6583:6589   */\n      dup5\n        /* \"#utility.yul\":6539:6611   */\n      tag_132\n      jump\t// in\n    tag_203:\n        /* \"#utility.yul\":6176:6618   */\n      swap5\n      swap4\n      pop\n      pop\n      pop\n      pop\n      jump\t// out\n        /* \"#utility.yul\":6624:6804   */\n    tag_141:\n        /* \"#utility.yul\":6672:6749   */\n      0x4e487b7100000000000000000000000000000000000000000000000000000000\n        /* \"#utility.yul\":6669:6670   */\n      0x00\n        /* \"#utility.yul\":6662:6750   */\n      mstore\n        /* \"#utility.yul\":6769:6773   */\n      0x12\n        /* \"#utility.yul\":6766:6767   */\n      0x04\n        /* \"#utility.yul\":6759:6774   */\n      mstore\n        /* \"#utility.yul\":6793:6797   */\n      0x24\n        /* \"#utility.yul\":6790:6791   */\n      0x00\n        /* \"#utility.yul\":6783:6798   */\n      revert\n        /* \"#utility.yul\":6810:6986   */\n    tag_78:\n        /* \"#utility.yul\":6842:6843   */\n      0x00\n        /* \"#utility.yul\":6859:6879   */\n      tag_206\n        /* \"#utility.yul\":6877:6878   */\n      dup3\n        /* \"#utility.yul\":6859:6879   */\n      tag_121\n      jump\t// in\n    tag_206:\n        /* \"#utility.yul\":6854:6879   */\n      swap2\n      pop\n        /* \"#utility.yul\":6893:6913   */\n      tag_207\n        /* \"#utility.yul\":6911:6912   */\n      dup4\n        /* \"#utility.yul\":6893:6913   */\n      tag_121\n      jump\t// in\n    tag_207:\n        /* \"#utility.yul\":6888:6913   */\n      swap3\n      pop\n        /* \"#utility.yul\":6932:6933   */\n      dup3\n        /* \"#utility.yul\":6922:6957   */\n      tag_208\n      jumpi\n        /* \"#utility.yul\":6937:6955   */\n      tag_209\n      tag_141\n      jump\t// in\n    tag_209:\n        /* \"#utility.yul\":6922:6957   */\n    tag_208:\n        /* \"#utility.yul\":6978:6979   */\n      dup3\n        /* \"#utility.yul\":6975:6976   */\n      dup3\n        /* \"#utility.yul\":6971:6980   */\n      mod\n        /* \"#utility.yul\":6966:6980   */\n      swap1\n      pop\n        /* \"#utility.yul\":6810:6986   */\n      swap3\n      swap2\n      pop\n      pop\n      jump\t// out\n        /* \"#utility.yul\":6992:7172   */\n    tag_85:\n        /* \"#utility.yul\":7040:7117   */\n      0x4e487b7100000000000000000000000000000000000000000000000000000000\n        /* \"#utility.yul\":7037:7038   */\n      0x00\n        /* \"#utility.yul\":7030:7118   */\n      mstore\n        /* \"#utility.yul\":7137:7141   */\n      0x32\n        /* \"#utility.yul\":7134:7135   */\n      0x04\n        /* \"#utility.yul\":7127:7142   */\n      mstore\n        /* \"#utility.yul\":7161:7165   */\n      0x24\n        /* \"#utility.yul\":7158:7159   */\n      0x00\n        /* \"#utility.yul\":7151:7166   */\n      revert\n        /* \"#utility.yul\":7178:7588   */\n    tag_88:\n        /* \"#utility.yul\":7218:7225   */\n      0x00\n        /* \"#utility.yul\":7241:7261   */\n      tag_212\n        /* \"#utility.yul\":7259:7260   */\n      dup3\n        /* \"#utility.yul\":7241:7261   */\n      tag_121\n      jump\t// in\n    tag_212:\n        /* \"#utility.yul\":7236:7261   */\n      swap2\n      pop\n        /* \"#utility.yul\":7275:7295   */\n      tag_213\n        /* \"#utility.yul\":7293:7294   */\n      dup4\n        /* \"#utility.yul\":7275:7295   */\n      tag_121\n      jump\t// in\n    tag_213:\n        /* \"#utility.yul\":7270:7295   */\n      swap3\n      pop\n        /* \"#utility.yul\":7330:7331   */\n      dup3\n        /* \"#utility.yul\":7327:7328   */\n      dup3\n        /* \"#utility.yul\":7323:7332   */\n      mul\n        /* \"#utility.yul\":7352:7382   */\n      tag_214\n        /* \"#utility.yul\":7370:7381   */\n      dup2\n        /* \"#utility.yul\":7352:7382   */\n      tag_121\n      jump\t// in\n    tag_214:\n        /* \"#utility.yul\":7341:7382   */\n      swap2\n      pop\n        /* \"#utility.yul\":7531:7532   */\n      dup3\n        /* \"#utility.yul\":7522:7529   */\n      dup3\n        /* \"#utility.yul\":7518:7533   */\n      div\n        /* \"#utility.yul\":7515:7516   */\n      dup5\n        /* \"#utility.yul\":7512:7534   */\n      eq\n        /* \"#utility.yul\":7492:7493   */\n      dup4\n        /* \"#utility.yul\":7485:7494   */\n      iszero\n        /* \"#utility.yul\":7465:7548   */\n      or\n        /* \"#utility.yul\":7442:7581   */\n      tag_215\n      jumpi\n        /* \"#utility.yul\":7561:7579   */\n      tag_216\n      tag_133\n      jump\t// in\n    tag_216:\n        /* \"#utility.yul\":7442:7581   */\n    tag_215:\n        /* \"#utility.yul\":7226:7588   */\n      pop\n        /* \"#utility.yul\":7178:7588   */\n      swap3\n      swap2\n      pop\n      pop\n      jump\t// out\n        /* \"#utility.yul\":7594:7779   */\n    tag_90:\n        /* \"#utility.yul\":7634:7635   */\n      0x00\n        /* \"#utility.yul\":7651:7671   */\n      tag_218\n        /* \"#utility.yul\":7669:7670   */\n      dup3\n        /* \"#utility.yul\":7651:7671   */\n      tag_121\n      jump\t// in\n    tag_218:\n        /* \"#utility.yul\":7646:7671   */\n      swap2\n      pop\n        /* \"#utility.yul\":7685:7705   */\n      tag_219\n        /* \"#utility.yul\":7703:7704   */\n      dup4\n        /* \"#utility.yul\":7685:7705   */\n      tag_121\n      jump\t// in\n    tag_219:\n        /* \"#utility.yul\":7680:7705   */\n      swap3\n      pop\n        /* \"#utility.yul\":7724:7725   */\n      dup3\n        /* \"#utility.yul\":7714:7749   */\n      tag_220\n      jumpi\n        /* \"#utility.yul\":7729:7747   */\n      tag_221\n      tag_141\n      jump\t// in\n    tag_221:\n        /* \"#utility.yul\":7714:7749   */\n    tag_220:\n        /* \"#utility.yul\":7771:7772   */\n      dup3\n        /* \"#utility.yul\":7768:7769   */\n      dup3\n        /* \"#utility.yul\":7764:7773   */\n      div\n        /* \"#utility.yul\":7759:7773   */\n      swap1\n      pop\n        /* \"#utility.yul\":7594:7779   */\n      swap3\n      swap2\n      pop\n      pop\n      jump\t// out\n        /* \"#utility.yul\":7785:8018   */\n    tag_97:\n        /* \"#utility.yul\":7824:7827   */\n      0x00\n        /* \"#utility.yul\":7847:7871   */\n      tag_223\n        /* \"#utility.yul\":7865:7870   */\n      dup3\n        /* \"#utility.yul\":7847:7871   */\n      tag_121\n      jump\t// in\n    tag_223:\n        /* \"#utility.yul\":7838:7871   */\n      swap2\n      pop\n        /* \"#utility.yul\":7893:7959   */\n      0xffffffffffffffffffffffffffffffffffffffffffffffffffffffffffffffff\n        /* \"#utility.yul\":7886:7891   */\n      dup3\n        /* \"#utility.yul\":7883:7960   */\n      sub\n        /* \"#utility.yul\":7880:7983   */\n      tag_224\n      jumpi\n        /* \"#utility.yul\":7963:7981   */\n      tag_225\n      tag_133\n      jump\t// in\n    tag_225:\n        /* \"#utility.yul\":7880:7983   */\n    tag_224:\n        /* \"#utility.yul\":8010:8011   */\n      0x01\n        /* \"#utility.yul\":8003:8008   */\n      dup3\n        /* \"#utility.yul\":7999:8012   */\n      add\n        /* \"#utility.yul\":7992:8012   */\n      swap1\n      pop\n        /* \"#utility.yul\":7785:8018   */\n      swap2\n      swap1\n      pop\n      jump\t// out\n\n    auxdata: 0xa2646970667358221220dcf05a7d28901d4a8a295ce68019492e75e4a422eeb8f28edd587afde7da4adb64736f6c63430008120033\n}\n",
				"bytecode": {
					"linkReferences": {},
					"object": "60806040523480156200001157600080fd5b5060405162000f9738038062000f978339818101604052810190620000379190620000f7565b33600460006101000a81548173ffffffffffffffffffffffffffffffffffffffff021916908373ffffffffffffffffffffffffffffffffffffffff1602179055506000600460146101000a81548160ff021916908315150217905550806005819055506104b042620000aa919062000158565b6006819055505062000193565b600080fd5b6000819050919050565b620000d181620000bc565b8114620000dd57600080fd5b50565b600081519050620000f181620000c6565b92915050565b60006020828403121562000110576200010f620000b7565b5b60006200012084828501620000e0565b91505092915050565b7f4e487b7100000000000000000000000000000000000000000000000000000000600052601160045260246000fd5b60006200016582620000bc565b91506200017283620000bc565b92508282019050808211156200018d576200018c62000129565b5b92915050565b610df480620001a36000396000f3fe6080604052600436106100865760003560e01c80637b352962116100595780637b352962146101295780638da5cb5b14610154578063bbe4fd501461017f578063f33d6b86146101aa578063fcfff16f146101d557610086565b80630d8a0df61461008b57806312065fe0146100b65780633197cbb6146100e2578063523afb0d1461010d575b600080fd5b34801561009757600080fd5b506100a06101df565b6040516100ad9190610951565b60405180910390f35b3480156100c257600080fd5b506100cb6101e5565b6040516100d992919061096c565b60405180910390f35b3480156100ee57600080fd5b506100f7610201565b6040516101049190610951565b60405180910390f35b610127600480360381019061012291906109d2565b610207565b005b34801561013557600080fd5b5061013e61044f565b60405161014b9190610a0e565b60405180910390f35b34801561016057600080fd5b50610169610462565b6040516101769190610a6a565b60405180910390f35b34801561018b57600080fd5b50610194610488565b6040516101a19190610951565b60405180910390f35b3480156101b657600080fd5b506101bf610490565b6040516101cc9190610951565b60405180910390f35b6101dd610496565b005b60035481565b600080476002546003546101f99190610ab4565b915091509091565b60065481565b600460149054906101000a900460ff1615610257576040517f08c379a000000000000000000000000000000000000000000000000000000000815260040161024e90610b45565b60405180910390fd5b60055434101561029c576040517f08c379a000000000000000000000000000000000000000000000000000000000815260040161029390610bb1565b60405180910390fd5b60065442106102e0576040517f08c379a00000000000000000000000000000000000000000000000000000000081526004016102d790610c1d565b60405180910390fd5b600060405180604001604052803373ffffffffffffffffffffffffffffffffffffffff16815260200134815250905081156103b257600081908060018154018082558091505060019003906000526020600020906002020160009091909190915060008201518160000160006101000a81548173ffffffffffffffffffffffffffffffffffffffff021916908373ffffffffffffffffffffffffffffffffffffffff16021790555060208201518160010155505034600260008282546103a69190610ab4565b9250508190555061044b565b600181908060018154018082558091505060019003906000526020600020906002020160009091909190915060008201518160000160006101000a81548173ffffffffffffffffffffffffffffffffffffffff021916908373ffffffffffffffffffffffffffffffffffffffff16021790555060208201518160010155505034600360008282546104439190610ab4565b925050819055505b5050565b600460149054906101000a900460ff1681565b600460009054906101000a900473ffffffffffffffffffffffffffffffffffffffff1681565b600042905090565b60025481565b600460149054906101000a900460ff16156104e6576040517f08c379a00000000000000000000000000000000000000000000000000000000081526004016104dd90610b45565b60405180910390fd5b600654421061052a576040517f08c379a000000000000000000000000000000000000000000000000000000000815260040161052190610c1d565b60405180910390fd5b600060124233600460009054906101000a900473ffffffffffffffffffffffffffffffffffffffff1660405160200161056593929190610c3d565b6040516020818303038152906040528051906020012060001c6105889190610ca3565b9050600881116107665760005b6001805490508110156106dd576000600182815481106105b8576105b7610cd4565b5b90600052602060002090600202016040518060400160405290816000820160009054906101000a900473ffffffffffffffffffffffffffffffffffffffff1673ffffffffffffffffffffffffffffffffffffffff1673ffffffffffffffffffffffffffffffffffffffff168152602001600182015481525050905060006064605a600354846020015160025461064e9190610d03565b6106589190610d45565b6106629190610d03565b61066c9190610d45565b826020015161067b9190610ab4565b9050816000015173ffffffffffffffffffffffffffffffffffffffff166108fc829081150290604051600060405180830381858888f193505050501580156106c7573d6000803e3d6000fd5b50505080806106d590610d76565b915050610595565b50600460009054906101000a900473ffffffffffffffffffffffffffffffffffffffff1673ffffffffffffffffffffffffffffffffffffffff166108fc6064600a60025461072b9190610d03565b6107359190610d45565b9081150290604051600060405180830381858888f19350505050158015610760573d6000803e3d6000fd5b50610935565b60005b6000805490508110156108b057600080828154811061078b5761078a610cd4565b5b90600052602060002090600202016040518060400160405290816000820160009054906101000a900473ffffffffffffffffffffffffffffffffffffffff1673ffffffffffffffffffffffffffffffffffffffff1673ffffffffffffffffffffffffffffffffffffffff168152602001600182015481525050905060006064605a60025484602001516003546108219190610d03565b61082b9190610d45565b6108359190610d03565b61083f9190610d45565b826020015161084e9190610ab4565b9050816000015173ffffffffffffffffffffffffffffffffffffffff166108fc829081150290604051600060405180830381858888f1935050505015801561089a573d6000803e3d6000fd5b50505080806108a890610d76565b915050610769565b50600460009054906101000a900473ffffffffffffffffffffffffffffffffffffffff1673ffffffffffffffffffffffffffffffffffffffff166108fc6064600a6003546108fe9190610d03565b6109089190610d45565b9081150290604051600060405180830381858888f19350505050158015610933573d6000803e3d6000fd5b505b50565b6000819050919050565b61094b81610938565b82525050565b60006020820190506109666000830184610942565b92915050565b60006040820190506109816000830185610942565b61098e6020830184610942565b9392505050565b600080fd5b60008115159050919050565b6109af8161099a565b81146109ba57600080fd5b50565b6000813590506109cc816109a6565b92915050565b6000602082840312156109e8576109e7610995565b5b60006109f6848285016109bd565b91505092915050565b610a088161099a565b82525050565b6000602082019050610a2360008301846109ff565b92915050565b600073ffffffffffffffffffffffffffffffffffffffff82169050919050565b6000610a5482610a29565b9050919050565b610a6481610a49565b82525050565b6000602082019050610a7f6000830184610a5b565b92915050565b7f4e487b7100000000000000000000000000000000000000000000000000000000600052601160045260246000fd5b6000610abf82610938565b9150610aca83610938565b9250828201905080821115610ae257610ae1610a85565b5b92915050565b600082825260208201905092915050565b7f47616d652069732066696e697368656400000000000000000000000000000000600082015250565b6000610b2f601083610ae8565b9150610b3a82610af9565b602082019050919050565b60006020820190508181036000830152610b5e81610b22565b9050919050565b7f426574277320616d6f756e74206d757374203e206d696e000000000000000000600082015250565b6000610b9b601783610ae8565b9150610ba682610b65565b602082019050919050565b60006020820190508181036000830152610bca81610b8e565b9050919050565b7f4f7665722054696d652100000000000000000000000000000000000000000000600082015250565b6000610c07600a83610ae8565b9150610c1282610bd1565b602082019050919050565b60006020820190508181036000830152610c3681610bfa565b9050919050565b6000606082019050610c526000830186610942565b610c5f6020830185610a5b565b610c6c6040830184610a5b565b949350505050565b7f4e487b7100000000000000000000000000000000000000000000000000000000600052601260045260246000fd5b6000610cae82610938565b9150610cb983610938565b925082610cc957610cc8610c74565b5b828206905092915050565b7f4e487b7100000000000000000000000000000000000000000000000000000000600052603260045260246000fd5b6000610d0e82610938565b9150610d1983610938565b9250828202610d2781610938565b91508282048414831517610d3e57610d3d610a85565b5b5092915050565b6000610d5082610938565b9150610d5b83610938565b925082610d6b57610d6a610c74565b5b828204905092915050565b6000610d8182610938565b91507fffffffffffffffffffffffffffffffffffffffffffffffffffffffffffffffff8203610db357610db2610a85565b5b60018201905091905056fea2646970667358221220dcf05a7d28901d4a8a295ce68019492e75e4a422eeb8f28edd587afde7da4adb64736f6c63430008120033",
					"opcodes": "PUSH1 0x80 PUSH1 0x40 MSTORE CALLVALUE DUP1 ISZERO PUSH3 0x11 JUMPI PUSH1 0x0 DUP1 REVERT JUMPDEST POP PUSH1 0x40 MLOAD PUSH3 0xF97 CODESIZE SUB DUP1 PUSH3 0xF97 DUP4 CODECOPY DUP2 DUP2 ADD PUSH1 0x40 MSTORE DUP2 ADD SWAP1 PUSH3 0x37 SWAP2 SWAP1 PUSH3 0xF7 JUMP JUMPDEST CALLER PUSH1 0x4 PUSH1 0x0 PUSH2 0x100 EXP DUP2 SLOAD DUP2 PUSH20 0xFFFFFFFFFFFFFFFFFFFFFFFFFFFFFFFFFFFFFFFF MUL NOT AND SWAP1 DUP4 PUSH20 0xFFFFFFFFFFFFFFFFFFFFFFFFFFFFFFFFFFFFFFFF AND MUL OR SWAP1 SSTORE POP PUSH1 0x0 PUSH1 0x4 PUSH1 0x14 PUSH2 0x100 EXP DUP2 SLOAD DUP2 PUSH1 0xFF MUL NOT AND SWAP1 DUP4 ISZERO ISZERO MUL OR SWAP1 SSTORE POP DUP1 PUSH1 0x5 DUP2 SWAP1 SSTORE POP PUSH2 0x4B0 TIMESTAMP PUSH3 0xAA SWAP2 SWAP1 PUSH3 0x158 JUMP JUMPDEST PUSH1 0x6 DUP2 SWAP1 SSTORE POP POP PUSH3 0x193 JUMP JUMPDEST PUSH1 0x0 DUP1 REVERT JUMPDEST PUSH1 0x0 DUP2 SWAP1 POP SWAP2 SWAP1 POP JUMP JUMPDEST PUSH3 0xD1 DUP2 PUSH3 0xBC JUMP JUMPDEST DUP2 EQ PUSH3 0xDD JUMPI PUSH1 0x0 DUP1 REVERT JUMPDEST POP JUMP JUMPDEST PUSH1 0x0 DUP2 MLOAD SWAP1 POP PUSH3 0xF1 DUP2 PUSH3 0xC6 JUMP JUMPDEST SWAP3 SWAP2 POP POP JUMP JUMPDEST PUSH1 0x0 PUSH1 0x20 DUP3 DUP5 SUB SLT ISZERO PUSH3 0x110 JUMPI PUSH3 0x10F PUSH3 0xB7 JUMP JUMPDEST JUMPDEST PUSH1 0x0 PUSH3 0x120 DUP5 DUP3 DUP6 ADD PUSH3 0xE0 JUMP JUMPDEST SWAP2 POP POP SWAP3 SWAP2 POP POP JUMP JUMPDEST PUSH32 0x4E487B7100000000000000000000000000000000000000000000000000000000 PUSH1 0x0 MSTORE PUSH1 0x11 PUSH1 0x4 MSTORE PUSH1 0x24 PUSH1 0x0 REVERT JUMPDEST PUSH1 0x0 PUSH3 0x165 DUP3 PUSH3 0xBC JUMP JUMPDEST SWAP2 POP PUSH3 0x172 DUP4 PUSH3 0xBC JUMP JUMPDEST SWAP3 POP DUP3 DUP3 ADD SWAP1 POP DUP1 DUP3 GT ISZERO PUSH3 0x18D JUMPI PUSH3 0x18C PUSH3 0x129 JUMP JUMPDEST JUMPDEST SWAP3 SWAP2 POP POP JUMP JUMPDEST PUSH2 0xDF4 DUP1 PUSH3 0x1A3 PUSH1 0x0 CODECOPY PUSH1 0x0 RETURN INVALID PUSH1 0x80 PUSH1 0x40 MSTORE PUSH1 0x4 CALLDATASIZE LT PUSH2 0x86 JUMPI PUSH1 0x0 CALLDATALOAD PUSH1 0xE0 SHR DUP1 PUSH4 0x7B352962 GT PUSH2 0x59 JUMPI DUP1 PUSH4 0x7B352962 EQ PUSH2 0x129 JUMPI DUP1 PUSH4 0x8DA5CB5B EQ PUSH2 0x154 JUMPI DUP1 PUSH4 0xBBE4FD50 EQ PUSH2 0x17F JUMPI DUP1 PUSH4 0xF33D6B86 EQ PUSH2 0x1AA JUMPI DUP1 PUSH4 0xFCFFF16F EQ PUSH2 0x1D5 JUMPI PUSH2 0x86 JUMP JUMPDEST DUP1 PUSH4 0xD8A0DF6 EQ PUSH2 0x8B JUMPI DUP1 PUSH4 0x12065FE0 EQ PUSH2 0xB6 JUMPI DUP1 PUSH4 0x3197CBB6 EQ PUSH2 0xE2 JUMPI DUP1 PUSH4 0x523AFB0D EQ PUSH2 0x10D JUMPI JUMPDEST PUSH1 0x0 DUP1 REVERT JUMPDEST CALLVALUE DUP1 ISZERO PUSH2 0x97 JUMPI PUSH1 0x0 DUP1 REVERT JUMPDEST POP PUSH2 0xA0 PUSH2 0x1DF JUMP JUMPDEST PUSH1 0x40 MLOAD PUSH2 0xAD SWAP2 SWAP1 PUSH2 0x951 JUMP JUMPDEST PUSH1 0x40 MLOAD DUP1 SWAP2 SUB SWAP1 RETURN JUMPDEST CALLVALUE DUP1 ISZERO PUSH2 0xC2 JUMPI PUSH1 0x0 DUP1 REVERT JUMPDEST POP PUSH2 0xCB PUSH2 0x1E5 JUMP JUMPDEST PUSH1 0x40 MLOAD PUSH2 0xD9 SWAP3 SWAP2 SWAP1 PUSH2 0x96C JUMP JUMPDEST PUSH1 0x40 MLOAD DUP1 SWAP2 SUB SWAP1 RETURN JUMPDEST CALLVALUE DUP1 ISZERO PUSH2 0xEE JUMPI PUSH1 0x0 DUP1 REVERT JUMPDEST POP PUSH2 0xF7 PUSH2 0x201 JUMP JUMPDEST PUSH1 0x40 MLOAD PUSH2 0x104 SWAP2 SWAP1 PUSH2 0x951 JUMP JUMPDEST PUSH1 0x40 MLOAD DUP1 SWAP2 SUB SWAP1 RETURN JUMPDEST PUSH2 0x127 PUSH1 0x4 DUP1 CALLDATASIZE SUB DUP2 ADD SWAP1 PUSH2 0x122 SWAP2 SWAP1 PUSH2 0x9D2 JUMP JUMPDEST PUSH2 0x207 JUMP JUMPDEST STOP JUMPDEST CALLVALUE DUP1 ISZERO PUSH2 0x135 JUMPI PUSH1 0x0 DUP1 REVERT JUMPDEST POP PUSH2 0x13E PUSH2 0x44F JUMP JUMPDEST PUSH1 0x40 MLOAD PUSH2 0x14B SWAP2 SWAP1 PUSH2 0xA0E JUMP JUMPDEST PUSH1 0x40 MLOAD DUP1 SWAP2 SUB SWAP1 RETURN JUMPDEST CALLVALUE DUP1 ISZERO PUSH2 0x160 JUMPI PUSH1 0x0 DUP1 REVERT JUMPDEST POP PUSH2 0x169 PUSH2 0x462 JUMP JUMPDEST PUSH1 0x40 MLOAD PUSH2 0x176 SWAP2 SWAP1 PUSH2 0xA6A JUMP JUMPDEST PUSH1 0x40 MLOAD DUP1 SWAP2 SUB SWAP1 RETURN JUMPDEST CALLVALUE DUP1 ISZERO PUSH2 0x18B JUMPI PUSH1 0x0 DUP1 REVERT JUMPDEST POP PUSH2 0x194 PUSH2 0x488 JUMP JUMPDEST PUSH1 0x40 MLOAD PUSH2 0x1A1 SWAP2 SWAP1 PUSH2 0x951 JUMP JUMPDEST PUSH1 0x40 MLOAD DUP1 SWAP2 SUB SWAP1 RETURN JUMPDEST CALLVALUE DUP1 ISZERO PUSH2 0x1B6 JUMPI PUSH1 0x0 DUP1 REVERT JUMPDEST POP PUSH2 0x1BF PUSH2 0x490 JUMP JUMPDEST PUSH1 0x40 MLOAD PUSH2 0x1CC SWAP2 SWAP1 PUSH2 0x951 JUMP JUMPDEST PUSH1 0x40 MLOAD DUP1 SWAP2 SUB SWAP1 RETURN JUMPDEST PUSH2 0x1DD PUSH2 0x496 JUMP JUMPDEST STOP JUMPDEST PUSH1 0x3 SLOAD DUP2 JUMP JUMPDEST PUSH1 0x0 DUP1 SELFBALANCE PUSH1 0x2 SLOAD PUSH1 0x3 SLOAD PUSH2 0x1F9 SWAP2 SWAP1 PUSH2 0xAB4 JUMP JUMPDEST SWAP2 POP SWAP2 POP SWAP1 SWAP2 JUMP JUMPDEST PUSH1 0x6 SLOAD DUP2 JUMP JUMPDEST PUSH1 0x4 PUSH1 0x14 SWAP1 SLOAD SWAP1 PUSH2 0x100 EXP SWAP1 DIV PUSH1 0xFF AND ISZERO PUSH2 0x257 JUMPI PUSH1 0x40 MLOAD PUSH32 0x8C379A000000000000000000000000000000000000000000000000000000000 DUP2 MSTORE PUSH1 0x4 ADD PUSH2 0x24E SWAP1 PUSH2 0xB45 JUMP JUMPDEST PUSH1 0x40 MLOAD DUP1 SWAP2 SUB SWAP1 REVERT JUMPDEST PUSH1 0x5 SLOAD CALLVALUE LT ISZERO PUSH2 0x29C JUMPI PUSH1 0x40 MLOAD PUSH32 0x8C379A000000000000000000000000000000000000000000000000000000000 DUP2 MSTORE PUSH1 0x4 ADD PUSH2 0x293 SWAP1 PUSH2 0xBB1 JUMP JUMPDEST PUSH1 0x40 MLOAD DUP1 SWAP2 SUB SWAP1 REVERT JUMPDEST PUSH1 0x6 SLOAD TIMESTAMP LT PUSH2 0x2E0 JUMPI PUSH1 0x40 MLOAD PUSH32 0x8C379A000000000000000000000000000000000000000000000000000000000 DUP2 MSTORE PUSH1 0x4 ADD PUSH2 0x2D7 SWAP1 PUSH2 0xC1D JUMP JUMPDEST PUSH1 0x40 MLOAD DUP1 SWAP2 SUB SWAP1 REVERT JUMPDEST PUSH1 0x0 PUSH1 0x40 MLOAD DUP1 PUSH1 0x40 ADD PUSH1 0x40 MSTORE DUP1 CALLER PUSH20 0xFFFFFFFFFFFFFFFFFFFFFFFFFFFFFFFFFFFFFFFF AND DUP2 MSTORE PUSH1 0x20 ADD CALLVALUE DUP2 MSTORE POP SWAP1 POP DUP2 ISZERO PUSH2 0x3B2 JUMPI PUSH1 0x0 DUP2 SWAP1 DUP1 PUSH1 0x1 DUP2 SLOAD ADD DUP1 DUP3 SSTORE DUP1 SWAP2 POP POP PUSH1 0x1 SWAP1 SUB SWAP1 PUSH1 0x0 MSTORE PUSH1 0x20 PUSH1 0x0 KECCAK256 SWAP1 PUSH1 0x2 MUL ADD PUSH1 0x0 SWAP1 SWAP2 SWAP1 SWAP2 SWAP1 SWAP2 POP PUSH1 0x0 DUP3 ADD MLOAD DUP2 PUSH1 0x0 ADD PUSH1 0x0 PUSH2 0x100 EXP DUP2 SLOAD DUP2 PUSH20 0xFFFFFFFFFFFFFFFFFFFFFFFFFFFFFFFFFFFFFFFF MUL NOT AND SWAP1 DUP4 PUSH20 0xFFFFFFFFFFFFFFFFFFFFFFFFFFFFFFFFFFFFFFFF AND MUL OR SWAP1 SSTORE POP PUSH1 0x20 DUP3 ADD MLOAD DUP2 PUSH1 0x1 ADD SSTORE POP POP CALLVALUE PUSH1 0x2 PUSH1 0x0 DUP3 DUP3 SLOAD PUSH2 0x3A6 SWAP2 SWAP1 PUSH2 0xAB4 JUMP JUMPDEST SWAP3 POP POP DUP2 SWAP1 SSTORE POP PUSH2 0x44B JUMP JUMPDEST PUSH1 0x1 DUP2 SWAP1 DUP1 PUSH1 0x1 DUP2 SLOAD ADD DUP1 DUP3 SSTORE DUP1 SWAP2 POP POP PUSH1 0x1 SWAP1 SUB SWAP1 PUSH1 0x0 MSTORE PUSH1 0x20 PUSH1 0x0 KECCAK256 SWAP1 PUSH1 0x2 MUL ADD PUSH1 0x0 SWAP1 SWAP2 SWAP1 SWAP2 SWAP1 SWAP2 POP PUSH1 0x0 DUP3 ADD MLOAD DUP2 PUSH1 0x0 ADD PUSH1 0x0 PUSH2 0x100 EXP DUP2 SLOAD DUP2 PUSH20 0xFFFFFFFFFFFFFFFFFFFFFFFFFFFFFFFFFFFFFFFF MUL NOT AND SWAP1 DUP4 PUSH20 0xFFFFFFFFFFFFFFFFFFFFFFFFFFFFFFFFFFFFFFFF AND MUL OR SWAP1 SSTORE POP PUSH1 0x20 DUP3 ADD MLOAD DUP2 PUSH1 0x1 ADD SSTORE POP POP CALLVALUE PUSH1 0x3 PUSH1 0x0 DUP3 DUP3 SLOAD PUSH2 0x443 SWAP2 SWAP1 PUSH2 0xAB4 JUMP JUMPDEST SWAP3 POP POP DUP2 SWAP1 SSTORE POP JUMPDEST POP POP JUMP JUMPDEST PUSH1 0x4 PUSH1 0x14 SWAP1 SLOAD SWAP1 PUSH2 0x100 EXP SWAP1 DIV PUSH1 0xFF AND DUP2 JUMP JUMPDEST PUSH1 0x4 PUSH1 0x0 SWAP1 SLOAD SWAP1 PUSH2 0x100 EXP SWAP1 DIV PUSH20 0xFFFFFFFFFFFFFFFFFFFFFFFFFFFFFFFFFFFFFFFF AND DUP2 JUMP JUMPDEST PUSH1 0x0 TIMESTAMP SWAP1 POP SWAP1 JUMP JUMPDEST PUSH1 0x2 SLOAD DUP2 JUMP JUMPDEST PUSH1 0x4 PUSH1 0x14 SWAP1 SLOAD SWAP1 PUSH2 0x100 EXP SWAP1 DIV PUSH1 0xFF AND ISZERO PUSH2 0x4E6 JUMPI PUSH1 0x40 MLOAD PUSH32 0x8C379A000000000000000000000000000000000000000000000000000000000 DUP2 MSTORE PUSH1 0x4 ADD PUSH2 0x4DD SWAP1 PUSH2 0xB45 JUMP JUMPDEST PUSH1 0x40 MLOAD DUP1 SWAP2 SUB SWAP1 REVERT JUMPDEST PUSH1 0x6 SLOAD TIMESTAMP LT PUSH2 0x52A JUMPI PUSH1 0x40 MLOAD PUSH32 0x8C379A000000000000000000000000000000000000000000000000000000000 DUP2 MSTORE PUSH1 0x4 ADD PUSH2 0x521 SWAP1 PUSH2 0xC1D JUMP JUMPDEST PUSH1 0x40 MLOAD DUP1 SWAP2 SUB SWAP1 REVERT JUMPDEST PUSH1 0x0 PUSH1 0x12 TIMESTAMP CALLER PUSH1 0x4 PUSH1 0x0 SWAP1 SLOAD SWAP1 PUSH2 0x100 EXP SWAP1 DIV PUSH20 0xFFFFFFFFFFFFFFFFFFFFFFFFFFFFFFFFFFFFFFFF AND PUSH1 0x40 MLOAD PUSH1 0x20 ADD PUSH2 0x565 SWAP4 SWAP3 SWAP2 SWAP1 PUSH2 0xC3D JUMP JUMPDEST PUSH1 0x40 MLOAD PUSH1 0x20 DUP2 DUP4 SUB SUB DUP2 MSTORE SWAP1 PUSH1 0x40 MSTORE DUP1 MLOAD SWAP1 PUSH1 0x20 ADD KECCAK256 PUSH1 0x0 SHR PUSH2 0x588 SWAP2 SWAP1 PUSH2 0xCA3 JUMP JUMPDEST SWAP1 POP PUSH1 0x8 DUP2 GT PUSH2 0x766 JUMPI PUSH1 0x0 JUMPDEST PUSH1 0x1 DUP1 SLOAD SWAP1 POP DUP2 LT ISZERO PUSH2 0x6DD JUMPI PUSH1 0x0 PUSH1 0x1 DUP3 DUP2 SLOAD DUP2 LT PUSH2 0x5B8 JUMPI PUSH2 0x5B7 PUSH2 0xCD4 JUMP JUMPDEST JUMPDEST SWAP1 PUSH1 0x0 MSTORE PUSH1 0x20 PUSH1 0x0 KECCAK256 SWAP1 PUSH1 0x2 MUL ADD PUSH1 0x40 MLOAD DUP1 PUSH1 0x40 ADD PUSH1 0x40 MSTORE SWAP1 DUP2 PUSH1 0x0 DUP3 ADD PUSH1 0x0 SWAP1 SLOAD SWAP1 PUSH2 0x100 EXP SWAP1 DIV PUSH20 0xFFFFFFFFFFFFFFFFFFFFFFFFFFFFFFFFFFFFFFFF AND PUSH20 0xFFFFFFFFFFFFFFFFFFFFFFFFFFFFFFFFFFFFFFFF AND PUSH20 0xFFFFFFFFFFFFFFFFFFFFFFFFFFFFFFFFFFFFFFFF AND DUP2 MSTORE PUSH1 0x20 ADD PUSH1 0x1 DUP3 ADD SLOAD DUP2 MSTORE POP POP SWAP1 POP PUSH1 0x0 PUSH1 0x64 PUSH1 0x5A PUSH1 0x3 SLOAD DUP5 PUSH1 0x20 ADD MLOAD PUSH1 0x2 SLOAD PUSH2 0x64E SWAP2 SWAP1 PUSH2 0xD03 JUMP JUMPDEST PUSH2 0x658 SWAP2 SWAP1 PUSH2 0xD45 JUMP JUMPDEST PUSH2 0x662 SWAP2 SWAP1 PUSH2 0xD03 JUMP JUMPDEST PUSH2 0x66C SWAP2 SWAP1 PUSH2 0xD45 JUMP JUMPDEST DUP3 PUSH1 0x20 ADD MLOAD PUSH2 0x67B SWAP2 SWAP1 PUSH2 0xAB4 JUMP JUMPDEST SWAP1 POP DUP2 PUSH1 0x0 ADD MLOAD PUSH20 0xFFFFFFFFFFFFFFFFFFFFFFFFFFFFFFFFFFFFFFFF AND PUSH2 0x8FC DUP3 SWAP1 DUP2 ISZERO MUL SWAP1 PUSH1 0x40 MLOAD PUSH1 0x0 PUSH1 0x40 MLOAD DUP1 DUP4 SUB DUP2 DUP6 DUP9 DUP9 CALL SWAP4 POP POP POP POP ISZERO DUP1 ISZERO PUSH2 0x6C7 JUMPI RETURNDATASIZE PUSH1 0x0 DUP1 RETURNDATACOPY RETURNDATASIZE PUSH1 0x0 REVERT JUMPDEST POP POP POP DUP1 DUP1 PUSH2 0x6D5 SWAP1 PUSH2 0xD76 JUMP JUMPDEST SWAP2 POP POP PUSH2 0x595 JUMP JUMPDEST POP PUSH1 0x4 PUSH1 0x0 SWAP1 SLOAD SWAP1 PUSH2 0x100 EXP SWAP1 DIV PUSH20 0xFFFFFFFFFFFFFFFFFFFFFFFFFFFFFFFFFFFFFFFF AND PUSH20 0xFFFFFFFFFFFFFFFFFFFFFFFFFFFFFFFFFFFFFFFF AND PUSH2 0x8FC PUSH1 0x64 PUSH1 0xA PUSH1 0x2 SLOAD PUSH2 0x72B SWAP2 SWAP1 PUSH2 0xD03 JUMP JUMPDEST PUSH2 0x735 SWAP2 SWAP1 PUSH2 0xD45 JUMP JUMPDEST SWAP1 DUP2 ISZERO MUL SWAP1 PUSH1 0x40 MLOAD PUSH1 0x0 PUSH1 0x40 MLOAD DUP1 DUP4 SUB DUP2 DUP6 DUP9 DUP9 CALL SWAP4 POP POP POP POP ISZERO DUP1 ISZERO PUSH2 0x760 JUMPI RETURNDATASIZE PUSH1 0x0 DUP1 RETURNDATACOPY RETURNDATASIZE PUSH1 0x0 REVERT JUMPDEST POP PUSH2 0x935 JUMP JUMPDEST PUSH1 0x0 JUMPDEST PUSH1 0x0 DUP1 SLOAD SWAP1 POP DUP2 LT ISZERO PUSH2 0x8B0 JUMPI PUSH1 0x0 DUP1 DUP3 DUP2 SLOAD DUP2 LT PUSH2 0x78B JUMPI PUSH2 0x78A PUSH2 0xCD4 JUMP JUMPDEST JUMPDEST SWAP1 PUSH1 0x0 MSTORE PUSH1 0x20 PUSH1 0x0 KECCAK256 SWAP1 PUSH1 0x2 MUL ADD PUSH1 0x40 MLOAD DUP1 PUSH1 0x40 ADD PUSH1 0x40 MSTORE SWAP1 DUP2 PUSH1 0x0 DUP3 ADD PUSH1 0x0 SWAP1 SLOAD SWAP1 PUSH2 0x100 EXP SWAP1 DIV PUSH20 0xFFFFFFFFFFFFFFFFFFFFFFFFFFFFFFFFFFFFFFFF AND PUSH20 0xFFFFFFFFFFFFFFFFFFFFFFFFFFFFFFFFFFFFFFFF AND PUSH20 0xFFFFFFFFFFFFFFFFFFFFFFFFFFFFFFFFFFFFFFFF AND DUP2 MSTORE PUSH1 0x20 ADD PUSH1 0x1 DUP3 ADD SLOAD DUP2 MSTORE POP POP SWAP1 POP PUSH1 0x0 PUSH1 0x64 PUSH1 0x5A PUSH1 0x2 SLOAD DUP5 PUSH1 0x20 ADD MLOAD PUSH1 0x3 SLOAD PUSH2 0x821 SWAP2 SWAP1 PUSH2 0xD03 JUMP JUMPDEST PUSH2 0x82B SWAP2 SWAP1 PUSH2 0xD45 JUMP JUMPDEST PUSH2 0x835 SWAP2 SWAP1 PUSH2 0xD03 JUMP JUMPDEST PUSH2 0x83F SWAP2 SWAP1 PUSH2 0xD45 JUMP JUMPDEST DUP3 PUSH1 0x20 ADD MLOAD PUSH2 0x84E SWAP2 SWAP1 PUSH2 0xAB4 JUMP JUMPDEST SWAP1 POP DUP2 PUSH1 0x0 ADD MLOAD PUSH20 0xFFFFFFFFFFFFFFFFFFFFFFFFFFFFFFFFFFFFFFFF AND PUSH2 0x8FC DUP3 SWAP1 DUP2 ISZERO MUL SWAP1 PUSH1 0x40 MLOAD PUSH1 0x0 PUSH1 0x40 MLOAD DUP1 DUP4 SUB DUP2 DUP6 DUP9 DUP9 CALL SWAP4 POP POP POP POP ISZERO DUP1 ISZERO PUSH2 0x89A JUMPI RETURNDATASIZE PUSH1 0x0 DUP1 RETURNDATACOPY RETURNDATASIZE PUSH1 0x0 REVERT JUMPDEST POP POP POP DUP1 DUP1 PUSH2 0x8A8 SWAP1 PUSH2 0xD76 JUMP JUMPDEST SWAP2 POP POP PUSH2 0x769 JUMP JUMPDEST POP PUSH1 0x4 PUSH1 0x0 SWAP1 SLOAD SWAP1 PUSH2 0x100 EXP SWAP1 DIV PUSH20 0xFFFFFFFFFFFFFFFFFFFFFFFFFFFFFFFFFFFFFFFF AND PUSH20 0xFFFFFFFFFFFFFFFFFFFFFFFFFFFFFFFFFFFFFFFF AND PUSH2 0x8FC PUSH1 0x64 PUSH1 0xA PUSH1 0x3 SLOAD PUSH2 0x8FE SWAP2 SWAP1 PUSH2 0xD03 JUMP JUMPDEST PUSH2 0x908 SWAP2 SWAP1 PUSH2 0xD45 JUMP JUMPDEST SWAP1 DUP2 ISZERO MUL SWAP1 PUSH1 0x40 MLOAD PUSH1 0x0 PUSH1 0x40 MLOAD DUP1 DUP4 SUB DUP2 DUP6 DUP9 DUP9 CALL SWAP4 POP POP POP POP ISZERO DUP1 ISZERO PUSH2 0x933 JUMPI RETURNDATASIZE PUSH1 0x0 DUP1 RETURNDATACOPY RETURNDATASIZE PUSH1 0x0 REVERT JUMPDEST POP JUMPDEST POP JUMP JUMPDEST PUSH1 0x0 DUP2 SWAP1 POP SWAP2 SWAP1 POP JUMP JUMPDEST PUSH2 0x94B DUP2 PUSH2 0x938 JUMP JUMPDEST DUP3 MSTORE POP POP JUMP JUMPDEST PUSH1 0x0 PUSH1 0x20 DUP3 ADD SWAP1 POP PUSH2 0x966 PUSH1 0x0 DUP4 ADD DUP5 PUSH2 0x942 JUMP JUMPDEST SWAP3 SWAP2 POP POP JUMP JUMPDEST PUSH1 0x0 PUSH1 0x40 DUP3 ADD SWAP1 POP PUSH2 0x981 PUSH1 0x0 DUP4 ADD DUP6 PUSH2 0x942 JUMP JUMPDEST PUSH2 0x98E PUSH1 0x20 DUP4 ADD DUP5 PUSH2 0x942 JUMP JUMPDEST SWAP4 SWAP3 POP POP POP JUMP JUMPDEST PUSH1 0x0 DUP1 REVERT JUMPDEST PUSH1 0x0 DUP2 ISZERO ISZERO SWAP1 POP SWAP2 SWAP1 POP JUMP JUMPDEST PUSH2 0x9AF DUP2 PUSH2 0x99A JUMP JUMPDEST DUP2 EQ PUSH2 0x9BA JUMPI PUSH1 0x0 DUP1 REVERT JUMPDEST POP JUMP JUMPDEST PUSH1 0x0 DUP2 CALLDATALOAD SWAP1 POP PUSH2 0x9CC DUP2 PUSH2 0x9A6 JUMP JUMPDEST SWAP3 SWAP2 POP POP JUMP JUMPDEST PUSH1 0x0 PUSH1 0x20 DUP3 DUP5 SUB SLT ISZERO PUSH2 0x9E8 JUMPI PUSH2 0x9E7 PUSH2 0x995 JUMP JUMPDEST JUMPDEST PUSH1 0x0 PUSH2 0x9F6 DUP5 DUP3 DUP6 ADD PUSH2 0x9BD JUMP JUMPDEST SWAP2 POP POP SWAP3 SWAP2 POP POP JUMP JUMPDEST PUSH2 0xA08 DUP2 PUSH2 0x99A JUMP JUMPDEST DUP3 MSTORE POP POP JUMP JUMPDEST PUSH1 0x0 PUSH1 0x20 DUP3 ADD SWAP1 POP PUSH2 0xA23 PUSH1 0x0 DUP4 ADD DUP5 PUSH2 0x9FF JUMP JUMPDEST SWAP3 SWAP2 POP POP JUMP JUMPDEST PUSH1 0x0 PUSH20 0xFFFFFFFFFFFFFFFFFFFFFFFFFFFFFFFFFFFFFFFF DUP3 AND SWAP1 POP SWAP2 SWAP1 POP JUMP JUMPDEST PUSH1 0x0 PUSH2 0xA54 DUP3 PUSH2 0xA29 JUMP JUMPDEST SWAP1 POP SWAP2 SWAP1 POP JUMP JUMPDEST PUSH2 0xA64 DUP2 PUSH2 0xA49 JUMP JUMPDEST DUP3 MSTORE POP POP JUMP JUMPDEST PUSH1 0x0 PUSH1 0x20 DUP3 ADD SWAP1 POP PUSH2 0xA7F PUSH1 0x0 DUP4 ADD DUP5 PUSH2 0xA5B JUMP JUMPDEST SWAP3 SWAP2 POP POP JUMP JUMPDEST PUSH32 0x4E487B7100000000000000000000000000000000000000000000000000000000 PUSH1 0x0 MSTORE PUSH1 0x11 PUSH1 0x4 MSTORE PUSH1 0x24 PUSH1 0x0 REVERT JUMPDEST PUSH1 0x0 PUSH2 0xABF DUP3 PUSH2 0x938 JUMP JUMPDEST SWAP2 POP PUSH2 0xACA DUP4 PUSH2 0x938 JUMP JUMPDEST SWAP3 POP DUP3 DUP3 ADD SWAP1 POP DUP1 DUP3 GT ISZERO PUSH2 0xAE2 JUMPI PUSH2 0xAE1 PUSH2 0xA85 JUMP JUMPDEST JUMPDEST SWAP3 SWAP2 POP POP JUMP JUMPDEST PUSH1 0x0 DUP3 DUP3 MSTORE PUSH1 0x20 DUP3 ADD SWAP1 POP SWAP3 SWAP2 POP POP JUMP JUMPDEST PUSH32 0x47616D652069732066696E697368656400000000000000000000000000000000 PUSH1 0x0 DUP3 ADD MSTORE POP JUMP JUMPDEST PUSH1 0x0 PUSH2 0xB2F PUSH1 0x10 DUP4 PUSH2 0xAE8 JUMP JUMPDEST SWAP2 POP PUSH2 0xB3A DUP3 PUSH2 0xAF9 JUMP JUMPDEST PUSH1 0x20 DUP3 ADD SWAP1 POP SWAP2 SWAP1 POP JUMP JUMPDEST PUSH1 0x0 PUSH1 0x20 DUP3 ADD SWAP1 POP DUP2 DUP2 SUB PUSH1 0x0 DUP4 ADD MSTORE PUSH2 0xB5E DUP2 PUSH2 0xB22 JUMP JUMPDEST SWAP1 POP SWAP2 SWAP1 POP JUMP JUMPDEST PUSH32 0x426574277320616D6F756E74206D757374203E206D696E000000000000000000 PUSH1 0x0 DUP3 ADD MSTORE POP JUMP JUMPDEST PUSH1 0x0 PUSH2 0xB9B PUSH1 0x17 DUP4 PUSH2 0xAE8 JUMP JUMPDEST SWAP2 POP PUSH2 0xBA6 DUP3 PUSH2 0xB65 JUMP JUMPDEST PUSH1 0x20 DUP3 ADD SWAP1 POP SWAP2 SWAP1 POP JUMP JUMPDEST PUSH1 0x0 PUSH1 0x20 DUP3 ADD SWAP1 POP DUP2 DUP2 SUB PUSH1 0x0 DUP4 ADD MSTORE PUSH2 0xBCA DUP2 PUSH2 0xB8E JUMP JUMPDEST SWAP1 POP SWAP2 SWAP1 POP JUMP JUMPDEST PUSH32 0x4F7665722054696D652100000000000000000000000000000000000000000000 PUSH1 0x0 DUP3 ADD MSTORE POP JUMP JUMPDEST PUSH1 0x0 PUSH2 0xC07 PUSH1 0xA DUP4 PUSH2 0xAE8 JUMP JUMPDEST SWAP2 POP PUSH2 0xC12 DUP3 PUSH2 0xBD1 JUMP JUMPDEST PUSH1 0x20 DUP3 ADD SWAP1 POP SWAP2 SWAP1 POP JUMP JUMPDEST PUSH1 0x0 PUSH1 0x20 DUP3 ADD SWAP1 POP DUP2 DUP2 SUB PUSH1 0x0 DUP4 ADD MSTORE PUSH2 0xC36 DUP2 PUSH2 0xBFA JUMP JUMPDEST SWAP1 POP SWAP2 SWAP1 POP JUMP JUMPDEST PUSH1 0x0 PUSH1 0x60 DUP3 ADD SWAP1 POP PUSH2 0xC52 PUSH1 0x0 DUP4 ADD DUP7 PUSH2 0x942 JUMP JUMPDEST PUSH2 0xC5F PUSH1 0x20 DUP4 ADD DUP6 PUSH2 0xA5B JUMP JUMPDEST PUSH2 0xC6C PUSH1 0x40 DUP4 ADD DUP5 PUSH2 0xA5B JUMP JUMPDEST SWAP5 SWAP4 POP POP POP POP JUMP JUMPDEST PUSH32 0x4E487B7100000000000000000000000000000000000000000000000000000000 PUSH1 0x0 MSTORE PUSH1 0x12 PUSH1 0x4 MSTORE PUSH1 0x24 PUSH1 0x0 REVERT JUMPDEST PUSH1 0x0 PUSH2 0xCAE DUP3 PUSH2 0x938 JUMP JUMPDEST SWAP2 POP PUSH2 0xCB9 DUP4 PUSH2 0x938 JUMP JUMPDEST SWAP3 POP DUP3 PUSH2 0xCC9 JUMPI PUSH2 0xCC8 PUSH2 0xC74 JUMP JUMPDEST JUMPDEST DUP3 DUP3 MOD SWAP1 POP SWAP3 SWAP2 POP POP JUMP JUMPDEST PUSH32 0x4E487B7100000000000000000000000000000000000000000000000000000000 PUSH1 0x0 MSTORE PUSH1 0x32 PUSH1 0x4 MSTORE PUSH1 0x24 PUSH1 0x0 REVERT JUMPDEST PUSH1 0x0 PUSH2 0xD0E DUP3 PUSH2 0x938 JUMP JUMPDEST SWAP2 POP PUSH2 0xD19 DUP4 PUSH2 0x938 JUMP JUMPDEST SWAP3 POP DUP3 DUP3 MUL PUSH2 0xD27 DUP2 PUSH2 0x938 JUMP JUMPDEST SWAP2 POP DUP3 DUP3 DIV DUP5 EQ DUP4 ISZERO OR PUSH2 0xD3E JUMPI PUSH2 0xD3D PUSH2 0xA85 JUMP JUMPDEST JUMPDEST POP SWAP3 SWAP2 POP POP JUMP JUMPDEST PUSH1 0x0 PUSH2 0xD50 DUP3 PUSH2 0x938 JUMP JUMPDEST SWAP2 POP PUSH2 0xD5B DUP4 PUSH2 0x938 JUMP JUMPDEST SWAP3 POP DUP3 PUSH2 0xD6B JUMPI PUSH2 0xD6A PUSH2 0xC74 JUMP JUMPDEST JUMPDEST DUP3 DUP3 DIV SWAP1 POP SWAP3 SWAP2 POP POP JUMP JUMPDEST PUSH1 0x0 PUSH2 0xD81 DUP3 PUSH2 0x938 JUMP JUMPDEST SWAP2 POP PUSH32 0xFFFFFFFFFFFFFFFFFFFFFFFFFFFFFFFFFFFFFFFFFFFFFFFFFFFFFFFFFFFFFFFF DUP3 SUB PUSH2 0xDB3 JUMPI PUSH2 0xDB2 PUSH2 0xA85 JUMP JUMPDEST JUMPDEST PUSH1 0x1 DUP3 ADD SWAP1 POP SWAP2 SWAP1 POP JUMP INVALID LOG2 PUSH5 0x6970667358 0x22 SLT KECCAK256 0xDC CREATE GAS PUSH30 0x28901D4A8A295CE68019492E75E4A422EEB8F28EDD587AFDE7DA4ADB6473 PUSH16 0x6C634300081200330000000000000000 "
				},
				"gasEstimates": {
					"creation": {
						"codeDepositCost": "714400",
						"executionCost": "infinite",
						"totalCost": "infinite"
					},
					"external": {
						"bet(bool)": "infinite",
						"endTime()": "2474",
						"getBalance()": "infinite",
						"getNow()": "380",
						"isFinished()": "2521",
						"open()": "infinite",
						"owner()": "2536",
						"totalBigAmount()": "2495",
						"totalSmallAmount()": "2430"
					}
				},
				"methodIdentifiers": {
					"bet(bool)": "523afb0d",
					"endTime()": "3197cbb6",
					"getBalance()": "12065fe0",
					"getNow()": "bbe4fd50",
					"isFinished()": "7b352962",
					"open()": "fcfff16f",
					"owner()": "8da5cb5b",
					"totalBigAmount()": "f33d6b86",
					"totalSmallAmount()": "0d8a0df6"
				}
			},
			"storageLayout": {
				"storage": [
					{
						"astId": 10,
						"contract": "contracts/advance/03-bocai.sol:bocai",
						"label": "bigs",
						"offset": 0,
						"slot": "0",
						"type": "t_array(t_struct(Player)6_storage)dyn_storage"
					},
					{
						"astId": 14,
						"contract": "contracts/advance/03-bocai.sol:bocai",
						"label": "smalls",
						"offset": 0,
						"slot": "1",
						"type": "t_array(t_struct(Player)6_storage)dyn_storage"
					},
					{
						"astId": 16,
						"contract": "contracts/advance/03-bocai.sol:bocai",
						"label": "totalBigAmount",
						"offset": 0,
						"slot": "2",
						"type": "t_uint256"
					},
					{
						"astId": 18,
						"contract": "contracts/advance/03-bocai.sol:bocai",
						"label": "totalSmallAmount",
						"offset": 0,
						"slot": "3",
						"type": "t_uint256"
					},
					{
						"astId": 20,
						"contract": "contracts/advance/03-bocai.sol:bocai",
						"label": "owner",
						"offset": 0,
						"slot": "4",
						"type": "t_address"
					},
					{
						"astId": 22,
						"contract": "contracts/advance/03-bocai.sol:bocai",
						"label": "isFinished",
						"offset": 20,
						"slot": "4",
						"type": "t_bool"
					},
					{
						"astId": 24,
						"contract": "contracts/advance/03-bocai.sol:bocai",
						"label": "minBetAmount",
						"offset": 0,
						"slot": "5",
						"type": "t_uint256"
					},
					{
						"astId": 26,
						"contract": "contracts/advance/03-bocai.sol:bocai",
						"label": "endTime",
						"offset": 0,
						"slot": "6",
						"type": "t_uint256"
					}
				],
				"types": {
					"t_address": {
						"encoding": "inplace",
						"label": "address",
						"numberOfBytes": "20"
					},
					"t_array(t_struct(Player)6_storage)dyn_storage": {
						"base": "t_struct(Player)6_storage",
						"encoding": "dynamic_array",
						"label": "struct Player[]",
						"numberOfBytes": "32"
					},
					"t_bool": {
						"encoding": "inplace",
						"label": "bool",
						"numberOfBytes": "1"
					},
					"t_struct(Player)6_storage": {
						"encoding": "inplace",
						"label": "struct Player",
						"members": [
							{
								"astId": 3,
								"contract": "contracts/advance/03-bocai.sol:bocai",
								"label": "addr",
								"offset": 0,
								"slot": "0",
								"type": "t_address"
							},
							{
								"astId": 5,
								"contract": "contracts/advance/03-bocai.sol:bocai",
								"label": "amount",
								"offset": 0,
								"slot": "1",
								"type": "t_uint256"
							}
						],
						"numberOfBytes": "64"
					},
					"t_uint256": {
						"encoding": "inplace",
						"label": "uint256",
						"numberOfBytes": "32"
					}
				}
			},
			"userdoc": {
				"kind": "user",
				"methods": {},
				"version": 1
			}
		}
	}
}