{
	"contracts/15-library.sol": {
		"library_demo": {
			"abi": [
				{
					"inputs": [
						{
							"internalType": "string",
							"name": "a",
							"type": "string"
						},
						{
							"internalType": "string",
							"name": "b",
							"type": "string"
						}
					],
					"name": "isEqual",
					"outputs": [
						{
							"internalType": "bool",
							"name": "",
							"type": "bool"
						}
					],
					"stateMutability": "pure",
					"type": "function"
				}
			],
			"devdoc": {
				"kind": "dev",
				"methods": {},
				"version": 1
			},
			"evm": {
				"assembly": "    /* \"contracts/15-library.sol\":90:296  contract library_demo {... */\n  mstore(0x40, 0x80)\n  callvalue\n  dup1\n  iszero\n  tag_1\n  jumpi\n  0x00\n  dup1\n  revert\ntag_1:\n  pop\n  dataSize(sub_0)\n  dup1\n  dataOffset(sub_0)\n  0x00\n  codecopy\n  0x00\n  return\nstop\n\nsub_0: assembly {\n        /* \"contracts/15-library.sol\":90:296  contract library_demo {... */\n      mstore(0x40, 0x80)\n      callvalue\n      dup1\n      iszero\n      tag_1\n      jumpi\n      0x00\n      dup1\n      revert\n    tag_1:\n      pop\n      jumpi(tag_2, lt(calldatasize, 0x04))\n      shr(0xe0, calldataload(0x00))\n      dup1\n      0x465c4105\n      eq\n      tag_3\n      jumpi\n    tag_2:\n      0x00\n      dup1\n      revert\n        /* \"contracts/15-library.sol\":165:294  function isEqual(string memory a, string memory b) public pure returns (bool){... */\n    tag_3:\n      tag_4\n      0x04\n      dup1\n      calldatasize\n      sub\n      dup2\n      add\n      swap1\n      tag_5\n      swap2\n      swap1\n      tag_6\n      jump\t// in\n    tag_5:\n      tag_7\n      jump\t// in\n    tag_4:\n      mload(0x40)\n      tag_8\n      swap2\n      swap1\n      tag_9\n      jump\t// in\n    tag_8:\n      mload(0x40)\n      dup1\n      swap2\n      sub\n      swap1\n      return\n    tag_7:\n        /* \"contracts/15-library.sol\":237:241  bool */\n      0x00\n        /* \"contracts/15-library.sol\":259:271  a.isEqual(b) */\n      tag_11\n        /* \"contracts/15-library.sol\":269:270  b */\n      dup3\n        /* \"contracts/15-library.sol\":259:260  a */\n      dup5\n        /* \"contracts/15-library.sol\":259:268  a.isEqual */\n      tag_12\n      swap1\n        /* \"contracts/15-library.sol\":259:271  a.isEqual(b) */\n      swap2\n      swap1\n      0xffffffff\n      and\n      jump\t// in\n    tag_11:\n        /* \"contracts/15-library.sol\":252:271  return a.isEqual(b) */\n      swap1\n      pop\n        /* \"contracts/15-library.sol\":165:294  function isEqual(string memory a, string memory b) public pure returns (bool){... */\n      swap3\n      swap2\n      pop\n      pop\n      jump\t// out\n        /* \"contracts/libstring.sol\":87:329  function isEqual(string memory a, string memory b) internal pure returns(bool){... */\n    tag_12:\n        /* \"contracts/libstring.sol\":160:164  bool */\n      0x00\n        /* \"contracts/libstring.sol\":201:214  bytes32 hashA */\n      dup1\n        /* \"contracts/libstring.sol\":238:239  a */\n      dup4\n        /* \"contracts/libstring.sol\":227:240  abi.encode(a) */\n      add(0x20, mload(0x40))\n      tag_14\n      swap2\n      swap1\n      tag_15\n      jump\t// in\n    tag_14:\n      mload(0x40)\n      0x20\n      dup2\n      dup4\n      sub\n      sub\n      dup2\n      mstore\n      swap1\n      0x40\n      mstore\n        /* \"contracts/libstring.sol\":217:241  keccak256(abi.encode(a)) */\n      dup1\n      mload\n      swap1\n      0x20\n      add\n      keccak256\n        /* \"contracts/libstring.sol\":201:241  bytes32 hashA = keccak256(abi.encode(a)) */\n      swap1\n      pop\n        /* \"contracts/libstring.sol\":251:264  bytes32 hashB */\n      0x00\n        /* \"contracts/libstring.sol\":288:289  b */\n      dup4\n        /* \"contracts/libstring.sol\":277:290  abi.encode(b) */\n      add(0x20, mload(0x40))\n      tag_16\n      swap2\n      swap1\n      tag_15\n      jump\t// in\n    tag_16:\n      mload(0x40)\n      0x20\n      dup2\n      dup4\n      sub\n      sub\n      dup2\n      mstore\n      swap1\n      0x40\n      mstore\n        /* \"contracts/libstring.sol\":267:291  keccak256(abi.encode(b)) */\n      dup1\n      mload\n      swap1\n      0x20\n      add\n      keccak256\n        /* \"contracts/libstring.sol\":251:291  bytes32 hashB = keccak256(abi.encode(b)) */\n      swap1\n      pop\n        /* \"contracts/libstring.sol\":317:322  hashB */\n      dup1\n        /* \"contracts/libstring.sol\":308:313  hashA */\n      dup3\n        /* \"contracts/libstring.sol\":308:322  hashA == hashB */\n      eq\n        /* \"contracts/libstring.sol\":301:322  return hashA == hashB */\n      swap3\n      pop\n      pop\n      pop\n        /* \"contracts/libstring.sol\":87:329  function isEqual(string memory a, string memory b) internal pure returns(bool){... */\n      swap3\n      swap2\n      pop\n      pop\n      jump\t// out\n        /* \"#utility.yul\":7:82   */\n    tag_17:\n        /* \"#utility.yul\":40:46   */\n      0x00\n        /* \"#utility.yul\":73:75   */\n      0x40\n        /* \"#utility.yul\":67:76   */\n      mload\n        /* \"#utility.yul\":57:76   */\n      swap1\n      pop\n        /* \"#utility.yul\":7:82   */\n      swap1\n      jump\t// out\n        /* \"#utility.yul\":88:205   */\n    tag_18:\n        /* \"#utility.yul\":197:198   */\n      0x00\n        /* \"#utility.yul\":194:195   */\n      dup1\n        /* \"#utility.yul\":187:199   */\n      revert\n        /* \"#utility.yul\":211:328   */\n    tag_19:\n        /* \"#utility.yul\":320:321   */\n      0x00\n        /* \"#utility.yul\":317:318   */\n      dup1\n        /* \"#utility.yul\":310:322   */\n      revert\n        /* \"#utility.yul\":334:451   */\n    tag_20:\n        /* \"#utility.yul\":443:444   */\n      0x00\n        /* \"#utility.yul\":440:441   */\n      dup1\n        /* \"#utility.yul\":433:445   */\n      revert\n        /* \"#utility.yul\":457:574   */\n    tag_21:\n        /* \"#utility.yul\":566:567   */\n      0x00\n        /* \"#utility.yul\":563:564   */\n      dup1\n        /* \"#utility.yul\":556:568   */\n      revert\n        /* \"#utility.yul\":580:682   */\n    tag_22:\n        /* \"#utility.yul\":621:627   */\n      0x00\n        /* \"#utility.yul\":672:674   */\n      0x1f\n        /* \"#utility.yul\":668:675   */\n      not\n        /* \"#utility.yul\":663:665   */\n      0x1f\n        /* \"#utility.yul\":656:661   */\n      dup4\n        /* \"#utility.yul\":652:666   */\n      add\n        /* \"#utility.yul\":648:676   */\n      and\n        /* \"#utility.yul\":638:676   */\n      swap1\n      pop\n        /* \"#utility.yul\":580:682   */\n      swap2\n      swap1\n      pop\n      jump\t// out\n        /* \"#utility.yul\":688:868   */\n    tag_23:\n        /* \"#utility.yul\":736:813   */\n      0x4e487b7100000000000000000000000000000000000000000000000000000000\n        /* \"#utility.yul\":733:734   */\n      0x00\n        /* \"#utility.yul\":726:814   */\n      mstore\n        /* \"#utility.yul\":833:837   */\n      0x41\n        /* \"#utility.yul\":830:831   */\n      0x04\n        /* \"#utility.yul\":823:838   */\n      mstore\n        /* \"#utility.yul\":857:861   */\n      0x24\n        /* \"#utility.yul\":854:855   */\n      0x00\n        /* \"#utility.yul\":847:862   */\n      revert\n        /* \"#utility.yul\":874:1155   */\n    tag_24:\n        /* \"#utility.yul\":957:984   */\n      tag_45\n        /* \"#utility.yul\":979:983   */\n      dup3\n        /* \"#utility.yul\":957:984   */\n      tag_22\n      jump\t// in\n    tag_45:\n        /* \"#utility.yul\":949:955   */\n      dup2\n        /* \"#utility.yul\":945:985   */\n      add\n        /* \"#utility.yul\":1087:1093   */\n      dup2\n        /* \"#utility.yul\":1075:1085   */\n      dup2\n        /* \"#utility.yul\":1072:1094   */\n      lt\n        /* \"#utility.yul\":1051:1069   */\n      0xffffffffffffffff\n        /* \"#utility.yul\":1039:1049   */\n      dup3\n        /* \"#utility.yul\":1036:1070   */\n      gt\n        /* \"#utility.yul\":1033:1095   */\n      or\n        /* \"#utility.yul\":1030:1118   */\n      iszero\n      tag_46\n      jumpi\n        /* \"#utility.yul\":1098:1116   */\n      tag_47\n      tag_23\n      jump\t// in\n    tag_47:\n        /* \"#utility.yul\":1030:1118   */\n    tag_46:\n        /* \"#utility.yul\":1138:1148   */\n      dup1\n        /* \"#utility.yul\":1134:1136   */\n      0x40\n        /* \"#utility.yul\":1127:1149   */\n      mstore\n        /* \"#utility.yul\":917:1155   */\n      pop\n        /* \"#utility.yul\":874:1155   */\n      pop\n      pop\n      jump\t// out\n        /* \"#utility.yul\":1161:1290   */\n    tag_25:\n        /* \"#utility.yul\":1195:1201   */\n      0x00\n        /* \"#utility.yul\":1222:1242   */\n      tag_49\n      tag_17\n      jump\t// in\n    tag_49:\n        /* \"#utility.yul\":1212:1242   */\n      swap1\n      pop\n        /* \"#utility.yul\":1251:1284   */\n      tag_50\n        /* \"#utility.yul\":1279:1283   */\n      dup3\n        /* \"#utility.yul\":1271:1277   */\n      dup3\n        /* \"#utility.yul\":1251:1284   */\n      tag_24\n      jump\t// in\n    tag_50:\n        /* \"#utility.yul\":1161:1290   */\n      swap2\n      swap1\n      pop\n      jump\t// out\n        /* \"#utility.yul\":1296:1604   */\n    tag_26:\n        /* \"#utility.yul\":1358:1362   */\n      0x00\n        /* \"#utility.yul\":1448:1466   */\n      0xffffffffffffffff\n        /* \"#utility.yul\":1440:1446   */\n      dup3\n        /* \"#utility.yul\":1437:1467   */\n      gt\n        /* \"#utility.yul\":1434:1490   */\n      iszero\n      tag_52\n      jumpi\n        /* \"#utility.yul\":1470:1488   */\n      tag_53\n      tag_23\n      jump\t// in\n    tag_53:\n        /* \"#utility.yul\":1434:1490   */\n    tag_52:\n        /* \"#utility.yul\":1508:1537   */\n      tag_54\n        /* \"#utility.yul\":1530:1536   */\n      dup3\n        /* \"#utility.yul\":1508:1537   */\n      tag_22\n      jump\t// in\n    tag_54:\n        /* \"#utility.yul\":1500:1537   */\n      swap1\n      pop\n        /* \"#utility.yul\":1592:1596   */\n      0x20\n        /* \"#utility.yul\":1586:1590   */\n      dup2\n        /* \"#utility.yul\":1582:1597   */\n      add\n        /* \"#utility.yul\":1574:1597   */\n      swap1\n      pop\n        /* \"#utility.yul\":1296:1604   */\n      swap2\n      swap1\n      pop\n      jump\t// out\n        /* \"#utility.yul\":1610:1756   */\n    tag_27:\n        /* \"#utility.yul\":1707:1713   */\n      dup3\n        /* \"#utility.yul\":1702:1705   */\n      dup2\n        /* \"#utility.yul\":1697:1700   */\n      dup4\n        /* \"#utility.yul\":1684:1714   */\n      calldatacopy\n        /* \"#utility.yul\":1748:1749   */\n      0x00\n        /* \"#utility.yul\":1739:1745   */\n      dup4\n        /* \"#utility.yul\":1734:1737   */\n      dup4\n        /* \"#utility.yul\":1730:1746   */\n      add\n        /* \"#utility.yul\":1723:1750   */\n      mstore\n        /* \"#utility.yul\":1610:1756   */\n      pop\n      pop\n      pop\n      jump\t// out\n        /* \"#utility.yul\":1762:2187   */\n    tag_28:\n        /* \"#utility.yul\":1840:1845   */\n      0x00\n        /* \"#utility.yul\":1865:1931   */\n      tag_57\n        /* \"#utility.yul\":1881:1930   */\n      tag_58\n        /* \"#utility.yul\":1923:1929   */\n      dup5\n        /* \"#utility.yul\":1881:1930   */\n      tag_26\n      jump\t// in\n    tag_58:\n        /* \"#utility.yul\":1865:1931   */\n      tag_25\n      jump\t// in\n    tag_57:\n        /* \"#utility.yul\":1856:1931   */\n      swap1\n      pop\n        /* \"#utility.yul\":1954:1960   */\n      dup3\n        /* \"#utility.yul\":1947:1952   */\n      dup2\n        /* \"#utility.yul\":1940:1961   */\n      mstore\n        /* \"#utility.yul\":1992:1996   */\n      0x20\n        /* \"#utility.yul\":1985:1990   */\n      dup2\n        /* \"#utility.yul\":1981:1997   */\n      add\n        /* \"#utility.yul\":2030:2033   */\n      dup5\n        /* \"#utility.yul\":2021:2027   */\n      dup5\n        /* \"#utility.yul\":2016:2019   */\n      dup5\n        /* \"#utility.yul\":2012:2028   */\n      add\n        /* \"#utility.yul\":2009:2034   */\n      gt\n        /* \"#utility.yul\":2006:2118   */\n      iszero\n      tag_59\n      jumpi\n        /* \"#utility.yul\":2037:2116   */\n      tag_60\n      tag_21\n      jump\t// in\n    tag_60:\n        /* \"#utility.yul\":2006:2118   */\n    tag_59:\n        /* \"#utility.yul\":2127:2181   */\n      tag_61\n        /* \"#utility.yul\":2174:2180   */\n      dup5\n        /* \"#utility.yul\":2169:2172   */\n      dup3\n        /* \"#utility.yul\":2164:2167   */\n      dup6\n        /* \"#utility.yul\":2127:2181   */\n      tag_27\n      jump\t// in\n    tag_61:\n        /* \"#utility.yul\":1846:2187   */\n      pop\n        /* \"#utility.yul\":1762:2187   */\n      swap4\n      swap3\n      pop\n      pop\n      pop\n      jump\t// out\n        /* \"#utility.yul\":2207:2547   */\n    tag_29:\n        /* \"#utility.yul\":2263:2268   */\n      0x00\n        /* \"#utility.yul\":2312:2315   */\n      dup3\n        /* \"#utility.yul\":2305:2309   */\n      0x1f\n        /* \"#utility.yul\":2297:2303   */\n      dup4\n        /* \"#utility.yul\":2293:2310   */\n      add\n        /* \"#utility.yul\":2289:2316   */\n      slt\n        /* \"#utility.yul\":2279:2401   */\n      tag_63\n      jumpi\n        /* \"#utility.yul\":2320:2399   */\n      tag_64\n      tag_20\n      jump\t// in\n    tag_64:\n        /* \"#utility.yul\":2279:2401   */\n    tag_63:\n        /* \"#utility.yul\":2437:2443   */\n      dup2\n        /* \"#utility.yul\":2424:2444   */\n      calldataload\n        /* \"#utility.yul\":2462:2541   */\n      tag_65\n        /* \"#utility.yul\":2537:2540   */\n      dup5\n        /* \"#utility.yul\":2529:2535   */\n      dup3\n        /* \"#utility.yul\":2522:2526   */\n      0x20\n        /* \"#utility.yul\":2514:2520   */\n      dup7\n        /* \"#utility.yul\":2510:2527   */\n      add\n        /* \"#utility.yul\":2462:2541   */\n      tag_28\n      jump\t// in\n    tag_65:\n        /* \"#utility.yul\":2453:2541   */\n      swap2\n      pop\n        /* \"#utility.yul\":2269:2547   */\n      pop\n        /* \"#utility.yul\":2207:2547   */\n      swap3\n      swap2\n      pop\n      pop\n      jump\t// out\n        /* \"#utility.yul\":2553:3387   */\n    tag_6:\n        /* \"#utility.yul\":2641:2647   */\n      0x00\n        /* \"#utility.yul\":2649:2655   */\n      dup1\n        /* \"#utility.yul\":2698:2700   */\n      0x40\n        /* \"#utility.yul\":2686:2695   */\n      dup4\n        /* \"#utility.yul\":2677:2684   */\n      dup6\n        /* \"#utility.yul\":2673:2696   */\n      sub\n        /* \"#utility.yul\":2669:2701   */\n      slt\n        /* \"#utility.yul\":2666:2785   */\n      iszero\n      tag_67\n      jumpi\n        /* \"#utility.yul\":2704:2783   */\n      tag_68\n      tag_18\n      jump\t// in\n    tag_68:\n        /* \"#utility.yul\":2666:2785   */\n    tag_67:\n        /* \"#utility.yul\":2852:2853   */\n      0x00\n        /* \"#utility.yul\":2841:2850   */\n      dup4\n        /* \"#utility.yul\":2837:2854   */\n      add\n        /* \"#utility.yul\":2824:2855   */\n      calldataload\n        /* \"#utility.yul\":2882:2900   */\n      0xffffffffffffffff\n        /* \"#utility.yul\":2874:2880   */\n      dup2\n        /* \"#utility.yul\":2871:2901   */\n      gt\n        /* \"#utility.yul\":2868:2985   */\n      iszero\n      tag_69\n      jumpi\n        /* \"#utility.yul\":2904:2983   */\n      tag_70\n      tag_19\n      jump\t// in\n    tag_70:\n        /* \"#utility.yul\":2868:2985   */\n    tag_69:\n        /* \"#utility.yul\":3009:3072   */\n      tag_71\n        /* \"#utility.yul\":3064:3071   */\n      dup6\n        /* \"#utility.yul\":3055:3061   */\n      dup3\n        /* \"#utility.yul\":3044:3053   */\n      dup7\n        /* \"#utility.yul\":3040:3062   */\n      add\n        /* \"#utility.yul\":3009:3072   */\n      tag_29\n      jump\t// in\n    tag_71:\n        /* \"#utility.yul\":2999:3072   */\n      swap3\n      pop\n        /* \"#utility.yul\":2795:3082   */\n      pop\n        /* \"#utility.yul\":3149:3151   */\n      0x20\n        /* \"#utility.yul\":3138:3147   */\n      dup4\n        /* \"#utility.yul\":3134:3152   */\n      add\n        /* \"#utility.yul\":3121:3153   */\n      calldataload\n        /* \"#utility.yul\":3180:3198   */\n      0xffffffffffffffff\n        /* \"#utility.yul\":3172:3178   */\n      dup2\n        /* \"#utility.yul\":3169:3199   */\n      gt\n        /* \"#utility.yul\":3166:3283   */\n      iszero\n      tag_72\n      jumpi\n        /* \"#utility.yul\":3202:3281   */\n      tag_73\n      tag_19\n      jump\t// in\n    tag_73:\n        /* \"#utility.yul\":3166:3283   */\n    tag_72:\n        /* \"#utility.yul\":3307:3370   */\n      tag_74\n        /* \"#utility.yul\":3362:3369   */\n      dup6\n        /* \"#utility.yul\":3353:3359   */\n      dup3\n        /* \"#utility.yul\":3342:3351   */\n      dup7\n        /* \"#utility.yul\":3338:3360   */\n      add\n        /* \"#utility.yul\":3307:3370   */\n      tag_29\n      jump\t// in\n    tag_74:\n        /* \"#utility.yul\":3297:3370   */\n      swap2\n      pop\n        /* \"#utility.yul\":3092:3380   */\n      pop\n        /* \"#utility.yul\":2553:3387   */\n      swap3\n      pop\n      swap3\n      swap1\n      pop\n      jump\t// out\n        /* \"#utility.yul\":3393:3483   */\n    tag_30:\n        /* \"#utility.yul\":3427:3434   */\n      0x00\n        /* \"#utility.yul\":3470:3475   */\n      dup2\n        /* \"#utility.yul\":3463:3476   */\n      iszero\n        /* \"#utility.yul\":3456:3477   */\n      iszero\n        /* \"#utility.yul\":3445:3477   */\n      swap1\n      pop\n        /* \"#utility.yul\":3393:3483   */\n      swap2\n      swap1\n      pop\n      jump\t// out\n        /* \"#utility.yul\":3489:3598   */\n    tag_31:\n        /* \"#utility.yul\":3570:3591   */\n      tag_77\n        /* \"#utility.yul\":3585:3590   */\n      dup2\n        /* \"#utility.yul\":3570:3591   */\n      tag_30\n      jump\t// in\n    tag_77:\n        /* \"#utility.yul\":3565:3568   */\n      dup3\n        /* \"#utility.yul\":3558:3592   */\n      mstore\n        /* \"#utility.yul\":3489:3598   */\n      pop\n      pop\n      jump\t// out\n        /* \"#utility.yul\":3604:3814   */\n    tag_9:\n        /* \"#utility.yul\":3691:3695   */\n      0x00\n        /* \"#utility.yul\":3729:3731   */\n      0x20\n        /* \"#utility.yul\":3718:3727   */\n      dup3\n        /* \"#utility.yul\":3714:3732   */\n      add\n        /* \"#utility.yul\":3706:3732   */\n      swap1\n      pop\n        /* \"#utility.yul\":3742:3807   */\n      tag_79\n        /* \"#utility.yul\":3804:3805   */\n      0x00\n        /* \"#utility.yul\":3793:3802   */\n      dup4\n        /* \"#utility.yul\":3789:3806   */\n      add\n        /* \"#utility.yul\":3780:3786   */\n      dup5\n        /* \"#utility.yul\":3742:3807   */\n      tag_31\n      jump\t// in\n    tag_79:\n        /* \"#utility.yul\":3604:3814   */\n      swap3\n      swap2\n      pop\n      pop\n      jump\t// out\n        /* \"#utility.yul\":3820:3919   */\n    tag_32:\n        /* \"#utility.yul\":3872:3878   */\n      0x00\n        /* \"#utility.yul\":3906:3911   */\n      dup2\n        /* \"#utility.yul\":3900:3912   */\n      mload\n        /* \"#utility.yul\":3890:3912   */\n      swap1\n      pop\n        /* \"#utility.yul\":3820:3919   */\n      swap2\n      swap1\n      pop\n      jump\t// out\n        /* \"#utility.yul\":3925:4094   */\n    tag_33:\n        /* \"#utility.yul\":4009:4020   */\n      0x00\n        /* \"#utility.yul\":4043:4049   */\n      dup3\n        /* \"#utility.yul\":4038:4041   */\n      dup3\n        /* \"#utility.yul\":4031:4050   */\n      mstore\n        /* \"#utility.yul\":4083:4087   */\n      0x20\n        /* \"#utility.yul\":4078:4081   */\n      dup3\n        /* \"#utility.yul\":4074:4088   */\n      add\n        /* \"#utility.yul\":4059:4088   */\n      swap1\n      pop\n        /* \"#utility.yul\":3925:4094   */\n      swap3\n      swap2\n      pop\n      pop\n      jump\t// out\n        /* \"#utility.yul\":4100:4346   */\n    tag_34:\n        /* \"#utility.yul\":4181:4182   */\n      0x00\n        /* \"#utility.yul\":4191:4304   */\n    tag_83:\n        /* \"#utility.yul\":4205:4211   */\n      dup4\n        /* \"#utility.yul\":4202:4203   */\n      dup2\n        /* \"#utility.yul\":4199:4212   */\n      lt\n        /* \"#utility.yul\":4191:4304   */\n      iszero\n      tag_85\n      jumpi\n        /* \"#utility.yul\":4290:4291   */\n      dup1\n        /* \"#utility.yul\":4285:4288   */\n      dup3\n        /* \"#utility.yul\":4281:4292   */\n      add\n        /* \"#utility.yul\":4275:4293   */\n      mload\n        /* \"#utility.yul\":4271:4272   */\n      dup2\n        /* \"#utility.yul\":4266:4269   */\n      dup5\n        /* \"#utility.yul\":4262:4273   */\n      add\n        /* \"#utility.yul\":4255:4294   */\n      mstore\n        /* \"#utility.yul\":4227:4229   */\n      0x20\n        /* \"#utility.yul\":4224:4225   */\n      dup2\n        /* \"#utility.yul\":4220:4230   */\n      add\n        /* \"#utility.yul\":4215:4230   */\n      swap1\n      pop\n        /* \"#utility.yul\":4191:4304   */\n      jump(tag_83)\n    tag_85:\n        /* \"#utility.yul\":4338:4339   */\n      0x00\n        /* \"#utility.yul\":4329:4335   */\n      dup5\n        /* \"#utility.yul\":4324:4327   */\n      dup5\n        /* \"#utility.yul\":4320:4336   */\n      add\n        /* \"#utility.yul\":4313:4340   */\n      mstore\n        /* \"#utility.yul\":4162:4346   */\n      pop\n        /* \"#utility.yul\":4100:4346   */\n      pop\n      pop\n      pop\n      jump\t// out\n        /* \"#utility.yul\":4352:4729   */\n    tag_35:\n        /* \"#utility.yul\":4440:4443   */\n      0x00\n        /* \"#utility.yul\":4468:4507   */\n      tag_87\n        /* \"#utility.yul\":4501:4506   */\n      dup3\n        /* \"#utility.yul\":4468:4507   */\n      tag_32\n      jump\t// in\n    tag_87:\n        /* \"#utility.yul\":4523:4594   */\n      tag_88\n        /* \"#utility.yul\":4587:4593   */\n      dup2\n        /* \"#utility.yul\":4582:4585   */\n      dup6\n        /* \"#utility.yul\":4523:4594   */\n      tag_33\n      jump\t// in\n    tag_88:\n        /* \"#utility.yul\":4516:4594   */\n      swap4\n      pop\n        /* \"#utility.yul\":4603:4668   */\n      tag_89\n        /* \"#utility.yul\":4661:4667   */\n      dup2\n        /* \"#utility.yul\":4656:4659   */\n      dup6\n        /* \"#utility.yul\":4649:4653   */\n      0x20\n        /* \"#utility.yul\":4642:4647   */\n      dup7\n        /* \"#utility.yul\":4638:4654   */\n      add\n        /* \"#utility.yul\":4603:4668   */\n      tag_34\n      jump\t// in\n    tag_89:\n        /* \"#utility.yul\":4693:4722   */\n      tag_90\n        /* \"#utility.yul\":4715:4721   */\n      dup2\n        /* \"#utility.yul\":4693:4722   */\n      tag_22\n      jump\t// in\n    tag_90:\n        /* \"#utility.yul\":4688:4691   */\n      dup5\n        /* \"#utility.yul\":4684:4723   */\n      add\n        /* \"#utility.yul\":4677:4723   */\n      swap2\n      pop\n        /* \"#utility.yul\":4444:4729   */\n      pop\n        /* \"#utility.yul\":4352:4729   */\n      swap3\n      swap2\n      pop\n      pop\n      jump\t// out\n        /* \"#utility.yul\":4735:5048   */\n    tag_15:\n        /* \"#utility.yul\":4848:4852   */\n      0x00\n        /* \"#utility.yul\":4886:4888   */\n      0x20\n        /* \"#utility.yul\":4875:4884   */\n      dup3\n        /* \"#utility.yul\":4871:4889   */\n      add\n        /* \"#utility.yul\":4863:4889   */\n      swap1\n      pop\n        /* \"#utility.yul\":4935:4944   */\n      dup2\n        /* \"#utility.yul\":4929:4933   */\n      dup2\n        /* \"#utility.yul\":4925:4945   */\n      sub\n        /* \"#utility.yul\":4921:4922   */\n      0x00\n        /* \"#utility.yul\":4910:4919   */\n      dup4\n        /* \"#utility.yul\":4906:4923   */\n      add\n        /* \"#utility.yul\":4899:4946   */\n      mstore\n        /* \"#utility.yul\":4963:5041   */\n      tag_92\n        /* \"#utility.yul\":5036:5040   */\n      dup2\n        /* \"#utility.yul\":5027:5033   */\n      dup5\n        /* \"#utility.yul\":4963:5041   */\n      tag_35\n      jump\t// in\n    tag_92:\n        /* \"#utility.yul\":4955:5041   */\n      swap1\n      pop\n        /* \"#utility.yul\":4735:5048   */\n      swap3\n      swap2\n      pop\n      pop\n      jump\t// out\n\n    auxdata: 0xa26469706673582212200d1b3bcd9df8376c8e7cd83d2605f3cf6abcda4fbb0bfadfe2f8af567660f35464736f6c63430008120033\n}\n",
				"bytecode": {
					"linkReferences": {},
					"object": "608060405234801561001057600080fd5b506103c0806100206000396000f3fe608060405234801561001057600080fd5b506004361061002b5760003560e01c8063465c410514610030575b600080fd5b61004a6004803603810190610045919061023b565b610060565b60405161005791906102ce565b60405180910390f35b6000610075828461007d90919063ffffffff16565b905092915050565b600080836040516020016100919190610368565b6040516020818303038152906040528051906020012090506000836040516020016100bc9190610368565b6040516020818303038152906040528051906020012090508082149250505092915050565b6000604051905090565b600080fd5b600080fd5b600080fd5b600080fd5b6000601f19601f8301169050919050565b7f4e487b7100000000000000000000000000000000000000000000000000000000600052604160045260246000fd5b610148826100ff565b810181811067ffffffffffffffff8211171561016757610166610110565b5b80604052505050565b600061017a6100e1565b9050610186828261013f565b919050565b600067ffffffffffffffff8211156101a6576101a5610110565b5b6101af826100ff565b9050602081019050919050565b82818337600083830152505050565b60006101de6101d98461018b565b610170565b9050828152602081018484840111156101fa576101f96100fa565b5b6102058482856101bc565b509392505050565b600082601f830112610222576102216100f5565b5b81356102328482602086016101cb565b91505092915050565b60008060408385031215610252576102516100eb565b5b600083013567ffffffffffffffff8111156102705761026f6100f0565b5b61027c8582860161020d565b925050602083013567ffffffffffffffff81111561029d5761029c6100f0565b5b6102a98582860161020d565b9150509250929050565b60008115159050919050565b6102c8816102b3565b82525050565b60006020820190506102e360008301846102bf565b92915050565b600081519050919050565b600082825260208201905092915050565b60005b83811015610323578082015181840152602081019050610308565b60008484015250505050565b600061033a826102e9565b61034481856102f4565b9350610354818560208601610305565b61035d816100ff565b840191505092915050565b60006020820190508181036000830152610382818461032f565b90509291505056fea26469706673582212200d1b3bcd9df8376c8e7cd83d2605f3cf6abcda4fbb0bfadfe2f8af567660f35464736f6c63430008120033",
					"opcodes": "PUSH1 0x80 PUSH1 0x40 MSTORE CALLVALUE DUP1 ISZERO PUSH2 0x10 JUMPI PUSH1 0x0 DUP1 REVERT JUMPDEST POP PUSH2 0x3C0 DUP1 PUSH2 0x20 PUSH1 0x0 CODECOPY PUSH1 0x0 RETURN INVALID PUSH1 0x80 PUSH1 0x40 MSTORE CALLVALUE DUP1 ISZERO PUSH2 0x10 JUMPI PUSH1 0x0 DUP1 REVERT JUMPDEST POP PUSH1 0x4 CALLDATASIZE LT PUSH2 0x2B JUMPI PUSH1 0x0 CALLDATALOAD PUSH1 0xE0 SHR DUP1 PUSH4 0x465C4105 EQ PUSH2 0x30 JUMPI JUMPDEST PUSH1 0x0 DUP1 REVERT JUMPDEST PUSH2 0x4A PUSH1 0x4 DUP1 CALLDATASIZE SUB DUP2 ADD SWAP1 PUSH2 0x45 SWAP2 SWAP1 PUSH2 0x23B JUMP JUMPDEST PUSH2 0x60 JUMP JUMPDEST PUSH1 0x40 MLOAD PUSH2 0x57 SWAP2 SWAP1 PUSH2 0x2CE JUMP JUMPDEST PUSH1 0x40 MLOAD DUP1 SWAP2 SUB SWAP1 RETURN JUMPDEST PUSH1 0x0 PUSH2 0x75 DUP3 DUP5 PUSH2 0x7D SWAP1 SWAP2 SWAP1 PUSH4 0xFFFFFFFF AND JUMP JUMPDEST SWAP1 POP SWAP3 SWAP2 POP POP JUMP JUMPDEST PUSH1 0x0 DUP1 DUP4 PUSH1 0x40 MLOAD PUSH1 0x20 ADD PUSH2 0x91 SWAP2 SWAP1 PUSH2 0x368 JUMP JUMPDEST PUSH1 0x40 MLOAD PUSH1 0x20 DUP2 DUP4 SUB SUB DUP2 MSTORE SWAP1 PUSH1 0x40 MSTORE DUP1 MLOAD SWAP1 PUSH1 0x20 ADD KECCAK256 SWAP1 POP PUSH1 0x0 DUP4 PUSH1 0x40 MLOAD PUSH1 0x20 ADD PUSH2 0xBC SWAP2 SWAP1 PUSH2 0x368 JUMP JUMPDEST PUSH1 0x40 MLOAD PUSH1 0x20 DUP2 DUP4 SUB SUB DUP2 MSTORE SWAP1 PUSH1 0x40 MSTORE DUP1 MLOAD SWAP1 PUSH1 0x20 ADD KECCAK256 SWAP1 POP DUP1 DUP3 EQ SWAP3 POP POP POP SWAP3 SWAP2 POP POP JUMP JUMPDEST PUSH1 0x0 PUSH1 0x40 MLOAD SWAP1 POP SWAP1 JUMP JUMPDEST PUSH1 0x0 DUP1 REVERT JUMPDEST PUSH1 0x0 DUP1 REVERT JUMPDEST PUSH1 0x0 DUP1 REVERT JUMPDEST PUSH1 0x0 DUP1 REVERT JUMPDEST PUSH1 0x0 PUSH1 0x1F NOT PUSH1 0x1F DUP4 ADD AND SWAP1 POP SWAP2 SWAP1 POP JUMP JUMPDEST PUSH32 0x4E487B7100000000000000000000000000000000000000000000000000000000 PUSH1 0x0 MSTORE PUSH1 0x41 PUSH1 0x4 MSTORE PUSH1 0x24 PUSH1 0x0 REVERT JUMPDEST PUSH2 0x148 DUP3 PUSH2 0xFF JUMP JUMPDEST DUP2 ADD DUP2 DUP2 LT PUSH8 0xFFFFFFFFFFFFFFFF DUP3 GT OR ISZERO PUSH2 0x167 JUMPI PUSH2 0x166 PUSH2 0x110 JUMP JUMPDEST JUMPDEST DUP1 PUSH1 0x40 MSTORE POP POP POP JUMP JUMPDEST PUSH1 0x0 PUSH2 0x17A PUSH2 0xE1 JUMP JUMPDEST SWAP1 POP PUSH2 0x186 DUP3 DUP3 PUSH2 0x13F JUMP JUMPDEST SWAP2 SWAP1 POP JUMP JUMPDEST PUSH1 0x0 PUSH8 0xFFFFFFFFFFFFFFFF DUP3 GT ISZERO PUSH2 0x1A6 JUMPI PUSH2 0x1A5 PUSH2 0x110 JUMP JUMPDEST JUMPDEST PUSH2 0x1AF DUP3 PUSH2 0xFF JUMP JUMPDEST SWAP1 POP PUSH1 0x20 DUP2 ADD SWAP1 POP SWAP2 SWAP1 POP JUMP JUMPDEST DUP3 DUP2 DUP4 CALLDATACOPY PUSH1 0x0 DUP4 DUP4 ADD MSTORE POP POP POP JUMP JUMPDEST PUSH1 0x0 PUSH2 0x1DE PUSH2 0x1D9 DUP5 PUSH2 0x18B JUMP JUMPDEST PUSH2 0x170 JUMP JUMPDEST SWAP1 POP DUP3 DUP2 MSTORE PUSH1 0x20 DUP2 ADD DUP5 DUP5 DUP5 ADD GT ISZERO PUSH2 0x1FA JUMPI PUSH2 0x1F9 PUSH2 0xFA JUMP JUMPDEST JUMPDEST PUSH2 0x205 DUP5 DUP3 DUP6 PUSH2 0x1BC JUMP JUMPDEST POP SWAP4 SWAP3 POP POP POP JUMP JUMPDEST PUSH1 0x0 DUP3 PUSH1 0x1F DUP4 ADD SLT PUSH2 0x222 JUMPI PUSH2 0x221 PUSH2 0xF5 JUMP JUMPDEST JUMPDEST DUP2 CALLDATALOAD PUSH2 0x232 DUP5 DUP3 PUSH1 0x20 DUP7 ADD PUSH2 0x1CB JUMP JUMPDEST SWAP2 POP POP SWAP3 SWAP2 POP POP JUMP JUMPDEST PUSH1 0x0 DUP1 PUSH1 0x40 DUP4 DUP6 SUB SLT ISZERO PUSH2 0x252 JUMPI PUSH2 0x251 PUSH2 0xEB JUMP JUMPDEST JUMPDEST PUSH1 0x0 DUP4 ADD CALLDATALOAD PUSH8 0xFFFFFFFFFFFFFFFF DUP2 GT ISZERO PUSH2 0x270 JUMPI PUSH2 0x26F PUSH2 0xF0 JUMP JUMPDEST JUMPDEST PUSH2 0x27C DUP6 DUP3 DUP7 ADD PUSH2 0x20D JUMP JUMPDEST SWAP3 POP POP PUSH1 0x20 DUP4 ADD CALLDATALOAD PUSH8 0xFFFFFFFFFFFFFFFF DUP2 GT ISZERO PUSH2 0x29D JUMPI PUSH2 0x29C PUSH2 0xF0 JUMP JUMPDEST JUMPDEST PUSH2 0x2A9 DUP6 DUP3 DUP7 ADD PUSH2 0x20D JUMP JUMPDEST SWAP2 POP POP SWAP3 POP SWAP3 SWAP1 POP JUMP JUMPDEST PUSH1 0x0 DUP2 ISZERO ISZERO SWAP1 POP SWAP2 SWAP1 POP JUMP JUMPDEST PUSH2 0x2C8 DUP2 PUSH2 0x2B3 JUMP JUMPDEST DUP3 MSTORE POP POP JUMP JUMPDEST PUSH1 0x0 PUSH1 0x20 DUP3 ADD SWAP1 POP PUSH2 0x2E3 PUSH1 0x0 DUP4 ADD DUP5 PUSH2 0x2BF JUMP JUMPDEST SWAP3 SWAP2 POP POP JUMP JUMPDEST PUSH1 0x0 DUP2 MLOAD SWAP1 POP SWAP2 SWAP1 POP JUMP JUMPDEST PUSH1 0x0 DUP3 DUP3 MSTORE PUSH1 0x20 DUP3 ADD SWAP1 POP SWAP3 SWAP2 POP POP JUMP JUMPDEST PUSH1 0x0 JUMPDEST DUP4 DUP2 LT ISZERO PUSH2 0x323 JUMPI DUP1 DUP3 ADD MLOAD DUP2 DUP5 ADD MSTORE PUSH1 0x20 DUP2 ADD SWAP1 POP PUSH2 0x308 JUMP JUMPDEST PUSH1 0x0 DUP5 DUP5 ADD MSTORE POP POP POP POP JUMP JUMPDEST PUSH1 0x0 PUSH2 0x33A DUP3 PUSH2 0x2E9 JUMP JUMPDEST PUSH2 0x344 DUP2 DUP6 PUSH2 0x2F4 JUMP JUMPDEST SWAP4 POP PUSH2 0x354 DUP2 DUP6 PUSH1 0x20 DUP7 ADD PUSH2 0x305 JUMP JUMPDEST PUSH2 0x35D DUP2 PUSH2 0xFF JUMP JUMPDEST DUP5 ADD SWAP2 POP POP SWAP3 SWAP2 POP POP JUMP JUMPDEST PUSH1 0x0 PUSH1 0x20 DUP3 ADD SWAP1 POP DUP2 DUP2 SUB PUSH1 0x0 DUP4 ADD MSTORE PUSH2 0x382 DUP2 DUP5 PUSH2 0x32F JUMP JUMPDEST SWAP1 POP SWAP3 SWAP2 POP POP JUMP INVALID LOG2 PUSH5 0x6970667358 0x22 SLT KECCAK256 0xD SHL EXTCODESIZE 0xCD SWAP14 0xF8 CALLDATACOPY PUSH13 0x8E7CD83D2605F3CF6ABCDA4FBB SIGNEXTEND STATICCALL 0xDF 0xE2 0xF8 0xAF JUMP PUSH23 0x60F35464736F6C63430008120033000000000000000000 "
				},
				"gasEstimates": {
					"creation": {
						"codeDepositCost": "192000",
						"executionCost": "232",
						"totalCost": "192232"
					},
					"external": {
						"isEqual(string,string)": "infinite"
					}
				},
				"methodIdentifiers": {
					"isEqual(string,string)": "465c4105"
				}
			},
			"storageLayout": {
				"storage": [],
				"types": null
			},
			"userdoc": {
				"kind": "user",
				"methods": {},
				"version": 1
			}
		}
	}
}