{
	"contracts/07-array_demo.sol": {
		"array_demo": {
			"abi": [
				{
					"inputs": [],
					"stateMutability": "nonpayable",
					"type": "constructor"
				},
				{
					"inputs": [
						{
							"internalType": "uint8",
							"name": "_age",
							"type": "uint8"
						}
					],
					"name": "addAge",
					"outputs": [],
					"stateMutability": "nonpayable",
					"type": "function"
				},
				{
					"inputs": [
						{
							"internalType": "uint256",
							"name": "",
							"type": "uint256"
						}
					],
					"name": "ages",
					"outputs": [
						{
							"internalType": "uint8",
							"name": "",
							"type": "uint8"
						}
					],
					"stateMutability": "view",
					"type": "function"
				},
				{
					"inputs": [],
					"name": "getLength",
					"outputs": [
						{
							"internalType": "uint256",
							"name": "",
							"type": "uint256"
						},
						{
							"internalType": "uint256",
							"name": "",
							"type": "uint256"
						}
					],
					"stateMutability": "view",
					"type": "function"
				},
				{
					"inputs": [
						{
							"internalType": "uint256",
							"name": "",
							"type": "uint256"
						}
					],
					"name": "names",
					"outputs": [
						{
							"internalType": "string",
							"name": "",
							"type": "string"
						}
					],
					"stateMutability": "view",
					"type": "function"
				}
			],
			"devdoc": {
				"kind": "dev",
				"methods": {},
				"version": 1
			},
			"evm": {
				"assembly": "    /* \"contracts/07-array_demo.sol\":117:686  contract array_demo{... */\n  mstore(0x40, 0x80)\n    /* \"contracts/07-array_demo.sol\":196:401  constructor(){... */\n  callvalue\n  dup1\n  iszero\n  tag_1\n  jumpi\n  0x00\n  dup1\n  revert\ntag_1:\n  pop\n    /* \"contracts/07-array_demo.sol\":219:240  names[0] = \"zhangsan\" */\n  mload(0x40)\n  dup1\n  0x40\n  add\n  0x40\n  mstore\n  dup1\n  0x08\n  dup2\n  mstore\n  0x20\n  add\n  0x7a68616e6773616e000000000000000000000000000000000000000000000000\n  dup2\n  mstore\n  pop\n    /* \"contracts/07-array_demo.sol\":219:224  names */\n  0x00\n    /* \"contracts/07-array_demo.sol\":225:226  0 */\n  dup1\n    /* \"contracts/07-array_demo.sol\":219:227  names[0] */\n  0x05\n  dup2\n  lt\n  tag_4\n  jumpi\n  tag_5\n  tag_6\n  jump\t// in\ntag_5:\ntag_4:\n  add\n    /* \"contracts/07-array_demo.sol\":219:240  names[0] = \"zhangsan\" */\n  swap1\n  dup2\n  tag_8\n  swap2\n  swap1\n  tag_9\n  jump\t// in\ntag_8:\n  pop\n    /* \"contracts/07-array_demo.sol\":250:267  names[1] = \"lisi\" */\n  mload(0x40)\n  dup1\n  0x40\n  add\n  0x40\n  mstore\n  dup1\n  0x04\n  dup2\n  mstore\n  0x20\n  add\n  0x6c69736900000000000000000000000000000000000000000000000000000000\n  dup2\n  mstore\n  pop\n    /* \"contracts/07-array_demo.sol\":250:255  names */\n  0x00\n    /* \"contracts/07-array_demo.sol\":256:257  1 */\n  0x01\n    /* \"contracts/07-array_demo.sol\":250:258  names[1] */\n  0x05\n  dup2\n  lt\n  tag_10\n  jumpi\n  tag_11\n  tag_6\n  jump\t// in\ntag_11:\ntag_10:\n  add\n    /* \"contracts/07-array_demo.sol\":250:267  names[1] = \"lisi\" */\n  swap1\n  dup2\n  tag_13\n  swap2\n  swap1\n  tag_9\n  jump\t// in\ntag_13:\n  pop\n    /* \"contracts/07-array_demo.sol\":328:332  ages */\n  0x05\n    /* \"contracts/07-array_demo.sol\":338:340  20 */\n  0x14\n    /* \"contracts/07-array_demo.sol\":328:341  ages.push(20) */\n  swap1\n  dup1\n  0x01\n  dup2\n  sload\n  add\n  dup1\n  dup3\n  sstore\n  dup1\n  swap2\n  pop\n  pop\n  0x01\n  swap1\n  sub\n  swap1\n  0x00\n  mstore\n  keccak256(0x00, 0x20)\n  swap1\n  0x20\n  swap2\n  dup3\n  dup3\n  div\n  add\n  swap2\n  swap1\n  mod\n  swap1\n  swap2\n  swap1\n  swap2\n  swap1\n  swap2\n  0x0100\n  exp\n  dup2\n  sload\n  dup2\n  0xff\n  mul\n  not\n  and\n  swap1\n  dup4\n  0xff\n  and\n  mul\n  or\n  swap1\n  sstore\n  pop\n    /* \"contracts/07-array_demo.sol\":117:686  contract array_demo{... */\n  jump(tag_15)\n    /* \"#utility.yul\":7:187   */\ntag_6:\n    /* \"#utility.yul\":55:132   */\n  0x4e487b7100000000000000000000000000000000000000000000000000000000\n    /* \"#utility.yul\":52:53   */\n  0x00\n    /* \"#utility.yul\":45:133   */\n  mstore\n    /* \"#utility.yul\":152:156   */\n  0x32\n    /* \"#utility.yul\":149:150   */\n  0x04\n    /* \"#utility.yul\":142:157   */\n  mstore\n    /* \"#utility.yul\":176:180   */\n  0x24\n    /* \"#utility.yul\":173:174   */\n  0x00\n    /* \"#utility.yul\":166:181   */\n  revert\n    /* \"#utility.yul\":193:292   */\ntag_16:\n    /* \"#utility.yul\":245:251   */\n  0x00\n    /* \"#utility.yul\":279:284   */\n  dup2\n    /* \"#utility.yul\":273:285   */\n  mload\n    /* \"#utility.yul\":263:285   */\n  swap1\n  pop\n    /* \"#utility.yul\":193:292   */\n  swap2\n  swap1\n  pop\n  jump\t// out\n    /* \"#utility.yul\":298:478   */\ntag_17:\n    /* \"#utility.yul\":346:423   */\n  0x4e487b7100000000000000000000000000000000000000000000000000000000\n    /* \"#utility.yul\":343:344   */\n  0x00\n    /* \"#utility.yul\":336:424   */\n  mstore\n    /* \"#utility.yul\":443:447   */\n  0x41\n    /* \"#utility.yul\":440:441   */\n  0x04\n    /* \"#utility.yul\":433:448   */\n  mstore\n    /* \"#utility.yul\":467:471   */\n  0x24\n    /* \"#utility.yul\":464:465   */\n  0x00\n    /* \"#utility.yul\":457:472   */\n  revert\n    /* \"#utility.yul\":484:664   */\ntag_18:\n    /* \"#utility.yul\":532:609   */\n  0x4e487b7100000000000000000000000000000000000000000000000000000000\n    /* \"#utility.yul\":529:530   */\n  0x00\n    /* \"#utility.yul\":522:610   */\n  mstore\n    /* \"#utility.yul\":629:633   */\n  0x22\n    /* \"#utility.yul\":626:627   */\n  0x04\n    /* \"#utility.yul\":619:634   */\n  mstore\n    /* \"#utility.yul\":653:657   */\n  0x24\n    /* \"#utility.yul\":650:651   */\n  0x00\n    /* \"#utility.yul\":643:658   */\n  revert\n    /* \"#utility.yul\":670:990   */\ntag_19:\n    /* \"#utility.yul\":714:720   */\n  0x00\n    /* \"#utility.yul\":751:752   */\n  0x02\n    /* \"#utility.yul\":745:749   */\n  dup3\n    /* \"#utility.yul\":741:753   */\n  div\n    /* \"#utility.yul\":731:753   */\n  swap1\n  pop\n    /* \"#utility.yul\":798:799   */\n  0x01\n    /* \"#utility.yul\":792:796   */\n  dup3\n    /* \"#utility.yul\":788:800   */\n  and\n    /* \"#utility.yul\":819:837   */\n  dup1\n    /* \"#utility.yul\":809:890   */\n  tag_42\n  jumpi\n    /* \"#utility.yul\":875:879   */\n  0x7f\n    /* \"#utility.yul\":867:873   */\n  dup3\n    /* \"#utility.yul\":863:880   */\n  and\n    /* \"#utility.yul\":853:880   */\n  swap2\n  pop\n    /* \"#utility.yul\":809:890   */\ntag_42:\n    /* \"#utility.yul\":937:939   */\n  0x20\n    /* \"#utility.yul\":929:935   */\n  dup3\n    /* \"#utility.yul\":926:940   */\n  lt\n    /* \"#utility.yul\":906:924   */\n  dup2\n    /* \"#utility.yul\":903:941   */\n  sub\n    /* \"#utility.yul\":900:984   */\n  tag_43\n  jumpi\n    /* \"#utility.yul\":956:974   */\n  tag_44\n  tag_18\n  jump\t// in\ntag_44:\n    /* \"#utility.yul\":900:984   */\ntag_43:\n    /* \"#utility.yul\":721:990   */\n  pop\n    /* \"#utility.yul\":670:990   */\n  swap2\n  swap1\n  pop\n  jump\t// out\n    /* \"#utility.yul\":996:1137   */\ntag_20:\n    /* \"#utility.yul\":1045:1049   */\n  0x00\n    /* \"#utility.yul\":1068:1071   */\n  dup2\n    /* \"#utility.yul\":1060:1071   */\n  swap1\n  pop\n    /* \"#utility.yul\":1091:1094   */\n  dup2\n    /* \"#utility.yul\":1088:1089   */\n  0x00\n    /* \"#utility.yul\":1081:1095   */\n  mstore\n    /* \"#utility.yul\":1125:1129   */\n  0x20\n    /* \"#utility.yul\":1122:1123   */\n  0x00\n    /* \"#utility.yul\":1112:1130   */\n  keccak256\n    /* \"#utility.yul\":1104:1130   */\n  swap1\n  pop\n    /* \"#utility.yul\":996:1137   */\n  swap2\n  swap1\n  pop\n  jump\t// out\n    /* \"#utility.yul\":1143:1236   */\ntag_21:\n    /* \"#utility.yul\":1180:1186   */\n  0x00\n    /* \"#utility.yul\":1227:1229   */\n  0x20\n    /* \"#utility.yul\":1222:1224   */\n  0x1f\n    /* \"#utility.yul\":1215:1220   */\n  dup4\n    /* \"#utility.yul\":1211:1225   */\n  add\n    /* \"#utility.yul\":1207:1230   */\n  div\n    /* \"#utility.yul\":1197:1230   */\n  swap1\n  pop\n    /* \"#utility.yul\":1143:1236   */\n  swap2\n  swap1\n  pop\n  jump\t// out\n    /* \"#utility.yul\":1242:1349   */\ntag_22:\n    /* \"#utility.yul\":1286:1294   */\n  0x00\n    /* \"#utility.yul\":1336:1341   */\n  dup3\n    /* \"#utility.yul\":1330:1334   */\n  dup3\n    /* \"#utility.yul\":1326:1342   */\n  shl\n    /* \"#utility.yul\":1305:1342   */\n  swap1\n  pop\n    /* \"#utility.yul\":1242:1349   */\n  swap3\n  swap2\n  pop\n  pop\n  jump\t// out\n    /* \"#utility.yul\":1355:1748   */\ntag_23:\n    /* \"#utility.yul\":1424:1430   */\n  0x00\n    /* \"#utility.yul\":1474:1475   */\n  0x08\n    /* \"#utility.yul\":1462:1472   */\n  dup4\n    /* \"#utility.yul\":1458:1476   */\n  mul\n    /* \"#utility.yul\":1497:1594   */\n  tag_49\n    /* \"#utility.yul\":1527:1593   */\n  0xffffffffffffffffffffffffffffffffffffffffffffffffffffffffffffffff\n    /* \"#utility.yul\":1516:1525   */\n  dup3\n    /* \"#utility.yul\":1497:1594   */\n  tag_22\n  jump\t// in\ntag_49:\n    /* \"#utility.yul\":1615:1654   */\n  tag_50\n    /* \"#utility.yul\":1645:1653   */\n  dup7\n    /* \"#utility.yul\":1634:1643   */\n  dup4\n    /* \"#utility.yul\":1615:1654   */\n  tag_22\n  jump\t// in\ntag_50:\n    /* \"#utility.yul\":1603:1654   */\n  swap6\n  pop\n    /* \"#utility.yul\":1687:1691   */\n  dup1\n    /* \"#utility.yul\":1683:1692   */\n  not\n    /* \"#utility.yul\":1676:1681   */\n  dup5\n    /* \"#utility.yul\":1672:1693   */\n  and\n    /* \"#utility.yul\":1663:1693   */\n  swap4\n  pop\n    /* \"#utility.yul\":1736:1740   */\n  dup1\n    /* \"#utility.yul\":1726:1734   */\n  dup7\n    /* \"#utility.yul\":1722:1741   */\n  and\n    /* \"#utility.yul\":1715:1720   */\n  dup5\n    /* \"#utility.yul\":1712:1742   */\n  or\n    /* \"#utility.yul\":1702:1742   */\n  swap3\n  pop\n    /* \"#utility.yul\":1431:1748   */\n  pop\n  pop\n    /* \"#utility.yul\":1355:1748   */\n  swap4\n  swap3\n  pop\n  pop\n  pop\n  jump\t// out\n    /* \"#utility.yul\":1754:1831   */\ntag_24:\n    /* \"#utility.yul\":1791:1798   */\n  0x00\n    /* \"#utility.yul\":1820:1825   */\n  dup2\n    /* \"#utility.yul\":1809:1825   */\n  swap1\n  pop\n    /* \"#utility.yul\":1754:1831   */\n  swap2\n  swap1\n  pop\n  jump\t// out\n    /* \"#utility.yul\":1837:1897   */\ntag_25:\n    /* \"#utility.yul\":1865:1868   */\n  0x00\n    /* \"#utility.yul\":1886:1891   */\n  dup2\n    /* \"#utility.yul\":1879:1891   */\n  swap1\n  pop\n    /* \"#utility.yul\":1837:1897   */\n  swap2\n  swap1\n  pop\n  jump\t// out\n    /* \"#utility.yul\":1903:2045   */\ntag_26:\n    /* \"#utility.yul\":1953:1962   */\n  0x00\n    /* \"#utility.yul\":1986:2039   */\n  tag_54\n    /* \"#utility.yul\":2004:2038   */\n  tag_55\n    /* \"#utility.yul\":2013:2037   */\n  tag_56\n    /* \"#utility.yul\":2031:2036   */\n  dup5\n    /* \"#utility.yul\":2013:2037   */\n  tag_24\n  jump\t// in\ntag_56:\n    /* \"#utility.yul\":2004:2038   */\n  tag_25\n  jump\t// in\ntag_55:\n    /* \"#utility.yul\":1986:2039   */\n  tag_24\n  jump\t// in\ntag_54:\n    /* \"#utility.yul\":1973:2039   */\n  swap1\n  pop\n    /* \"#utility.yul\":1903:2045   */\n  swap2\n  swap1\n  pop\n  jump\t// out\n    /* \"#utility.yul\":2051:2126   */\ntag_27:\n    /* \"#utility.yul\":2094:2097   */\n  0x00\n    /* \"#utility.yul\":2115:2120   */\n  dup2\n    /* \"#utility.yul\":2108:2120   */\n  swap1\n  pop\n    /* \"#utility.yul\":2051:2126   */\n  swap2\n  swap1\n  pop\n  jump\t// out\n    /* \"#utility.yul\":2132:2401   */\ntag_28:\n    /* \"#utility.yul\":2242:2281   */\n  tag_59\n    /* \"#utility.yul\":2273:2280   */\n  dup4\n    /* \"#utility.yul\":2242:2281   */\n  tag_26\n  jump\t// in\ntag_59:\n    /* \"#utility.yul\":2303:2394   */\n  tag_60\n    /* \"#utility.yul\":2352:2393   */\n  tag_61\n    /* \"#utility.yul\":2376:2392   */\n  dup3\n    /* \"#utility.yul\":2352:2393   */\n  tag_27\n  jump\t// in\ntag_61:\n    /* \"#utility.yul\":2344:2350   */\n  dup5\n    /* \"#utility.yul\":2337:2341   */\n  dup5\n    /* \"#utility.yul\":2331:2342   */\n  sload\n    /* \"#utility.yul\":2303:2394   */\n  tag_23\n  jump\t// in\ntag_60:\n    /* \"#utility.yul\":2297:2301   */\n  dup3\n    /* \"#utility.yul\":2290:2395   */\n  sstore\n    /* \"#utility.yul\":2208:2401   */\n  pop\n    /* \"#utility.yul\":2132:2401   */\n  pop\n  pop\n  pop\n  jump\t// out\n    /* \"#utility.yul\":2407:2480   */\ntag_29:\n    /* \"#utility.yul\":2452:2455   */\n  0x00\n    /* \"#utility.yul\":2407:2480   */\n  swap1\n  jump\t// out\n    /* \"#utility.yul\":2486:2675   */\ntag_30:\n    /* \"#utility.yul\":2563:2595   */\n  tag_64\n  tag_29\n  jump\t// in\ntag_64:\n    /* \"#utility.yul\":2604:2669   */\n  tag_65\n    /* \"#utility.yul\":2662:2668   */\n  dup2\n    /* \"#utility.yul\":2654:2660   */\n  dup5\n    /* \"#utility.yul\":2648:2652   */\n  dup5\n    /* \"#utility.yul\":2604:2669   */\n  tag_28\n  jump\t// in\ntag_65:\n    /* \"#utility.yul\":2539:2675   */\n  pop\n    /* \"#utility.yul\":2486:2675   */\n  pop\n  pop\n  jump\t// out\n    /* \"#utility.yul\":2681:2867   */\ntag_31:\n    /* \"#utility.yul\":2741:2861   */\ntag_67:\n    /* \"#utility.yul\":2758:2761   */\n  dup2\n    /* \"#utility.yul\":2751:2756   */\n  dup2\n    /* \"#utility.yul\":2748:2762   */\n  lt\n    /* \"#utility.yul\":2741:2861   */\n  iszero\n  tag_69\n  jumpi\n    /* \"#utility.yul\":2812:2851   */\n  tag_70\n    /* \"#utility.yul\":2849:2850   */\n  0x00\n    /* \"#utility.yul\":2842:2847   */\n  dup3\n    /* \"#utility.yul\":2812:2851   */\n  tag_30\n  jump\t// in\ntag_70:\n    /* \"#utility.yul\":2785:2786   */\n  0x01\n    /* \"#utility.yul\":2778:2783   */\n  dup2\n    /* \"#utility.yul\":2774:2787   */\n  add\n    /* \"#utility.yul\":2765:2787   */\n  swap1\n  pop\n    /* \"#utility.yul\":2741:2861   */\n  jump(tag_67)\ntag_69:\n    /* \"#utility.yul\":2681:2867   */\n  pop\n  pop\n  jump\t// out\n    /* \"#utility.yul\":2873:3416   */\ntag_32:\n    /* \"#utility.yul\":2974:2976   */\n  0x1f\n    /* \"#utility.yul\":2969:2972   */\n  dup3\n    /* \"#utility.yul\":2966:2977   */\n  gt\n    /* \"#utility.yul\":2963:3409   */\n  iszero\n  tag_72\n  jumpi\n    /* \"#utility.yul\":3008:3046   */\n  tag_73\n    /* \"#utility.yul\":3040:3045   */\n  dup2\n    /* \"#utility.yul\":3008:3046   */\n  tag_20\n  jump\t// in\ntag_73:\n    /* \"#utility.yul\":3092:3121   */\n  tag_74\n    /* \"#utility.yul\":3110:3120   */\n  dup5\n    /* \"#utility.yul\":3092:3121   */\n  tag_21\n  jump\t// in\ntag_74:\n    /* \"#utility.yul\":3082:3090   */\n  dup2\n    /* \"#utility.yul\":3078:3122   */\n  add\n    /* \"#utility.yul\":3275:3277   */\n  0x20\n    /* \"#utility.yul\":3263:3273   */\n  dup6\n    /* \"#utility.yul\":3260:3278   */\n  lt\n    /* \"#utility.yul\":3257:3306   */\n  iszero\n  tag_75\n  jumpi\n    /* \"#utility.yul\":3296:3304   */\n  dup2\n    /* \"#utility.yul\":3281:3304   */\n  swap1\n  pop\n    /* \"#utility.yul\":3257:3306   */\ntag_75:\n    /* \"#utility.yul\":3319:3399   */\n  tag_76\n    /* \"#utility.yul\":3375:3397   */\n  tag_77\n    /* \"#utility.yul\":3393:3396   */\n  dup6\n    /* \"#utility.yul\":3375:3397   */\n  tag_21\n  jump\t// in\ntag_77:\n    /* \"#utility.yul\":3365:3373   */\n  dup4\n    /* \"#utility.yul\":3361:3398   */\n  add\n    /* \"#utility.yul\":3348:3359   */\n  dup3\n    /* \"#utility.yul\":3319:3399   */\n  tag_31\n  jump\t// in\ntag_76:\n    /* \"#utility.yul\":2978:3409   */\n  pop\n  pop\n    /* \"#utility.yul\":2963:3409   */\ntag_72:\n    /* \"#utility.yul\":2873:3416   */\n  pop\n  pop\n  pop\n  jump\t// out\n    /* \"#utility.yul\":3422:3539   */\ntag_33:\n    /* \"#utility.yul\":3476:3484   */\n  0x00\n    /* \"#utility.yul\":3526:3531   */\n  dup3\n    /* \"#utility.yul\":3520:3524   */\n  dup3\n    /* \"#utility.yul\":3516:3532   */\n  shr\n    /* \"#utility.yul\":3495:3532   */\n  swap1\n  pop\n    /* \"#utility.yul\":3422:3539   */\n  swap3\n  swap2\n  pop\n  pop\n  jump\t// out\n    /* \"#utility.yul\":3545:3714   */\ntag_34:\n    /* \"#utility.yul\":3589:3595   */\n  0x00\n    /* \"#utility.yul\":3622:3673   */\n  tag_80\n    /* \"#utility.yul\":3670:3671   */\n  0x00\n    /* \"#utility.yul\":3666:3672   */\n  not\n    /* \"#utility.yul\":3658:3663   */\n  dup5\n    /* \"#utility.yul\":3655:3656   */\n  0x08\n    /* \"#utility.yul\":3651:3664   */\n  mul\n    /* \"#utility.yul\":3622:3673   */\n  tag_33\n  jump\t// in\ntag_80:\n    /* \"#utility.yul\":3618:3674   */\n  not\n    /* \"#utility.yul\":3703:3707   */\n  dup1\n    /* \"#utility.yul\":3697:3701   */\n  dup4\n    /* \"#utility.yul\":3693:3708   */\n  and\n    /* \"#utility.yul\":3683:3708   */\n  swap2\n  pop\n    /* \"#utility.yul\":3596:3714   */\n  pop\n    /* \"#utility.yul\":3545:3714   */\n  swap3\n  swap2\n  pop\n  pop\n  jump\t// out\n    /* \"#utility.yul\":3719:4014   */\ntag_35:\n    /* \"#utility.yul\":3795:3799   */\n  0x00\n    /* \"#utility.yul\":3941:3970   */\n  tag_82\n    /* \"#utility.yul\":3966:3969   */\n  dup4\n    /* \"#utility.yul\":3960:3964   */\n  dup4\n    /* \"#utility.yul\":3941:3970   */\n  tag_34\n  jump\t// in\ntag_82:\n    /* \"#utility.yul\":3933:3970   */\n  swap2\n  pop\n    /* \"#utility.yul\":4003:4006   */\n  dup3\n    /* \"#utility.yul\":4000:4001   */\n  0x02\n    /* \"#utility.yul\":3996:4007   */\n  mul\n    /* \"#utility.yul\":3990:3994   */\n  dup3\n    /* \"#utility.yul\":3987:4008   */\n  or\n    /* \"#utility.yul\":3979:4008   */\n  swap1\n  pop\n    /* \"#utility.yul\":3719:4014   */\n  swap3\n  swap2\n  pop\n  pop\n  jump\t// out\n    /* \"#utility.yul\":4019:5414   */\ntag_9:\n    /* \"#utility.yul\":4136:4173   */\n  tag_84\n    /* \"#utility.yul\":4169:4172   */\n  dup3\n    /* \"#utility.yul\":4136:4173   */\n  tag_16\n  jump\t// in\ntag_84:\n    /* \"#utility.yul\":4238:4256   */\n  0xffffffffffffffff\n    /* \"#utility.yul\":4230:4236   */\n  dup2\n    /* \"#utility.yul\":4227:4257   */\n  gt\n    /* \"#utility.yul\":4224:4280   */\n  iszero\n  tag_85\n  jumpi\n    /* \"#utility.yul\":4260:4278   */\n  tag_86\n  tag_17\n  jump\t// in\ntag_86:\n    /* \"#utility.yul\":4224:4280   */\ntag_85:\n    /* \"#utility.yul\":4304:4342   */\n  tag_87\n    /* \"#utility.yul\":4336:4340   */\n  dup3\n    /* \"#utility.yul\":4330:4341   */\n  sload\n    /* \"#utility.yul\":4304:4342   */\n  tag_19\n  jump\t// in\ntag_87:\n    /* \"#utility.yul\":4389:4456   */\n  tag_88\n    /* \"#utility.yul\":4449:4455   */\n  dup3\n    /* \"#utility.yul\":4441:4447   */\n  dup3\n    /* \"#utility.yul\":4435:4439   */\n  dup6\n    /* \"#utility.yul\":4389:4456   */\n  tag_32\n  jump\t// in\ntag_88:\n    /* \"#utility.yul\":4483:4484   */\n  0x00\n    /* \"#utility.yul\":4507:4511   */\n  0x20\n    /* \"#utility.yul\":4494:4511   */\n  swap1\n  pop\n    /* \"#utility.yul\":4539:4541   */\n  0x1f\n    /* \"#utility.yul\":4531:4537   */\n  dup4\n    /* \"#utility.yul\":4528:4542   */\n  gt\n    /* \"#utility.yul\":4556:4557   */\n  0x01\n    /* \"#utility.yul\":4551:5169   */\n  dup2\n  eq\n  tag_90\n  jumpi\n    /* \"#utility.yul\":5213:5214   */\n  0x00\n    /* \"#utility.yul\":5230:5236   */\n  dup5\n    /* \"#utility.yul\":5227:5304   */\n  iszero\n  tag_91\n  jumpi\n    /* \"#utility.yul\":5279:5288   */\n  dup3\n    /* \"#utility.yul\":5274:5277   */\n  dup8\n    /* \"#utility.yul\":5270:5289   */\n  add\n    /* \"#utility.yul\":5264:5290   */\n  mload\n    /* \"#utility.yul\":5255:5290   */\n  swap1\n  pop\n    /* \"#utility.yul\":5227:5304   */\ntag_91:\n    /* \"#utility.yul\":5330:5397   */\n  tag_92\n    /* \"#utility.yul\":5390:5396   */\n  dup6\n    /* \"#utility.yul\":5383:5388   */\n  dup3\n    /* \"#utility.yul\":5330:5397   */\n  tag_35\n  jump\t// in\ntag_92:\n    /* \"#utility.yul\":5324:5328   */\n  dup7\n    /* \"#utility.yul\":5317:5398   */\n  sstore\n    /* \"#utility.yul\":5186:5408   */\n  pop\n    /* \"#utility.yul\":4521:5408   */\n  jump(tag_89)\n    /* \"#utility.yul\":4551:5169   */\ntag_90:\n    /* \"#utility.yul\":4603:4607   */\n  0x1f\n    /* \"#utility.yul\":4599:4608   */\n  not\n    /* \"#utility.yul\":4591:4597   */\n  dup5\n    /* \"#utility.yul\":4587:4609   */\n  and\n    /* \"#utility.yul\":4637:4674   */\n  tag_93\n    /* \"#utility.yul\":4669:4673   */\n  dup7\n    /* \"#utility.yul\":4637:4674   */\n  tag_20\n  jump\t// in\ntag_93:\n    /* \"#utility.yul\":4696:4697   */\n  0x00\n    /* \"#utility.yul\":4710:4918   */\ntag_94:\n    /* \"#utility.yul\":4724:4731   */\n  dup3\n    /* \"#utility.yul\":4721:4722   */\n  dup2\n    /* \"#utility.yul\":4718:4732   */\n  lt\n    /* \"#utility.yul\":4710:4918   */\n  iszero\n  tag_96\n  jumpi\n    /* \"#utility.yul\":4803:4812   */\n  dup5\n    /* \"#utility.yul\":4798:4801   */\n  dup10\n    /* \"#utility.yul\":4794:4813   */\n  add\n    /* \"#utility.yul\":4788:4814   */\n  mload\n    /* \"#utility.yul\":4780:4786   */\n  dup3\n    /* \"#utility.yul\":4773:4815   */\n  sstore\n    /* \"#utility.yul\":4854:4855   */\n  0x01\n    /* \"#utility.yul\":4846:4852   */\n  dup3\n    /* \"#utility.yul\":4842:4856   */\n  add\n    /* \"#utility.yul\":4832:4856   */\n  swap2\n  pop\n    /* \"#utility.yul\":4901:4903   */\n  0x20\n    /* \"#utility.yul\":4890:4899   */\n  dup6\n    /* \"#utility.yul\":4886:4904   */\n  add\n    /* \"#utility.yul\":4873:4904   */\n  swap5\n  pop\n    /* \"#utility.yul\":4747:4751   */\n  0x20\n    /* \"#utility.yul\":4744:4745   */\n  dup2\n    /* \"#utility.yul\":4740:4752   */\n  add\n    /* \"#utility.yul\":4735:4752   */\n  swap1\n  pop\n    /* \"#utility.yul\":4710:4918   */\n  jump(tag_94)\ntag_96:\n    /* \"#utility.yul\":4946:4952   */\n  dup7\n    /* \"#utility.yul\":4937:4944   */\n  dup4\n    /* \"#utility.yul\":4934:4953   */\n  lt\n    /* \"#utility.yul\":4931:5110   */\n  iszero\n  tag_97\n  jumpi\n    /* \"#utility.yul\":5004:5013   */\n  dup5\n    /* \"#utility.yul\":4999:5002   */\n  dup10\n    /* \"#utility.yul\":4995:5014   */\n  add\n    /* \"#utility.yul\":4989:5015   */\n  mload\n    /* \"#utility.yul\":5047:5095   */\n  tag_98\n    /* \"#utility.yul\":5089:5093   */\n  0x1f\n    /* \"#utility.yul\":5081:5087   */\n  dup10\n    /* \"#utility.yul\":5077:5094   */\n  and\n    /* \"#utility.yul\":5066:5075   */\n  dup3\n    /* \"#utility.yul\":5047:5095   */\n  tag_34\n  jump\t// in\ntag_98:\n    /* \"#utility.yul\":5039:5045   */\n  dup4\n    /* \"#utility.yul\":5032:5096   */\n  sstore\n    /* \"#utility.yul\":4954:5110   */\n  pop\n    /* \"#utility.yul\":4931:5110   */\ntag_97:\n    /* \"#utility.yul\":5156:5157   */\n  0x01\n    /* \"#utility.yul\":5152:5153   */\n  0x02\n    /* \"#utility.yul\":5144:5150   */\n  dup9\n    /* \"#utility.yul\":5140:5154   */\n  mul\n    /* \"#utility.yul\":5136:5158   */\n  add\n    /* \"#utility.yul\":5130:5134   */\n  dup9\n    /* \"#utility.yul\":5123:5159   */\n  sstore\n    /* \"#utility.yul\":4558:5169   */\n  pop\n  pop\n  pop\n    /* \"#utility.yul\":4521:5408   */\ntag_89:\n  pop\n    /* \"#utility.yul\":4111:5414   */\n  pop\n  pop\n  pop\n    /* \"#utility.yul\":4019:5414   */\n  pop\n  pop\n  jump\t// out\n    /* \"contracts/07-array_demo.sol\":117:686  contract array_demo{... */\ntag_15:\n  dataSize(sub_0)\n  dup1\n  dataOffset(sub_0)\n  0x00\n  codecopy\n  0x00\n  return\nstop\n\nsub_0: assembly {\n        /* \"contracts/07-array_demo.sol\":117:686  contract array_demo{... */\n      mstore(0x40, 0x80)\n      callvalue\n      dup1\n      iszero\n      tag_1\n      jumpi\n      0x00\n      dup1\n      revert\n    tag_1:\n      pop\n      jumpi(tag_2, lt(calldatasize, 0x04))\n      shr(0xe0, calldataload(0x00))\n      dup1\n      0x2f7b8d26\n      eq\n      tag_3\n      jumpi\n      dup1\n      0x4622ab03\n      eq\n      tag_4\n      jumpi\n      dup1\n      0xbe1c766b\n      eq\n      tag_5\n      jumpi\n      dup1\n      0xc4a1a8db\n      eq\n      tag_6\n      jumpi\n    tag_2:\n      0x00\n      dup1\n      revert\n        /* \"contracts/07-array_demo.sol\":407:474  function addAge(uint8 _age) public {... */\n    tag_3:\n      tag_7\n      0x04\n      dup1\n      calldatasize\n      sub\n      dup2\n      add\n      swap1\n      tag_8\n      swap2\n      swap1\n      tag_9\n      jump\t// in\n    tag_8:\n      tag_10\n      jump\t// in\n    tag_7:\n      stop\n        /* \"contracts/07-array_demo.sol\":142:164  string[5] public names */\n    tag_4:\n      tag_11\n      0x04\n      dup1\n      calldatasize\n      sub\n      dup2\n      add\n      swap1\n      tag_12\n      swap2\n      swap1\n      tag_13\n      jump\t// in\n    tag_12:\n      tag_14\n      jump\t// in\n    tag_11:\n      mload(0x40)\n      tag_15\n      swap2\n      swap1\n      tag_16\n      jump\t// in\n    tag_15:\n      mload(0x40)\n      dup1\n      swap2\n      sub\n      swap1\n      return\n        /* \"contracts/07-array_demo.sol\":480:590  function getLength() public view returns (uint256, uint256){... */\n    tag_5:\n      tag_17\n      tag_18\n      jump\t// in\n    tag_17:\n      mload(0x40)\n      tag_19\n      swap3\n      swap2\n      swap1\n      tag_20\n      jump\t// in\n    tag_19:\n      mload(0x40)\n      dup1\n      swap2\n      sub\n      swap1\n      return\n        /* \"contracts/07-array_demo.sol\":170:189  uint8[] public ages */\n    tag_6:\n      tag_21\n      0x04\n      dup1\n      calldatasize\n      sub\n      dup2\n      add\n      swap1\n      tag_22\n      swap2\n      swap1\n      tag_13\n      jump\t// in\n    tag_22:\n      tag_23\n      jump\t// in\n    tag_21:\n      mload(0x40)\n      tag_24\n      swap2\n      swap1\n      tag_25\n      jump\t// in\n    tag_24:\n      mload(0x40)\n      dup1\n      swap2\n      sub\n      swap1\n      return\n        /* \"contracts/07-array_demo.sol\":407:474  function addAge(uint8 _age) public {... */\n    tag_10:\n        /* \"contracts/07-array_demo.sol\":452:456  ages */\n      0x05\n        /* \"contracts/07-array_demo.sol\":462:466  _age */\n      dup2\n        /* \"contracts/07-array_demo.sol\":452:467  ages.push(_age) */\n      swap1\n      dup1\n      0x01\n      dup2\n      sload\n      add\n      dup1\n      dup3\n      sstore\n      dup1\n      swap2\n      pop\n      pop\n      0x01\n      swap1\n      sub\n      swap1\n      0x00\n      mstore\n      keccak256(0x00, 0x20)\n      swap1\n      0x20\n      swap2\n      dup3\n      dup3\n      div\n      add\n      swap2\n      swap1\n      mod\n      swap1\n      swap2\n      swap1\n      swap2\n      swap1\n      swap2\n      0x0100\n      exp\n      dup2\n      sload\n      dup2\n      0xff\n      mul\n      not\n      and\n      swap1\n      dup4\n      0xff\n      and\n      mul\n      or\n      swap1\n      sstore\n      pop\n        /* \"contracts/07-array_demo.sol\":407:474  function addAge(uint8 _age) public {... */\n      pop\n      jump\t// out\n        /* \"contracts/07-array_demo.sol\":142:164  string[5] public names */\n    tag_14:\n      0x00\n      dup2\n      0x05\n      dup2\n      lt\n      tag_28\n      jumpi\n      0x00\n      dup1\n      revert\n    tag_28:\n      add\n      0x00\n      swap2\n      pop\n      swap1\n      pop\n      dup1\n      sload\n      tag_30\n      swap1\n      tag_31\n      jump\t// in\n    tag_30:\n      dup1\n      0x1f\n      add\n      0x20\n      dup1\n      swap2\n      div\n      mul\n      0x20\n      add\n      mload(0x40)\n      swap1\n      dup2\n      add\n      0x40\n      mstore\n      dup1\n      swap3\n      swap2\n      swap1\n      dup2\n      dup2\n      mstore\n      0x20\n      add\n      dup3\n      dup1\n      sload\n      tag_32\n      swap1\n      tag_31\n      jump\t// in\n    tag_32:\n      dup1\n      iszero\n      tag_33\n      jumpi\n      dup1\n      0x1f\n      lt\n      tag_34\n      jumpi\n      0x0100\n      dup1\n      dup4\n      sload\n      div\n      mul\n      dup4\n      mstore\n      swap2\n      0x20\n      add\n      swap2\n      jump(tag_33)\n    tag_34:\n      dup3\n      add\n      swap2\n      swap1\n      0x00\n      mstore\n      keccak256(0x00, 0x20)\n      swap1\n    tag_35:\n      dup2\n      sload\n      dup2\n      mstore\n      swap1\n      0x01\n      add\n      swap1\n      0x20\n      add\n      dup1\n      dup4\n      gt\n      tag_35\n      jumpi\n      dup3\n      swap1\n      sub\n      0x1f\n      and\n      dup3\n      add\n      swap2\n    tag_33:\n      pop\n      pop\n      pop\n      pop\n      pop\n      dup2\n      jump\t// out\n        /* \"contracts/07-array_demo.sol\":480:590  function getLength() public view returns (uint256, uint256){... */\n    tag_18:\n        /* \"contracts/07-array_demo.sol\":522:529  uint256 */\n      0x00\n        /* \"contracts/07-array_demo.sol\":531:538  uint256 */\n      dup1\n        /* \"contracts/07-array_demo.sol\":557:569  names.length */\n      0x05\n        /* \"contracts/07-array_demo.sol\":571:575  ages */\n      dup1\n        /* \"contracts/07-array_demo.sol\":571:582  ages.length */\n      dup1\n      sload\n      swap1\n      pop\n        /* \"contracts/07-array_demo.sol\":549:583  return (names.length, ages.length) */\n      swap2\n      pop\n      swap2\n      pop\n        /* \"contracts/07-array_demo.sol\":480:590  function getLength() public view returns (uint256, uint256){... */\n      swap1\n      swap2\n      jump\t// out\n        /* \"contracts/07-array_demo.sol\":170:189  uint8[] public ages */\n    tag_23:\n      0x05\n      dup2\n      dup2\n      sload\n      dup2\n      lt\n      tag_37\n      jumpi\n      0x00\n      dup1\n      revert\n    tag_37:\n      swap1\n      0x00\n      mstore\n      keccak256(0x00, 0x20)\n      swap1\n      0x20\n      swap2\n      dup3\n      dup3\n      div\n      add\n      swap2\n      swap1\n      mod\n      swap2\n      pop\n      sload\n      swap1\n      0x0100\n      exp\n      swap1\n      div\n      0xff\n      and\n      dup2\n      jump\t// out\n        /* \"#utility.yul\":88:205   */\n    tag_40:\n        /* \"#utility.yul\":197:198   */\n      0x00\n        /* \"#utility.yul\":194:195   */\n      dup1\n        /* \"#utility.yul\":187:199   */\n      revert\n        /* \"#utility.yul\":334:420   */\n    tag_42:\n        /* \"#utility.yul\":369:376   */\n      0x00\n        /* \"#utility.yul\":409:413   */\n      0xff\n        /* \"#utility.yul\":402:407   */\n      dup3\n        /* \"#utility.yul\":398:414   */\n      and\n        /* \"#utility.yul\":387:414   */\n      swap1\n      pop\n        /* \"#utility.yul\":334:420   */\n      swap2\n      swap1\n      pop\n      jump\t// out\n        /* \"#utility.yul\":426:544   */\n    tag_43:\n        /* \"#utility.yul\":497:519   */\n      tag_62\n        /* \"#utility.yul\":513:518   */\n      dup2\n        /* \"#utility.yul\":497:519   */\n      tag_42\n      jump\t// in\n    tag_62:\n        /* \"#utility.yul\":490:495   */\n      dup2\n        /* \"#utility.yul\":487:520   */\n      eq\n        /* \"#utility.yul\":477:538   */\n      tag_63\n      jumpi\n        /* \"#utility.yul\":534:535   */\n      0x00\n        /* \"#utility.yul\":531:532   */\n      dup1\n        /* \"#utility.yul\":524:536   */\n      revert\n        /* \"#utility.yul\":477:538   */\n    tag_63:\n        /* \"#utility.yul\":426:544   */\n      pop\n      jump\t// out\n        /* \"#utility.yul\":550:685   */\n    tag_44:\n        /* \"#utility.yul\":594:599   */\n      0x00\n        /* \"#utility.yul\":632:638   */\n      dup2\n        /* \"#utility.yul\":619:639   */\n      calldataload\n        /* \"#utility.yul\":610:639   */\n      swap1\n      pop\n        /* \"#utility.yul\":648:679   */\n      tag_65\n        /* \"#utility.yul\":673:678   */\n      dup2\n        /* \"#utility.yul\":648:679   */\n      tag_43\n      jump\t// in\n    tag_65:\n        /* \"#utility.yul\":550:685   */\n      swap3\n      swap2\n      pop\n      pop\n      jump\t// out\n        /* \"#utility.yul\":691:1016   */\n    tag_9:\n        /* \"#utility.yul\":748:754   */\n      0x00\n        /* \"#utility.yul\":797:799   */\n      0x20\n        /* \"#utility.yul\":785:794   */\n      dup3\n        /* \"#utility.yul\":776:783   */\n      dup5\n        /* \"#utility.yul\":772:795   */\n      sub\n        /* \"#utility.yul\":768:800   */\n      slt\n        /* \"#utility.yul\":765:884   */\n      iszero\n      tag_67\n      jumpi\n        /* \"#utility.yul\":803:882   */\n      tag_68\n      tag_40\n      jump\t// in\n    tag_68:\n        /* \"#utility.yul\":765:884   */\n    tag_67:\n        /* \"#utility.yul\":923:924   */\n      0x00\n        /* \"#utility.yul\":948:999   */\n      tag_69\n        /* \"#utility.yul\":991:998   */\n      dup5\n        /* \"#utility.yul\":982:988   */\n      dup3\n        /* \"#utility.yul\":971:980   */\n      dup6\n        /* \"#utility.yul\":967:989   */\n      add\n        /* \"#utility.yul\":948:999   */\n      tag_44\n      jump\t// in\n    tag_69:\n        /* \"#utility.yul\":938:999   */\n      swap2\n      pop\n        /* \"#utility.yul\":894:1009   */\n      pop\n        /* \"#utility.yul\":691:1016   */\n      swap3\n      swap2\n      pop\n      pop\n      jump\t// out\n        /* \"#utility.yul\":1022:1099   */\n    tag_45:\n        /* \"#utility.yul\":1059:1066   */\n      0x00\n        /* \"#utility.yul\":1088:1093   */\n      dup2\n        /* \"#utility.yul\":1077:1093   */\n      swap1\n      pop\n        /* \"#utility.yul\":1022:1099   */\n      swap2\n      swap1\n      pop\n      jump\t// out\n        /* \"#utility.yul\":1105:1227   */\n    tag_46:\n        /* \"#utility.yul\":1178:1202   */\n      tag_72\n        /* \"#utility.yul\":1196:1201   */\n      dup2\n        /* \"#utility.yul\":1178:1202   */\n      tag_45\n      jump\t// in\n    tag_72:\n        /* \"#utility.yul\":1171:1176   */\n      dup2\n        /* \"#utility.yul\":1168:1203   */\n      eq\n        /* \"#utility.yul\":1158:1221   */\n      tag_73\n      jumpi\n        /* \"#utility.yul\":1217:1218   */\n      0x00\n        /* \"#utility.yul\":1214:1215   */\n      dup1\n        /* \"#utility.yul\":1207:1219   */\n      revert\n        /* \"#utility.yul\":1158:1221   */\n    tag_73:\n        /* \"#utility.yul\":1105:1227   */\n      pop\n      jump\t// out\n        /* \"#utility.yul\":1233:1372   */\n    tag_47:\n        /* \"#utility.yul\":1279:1284   */\n      0x00\n        /* \"#utility.yul\":1317:1323   */\n      dup2\n        /* \"#utility.yul\":1304:1324   */\n      calldataload\n        /* \"#utility.yul\":1295:1324   */\n      swap1\n      pop\n        /* \"#utility.yul\":1333:1366   */\n      tag_75\n        /* \"#utility.yul\":1360:1365   */\n      dup2\n        /* \"#utility.yul\":1333:1366   */\n      tag_46\n      jump\t// in\n    tag_75:\n        /* \"#utility.yul\":1233:1372   */\n      swap3\n      swap2\n      pop\n      pop\n      jump\t// out\n        /* \"#utility.yul\":1378:1707   */\n    tag_13:\n        /* \"#utility.yul\":1437:1443   */\n      0x00\n        /* \"#utility.yul\":1486:1488   */\n      0x20\n        /* \"#utility.yul\":1474:1483   */\n      dup3\n        /* \"#utility.yul\":1465:1472   */\n      dup5\n        /* \"#utility.yul\":1461:1484   */\n      sub\n        /* \"#utility.yul\":1457:1489   */\n      slt\n        /* \"#utility.yul\":1454:1573   */\n      iszero\n      tag_77\n      jumpi\n        /* \"#utility.yul\":1492:1571   */\n      tag_78\n      tag_40\n      jump\t// in\n    tag_78:\n        /* \"#utility.yul\":1454:1573   */\n    tag_77:\n        /* \"#utility.yul\":1612:1613   */\n      0x00\n        /* \"#utility.yul\":1637:1690   */\n      tag_79\n        /* \"#utility.yul\":1682:1689   */\n      dup5\n        /* \"#utility.yul\":1673:1679   */\n      dup3\n        /* \"#utility.yul\":1662:1671   */\n      dup6\n        /* \"#utility.yul\":1658:1680   */\n      add\n        /* \"#utility.yul\":1637:1690   */\n      tag_47\n      jump\t// in\n    tag_79:\n        /* \"#utility.yul\":1627:1690   */\n      swap2\n      pop\n        /* \"#utility.yul\":1583:1700   */\n      pop\n        /* \"#utility.yul\":1378:1707   */\n      swap3\n      swap2\n      pop\n      pop\n      jump\t// out\n        /* \"#utility.yul\":1713:1812   */\n    tag_48:\n        /* \"#utility.yul\":1765:1771   */\n      0x00\n        /* \"#utility.yul\":1799:1804   */\n      dup2\n        /* \"#utility.yul\":1793:1805   */\n      mload\n        /* \"#utility.yul\":1783:1805   */\n      swap1\n      pop\n        /* \"#utility.yul\":1713:1812   */\n      swap2\n      swap1\n      pop\n      jump\t// out\n        /* \"#utility.yul\":1818:1987   */\n    tag_49:\n        /* \"#utility.yul\":1902:1913   */\n      0x00\n        /* \"#utility.yul\":1936:1942   */\n      dup3\n        /* \"#utility.yul\":1931:1934   */\n      dup3\n        /* \"#utility.yul\":1924:1943   */\n      mstore\n        /* \"#utility.yul\":1976:1980   */\n      0x20\n        /* \"#utility.yul\":1971:1974   */\n      dup3\n        /* \"#utility.yul\":1967:1981   */\n      add\n        /* \"#utility.yul\":1952:1981   */\n      swap1\n      pop\n        /* \"#utility.yul\":1818:1987   */\n      swap3\n      swap2\n      pop\n      pop\n      jump\t// out\n        /* \"#utility.yul\":1993:2239   */\n    tag_50:\n        /* \"#utility.yul\":2074:2075   */\n      0x00\n        /* \"#utility.yul\":2084:2197   */\n    tag_83:\n        /* \"#utility.yul\":2098:2104   */\n      dup4\n        /* \"#utility.yul\":2095:2096   */\n      dup2\n        /* \"#utility.yul\":2092:2105   */\n      lt\n        /* \"#utility.yul\":2084:2197   */\n      iszero\n      tag_85\n      jumpi\n        /* \"#utility.yul\":2183:2184   */\n      dup1\n        /* \"#utility.yul\":2178:2181   */\n      dup3\n        /* \"#utility.yul\":2174:2185   */\n      add\n        /* \"#utility.yul\":2168:2186   */\n      mload\n        /* \"#utility.yul\":2164:2165   */\n      dup2\n        /* \"#utility.yul\":2159:2162   */\n      dup5\n        /* \"#utility.yul\":2155:2166   */\n      add\n        /* \"#utility.yul\":2148:2187   */\n      mstore\n        /* \"#utility.yul\":2120:2122   */\n      0x20\n        /* \"#utility.yul\":2117:2118   */\n      dup2\n        /* \"#utility.yul\":2113:2123   */\n      add\n        /* \"#utility.yul\":2108:2123   */\n      swap1\n      pop\n        /* \"#utility.yul\":2084:2197   */\n      jump(tag_83)\n    tag_85:\n        /* \"#utility.yul\":2231:2232   */\n      0x00\n        /* \"#utility.yul\":2222:2228   */\n      dup5\n        /* \"#utility.yul\":2217:2220   */\n      dup5\n        /* \"#utility.yul\":2213:2229   */\n      add\n        /* \"#utility.yul\":2206:2233   */\n      mstore\n        /* \"#utility.yul\":2055:2239   */\n      pop\n        /* \"#utility.yul\":1993:2239   */\n      pop\n      pop\n      pop\n      jump\t// out\n        /* \"#utility.yul\":2245:2347   */\n    tag_51:\n        /* \"#utility.yul\":2286:2292   */\n      0x00\n        /* \"#utility.yul\":2337:2339   */\n      0x1f\n        /* \"#utility.yul\":2333:2340   */\n      not\n        /* \"#utility.yul\":2328:2330   */\n      0x1f\n        /* \"#utility.yul\":2321:2326   */\n      dup4\n        /* \"#utility.yul\":2317:2331   */\n      add\n        /* \"#utility.yul\":2313:2341   */\n      and\n        /* \"#utility.yul\":2303:2341   */\n      swap1\n      pop\n        /* \"#utility.yul\":2245:2347   */\n      swap2\n      swap1\n      pop\n      jump\t// out\n        /* \"#utility.yul\":2353:2730   */\n    tag_52:\n        /* \"#utility.yul\":2441:2444   */\n      0x00\n        /* \"#utility.yul\":2469:2508   */\n      tag_88\n        /* \"#utility.yul\":2502:2507   */\n      dup3\n        /* \"#utility.yul\":2469:2508   */\n      tag_48\n      jump\t// in\n    tag_88:\n        /* \"#utility.yul\":2524:2595   */\n      tag_89\n        /* \"#utility.yul\":2588:2594   */\n      dup2\n        /* \"#utility.yul\":2583:2586   */\n      dup6\n        /* \"#utility.yul\":2524:2595   */\n      tag_49\n      jump\t// in\n    tag_89:\n        /* \"#utility.yul\":2517:2595   */\n      swap4\n      pop\n        /* \"#utility.yul\":2604:2669   */\n      tag_90\n        /* \"#utility.yul\":2662:2668   */\n      dup2\n        /* \"#utility.yul\":2657:2660   */\n      dup6\n        /* \"#utility.yul\":2650:2654   */\n      0x20\n        /* \"#utility.yul\":2643:2648   */\n      dup7\n        /* \"#utility.yul\":2639:2655   */\n      add\n        /* \"#utility.yul\":2604:2669   */\n      tag_50\n      jump\t// in\n    tag_90:\n        /* \"#utility.yul\":2694:2723   */\n      tag_91\n        /* \"#utility.yul\":2716:2722   */\n      dup2\n        /* \"#utility.yul\":2694:2723   */\n      tag_51\n      jump\t// in\n    tag_91:\n        /* \"#utility.yul\":2689:2692   */\n      dup5\n        /* \"#utility.yul\":2685:2724   */\n      add\n        /* \"#utility.yul\":2678:2724   */\n      swap2\n      pop\n        /* \"#utility.yul\":2445:2730   */\n      pop\n        /* \"#utility.yul\":2353:2730   */\n      swap3\n      swap2\n      pop\n      pop\n      jump\t// out\n        /* \"#utility.yul\":2736:3049   */\n    tag_16:\n        /* \"#utility.yul\":2849:2853   */\n      0x00\n        /* \"#utility.yul\":2887:2889   */\n      0x20\n        /* \"#utility.yul\":2876:2885   */\n      dup3\n        /* \"#utility.yul\":2872:2890   */\n      add\n        /* \"#utility.yul\":2864:2890   */\n      swap1\n      pop\n        /* \"#utility.yul\":2936:2945   */\n      dup2\n        /* \"#utility.yul\":2930:2934   */\n      dup2\n        /* \"#utility.yul\":2926:2946   */\n      sub\n        /* \"#utility.yul\":2922:2923   */\n      0x00\n        /* \"#utility.yul\":2911:2920   */\n      dup4\n        /* \"#utility.yul\":2907:2924   */\n      add\n        /* \"#utility.yul\":2900:2947   */\n      mstore\n        /* \"#utility.yul\":2964:3042   */\n      tag_93\n        /* \"#utility.yul\":3037:3041   */\n      dup2\n        /* \"#utility.yul\":3028:3034   */\n      dup5\n        /* \"#utility.yul\":2964:3042   */\n      tag_52\n      jump\t// in\n    tag_93:\n        /* \"#utility.yul\":2956:3042   */\n      swap1\n      pop\n        /* \"#utility.yul\":2736:3049   */\n      swap3\n      swap2\n      pop\n      pop\n      jump\t// out\n        /* \"#utility.yul\":3055:3173   */\n    tag_53:\n        /* \"#utility.yul\":3142:3166   */\n      tag_95\n        /* \"#utility.yul\":3160:3165   */\n      dup2\n        /* \"#utility.yul\":3142:3166   */\n      tag_45\n      jump\t// in\n    tag_95:\n        /* \"#utility.yul\":3137:3140   */\n      dup3\n        /* \"#utility.yul\":3130:3167   */\n      mstore\n        /* \"#utility.yul\":3055:3173   */\n      pop\n      pop\n      jump\t// out\n        /* \"#utility.yul\":3179:3511   */\n    tag_20:\n        /* \"#utility.yul\":3300:3304   */\n      0x00\n        /* \"#utility.yul\":3338:3340   */\n      0x40\n        /* \"#utility.yul\":3327:3336   */\n      dup3\n        /* \"#utility.yul\":3323:3341   */\n      add\n        /* \"#utility.yul\":3315:3341   */\n      swap1\n      pop\n        /* \"#utility.yul\":3351:3422   */\n      tag_97\n        /* \"#utility.yul\":3419:3420   */\n      0x00\n        /* \"#utility.yul\":3408:3417   */\n      dup4\n        /* \"#utility.yul\":3404:3421   */\n      add\n        /* \"#utility.yul\":3395:3401   */\n      dup6\n        /* \"#utility.yul\":3351:3422   */\n      tag_53\n      jump\t// in\n    tag_97:\n        /* \"#utility.yul\":3432:3504   */\n      tag_98\n        /* \"#utility.yul\":3500:3502   */\n      0x20\n        /* \"#utility.yul\":3489:3498   */\n      dup4\n        /* \"#utility.yul\":3485:3503   */\n      add\n        /* \"#utility.yul\":3476:3482   */\n      dup5\n        /* \"#utility.yul\":3432:3504   */\n      tag_53\n      jump\t// in\n    tag_98:\n        /* \"#utility.yul\":3179:3511   */\n      swap4\n      swap3\n      pop\n      pop\n      pop\n      jump\t// out\n        /* \"#utility.yul\":3517:3629   */\n    tag_54:\n        /* \"#utility.yul\":3600:3622   */\n      tag_100\n        /* \"#utility.yul\":3616:3621   */\n      dup2\n        /* \"#utility.yul\":3600:3622   */\n      tag_42\n      jump\t// in\n    tag_100:\n        /* \"#utility.yul\":3595:3598   */\n      dup3\n        /* \"#utility.yul\":3588:3623   */\n      mstore\n        /* \"#utility.yul\":3517:3629   */\n      pop\n      pop\n      jump\t// out\n        /* \"#utility.yul\":3635:3849   */\n    tag_25:\n        /* \"#utility.yul\":3724:3728   */\n      0x00\n        /* \"#utility.yul\":3762:3764   */\n      0x20\n        /* \"#utility.yul\":3751:3760   */\n      dup3\n        /* \"#utility.yul\":3747:3765   */\n      add\n        /* \"#utility.yul\":3739:3765   */\n      swap1\n      pop\n        /* \"#utility.yul\":3775:3842   */\n      tag_102\n        /* \"#utility.yul\":3839:3840   */\n      0x00\n        /* \"#utility.yul\":3828:3837   */\n      dup4\n        /* \"#utility.yul\":3824:3841   */\n      add\n        /* \"#utility.yul\":3815:3821   */\n      dup5\n        /* \"#utility.yul\":3775:3842   */\n      tag_54\n      jump\t// in\n    tag_102:\n        /* \"#utility.yul\":3635:3849   */\n      swap3\n      swap2\n      pop\n      pop\n      jump\t// out\n        /* \"#utility.yul\":3855:4035   */\n    tag_55:\n        /* \"#utility.yul\":3903:3980   */\n      0x4e487b7100000000000000000000000000000000000000000000000000000000\n        /* \"#utility.yul\":3900:3901   */\n      0x00\n        /* \"#utility.yul\":3893:3981   */\n      mstore\n        /* \"#utility.yul\":4000:4004   */\n      0x22\n        /* \"#utility.yul\":3997:3998   */\n      0x04\n        /* \"#utility.yul\":3990:4005   */\n      mstore\n        /* \"#utility.yul\":4024:4028   */\n      0x24\n        /* \"#utility.yul\":4021:4022   */\n      0x00\n        /* \"#utility.yul\":4014:4029   */\n      revert\n        /* \"#utility.yul\":4041:4361   */\n    tag_31:\n        /* \"#utility.yul\":4085:4091   */\n      0x00\n        /* \"#utility.yul\":4122:4123   */\n      0x02\n        /* \"#utility.yul\":4116:4120   */\n      dup3\n        /* \"#utility.yul\":4112:4124   */\n      div\n        /* \"#utility.yul\":4102:4124   */\n      swap1\n      pop\n        /* \"#utility.yul\":4169:4170   */\n      0x01\n        /* \"#utility.yul\":4163:4167   */\n      dup3\n        /* \"#utility.yul\":4159:4171   */\n      and\n        /* \"#utility.yul\":4190:4208   */\n      dup1\n        /* \"#utility.yul\":4180:4261   */\n      tag_105\n      jumpi\n        /* \"#utility.yul\":4246:4250   */\n      0x7f\n        /* \"#utility.yul\":4238:4244   */\n      dup3\n        /* \"#utility.yul\":4234:4251   */\n      and\n        /* \"#utility.yul\":4224:4251   */\n      swap2\n      pop\n        /* \"#utility.yul\":4180:4261   */\n    tag_105:\n        /* \"#utility.yul\":4308:4310   */\n      0x20\n        /* \"#utility.yul\":4300:4306   */\n      dup3\n        /* \"#utility.yul\":4297:4311   */\n      lt\n        /* \"#utility.yul\":4277:4295   */\n      dup2\n        /* \"#utility.yul\":4274:4312   */\n      sub\n        /* \"#utility.yul\":4271:4355   */\n      tag_106\n      jumpi\n        /* \"#utility.yul\":4327:4345   */\n      tag_107\n      tag_55\n      jump\t// in\n    tag_107:\n        /* \"#utility.yul\":4271:4355   */\n    tag_106:\n        /* \"#utility.yul\":4092:4361   */\n      pop\n        /* \"#utility.yul\":4041:4361   */\n      swap2\n      swap1\n      pop\n      jump\t// out\n\n    auxdata: 0xa2646970667358221220091bf00b96b327e8590cd314a2c256fa6b53893cf8271be0d30a094a0309a84964736f6c63430008120033\n}\n",
				"bytecode": {
					"linkReferences": {},
					"object": "60806040523480156200001157600080fd5b506040518060400160405280600881526020017f7a68616e6773616e000000000000000000000000000000000000000000000000815250600080600581106200005f576200005e62000119565b5b0190816200006e9190620003c2565b506040518060400160405280600481526020017f6c697369000000000000000000000000000000000000000000000000000000008152506000600160058110620000bd57620000bc62000119565b5b019081620000cc9190620003c2565b506005601490806001815401808255809150506001900390600052602060002090602091828204019190069091909190916101000a81548160ff021916908360ff160217905550620004a9565b7f4e487b7100000000000000000000000000000000000000000000000000000000600052603260045260246000fd5b600081519050919050565b7f4e487b7100000000000000000000000000000000000000000000000000000000600052604160045260246000fd5b7f4e487b7100000000000000000000000000000000000000000000000000000000600052602260045260246000fd5b60006002820490506001821680620001ca57607f821691505b602082108103620001e057620001df62000182565b5b50919050565b60008190508160005260206000209050919050565b60006020601f8301049050919050565b600082821b905092915050565b6000600883026200024a7fffffffffffffffffffffffffffffffffffffffffffffffffffffffffffffffff826200020b565b6200025686836200020b565b95508019841693508086168417925050509392505050565b6000819050919050565b6000819050919050565b6000620002a36200029d62000297846200026e565b62000278565b6200026e565b9050919050565b6000819050919050565b620002bf8362000282565b620002d7620002ce82620002aa565b84845462000218565b825550505050565b600090565b620002ee620002df565b620002fb818484620002b4565b505050565b5b81811015620003235762000317600082620002e4565b60018101905062000301565b5050565b601f82111562000372576200033c81620001e6565b6200034784620001fb565b8101602085101562000357578190505b6200036f6200036685620001fb565b83018262000300565b50505b505050565b600082821c905092915050565b6000620003976000198460080262000377565b1980831691505092915050565b6000620003b2838362000384565b9150826002028217905092915050565b620003cd8262000148565b67ffffffffffffffff811115620003e957620003e862000153565b5b620003f58254620001b1565b6200040282828562000327565b600060209050601f8311600181146200043a576000841562000425578287015190505b620004318582620003a4565b865550620004a1565b601f1984166200044a86620001e6565b60005b8281101562000474578489015182556001820191506020850194506020810190506200044d565b8683101562000494578489015162000490601f89168262000384565b8355505b6001600288020188555050505b505050505050565b61049580620004b96000396000f3fe608060405234801561001057600080fd5b506004361061004c5760003560e01c80632f7b8d26146100515780634622ab031461006d578063be1c766b1461009d578063c4a1a8db146100bc575b600080fd5b61006b6004803603810190610066919061025b565b6100ec565b005b610087600480360381019061008291906102be565b610134565b604051610094919061037b565b60405180910390f35b6100a56101d7565b6040516100b39291906103ac565b60405180910390f35b6100d660048036038101906100d191906102be565b6101e9565b6040516100e391906103e4565b60405180910390f35b60058190806001815401808255809150506001900390600052602060002090602091828204019190069091909190916101000a81548160ff021916908360ff16021790555050565b6000816005811061014457600080fd5b0160009150905080546101569061042e565b80601f01602080910402602001604051908101604052809291908181526020018280546101829061042e565b80156101cf5780601f106101a4576101008083540402835291602001916101cf565b820191906000526020600020905b8154815290600101906020018083116101b257829003601f168201915b505050505081565b60008060058080549050915091509091565b600581815481106101f957600080fd5b9060005260206000209060209182820401919006915054906101000a900460ff1681565b600080fd5b600060ff82169050919050565b61023881610222565b811461024357600080fd5b50565b6000813590506102558161022f565b92915050565b6000602082840312156102715761027061021d565b5b600061027f84828501610246565b91505092915050565b6000819050919050565b61029b81610288565b81146102a657600080fd5b50565b6000813590506102b881610292565b92915050565b6000602082840312156102d4576102d361021d565b5b60006102e2848285016102a9565b91505092915050565b600081519050919050565b600082825260208201905092915050565b60005b8381101561032557808201518184015260208101905061030a565b60008484015250505050565b6000601f19601f8301169050919050565b600061034d826102eb565b61035781856102f6565b9350610367818560208601610307565b61037081610331565b840191505092915050565b600060208201905081810360008301526103958184610342565b905092915050565b6103a681610288565b82525050565b60006040820190506103c1600083018561039d565b6103ce602083018461039d565b9392505050565b6103de81610222565b82525050565b60006020820190506103f960008301846103d5565b92915050565b7f4e487b7100000000000000000000000000000000000000000000000000000000600052602260045260246000fd5b6000600282049050600182168061044657607f821691505b602082108103610459576104586103ff565b5b5091905056fea2646970667358221220091bf00b96b327e8590cd314a2c256fa6b53893cf8271be0d30a094a0309a84964736f6c63430008120033",
					"opcodes": "PUSH1 0x80 PUSH1 0x40 MSTORE CALLVALUE DUP1 ISZERO PUSH3 0x11 JUMPI PUSH1 0x0 DUP1 REVERT JUMPDEST POP PUSH1 0x40 MLOAD DUP1 PUSH1 0x40 ADD PUSH1 0x40 MSTORE DUP1 PUSH1 0x8 DUP2 MSTORE PUSH1 0x20 ADD PUSH32 0x7A68616E6773616E000000000000000000000000000000000000000000000000 DUP2 MSTORE POP PUSH1 0x0 DUP1 PUSH1 0x5 DUP2 LT PUSH3 0x5F JUMPI PUSH3 0x5E PUSH3 0x119 JUMP JUMPDEST JUMPDEST ADD SWAP1 DUP2 PUSH3 0x6E SWAP2 SWAP1 PUSH3 0x3C2 JUMP JUMPDEST POP PUSH1 0x40 MLOAD DUP1 PUSH1 0x40 ADD PUSH1 0x40 MSTORE DUP1 PUSH1 0x4 DUP2 MSTORE PUSH1 0x20 ADD PUSH32 0x6C69736900000000000000000000000000000000000000000000000000000000 DUP2 MSTORE POP PUSH1 0x0 PUSH1 0x1 PUSH1 0x5 DUP2 LT PUSH3 0xBD JUMPI PUSH3 0xBC PUSH3 0x119 JUMP JUMPDEST JUMPDEST ADD SWAP1 DUP2 PUSH3 0xCC SWAP2 SWAP1 PUSH3 0x3C2 JUMP JUMPDEST POP PUSH1 0x5 PUSH1 0x14 SWAP1 DUP1 PUSH1 0x1 DUP2 SLOAD ADD DUP1 DUP3 SSTORE DUP1 SWAP2 POP POP PUSH1 0x1 SWAP1 SUB SWAP1 PUSH1 0x0 MSTORE PUSH1 0x20 PUSH1 0x0 KECCAK256 SWAP1 PUSH1 0x20 SWAP2 DUP3 DUP3 DIV ADD SWAP2 SWAP1 MOD SWAP1 SWAP2 SWAP1 SWAP2 SWAP1 SWAP2 PUSH2 0x100 EXP DUP2 SLOAD DUP2 PUSH1 0xFF MUL NOT AND SWAP1 DUP4 PUSH1 0xFF AND MUL OR SWAP1 SSTORE POP PUSH3 0x4A9 JUMP JUMPDEST PUSH32 0x4E487B7100000000000000000000000000000000000000000000000000000000 PUSH1 0x0 MSTORE PUSH1 0x32 PUSH1 0x4 MSTORE PUSH1 0x24 PUSH1 0x0 REVERT JUMPDEST PUSH1 0x0 DUP2 MLOAD SWAP1 POP SWAP2 SWAP1 POP JUMP JUMPDEST PUSH32 0x4E487B7100000000000000000000000000000000000000000000000000000000 PUSH1 0x0 MSTORE PUSH1 0x41 PUSH1 0x4 MSTORE PUSH1 0x24 PUSH1 0x0 REVERT JUMPDEST PUSH32 0x4E487B7100000000000000000000000000000000000000000000000000000000 PUSH1 0x0 MSTORE PUSH1 0x22 PUSH1 0x4 MSTORE PUSH1 0x24 PUSH1 0x0 REVERT JUMPDEST PUSH1 0x0 PUSH1 0x2 DUP3 DIV SWAP1 POP PUSH1 0x1 DUP3 AND DUP1 PUSH3 0x1CA JUMPI PUSH1 0x7F DUP3 AND SWAP2 POP JUMPDEST PUSH1 0x20 DUP3 LT DUP2 SUB PUSH3 0x1E0 JUMPI PUSH3 0x1DF PUSH3 0x182 JUMP JUMPDEST JUMPDEST POP SWAP2 SWAP1 POP JUMP JUMPDEST PUSH1 0x0 DUP2 SWAP1 POP DUP2 PUSH1 0x0 MSTORE PUSH1 0x20 PUSH1 0x0 KECCAK256 SWAP1 POP SWAP2 SWAP1 POP JUMP JUMPDEST PUSH1 0x0 PUSH1 0x20 PUSH1 0x1F DUP4 ADD DIV SWAP1 POP SWAP2 SWAP1 POP JUMP JUMPDEST PUSH1 0x0 DUP3 DUP3 SHL SWAP1 POP SWAP3 SWAP2 POP POP JUMP JUMPDEST PUSH1 0x0 PUSH1 0x8 DUP4 MUL PUSH3 0x24A PUSH32 0xFFFFFFFFFFFFFFFFFFFFFFFFFFFFFFFFFFFFFFFFFFFFFFFFFFFFFFFFFFFFFFFF DUP3 PUSH3 0x20B JUMP JUMPDEST PUSH3 0x256 DUP7 DUP4 PUSH3 0x20B JUMP JUMPDEST SWAP6 POP DUP1 NOT DUP5 AND SWAP4 POP DUP1 DUP7 AND DUP5 OR SWAP3 POP POP POP SWAP4 SWAP3 POP POP POP JUMP JUMPDEST PUSH1 0x0 DUP2 SWAP1 POP SWAP2 SWAP1 POP JUMP JUMPDEST PUSH1 0x0 DUP2 SWAP1 POP SWAP2 SWAP1 POP JUMP JUMPDEST PUSH1 0x0 PUSH3 0x2A3 PUSH3 0x29D PUSH3 0x297 DUP5 PUSH3 0x26E JUMP JUMPDEST PUSH3 0x278 JUMP JUMPDEST PUSH3 0x26E JUMP JUMPDEST SWAP1 POP SWAP2 SWAP1 POP JUMP JUMPDEST PUSH1 0x0 DUP2 SWAP1 POP SWAP2 SWAP1 POP JUMP JUMPDEST PUSH3 0x2BF DUP4 PUSH3 0x282 JUMP JUMPDEST PUSH3 0x2D7 PUSH3 0x2CE DUP3 PUSH3 0x2AA JUMP JUMPDEST DUP5 DUP5 SLOAD PUSH3 0x218 JUMP JUMPDEST DUP3 SSTORE POP POP POP POP JUMP JUMPDEST PUSH1 0x0 SWAP1 JUMP JUMPDEST PUSH3 0x2EE PUSH3 0x2DF JUMP JUMPDEST PUSH3 0x2FB DUP2 DUP5 DUP5 PUSH3 0x2B4 JUMP JUMPDEST POP POP POP JUMP JUMPDEST JUMPDEST DUP2 DUP2 LT ISZERO PUSH3 0x323 JUMPI PUSH3 0x317 PUSH1 0x0 DUP3 PUSH3 0x2E4 JUMP JUMPDEST PUSH1 0x1 DUP2 ADD SWAP1 POP PUSH3 0x301 JUMP JUMPDEST POP POP JUMP JUMPDEST PUSH1 0x1F DUP3 GT ISZERO PUSH3 0x372 JUMPI PUSH3 0x33C DUP2 PUSH3 0x1E6 JUMP JUMPDEST PUSH3 0x347 DUP5 PUSH3 0x1FB JUMP JUMPDEST DUP2 ADD PUSH1 0x20 DUP6 LT ISZERO PUSH3 0x357 JUMPI DUP2 SWAP1 POP JUMPDEST PUSH3 0x36F PUSH3 0x366 DUP6 PUSH3 0x1FB JUMP JUMPDEST DUP4 ADD DUP3 PUSH3 0x300 JUMP JUMPDEST POP POP JUMPDEST POP POP POP JUMP JUMPDEST PUSH1 0x0 DUP3 DUP3 SHR SWAP1 POP SWAP3 SWAP2 POP POP JUMP JUMPDEST PUSH1 0x0 PUSH3 0x397 PUSH1 0x0 NOT DUP5 PUSH1 0x8 MUL PUSH3 0x377 JUMP JUMPDEST NOT DUP1 DUP4 AND SWAP2 POP POP SWAP3 SWAP2 POP POP JUMP JUMPDEST PUSH1 0x0 PUSH3 0x3B2 DUP4 DUP4 PUSH3 0x384 JUMP JUMPDEST SWAP2 POP DUP3 PUSH1 0x2 MUL DUP3 OR SWAP1 POP SWAP3 SWAP2 POP POP JUMP JUMPDEST PUSH3 0x3CD DUP3 PUSH3 0x148 JUMP JUMPDEST PUSH8 0xFFFFFFFFFFFFFFFF DUP2 GT ISZERO PUSH3 0x3E9 JUMPI PUSH3 0x3E8 PUSH3 0x153 JUMP JUMPDEST JUMPDEST PUSH3 0x3F5 DUP3 SLOAD PUSH3 0x1B1 JUMP JUMPDEST PUSH3 0x402 DUP3 DUP3 DUP6 PUSH3 0x327 JUMP JUMPDEST PUSH1 0x0 PUSH1 0x20 SWAP1 POP PUSH1 0x1F DUP4 GT PUSH1 0x1 DUP2 EQ PUSH3 0x43A JUMPI PUSH1 0x0 DUP5 ISZERO PUSH3 0x425 JUMPI DUP3 DUP8 ADD MLOAD SWAP1 POP JUMPDEST PUSH3 0x431 DUP6 DUP3 PUSH3 0x3A4 JUMP JUMPDEST DUP7 SSTORE POP PUSH3 0x4A1 JUMP JUMPDEST PUSH1 0x1F NOT DUP5 AND PUSH3 0x44A DUP7 PUSH3 0x1E6 JUMP JUMPDEST PUSH1 0x0 JUMPDEST DUP3 DUP2 LT ISZERO PUSH3 0x474 JUMPI DUP5 DUP10 ADD MLOAD DUP3 SSTORE PUSH1 0x1 DUP3 ADD SWAP2 POP PUSH1 0x20 DUP6 ADD SWAP5 POP PUSH1 0x20 DUP2 ADD SWAP1 POP PUSH3 0x44D JUMP JUMPDEST DUP7 DUP4 LT ISZERO PUSH3 0x494 JUMPI DUP5 DUP10 ADD MLOAD PUSH3 0x490 PUSH1 0x1F DUP10 AND DUP3 PUSH3 0x384 JUMP JUMPDEST DUP4 SSTORE POP JUMPDEST PUSH1 0x1 PUSH1 0x2 DUP9 MUL ADD DUP9 SSTORE POP POP POP JUMPDEST POP POP POP POP POP POP JUMP JUMPDEST PUSH2 0x495 DUP1 PUSH3 0x4B9 PUSH1 0x0 CODECOPY PUSH1 0x0 RETURN INVALID PUSH1 0x80 PUSH1 0x40 MSTORE CALLVALUE DUP1 ISZERO PUSH2 0x10 JUMPI PUSH1 0x0 DUP1 REVERT JUMPDEST POP PUSH1 0x4 CALLDATASIZE LT PUSH2 0x4C JUMPI PUSH1 0x0 CALLDATALOAD PUSH1 0xE0 SHR DUP1 PUSH4 0x2F7B8D26 EQ PUSH2 0x51 JUMPI DUP1 PUSH4 0x4622AB03 EQ PUSH2 0x6D JUMPI DUP1 PUSH4 0xBE1C766B EQ PUSH2 0x9D JUMPI DUP1 PUSH4 0xC4A1A8DB EQ PUSH2 0xBC JUMPI JUMPDEST PUSH1 0x0 DUP1 REVERT JUMPDEST PUSH2 0x6B PUSH1 0x4 DUP1 CALLDATASIZE SUB DUP2 ADD SWAP1 PUSH2 0x66 SWAP2 SWAP1 PUSH2 0x25B JUMP JUMPDEST PUSH2 0xEC JUMP JUMPDEST STOP JUMPDEST PUSH2 0x87 PUSH1 0x4 DUP1 CALLDATASIZE SUB DUP2 ADD SWAP1 PUSH2 0x82 SWAP2 SWAP1 PUSH2 0x2BE JUMP JUMPDEST PUSH2 0x134 JUMP JUMPDEST PUSH1 0x40 MLOAD PUSH2 0x94 SWAP2 SWAP1 PUSH2 0x37B JUMP JUMPDEST PUSH1 0x40 MLOAD DUP1 SWAP2 SUB SWAP1 RETURN JUMPDEST PUSH2 0xA5 PUSH2 0x1D7 JUMP JUMPDEST PUSH1 0x40 MLOAD PUSH2 0xB3 SWAP3 SWAP2 SWAP1 PUSH2 0x3AC JUMP JUMPDEST PUSH1 0x40 MLOAD DUP1 SWAP2 SUB SWAP1 RETURN JUMPDEST PUSH2 0xD6 PUSH1 0x4 DUP1 CALLDATASIZE SUB DUP2 ADD SWAP1 PUSH2 0xD1 SWAP2 SWAP1 PUSH2 0x2BE JUMP JUMPDEST PUSH2 0x1E9 JUMP JUMPDEST PUSH1 0x40 MLOAD PUSH2 0xE3 SWAP2 SWAP1 PUSH2 0x3E4 JUMP JUMPDEST PUSH1 0x40 MLOAD DUP1 SWAP2 SUB SWAP1 RETURN JUMPDEST PUSH1 0x5 DUP2 SWAP1 DUP1 PUSH1 0x1 DUP2 SLOAD ADD DUP1 DUP3 SSTORE DUP1 SWAP2 POP POP PUSH1 0x1 SWAP1 SUB SWAP1 PUSH1 0x0 MSTORE PUSH1 0x20 PUSH1 0x0 KECCAK256 SWAP1 PUSH1 0x20 SWAP2 DUP3 DUP3 DIV ADD SWAP2 SWAP1 MOD SWAP1 SWAP2 SWAP1 SWAP2 SWAP1 SWAP2 PUSH2 0x100 EXP DUP2 SLOAD DUP2 PUSH1 0xFF MUL NOT AND SWAP1 DUP4 PUSH1 0xFF AND MUL OR SWAP1 SSTORE POP POP JUMP JUMPDEST PUSH1 0x0 DUP2 PUSH1 0x5 DUP2 LT PUSH2 0x144 JUMPI PUSH1 0x0 DUP1 REVERT JUMPDEST ADD PUSH1 0x0 SWAP2 POP SWAP1 POP DUP1 SLOAD PUSH2 0x156 SWAP1 PUSH2 0x42E JUMP JUMPDEST DUP1 PUSH1 0x1F ADD PUSH1 0x20 DUP1 SWAP2 DIV MUL PUSH1 0x20 ADD PUSH1 0x40 MLOAD SWAP1 DUP2 ADD PUSH1 0x40 MSTORE DUP1 SWAP3 SWAP2 SWAP1 DUP2 DUP2 MSTORE PUSH1 0x20 ADD DUP3 DUP1 SLOAD PUSH2 0x182 SWAP1 PUSH2 0x42E JUMP JUMPDEST DUP1 ISZERO PUSH2 0x1CF JUMPI DUP1 PUSH1 0x1F LT PUSH2 0x1A4 JUMPI PUSH2 0x100 DUP1 DUP4 SLOAD DIV MUL DUP4 MSTORE SWAP2 PUSH1 0x20 ADD SWAP2 PUSH2 0x1CF JUMP JUMPDEST DUP3 ADD SWAP2 SWAP1 PUSH1 0x0 MSTORE PUSH1 0x20 PUSH1 0x0 KECCAK256 SWAP1 JUMPDEST DUP2 SLOAD DUP2 MSTORE SWAP1 PUSH1 0x1 ADD SWAP1 PUSH1 0x20 ADD DUP1 DUP4 GT PUSH2 0x1B2 JUMPI DUP3 SWAP1 SUB PUSH1 0x1F AND DUP3 ADD SWAP2 JUMPDEST POP POP POP POP POP DUP2 JUMP JUMPDEST PUSH1 0x0 DUP1 PUSH1 0x5 DUP1 DUP1 SLOAD SWAP1 POP SWAP2 POP SWAP2 POP SWAP1 SWAP2 JUMP JUMPDEST PUSH1 0x5 DUP2 DUP2 SLOAD DUP2 LT PUSH2 0x1F9 JUMPI PUSH1 0x0 DUP1 REVERT JUMPDEST SWAP1 PUSH1 0x0 MSTORE PUSH1 0x20 PUSH1 0x0 KECCAK256 SWAP1 PUSH1 0x20 SWAP2 DUP3 DUP3 DIV ADD SWAP2 SWAP1 MOD SWAP2 POP SLOAD SWAP1 PUSH2 0x100 EXP SWAP1 DIV PUSH1 0xFF AND DUP2 JUMP JUMPDEST PUSH1 0x0 DUP1 REVERT JUMPDEST PUSH1 0x0 PUSH1 0xFF DUP3 AND SWAP1 POP SWAP2 SWAP1 POP JUMP JUMPDEST PUSH2 0x238 DUP2 PUSH2 0x222 JUMP JUMPDEST DUP2 EQ PUSH2 0x243 JUMPI PUSH1 0x0 DUP1 REVERT JUMPDEST POP JUMP JUMPDEST PUSH1 0x0 DUP2 CALLDATALOAD SWAP1 POP PUSH2 0x255 DUP2 PUSH2 0x22F JUMP JUMPDEST SWAP3 SWAP2 POP POP JUMP JUMPDEST PUSH1 0x0 PUSH1 0x20 DUP3 DUP5 SUB SLT ISZERO PUSH2 0x271 JUMPI PUSH2 0x270 PUSH2 0x21D JUMP JUMPDEST JUMPDEST PUSH1 0x0 PUSH2 0x27F DUP5 DUP3 DUP6 ADD PUSH2 0x246 JUMP JUMPDEST SWAP2 POP POP SWAP3 SWAP2 POP POP JUMP JUMPDEST PUSH1 0x0 DUP2 SWAP1 POP SWAP2 SWAP1 POP JUMP JUMPDEST PUSH2 0x29B DUP2 PUSH2 0x288 JUMP JUMPDEST DUP2 EQ PUSH2 0x2A6 JUMPI PUSH1 0x0 DUP1 REVERT JUMPDEST POP JUMP JUMPDEST PUSH1 0x0 DUP2 CALLDATALOAD SWAP1 POP PUSH2 0x2B8 DUP2 PUSH2 0x292 JUMP JUMPDEST SWAP3 SWAP2 POP POP JUMP JUMPDEST PUSH1 0x0 PUSH1 0x20 DUP3 DUP5 SUB SLT ISZERO PUSH2 0x2D4 JUMPI PUSH2 0x2D3 PUSH2 0x21D JUMP JUMPDEST JUMPDEST PUSH1 0x0 PUSH2 0x2E2 DUP5 DUP3 DUP6 ADD PUSH2 0x2A9 JUMP JUMPDEST SWAP2 POP POP SWAP3 SWAP2 POP POP JUMP JUMPDEST PUSH1 0x0 DUP2 MLOAD SWAP1 POP SWAP2 SWAP1 POP JUMP JUMPDEST PUSH1 0x0 DUP3 DUP3 MSTORE PUSH1 0x20 DUP3 ADD SWAP1 POP SWAP3 SWAP2 POP POP JUMP JUMPDEST PUSH1 0x0 JUMPDEST DUP4 DUP2 LT ISZERO PUSH2 0x325 JUMPI DUP1 DUP3 ADD MLOAD DUP2 DUP5 ADD MSTORE PUSH1 0x20 DUP2 ADD SWAP1 POP PUSH2 0x30A JUMP JUMPDEST PUSH1 0x0 DUP5 DUP5 ADD MSTORE POP POP POP POP JUMP JUMPDEST PUSH1 0x0 PUSH1 0x1F NOT PUSH1 0x1F DUP4 ADD AND SWAP1 POP SWAP2 SWAP1 POP JUMP JUMPDEST PUSH1 0x0 PUSH2 0x34D DUP3 PUSH2 0x2EB JUMP JUMPDEST PUSH2 0x357 DUP2 DUP6 PUSH2 0x2F6 JUMP JUMPDEST SWAP4 POP PUSH2 0x367 DUP2 DUP6 PUSH1 0x20 DUP7 ADD PUSH2 0x307 JUMP JUMPDEST PUSH2 0x370 DUP2 PUSH2 0x331 JUMP JUMPDEST DUP5 ADD SWAP2 POP POP SWAP3 SWAP2 POP POP JUMP JUMPDEST PUSH1 0x0 PUSH1 0x20 DUP3 ADD SWAP1 POP DUP2 DUP2 SUB PUSH1 0x0 DUP4 ADD MSTORE PUSH2 0x395 DUP2 DUP5 PUSH2 0x342 JUMP JUMPDEST SWAP1 POP SWAP3 SWAP2 POP POP JUMP JUMPDEST PUSH2 0x3A6 DUP2 PUSH2 0x288 JUMP JUMPDEST DUP3 MSTORE POP POP JUMP JUMPDEST PUSH1 0x0 PUSH1 0x40 DUP3 ADD SWAP1 POP PUSH2 0x3C1 PUSH1 0x0 DUP4 ADD DUP6 PUSH2 0x39D JUMP JUMPDEST PUSH2 0x3CE PUSH1 0x20 DUP4 ADD DUP5 PUSH2 0x39D JUMP JUMPDEST SWAP4 SWAP3 POP POP POP JUMP JUMPDEST PUSH2 0x3DE DUP2 PUSH2 0x222 JUMP JUMPDEST DUP3 MSTORE POP POP JUMP JUMPDEST PUSH1 0x0 PUSH1 0x20 DUP3 ADD SWAP1 POP PUSH2 0x3F9 PUSH1 0x0 DUP4 ADD DUP5 PUSH2 0x3D5 JUMP JUMPDEST SWAP3 SWAP2 POP POP JUMP JUMPDEST PUSH32 0x4E487B7100000000000000000000000000000000000000000000000000000000 PUSH1 0x0 MSTORE PUSH1 0x22 PUSH1 0x4 MSTORE PUSH1 0x24 PUSH1 0x0 REVERT JUMPDEST PUSH1 0x0 PUSH1 0x2 DUP3 DIV SWAP1 POP PUSH1 0x1 DUP3 AND DUP1 PUSH2 0x446 JUMPI PUSH1 0x7F DUP3 AND SWAP2 POP JUMPDEST PUSH1 0x20 DUP3 LT DUP2 SUB PUSH2 0x459 JUMPI PUSH2 0x458 PUSH2 0x3FF JUMP JUMPDEST JUMPDEST POP SWAP2 SWAP1 POP JUMP INVALID LOG2 PUSH5 0x6970667358 0x22 SLT KECCAK256 MULMOD SHL CREATE SIGNEXTEND SWAP7 0xB3 0x27 0xE8 MSIZE 0xC 0xD3 EQ LOG2 0xC2 JUMP STATICCALL PUSH12 0x53893CF8271BE0D30A094A03 MULMOD 0xA8 0x49 PUSH5 0x736F6C6343 STOP ADDMOD SLT STOP CALLER "
				},
				"gasEstimates": {
					"creation": {
						"codeDepositCost": "234600",
						"executionCost": "infinite",
						"totalCost": "infinite"
					},
					"external": {
						"addAge(uint8)": "50597",
						"ages(uint256)": "6585",
						"getLength()": "infinite",
						"names(uint256)": "infinite"
					}
				},
				"methodIdentifiers": {
					"addAge(uint8)": "2f7b8d26",
					"ages(uint256)": "c4a1a8db",
					"getLength()": "be1c766b",
					"names(uint256)": "4622ab03"
				}
			},
			"storageLayout": {
				"storage": [
					{
						"astId": 5,
						"contract": "contracts/07-array_demo.sol:array_demo",
						"label": "names",
						"offset": 0,
						"slot": "0",
						"type": "t_array(t_string_storage)5_storage"
					},
					{
						"astId": 8,
						"contract": "contracts/07-array_demo.sol:array_demo",
						"label": "ages",
						"offset": 0,
						"slot": "5",
						"type": "t_array(t_uint8)dyn_storage"
					}
				],
				"types": {
					"t_array(t_string_storage)5_storage": {
						"base": "t_string_storage",
						"encoding": "inplace",
						"label": "string[5]",
						"numberOfBytes": "160"
					},
					"t_array(t_uint8)dyn_storage": {
						"base": "t_uint8",
						"encoding": "dynamic_array",
						"label": "uint8[]",
						"numberOfBytes": "32"
					},
					"t_string_storage": {
						"encoding": "bytes",
						"label": "string",
						"numberOfBytes": "32"
					},
					"t_uint8": {
						"encoding": "inplace",
						"label": "uint8",
						"numberOfBytes": "1"
					}
				}
			},
			"userdoc": {
				"kind": "user",
				"methods": {},
				"version": 1
			}
		}
	}
}