{
	"contracts/04-function-demo.sol": {
		"func_demo": {
			"abi": [
				{
					"inputs": [],
					"name": "getSum",
					"outputs": [
						{
							"internalType": "uint256",
							"name": "",
							"type": "uint256"
						}
					],
					"stateMutability": "view",
					"type": "function"
				},
				{
					"inputs": [],
					"name": "getSum2",
					"outputs": [
						{
							"internalType": "uint256",
							"name": "sum",
							"type": "uint256"
						}
					],
					"stateMutability": "view",
					"type": "function"
				},
				{
					"inputs": [
						{
							"internalType": "string",
							"name": "a",
							"type": "string"
						},
						{
							"internalType": "string",
							"name": "b",
							"type": "string"
						}
					],
					"name": "isEqual",
					"outputs": [
						{
							"internalType": "bool",
							"name": "",
							"type": "bool"
						}
					],
					"stateMutability": "view",
					"type": "function"
				}
			],
			"devdoc": {
				"kind": "dev",
				"methods": {},
				"version": 1
			},
			"evm": {
				"assembly": "    /* \"contracts/04-function-demo.sol\":63:669  contract func_demo{... */\n  mstore(0x40, 0x80)\n  callvalue\n  dup1\n  iszero\n  tag_1\n  jumpi\n  0x00\n  dup1\n  revert\ntag_1:\n  pop\n  dataSize(sub_0)\n  dup1\n  dataOffset(sub_0)\n  0x00\n  codecopy\n  0x00\n  return\nstop\n\nsub_0: assembly {\n        /* \"contracts/04-function-demo.sol\":63:669  contract func_demo{... */\n      mstore(0x40, 0x80)\n      callvalue\n      dup1\n      iszero\n      tag_1\n      jumpi\n      0x00\n      dup1\n      revert\n    tag_1:\n      pop\n      jumpi(tag_2, lt(calldatasize, 0x04))\n      shr(0xe0, calldataload(0x00))\n      dup1\n      0x32522e09\n      eq\n      tag_3\n      jumpi\n      dup1\n      0x465c4105\n      eq\n      tag_4\n      jumpi\n      dup1\n      0x569c5f6d\n      eq\n      tag_5\n      jumpi\n    tag_2:\n      0x00\n      dup1\n      revert\n        /* \"contracts/04-function-demo.sol\":266:421  function getSum2() public view returns(uint256 sum){... */\n    tag_3:\n      tag_6\n      tag_7\n      jump\t// in\n    tag_6:\n      mload(0x40)\n      tag_8\n      swap2\n      swap1\n      tag_9\n      jump\t// in\n    tag_8:\n      mload(0x40)\n      dup1\n      swap2\n      sub\n      swap1\n      return\n        /* \"contracts/04-function-demo.sol\":427:667  function isEqual(string memory a, string memory b) public view returns(bool){... */\n    tag_4:\n      tag_10\n      0x04\n      dup1\n      calldatasize\n      sub\n      dup2\n      add\n      swap1\n      tag_11\n      swap2\n      swap1\n      tag_12\n      jump\t// in\n    tag_11:\n      tag_13\n      jump\t// in\n    tag_10:\n      mload(0x40)\n      tag_14\n      swap2\n      swap1\n      tag_15\n      jump\t// in\n    tag_14:\n      mload(0x40)\n      dup1\n      swap2\n      sub\n      swap1\n      return\n        /* \"contracts/04-function-demo.sol\":87:260  function getSum() public view returns(uint256){... */\n    tag_5:\n      tag_16\n      tag_17\n      jump\t// in\n    tag_16:\n      mload(0x40)\n      tag_18\n      swap2\n      swap1\n      tag_9\n      jump\t// in\n    tag_18:\n      mload(0x40)\n      dup1\n      swap2\n      sub\n      swap1\n      return\n        /* \"contracts/04-function-demo.sol\":266:421  function getSum2() public view returns(uint256 sum){... */\n    tag_7:\n        /* \"contracts/04-function-demo.sol\":305:316  uint256 sum */\n      0x00\n        /* \"contracts/04-function-demo.sol\":327:336  uint256 i */\n      dup1\n        /* \"contracts/04-function-demo.sol\":339:340  0 */\n      0x00\n        /* \"contracts/04-function-demo.sol\":327:340  uint256 i = 0 */\n      swap1\n      pop\n        /* \"contracts/04-function-demo.sol\":350:415  while(i <= 100){... */\n    tag_20:\n        /* \"contracts/04-function-demo.sol\":361:364  100 */\n      0x64\n        /* \"contracts/04-function-demo.sol\":356:357  i */\n      dup2\n        /* \"contracts/04-function-demo.sol\":356:364  i <= 100 */\n      gt\n        /* \"contracts/04-function-demo.sol\":350:415  while(i <= 100){... */\n      tag_21\n      jumpi\n        /* \"contracts/04-function-demo.sol\":386:387  i */\n      dup1\n        /* \"contracts/04-function-demo.sol\":379:387  sum += i */\n      dup3\n      tag_22\n      swap2\n      swap1\n      tag_23\n      jump\t// in\n    tag_22:\n      swap2\n      pop\n        /* \"contracts/04-function-demo.sol\":401:404  i++ */\n      dup1\n      dup1\n      tag_24\n      swap1\n      tag_25\n      jump\t// in\n    tag_24:\n      swap2\n      pop\n      pop\n        /* \"contracts/04-function-demo.sol\":350:415  while(i <= 100){... */\n      jump(tag_20)\n    tag_21:\n        /* \"contracts/04-function-demo.sol\":317:421  {... */\n      pop\n        /* \"contracts/04-function-demo.sol\":266:421  function getSum2() public view returns(uint256 sum){... */\n      swap1\n      jump\t// out\n        /* \"contracts/04-function-demo.sol\":427:667  function isEqual(string memory a, string memory b) public view returns(bool){... */\n    tag_13:\n        /* \"contracts/04-function-demo.sol\":498:502  bool */\n      0x00\n        /* \"contracts/04-function-demo.sol\":539:552  bytes32 hashA */\n      dup1\n        /* \"contracts/04-function-demo.sol\":576:577  a */\n      dup4\n        /* \"contracts/04-function-demo.sol\":565:578  abi.encode(a) */\n      add(0x20, mload(0x40))\n      tag_27\n      swap2\n      swap1\n      tag_28\n      jump\t// in\n    tag_27:\n      mload(0x40)\n      0x20\n      dup2\n      dup4\n      sub\n      sub\n      dup2\n      mstore\n      swap1\n      0x40\n      mstore\n        /* \"contracts/04-function-demo.sol\":555:579  keccak256(abi.encode(a)) */\n      dup1\n      mload\n      swap1\n      0x20\n      add\n      keccak256\n        /* \"contracts/04-function-demo.sol\":539:579  bytes32 hashA = keccak256(abi.encode(a)) */\n      swap1\n      pop\n        /* \"contracts/04-function-demo.sol\":589:602  bytes32 hashB */\n      0x00\n        /* \"contracts/04-function-demo.sol\":626:627  b */\n      dup4\n        /* \"contracts/04-function-demo.sol\":615:628  abi.encode(b) */\n      add(0x20, mload(0x40))\n      tag_29\n      swap2\n      swap1\n      tag_28\n      jump\t// in\n    tag_29:\n      mload(0x40)\n      0x20\n      dup2\n      dup4\n      sub\n      sub\n      dup2\n      mstore\n      swap1\n      0x40\n      mstore\n        /* \"contracts/04-function-demo.sol\":605:629  keccak256(abi.encode(b)) */\n      dup1\n      mload\n      swap1\n      0x20\n      add\n      keccak256\n        /* \"contracts/04-function-demo.sol\":589:629  bytes32 hashB = keccak256(abi.encode(b)) */\n      swap1\n      pop\n        /* \"contracts/04-function-demo.sol\":655:660  hashB */\n      dup1\n        /* \"contracts/04-function-demo.sol\":646:651  hashA */\n      dup3\n        /* \"contracts/04-function-demo.sol\":646:660  hashA == hashB */\n      eq\n        /* \"contracts/04-function-demo.sol\":639:660  return hashA == hashB */\n      swap3\n      pop\n      pop\n      pop\n        /* \"contracts/04-function-demo.sol\":427:667  function isEqual(string memory a, string memory b) public view returns(bool){... */\n      swap3\n      swap2\n      pop\n      pop\n      jump\t// out\n        /* \"contracts/04-function-demo.sol\":87:260  function getSum() public view returns(uint256){... */\n    tag_17:\n        /* \"contracts/04-function-demo.sol\":125:132  uint256 */\n      0x00\n        /* \"contracts/04-function-demo.sol\":143:154  uint256 sum */\n      dup1\n        /* \"contracts/04-function-demo.sol\":157:158  0 */\n      0x00\n        /* \"contracts/04-function-demo.sol\":143:158  uint256 sum = 0 */\n      swap1\n      pop\n        /* \"contracts/04-function-demo.sol\":172:181  uint256 i */\n      0x00\n        /* \"contracts/04-function-demo.sol\":184:185  1 */\n      0x01\n        /* \"contracts/04-function-demo.sol\":172:185  uint256 i = 1 */\n      swap1\n      pop\n        /* \"contracts/04-function-demo.sol\":168:234  for(uint256 i = 1; i <= 100; i++){... */\n    tag_31:\n        /* \"contracts/04-function-demo.sol\":192:195  100 */\n      0x64\n        /* \"contracts/04-function-demo.sol\":187:188  i */\n      dup2\n        /* \"contracts/04-function-demo.sol\":187:195  i <= 100 */\n      gt\n        /* \"contracts/04-function-demo.sol\":168:234  for(uint256 i = 1; i <= 100; i++){... */\n      tag_32\n      jumpi\n        /* \"contracts/04-function-demo.sol\":222:223  i */\n      dup1\n        /* \"contracts/04-function-demo.sol\":215:223  sum += i */\n      dup3\n      tag_34\n      swap2\n      swap1\n      tag_23\n      jump\t// in\n    tag_34:\n      swap2\n      pop\n        /* \"contracts/04-function-demo.sol\":197:200  i++ */\n      dup1\n      dup1\n      tag_35\n      swap1\n      tag_25\n      jump\t// in\n    tag_35:\n      swap2\n      pop\n      pop\n        /* \"contracts/04-function-demo.sol\":168:234  for(uint256 i = 1; i <= 100; i++){... */\n      jump(tag_31)\n    tag_32:\n      pop\n        /* \"contracts/04-function-demo.sol\":250:253  sum */\n      dup1\n        /* \"contracts/04-function-demo.sol\":243:253  return sum */\n      swap2\n      pop\n      pop\n        /* \"contracts/04-function-demo.sol\":87:260  function getSum() public view returns(uint256){... */\n      swap1\n      jump\t// out\n        /* \"#utility.yul\":7:84   */\n    tag_36:\n        /* \"#utility.yul\":44:51   */\n      0x00\n        /* \"#utility.yul\":73:78   */\n      dup2\n        /* \"#utility.yul\":62:78   */\n      swap1\n      pop\n        /* \"#utility.yul\":7:84   */\n      swap2\n      swap1\n      pop\n      jump\t// out\n        /* \"#utility.yul\":90:208   */\n    tag_37:\n        /* \"#utility.yul\":177:201   */\n      tag_61\n        /* \"#utility.yul\":195:200   */\n      dup2\n        /* \"#utility.yul\":177:201   */\n      tag_36\n      jump\t// in\n    tag_61:\n        /* \"#utility.yul\":172:175   */\n      dup3\n        /* \"#utility.yul\":165:202   */\n      mstore\n        /* \"#utility.yul\":90:208   */\n      pop\n      pop\n      jump\t// out\n        /* \"#utility.yul\":214:436   */\n    tag_9:\n        /* \"#utility.yul\":307:311   */\n      0x00\n        /* \"#utility.yul\":345:347   */\n      0x20\n        /* \"#utility.yul\":334:343   */\n      dup3\n        /* \"#utility.yul\":330:348   */\n      add\n        /* \"#utility.yul\":322:348   */\n      swap1\n      pop\n        /* \"#utility.yul\":358:429   */\n      tag_63\n        /* \"#utility.yul\":426:427   */\n      0x00\n        /* \"#utility.yul\":415:424   */\n      dup4\n        /* \"#utility.yul\":411:428   */\n      add\n        /* \"#utility.yul\":402:408   */\n      dup5\n        /* \"#utility.yul\":358:429   */\n      tag_37\n      jump\t// in\n    tag_63:\n        /* \"#utility.yul\":214:436   */\n      swap3\n      swap2\n      pop\n      pop\n      jump\t// out\n        /* \"#utility.yul\":442:517   */\n    tag_38:\n        /* \"#utility.yul\":475:481   */\n      0x00\n        /* \"#utility.yul\":508:510   */\n      0x40\n        /* \"#utility.yul\":502:511   */\n      mload\n        /* \"#utility.yul\":492:511   */\n      swap1\n      pop\n        /* \"#utility.yul\":442:517   */\n      swap1\n      jump\t// out\n        /* \"#utility.yul\":523:640   */\n    tag_39:\n        /* \"#utility.yul\":632:633   */\n      0x00\n        /* \"#utility.yul\":629:630   */\n      dup1\n        /* \"#utility.yul\":622:634   */\n      revert\n        /* \"#utility.yul\":646:763   */\n    tag_40:\n        /* \"#utility.yul\":755:756   */\n      0x00\n        /* \"#utility.yul\":752:753   */\n      dup1\n        /* \"#utility.yul\":745:757   */\n      revert\n        /* \"#utility.yul\":769:886   */\n    tag_41:\n        /* \"#utility.yul\":878:879   */\n      0x00\n        /* \"#utility.yul\":875:876   */\n      dup1\n        /* \"#utility.yul\":868:880   */\n      revert\n        /* \"#utility.yul\":892:1009   */\n    tag_42:\n        /* \"#utility.yul\":1001:1002   */\n      0x00\n        /* \"#utility.yul\":998:999   */\n      dup1\n        /* \"#utility.yul\":991:1003   */\n      revert\n        /* \"#utility.yul\":1015:1117   */\n    tag_43:\n        /* \"#utility.yul\":1056:1062   */\n      0x00\n        /* \"#utility.yul\":1107:1109   */\n      0x1f\n        /* \"#utility.yul\":1103:1110   */\n      not\n        /* \"#utility.yul\":1098:1100   */\n      0x1f\n        /* \"#utility.yul\":1091:1096   */\n      dup4\n        /* \"#utility.yul\":1087:1101   */\n      add\n        /* \"#utility.yul\":1083:1111   */\n      and\n        /* \"#utility.yul\":1073:1111   */\n      swap1\n      pop\n        /* \"#utility.yul\":1015:1117   */\n      swap2\n      swap1\n      pop\n      jump\t// out\n        /* \"#utility.yul\":1123:1303   */\n    tag_44:\n        /* \"#utility.yul\":1171:1248   */\n      0x4e487b7100000000000000000000000000000000000000000000000000000000\n        /* \"#utility.yul\":1168:1169   */\n      0x00\n        /* \"#utility.yul\":1161:1249   */\n      mstore\n        /* \"#utility.yul\":1268:1272   */\n      0x41\n        /* \"#utility.yul\":1265:1266   */\n      0x04\n        /* \"#utility.yul\":1258:1273   */\n      mstore\n        /* \"#utility.yul\":1292:1296   */\n      0x24\n        /* \"#utility.yul\":1289:1290   */\n      0x00\n        /* \"#utility.yul\":1282:1297   */\n      revert\n        /* \"#utility.yul\":1309:1590   */\n    tag_45:\n        /* \"#utility.yul\":1392:1419   */\n      tag_72\n        /* \"#utility.yul\":1414:1418   */\n      dup3\n        /* \"#utility.yul\":1392:1419   */\n      tag_43\n      jump\t// in\n    tag_72:\n        /* \"#utility.yul\":1384:1390   */\n      dup2\n        /* \"#utility.yul\":1380:1420   */\n      add\n        /* \"#utility.yul\":1522:1528   */\n      dup2\n        /* \"#utility.yul\":1510:1520   */\n      dup2\n        /* \"#utility.yul\":1507:1529   */\n      lt\n        /* \"#utility.yul\":1486:1504   */\n      0xffffffffffffffff\n        /* \"#utility.yul\":1474:1484   */\n      dup3\n        /* \"#utility.yul\":1471:1505   */\n      gt\n        /* \"#utility.yul\":1468:1530   */\n      or\n        /* \"#utility.yul\":1465:1553   */\n      iszero\n      tag_73\n      jumpi\n        /* \"#utility.yul\":1533:1551   */\n      tag_74\n      tag_44\n      jump\t// in\n    tag_74:\n        /* \"#utility.yul\":1465:1553   */\n    tag_73:\n        /* \"#utility.yul\":1573:1583   */\n      dup1\n        /* \"#utility.yul\":1569:1571   */\n      0x40\n        /* \"#utility.yul\":1562:1584   */\n      mstore\n        /* \"#utility.yul\":1352:1590   */\n      pop\n        /* \"#utility.yul\":1309:1590   */\n      pop\n      pop\n      jump\t// out\n        /* \"#utility.yul\":1596:1725   */\n    tag_46:\n        /* \"#utility.yul\":1630:1636   */\n      0x00\n        /* \"#utility.yul\":1657:1677   */\n      tag_76\n      tag_38\n      jump\t// in\n    tag_76:\n        /* \"#utility.yul\":1647:1677   */\n      swap1\n      pop\n        /* \"#utility.yul\":1686:1719   */\n      tag_77\n        /* \"#utility.yul\":1714:1718   */\n      dup3\n        /* \"#utility.yul\":1706:1712   */\n      dup3\n        /* \"#utility.yul\":1686:1719   */\n      tag_45\n      jump\t// in\n    tag_77:\n        /* \"#utility.yul\":1596:1725   */\n      swap2\n      swap1\n      pop\n      jump\t// out\n        /* \"#utility.yul\":1731:2039   */\n    tag_47:\n        /* \"#utility.yul\":1793:1797   */\n      0x00\n        /* \"#utility.yul\":1883:1901   */\n      0xffffffffffffffff\n        /* \"#utility.yul\":1875:1881   */\n      dup3\n        /* \"#utility.yul\":1872:1902   */\n      gt\n        /* \"#utility.yul\":1869:1925   */\n      iszero\n      tag_79\n      jumpi\n        /* \"#utility.yul\":1905:1923   */\n      tag_80\n      tag_44\n      jump\t// in\n    tag_80:\n        /* \"#utility.yul\":1869:1925   */\n    tag_79:\n        /* \"#utility.yul\":1943:1972   */\n      tag_81\n        /* \"#utility.yul\":1965:1971   */\n      dup3\n        /* \"#utility.yul\":1943:1972   */\n      tag_43\n      jump\t// in\n    tag_81:\n        /* \"#utility.yul\":1935:1972   */\n      swap1\n      pop\n        /* \"#utility.yul\":2027:2031   */\n      0x20\n        /* \"#utility.yul\":2021:2025   */\n      dup2\n        /* \"#utility.yul\":2017:2032   */\n      add\n        /* \"#utility.yul\":2009:2032   */\n      swap1\n      pop\n        /* \"#utility.yul\":1731:2039   */\n      swap2\n      swap1\n      pop\n      jump\t// out\n        /* \"#utility.yul\":2045:2191   */\n    tag_48:\n        /* \"#utility.yul\":2142:2148   */\n      dup3\n        /* \"#utility.yul\":2137:2140   */\n      dup2\n        /* \"#utility.yul\":2132:2135   */\n      dup4\n        /* \"#utility.yul\":2119:2149   */\n      calldatacopy\n        /* \"#utility.yul\":2183:2184   */\n      0x00\n        /* \"#utility.yul\":2174:2180   */\n      dup4\n        /* \"#utility.yul\":2169:2172   */\n      dup4\n        /* \"#utility.yul\":2165:2181   */\n      add\n        /* \"#utility.yul\":2158:2185   */\n      mstore\n        /* \"#utility.yul\":2045:2191   */\n      pop\n      pop\n      pop\n      jump\t// out\n        /* \"#utility.yul\":2197:2622   */\n    tag_49:\n        /* \"#utility.yul\":2275:2280   */\n      0x00\n        /* \"#utility.yul\":2300:2366   */\n      tag_84\n        /* \"#utility.yul\":2316:2365   */\n      tag_85\n        /* \"#utility.yul\":2358:2364   */\n      dup5\n        /* \"#utility.yul\":2316:2365   */\n      tag_47\n      jump\t// in\n    tag_85:\n        /* \"#utility.yul\":2300:2366   */\n      tag_46\n      jump\t// in\n    tag_84:\n        /* \"#utility.yul\":2291:2366   */\n      swap1\n      pop\n        /* \"#utility.yul\":2389:2395   */\n      dup3\n        /* \"#utility.yul\":2382:2387   */\n      dup2\n        /* \"#utility.yul\":2375:2396   */\n      mstore\n        /* \"#utility.yul\":2427:2431   */\n      0x20\n        /* \"#utility.yul\":2420:2425   */\n      dup2\n        /* \"#utility.yul\":2416:2432   */\n      add\n        /* \"#utility.yul\":2465:2468   */\n      dup5\n        /* \"#utility.yul\":2456:2462   */\n      dup5\n        /* \"#utility.yul\":2451:2454   */\n      dup5\n        /* \"#utility.yul\":2447:2463   */\n      add\n        /* \"#utility.yul\":2444:2469   */\n      gt\n        /* \"#utility.yul\":2441:2553   */\n      iszero\n      tag_86\n      jumpi\n        /* \"#utility.yul\":2472:2551   */\n      tag_87\n      tag_42\n      jump\t// in\n    tag_87:\n        /* \"#utility.yul\":2441:2553   */\n    tag_86:\n        /* \"#utility.yul\":2562:2616   */\n      tag_88\n        /* \"#utility.yul\":2609:2615   */\n      dup5\n        /* \"#utility.yul\":2604:2607   */\n      dup3\n        /* \"#utility.yul\":2599:2602   */\n      dup6\n        /* \"#utility.yul\":2562:2616   */\n      tag_48\n      jump\t// in\n    tag_88:\n        /* \"#utility.yul\":2281:2622   */\n      pop\n        /* \"#utility.yul\":2197:2622   */\n      swap4\n      swap3\n      pop\n      pop\n      pop\n      jump\t// out\n        /* \"#utility.yul\":2642:2982   */\n    tag_50:\n        /* \"#utility.yul\":2698:2703   */\n      0x00\n        /* \"#utility.yul\":2747:2750   */\n      dup3\n        /* \"#utility.yul\":2740:2744   */\n      0x1f\n        /* \"#utility.yul\":2732:2738   */\n      dup4\n        /* \"#utility.yul\":2728:2745   */\n      add\n        /* \"#utility.yul\":2724:2751   */\n      slt\n        /* \"#utility.yul\":2714:2836   */\n      tag_90\n      jumpi\n        /* \"#utility.yul\":2755:2834   */\n      tag_91\n      tag_41\n      jump\t// in\n    tag_91:\n        /* \"#utility.yul\":2714:2836   */\n    tag_90:\n        /* \"#utility.yul\":2872:2878   */\n      dup2\n        /* \"#utility.yul\":2859:2879   */\n      calldataload\n        /* \"#utility.yul\":2897:2976   */\n      tag_92\n        /* \"#utility.yul\":2972:2975   */\n      dup5\n        /* \"#utility.yul\":2964:2970   */\n      dup3\n        /* \"#utility.yul\":2957:2961   */\n      0x20\n        /* \"#utility.yul\":2949:2955   */\n      dup7\n        /* \"#utility.yul\":2945:2962   */\n      add\n        /* \"#utility.yul\":2897:2976   */\n      tag_49\n      jump\t// in\n    tag_92:\n        /* \"#utility.yul\":2888:2976   */\n      swap2\n      pop\n        /* \"#utility.yul\":2704:2982   */\n      pop\n        /* \"#utility.yul\":2642:2982   */\n      swap3\n      swap2\n      pop\n      pop\n      jump\t// out\n        /* \"#utility.yul\":2988:3822   */\n    tag_12:\n        /* \"#utility.yul\":3076:3082   */\n      0x00\n        /* \"#utility.yul\":3084:3090   */\n      dup1\n        /* \"#utility.yul\":3133:3135   */\n      0x40\n        /* \"#utility.yul\":3121:3130   */\n      dup4\n        /* \"#utility.yul\":3112:3119   */\n      dup6\n        /* \"#utility.yul\":3108:3131   */\n      sub\n        /* \"#utility.yul\":3104:3136   */\n      slt\n        /* \"#utility.yul\":3101:3220   */\n      iszero\n      tag_94\n      jumpi\n        /* \"#utility.yul\":3139:3218   */\n      tag_95\n      tag_39\n      jump\t// in\n    tag_95:\n        /* \"#utility.yul\":3101:3220   */\n    tag_94:\n        /* \"#utility.yul\":3287:3288   */\n      0x00\n        /* \"#utility.yul\":3276:3285   */\n      dup4\n        /* \"#utility.yul\":3272:3289   */\n      add\n        /* \"#utility.yul\":3259:3290   */\n      calldataload\n        /* \"#utility.yul\":3317:3335   */\n      0xffffffffffffffff\n        /* \"#utility.yul\":3309:3315   */\n      dup2\n        /* \"#utility.yul\":3306:3336   */\n      gt\n        /* \"#utility.yul\":3303:3420   */\n      iszero\n      tag_96\n      jumpi\n        /* \"#utility.yul\":3339:3418   */\n      tag_97\n      tag_40\n      jump\t// in\n    tag_97:\n        /* \"#utility.yul\":3303:3420   */\n    tag_96:\n        /* \"#utility.yul\":3444:3507   */\n      tag_98\n        /* \"#utility.yul\":3499:3506   */\n      dup6\n        /* \"#utility.yul\":3490:3496   */\n      dup3\n        /* \"#utility.yul\":3479:3488   */\n      dup7\n        /* \"#utility.yul\":3475:3497   */\n      add\n        /* \"#utility.yul\":3444:3507   */\n      tag_50\n      jump\t// in\n    tag_98:\n        /* \"#utility.yul\":3434:3507   */\n      swap3\n      pop\n        /* \"#utility.yul\":3230:3517   */\n      pop\n        /* \"#utility.yul\":3584:3586   */\n      0x20\n        /* \"#utility.yul\":3573:3582   */\n      dup4\n        /* \"#utility.yul\":3569:3587   */\n      add\n        /* \"#utility.yul\":3556:3588   */\n      calldataload\n        /* \"#utility.yul\":3615:3633   */\n      0xffffffffffffffff\n        /* \"#utility.yul\":3607:3613   */\n      dup2\n        /* \"#utility.yul\":3604:3634   */\n      gt\n        /* \"#utility.yul\":3601:3718   */\n      iszero\n      tag_99\n      jumpi\n        /* \"#utility.yul\":3637:3716   */\n      tag_100\n      tag_40\n      jump\t// in\n    tag_100:\n        /* \"#utility.yul\":3601:3718   */\n    tag_99:\n        /* \"#utility.yul\":3742:3805   */\n      tag_101\n        /* \"#utility.yul\":3797:3804   */\n      dup6\n        /* \"#utility.yul\":3788:3794   */\n      dup3\n        /* \"#utility.yul\":3777:3786   */\n      dup7\n        /* \"#utility.yul\":3773:3795   */\n      add\n        /* \"#utility.yul\":3742:3805   */\n      tag_50\n      jump\t// in\n    tag_101:\n        /* \"#utility.yul\":3732:3805   */\n      swap2\n      pop\n        /* \"#utility.yul\":3527:3815   */\n      pop\n        /* \"#utility.yul\":2988:3822   */\n      swap3\n      pop\n      swap3\n      swap1\n      pop\n      jump\t// out\n        /* \"#utility.yul\":3828:3918   */\n    tag_51:\n        /* \"#utility.yul\":3862:3869   */\n      0x00\n        /* \"#utility.yul\":3905:3910   */\n      dup2\n        /* \"#utility.yul\":3898:3911   */\n      iszero\n        /* \"#utility.yul\":3891:3912   */\n      iszero\n        /* \"#utility.yul\":3880:3912   */\n      swap1\n      pop\n        /* \"#utility.yul\":3828:3918   */\n      swap2\n      swap1\n      pop\n      jump\t// out\n        /* \"#utility.yul\":3924:4033   */\n    tag_52:\n        /* \"#utility.yul\":4005:4026   */\n      tag_104\n        /* \"#utility.yul\":4020:4025   */\n      dup2\n        /* \"#utility.yul\":4005:4026   */\n      tag_51\n      jump\t// in\n    tag_104:\n        /* \"#utility.yul\":4000:4003   */\n      dup3\n        /* \"#utility.yul\":3993:4027   */\n      mstore\n        /* \"#utility.yul\":3924:4033   */\n      pop\n      pop\n      jump\t// out\n        /* \"#utility.yul\":4039:4249   */\n    tag_15:\n        /* \"#utility.yul\":4126:4130   */\n      0x00\n        /* \"#utility.yul\":4164:4166   */\n      0x20\n        /* \"#utility.yul\":4153:4162   */\n      dup3\n        /* \"#utility.yul\":4149:4167   */\n      add\n        /* \"#utility.yul\":4141:4167   */\n      swap1\n      pop\n        /* \"#utility.yul\":4177:4242   */\n      tag_106\n        /* \"#utility.yul\":4239:4240   */\n      0x00\n        /* \"#utility.yul\":4228:4237   */\n      dup4\n        /* \"#utility.yul\":4224:4241   */\n      add\n        /* \"#utility.yul\":4215:4221   */\n      dup5\n        /* \"#utility.yul\":4177:4242   */\n      tag_52\n      jump\t// in\n    tag_106:\n        /* \"#utility.yul\":4039:4249   */\n      swap3\n      swap2\n      pop\n      pop\n      jump\t// out\n        /* \"#utility.yul\":4255:4435   */\n    tag_53:\n        /* \"#utility.yul\":4303:4380   */\n      0x4e487b7100000000000000000000000000000000000000000000000000000000\n        /* \"#utility.yul\":4300:4301   */\n      0x00\n        /* \"#utility.yul\":4293:4381   */\n      mstore\n        /* \"#utility.yul\":4400:4404   */\n      0x11\n        /* \"#utility.yul\":4397:4398   */\n      0x04\n        /* \"#utility.yul\":4390:4405   */\n      mstore\n        /* \"#utility.yul\":4424:4428   */\n      0x24\n        /* \"#utility.yul\":4421:4422   */\n      0x00\n        /* \"#utility.yul\":4414:4429   */\n      revert\n        /* \"#utility.yul\":4441:4632   */\n    tag_23:\n        /* \"#utility.yul\":4481:4484   */\n      0x00\n        /* \"#utility.yul\":4500:4520   */\n      tag_109\n        /* \"#utility.yul\":4518:4519   */\n      dup3\n        /* \"#utility.yul\":4500:4520   */\n      tag_36\n      jump\t// in\n    tag_109:\n        /* \"#utility.yul\":4495:4520   */\n      swap2\n      pop\n        /* \"#utility.yul\":4534:4554   */\n      tag_110\n        /* \"#utility.yul\":4552:4553   */\n      dup4\n        /* \"#utility.yul\":4534:4554   */\n      tag_36\n      jump\t// in\n    tag_110:\n        /* \"#utility.yul\":4529:4554   */\n      swap3\n      pop\n        /* \"#utility.yul\":4577:4578   */\n      dup3\n        /* \"#utility.yul\":4574:4575   */\n      dup3\n        /* \"#utility.yul\":4570:4579   */\n      add\n        /* \"#utility.yul\":4563:4579   */\n      swap1\n      pop\n        /* \"#utility.yul\":4598:4601   */\n      dup1\n        /* \"#utility.yul\":4595:4596   */\n      dup3\n        /* \"#utility.yul\":4592:4602   */\n      gt\n        /* \"#utility.yul\":4589:4625   */\n      iszero\n      tag_111\n      jumpi\n        /* \"#utility.yul\":4605:4623   */\n      tag_112\n      tag_53\n      jump\t// in\n    tag_112:\n        /* \"#utility.yul\":4589:4625   */\n    tag_111:\n        /* \"#utility.yul\":4441:4632   */\n      swap3\n      swap2\n      pop\n      pop\n      jump\t// out\n        /* \"#utility.yul\":4638:4871   */\n    tag_25:\n        /* \"#utility.yul\":4677:4680   */\n      0x00\n        /* \"#utility.yul\":4700:4724   */\n      tag_114\n        /* \"#utility.yul\":4718:4723   */\n      dup3\n        /* \"#utility.yul\":4700:4724   */\n      tag_36\n      jump\t// in\n    tag_114:\n        /* \"#utility.yul\":4691:4724   */\n      swap2\n      pop\n        /* \"#utility.yul\":4746:4812   */\n      0xffffffffffffffffffffffffffffffffffffffffffffffffffffffffffffffff\n        /* \"#utility.yul\":4739:4744   */\n      dup3\n        /* \"#utility.yul\":4736:4813   */\n      sub\n        /* \"#utility.yul\":4733:4836   */\n      tag_115\n      jumpi\n        /* \"#utility.yul\":4816:4834   */\n      tag_116\n      tag_53\n      jump\t// in\n    tag_116:\n        /* \"#utility.yul\":4733:4836   */\n    tag_115:\n        /* \"#utility.yul\":4863:4864   */\n      0x01\n        /* \"#utility.yul\":4856:4861   */\n      dup3\n        /* \"#utility.yul\":4852:4865   */\n      add\n        /* \"#utility.yul\":4845:4865   */\n      swap1\n      pop\n        /* \"#utility.yul\":4638:4871   */\n      swap2\n      swap1\n      pop\n      jump\t// out\n        /* \"#utility.yul\":4877:4976   */\n    tag_54:\n        /* \"#utility.yul\":4929:4935   */\n      0x00\n        /* \"#utility.yul\":4963:4968   */\n      dup2\n        /* \"#utility.yul\":4957:4969   */\n      mload\n        /* \"#utility.yul\":4947:4969   */\n      swap1\n      pop\n        /* \"#utility.yul\":4877:4976   */\n      swap2\n      swap1\n      pop\n      jump\t// out\n        /* \"#utility.yul\":4982:5151   */\n    tag_55:\n        /* \"#utility.yul\":5066:5077   */\n      0x00\n        /* \"#utility.yul\":5100:5106   */\n      dup3\n        /* \"#utility.yul\":5095:5098   */\n      dup3\n        /* \"#utility.yul\":5088:5107   */\n      mstore\n        /* \"#utility.yul\":5140:5144   */\n      0x20\n        /* \"#utility.yul\":5135:5138   */\n      dup3\n        /* \"#utility.yul\":5131:5145   */\n      add\n        /* \"#utility.yul\":5116:5145   */\n      swap1\n      pop\n        /* \"#utility.yul\":4982:5151   */\n      swap3\n      swap2\n      pop\n      pop\n      jump\t// out\n        /* \"#utility.yul\":5157:5403   */\n    tag_56:\n        /* \"#utility.yul\":5238:5239   */\n      0x00\n        /* \"#utility.yul\":5248:5361   */\n    tag_120:\n        /* \"#utility.yul\":5262:5268   */\n      dup4\n        /* \"#utility.yul\":5259:5260   */\n      dup2\n        /* \"#utility.yul\":5256:5269   */\n      lt\n        /* \"#utility.yul\":5248:5361   */\n      iszero\n      tag_122\n      jumpi\n        /* \"#utility.yul\":5347:5348   */\n      dup1\n        /* \"#utility.yul\":5342:5345   */\n      dup3\n        /* \"#utility.yul\":5338:5349   */\n      add\n        /* \"#utility.yul\":5332:5350   */\n      mload\n        /* \"#utility.yul\":5328:5329   */\n      dup2\n        /* \"#utility.yul\":5323:5326   */\n      dup5\n        /* \"#utility.yul\":5319:5330   */\n      add\n        /* \"#utility.yul\":5312:5351   */\n      mstore\n        /* \"#utility.yul\":5284:5286   */\n      0x20\n        /* \"#utility.yul\":5281:5282   */\n      dup2\n        /* \"#utility.yul\":5277:5287   */\n      add\n        /* \"#utility.yul\":5272:5287   */\n      swap1\n      pop\n        /* \"#utility.yul\":5248:5361   */\n      jump(tag_120)\n    tag_122:\n        /* \"#utility.yul\":5395:5396   */\n      0x00\n        /* \"#utility.yul\":5386:5392   */\n      dup5\n        /* \"#utility.yul\":5381:5384   */\n      dup5\n        /* \"#utility.yul\":5377:5393   */\n      add\n        /* \"#utility.yul\":5370:5397   */\n      mstore\n        /* \"#utility.yul\":5219:5403   */\n      pop\n        /* \"#utility.yul\":5157:5403   */\n      pop\n      pop\n      pop\n      jump\t// out\n        /* \"#utility.yul\":5409:5786   */\n    tag_57:\n        /* \"#utility.yul\":5497:5500   */\n      0x00\n        /* \"#utility.yul\":5525:5564   */\n      tag_124\n        /* \"#utility.yul\":5558:5563   */\n      dup3\n        /* \"#utility.yul\":5525:5564   */\n      tag_54\n      jump\t// in\n    tag_124:\n        /* \"#utility.yul\":5580:5651   */\n      tag_125\n        /* \"#utility.yul\":5644:5650   */\n      dup2\n        /* \"#utility.yul\":5639:5642   */\n      dup6\n        /* \"#utility.yul\":5580:5651   */\n      tag_55\n      jump\t// in\n    tag_125:\n        /* \"#utility.yul\":5573:5651   */\n      swap4\n      pop\n        /* \"#utility.yul\":5660:5725   */\n      tag_126\n        /* \"#utility.yul\":5718:5724   */\n      dup2\n        /* \"#utility.yul\":5713:5716   */\n      dup6\n        /* \"#utility.yul\":5706:5710   */\n      0x20\n        /* \"#utility.yul\":5699:5704   */\n      dup7\n        /* \"#utility.yul\":5695:5711   */\n      add\n        /* \"#utility.yul\":5660:5725   */\n      tag_56\n      jump\t// in\n    tag_126:\n        /* \"#utility.yul\":5750:5779   */\n      tag_127\n        /* \"#utility.yul\":5772:5778   */\n      dup2\n        /* \"#utility.yul\":5750:5779   */\n      tag_43\n      jump\t// in\n    tag_127:\n        /* \"#utility.yul\":5745:5748   */\n      dup5\n        /* \"#utility.yul\":5741:5780   */\n      add\n        /* \"#utility.yul\":5734:5780   */\n      swap2\n      pop\n        /* \"#utility.yul\":5501:5786   */\n      pop\n        /* \"#utility.yul\":5409:5786   */\n      swap3\n      swap2\n      pop\n      pop\n      jump\t// out\n        /* \"#utility.yul\":5792:6105   */\n    tag_28:\n        /* \"#utility.yul\":5905:5909   */\n      0x00\n        /* \"#utility.yul\":5943:5945   */\n      0x20\n        /* \"#utility.yul\":5932:5941   */\n      dup3\n        /* \"#utility.yul\":5928:5946   */\n      add\n        /* \"#utility.yul\":5920:5946   */\n      swap1\n      pop\n        /* \"#utility.yul\":5992:6001   */\n      dup2\n        /* \"#utility.yul\":5986:5990   */\n      dup2\n        /* \"#utility.yul\":5982:6002   */\n      sub\n        /* \"#utility.yul\":5978:5979   */\n      0x00\n        /* \"#utility.yul\":5967:5976   */\n      dup4\n        /* \"#utility.yul\":5963:5980   */\n      add\n        /* \"#utility.yul\":5956:6003   */\n      mstore\n        /* \"#utility.yul\":6020:6098   */\n      tag_129\n        /* \"#utility.yul\":6093:6097   */\n      dup2\n        /* \"#utility.yul\":6084:6090   */\n      dup5\n        /* \"#utility.yul\":6020:6098   */\n      tag_57\n      jump\t// in\n    tag_129:\n        /* \"#utility.yul\":6012:6098   */\n      swap1\n      pop\n        /* \"#utility.yul\":5792:6105   */\n      swap3\n      swap2\n      pop\n      pop\n      jump\t// out\n\n    auxdata: 0xa2646970667358221220f759494e7198431d673338a4a252176e13651959d5159fc048bb50fc9571c5e264736f6c63430008120033\n}\n",
				"bytecode": {
					"linkReferences": {},
					"object": "608060405234801561001057600080fd5b50610548806100206000396000f3fe608060405234801561001057600080fd5b50600436106100415760003560e01c806332522e0914610046578063465c410514610064578063569c5f6d14610094575b600080fd5b61004e6100b2565b60405161005b91906101a3565b60405180910390f35b61007e60048036038101906100799190610318565b6100e7565b60405161008b91906103ab565b60405180910390f35b61009c61014b565b6040516100a991906101a3565b60405180910390f35b600080600090505b606481116100e35780826100ce91906103f5565b915080806100db90610429565b9150506100ba565b5090565b600080836040516020016100fb91906104f0565b60405160208183030381529060405280519060200120905060008360405160200161012691906104f0565b6040516020818303038152906040528051906020012090508082149250505092915050565b600080600090506000600190505b6064811161018257808261016d91906103f5565b9150808061017a90610429565b915050610159565b508091505090565b6000819050919050565b61019d8161018a565b82525050565b60006020820190506101b86000830184610194565b92915050565b6000604051905090565b600080fd5b600080fd5b600080fd5b600080fd5b6000601f19601f8301169050919050565b7f4e487b7100000000000000000000000000000000000000000000000000000000600052604160045260246000fd5b610225826101dc565b810181811067ffffffffffffffff82111715610244576102436101ed565b5b80604052505050565b60006102576101be565b9050610263828261021c565b919050565b600067ffffffffffffffff821115610283576102826101ed565b5b61028c826101dc565b9050602081019050919050565b82818337600083830152505050565b60006102bb6102b684610268565b61024d565b9050828152602081018484840111156102d7576102d66101d7565b5b6102e2848285610299565b509392505050565b600082601f8301126102ff576102fe6101d2565b5b813561030f8482602086016102a8565b91505092915050565b6000806040838503121561032f5761032e6101c8565b5b600083013567ffffffffffffffff81111561034d5761034c6101cd565b5b610359858286016102ea565b925050602083013567ffffffffffffffff81111561037a576103796101cd565b5b610386858286016102ea565b9150509250929050565b60008115159050919050565b6103a581610390565b82525050565b60006020820190506103c0600083018461039c565b92915050565b7f4e487b7100000000000000000000000000000000000000000000000000000000600052601160045260246000fd5b60006104008261018a565b915061040b8361018a565b9250828201905080821115610423576104226103c6565b5b92915050565b60006104348261018a565b91507fffffffffffffffffffffffffffffffffffffffffffffffffffffffffffffffff8203610466576104656103c6565b5b600182019050919050565b600081519050919050565b600082825260208201905092915050565b60005b838110156104ab578082015181840152602081019050610490565b60008484015250505050565b60006104c282610471565b6104cc818561047c565b93506104dc81856020860161048d565b6104e5816101dc565b840191505092915050565b6000602082019050818103600083015261050a81846104b7565b90509291505056fea2646970667358221220f759494e7198431d673338a4a252176e13651959d5159fc048bb50fc9571c5e264736f6c63430008120033",
					"opcodes": "PUSH1 0x80 PUSH1 0x40 MSTORE CALLVALUE DUP1 ISZERO PUSH2 0x10 JUMPI PUSH1 0x0 DUP1 REVERT JUMPDEST POP PUSH2 0x548 DUP1 PUSH2 0x20 PUSH1 0x0 CODECOPY PUSH1 0x0 RETURN INVALID PUSH1 0x80 PUSH1 0x40 MSTORE CALLVALUE DUP1 ISZERO PUSH2 0x10 JUMPI PUSH1 0x0 DUP1 REVERT JUMPDEST POP PUSH1 0x4 CALLDATASIZE LT PUSH2 0x41 JUMPI PUSH1 0x0 CALLDATALOAD PUSH1 0xE0 SHR DUP1 PUSH4 0x32522E09 EQ PUSH2 0x46 JUMPI DUP1 PUSH4 0x465C4105 EQ PUSH2 0x64 JUMPI DUP1 PUSH4 0x569C5F6D EQ PUSH2 0x94 JUMPI JUMPDEST PUSH1 0x0 DUP1 REVERT JUMPDEST PUSH2 0x4E PUSH2 0xB2 JUMP JUMPDEST PUSH1 0x40 MLOAD PUSH2 0x5B SWAP2 SWAP1 PUSH2 0x1A3 JUMP JUMPDEST PUSH1 0x40 MLOAD DUP1 SWAP2 SUB SWAP1 RETURN JUMPDEST PUSH2 0x7E PUSH1 0x4 DUP1 CALLDATASIZE SUB DUP2 ADD SWAP1 PUSH2 0x79 SWAP2 SWAP1 PUSH2 0x318 JUMP JUMPDEST PUSH2 0xE7 JUMP JUMPDEST PUSH1 0x40 MLOAD PUSH2 0x8B SWAP2 SWAP1 PUSH2 0x3AB JUMP JUMPDEST PUSH1 0x40 MLOAD DUP1 SWAP2 SUB SWAP1 RETURN JUMPDEST PUSH2 0x9C PUSH2 0x14B JUMP JUMPDEST PUSH1 0x40 MLOAD PUSH2 0xA9 SWAP2 SWAP1 PUSH2 0x1A3 JUMP JUMPDEST PUSH1 0x40 MLOAD DUP1 SWAP2 SUB SWAP1 RETURN JUMPDEST PUSH1 0x0 DUP1 PUSH1 0x0 SWAP1 POP JUMPDEST PUSH1 0x64 DUP2 GT PUSH2 0xE3 JUMPI DUP1 DUP3 PUSH2 0xCE SWAP2 SWAP1 PUSH2 0x3F5 JUMP JUMPDEST SWAP2 POP DUP1 DUP1 PUSH2 0xDB SWAP1 PUSH2 0x429 JUMP JUMPDEST SWAP2 POP POP PUSH2 0xBA JUMP JUMPDEST POP SWAP1 JUMP JUMPDEST PUSH1 0x0 DUP1 DUP4 PUSH1 0x40 MLOAD PUSH1 0x20 ADD PUSH2 0xFB SWAP2 SWAP1 PUSH2 0x4F0 JUMP JUMPDEST PUSH1 0x40 MLOAD PUSH1 0x20 DUP2 DUP4 SUB SUB DUP2 MSTORE SWAP1 PUSH1 0x40 MSTORE DUP1 MLOAD SWAP1 PUSH1 0x20 ADD KECCAK256 SWAP1 POP PUSH1 0x0 DUP4 PUSH1 0x40 MLOAD PUSH1 0x20 ADD PUSH2 0x126 SWAP2 SWAP1 PUSH2 0x4F0 JUMP JUMPDEST PUSH1 0x40 MLOAD PUSH1 0x20 DUP2 DUP4 SUB SUB DUP2 MSTORE SWAP1 PUSH1 0x40 MSTORE DUP1 MLOAD SWAP1 PUSH1 0x20 ADD KECCAK256 SWAP1 POP DUP1 DUP3 EQ SWAP3 POP POP POP SWAP3 SWAP2 POP POP JUMP JUMPDEST PUSH1 0x0 DUP1 PUSH1 0x0 SWAP1 POP PUSH1 0x0 PUSH1 0x1 SWAP1 POP JUMPDEST PUSH1 0x64 DUP2 GT PUSH2 0x182 JUMPI DUP1 DUP3 PUSH2 0x16D SWAP2 SWAP1 PUSH2 0x3F5 JUMP JUMPDEST SWAP2 POP DUP1 DUP1 PUSH2 0x17A SWAP1 PUSH2 0x429 JUMP JUMPDEST SWAP2 POP POP PUSH2 0x159 JUMP JUMPDEST POP DUP1 SWAP2 POP POP SWAP1 JUMP JUMPDEST PUSH1 0x0 DUP2 SWAP1 POP SWAP2 SWAP1 POP JUMP JUMPDEST PUSH2 0x19D DUP2 PUSH2 0x18A JUMP JUMPDEST DUP3 MSTORE POP POP JUMP JUMPDEST PUSH1 0x0 PUSH1 0x20 DUP3 ADD SWAP1 POP PUSH2 0x1B8 PUSH1 0x0 DUP4 ADD DUP5 PUSH2 0x194 JUMP JUMPDEST SWAP3 SWAP2 POP POP JUMP JUMPDEST PUSH1 0x0 PUSH1 0x40 MLOAD SWAP1 POP SWAP1 JUMP JUMPDEST PUSH1 0x0 DUP1 REVERT JUMPDEST PUSH1 0x0 DUP1 REVERT JUMPDEST PUSH1 0x0 DUP1 REVERT JUMPDEST PUSH1 0x0 DUP1 REVERT JUMPDEST PUSH1 0x0 PUSH1 0x1F NOT PUSH1 0x1F DUP4 ADD AND SWAP1 POP SWAP2 SWAP1 POP JUMP JUMPDEST PUSH32 0x4E487B7100000000000000000000000000000000000000000000000000000000 PUSH1 0x0 MSTORE PUSH1 0x41 PUSH1 0x4 MSTORE PUSH1 0x24 PUSH1 0x0 REVERT JUMPDEST PUSH2 0x225 DUP3 PUSH2 0x1DC JUMP JUMPDEST DUP2 ADD DUP2 DUP2 LT PUSH8 0xFFFFFFFFFFFFFFFF DUP3 GT OR ISZERO PUSH2 0x244 JUMPI PUSH2 0x243 PUSH2 0x1ED JUMP JUMPDEST JUMPDEST DUP1 PUSH1 0x40 MSTORE POP POP POP JUMP JUMPDEST PUSH1 0x0 PUSH2 0x257 PUSH2 0x1BE JUMP JUMPDEST SWAP1 POP PUSH2 0x263 DUP3 DUP3 PUSH2 0x21C JUMP JUMPDEST SWAP2 SWAP1 POP JUMP JUMPDEST PUSH1 0x0 PUSH8 0xFFFFFFFFFFFFFFFF DUP3 GT ISZERO PUSH2 0x283 JUMPI PUSH2 0x282 PUSH2 0x1ED JUMP JUMPDEST JUMPDEST PUSH2 0x28C DUP3 PUSH2 0x1DC JUMP JUMPDEST SWAP1 POP PUSH1 0x20 DUP2 ADD SWAP1 POP SWAP2 SWAP1 POP JUMP JUMPDEST DUP3 DUP2 DUP4 CALLDATACOPY PUSH1 0x0 DUP4 DUP4 ADD MSTORE POP POP POP JUMP JUMPDEST PUSH1 0x0 PUSH2 0x2BB PUSH2 0x2B6 DUP5 PUSH2 0x268 JUMP JUMPDEST PUSH2 0x24D JUMP JUMPDEST SWAP1 POP DUP3 DUP2 MSTORE PUSH1 0x20 DUP2 ADD DUP5 DUP5 DUP5 ADD GT ISZERO PUSH2 0x2D7 JUMPI PUSH2 0x2D6 PUSH2 0x1D7 JUMP JUMPDEST JUMPDEST PUSH2 0x2E2 DUP5 DUP3 DUP6 PUSH2 0x299 JUMP JUMPDEST POP SWAP4 SWAP3 POP POP POP JUMP JUMPDEST PUSH1 0x0 DUP3 PUSH1 0x1F DUP4 ADD SLT PUSH2 0x2FF JUMPI PUSH2 0x2FE PUSH2 0x1D2 JUMP JUMPDEST JUMPDEST DUP2 CALLDATALOAD PUSH2 0x30F DUP5 DUP3 PUSH1 0x20 DUP7 ADD PUSH2 0x2A8 JUMP JUMPDEST SWAP2 POP POP SWAP3 SWAP2 POP POP JUMP JUMPDEST PUSH1 0x0 DUP1 PUSH1 0x40 DUP4 DUP6 SUB SLT ISZERO PUSH2 0x32F JUMPI PUSH2 0x32E PUSH2 0x1C8 JUMP JUMPDEST JUMPDEST PUSH1 0x0 DUP4 ADD CALLDATALOAD PUSH8 0xFFFFFFFFFFFFFFFF DUP2 GT ISZERO PUSH2 0x34D JUMPI PUSH2 0x34C PUSH2 0x1CD JUMP JUMPDEST JUMPDEST PUSH2 0x359 DUP6 DUP3 DUP7 ADD PUSH2 0x2EA JUMP JUMPDEST SWAP3 POP POP PUSH1 0x20 DUP4 ADD CALLDATALOAD PUSH8 0xFFFFFFFFFFFFFFFF DUP2 GT ISZERO PUSH2 0x37A JUMPI PUSH2 0x379 PUSH2 0x1CD JUMP JUMPDEST JUMPDEST PUSH2 0x386 DUP6 DUP3 DUP7 ADD PUSH2 0x2EA JUMP JUMPDEST SWAP2 POP POP SWAP3 POP SWAP3 SWAP1 POP JUMP JUMPDEST PUSH1 0x0 DUP2 ISZERO ISZERO SWAP1 POP SWAP2 SWAP1 POP JUMP JUMPDEST PUSH2 0x3A5 DUP2 PUSH2 0x390 JUMP JUMPDEST DUP3 MSTORE POP POP JUMP JUMPDEST PUSH1 0x0 PUSH1 0x20 DUP3 ADD SWAP1 POP PUSH2 0x3C0 PUSH1 0x0 DUP4 ADD DUP5 PUSH2 0x39C JUMP JUMPDEST SWAP3 SWAP2 POP POP JUMP JUMPDEST PUSH32 0x4E487B7100000000000000000000000000000000000000000000000000000000 PUSH1 0x0 MSTORE PUSH1 0x11 PUSH1 0x4 MSTORE PUSH1 0x24 PUSH1 0x0 REVERT JUMPDEST PUSH1 0x0 PUSH2 0x400 DUP3 PUSH2 0x18A JUMP JUMPDEST SWAP2 POP PUSH2 0x40B DUP4 PUSH2 0x18A JUMP JUMPDEST SWAP3 POP DUP3 DUP3 ADD SWAP1 POP DUP1 DUP3 GT ISZERO PUSH2 0x423 JUMPI PUSH2 0x422 PUSH2 0x3C6 JUMP JUMPDEST JUMPDEST SWAP3 SWAP2 POP POP JUMP JUMPDEST PUSH1 0x0 PUSH2 0x434 DUP3 PUSH2 0x18A JUMP JUMPDEST SWAP2 POP PUSH32 0xFFFFFFFFFFFFFFFFFFFFFFFFFFFFFFFFFFFFFFFFFFFFFFFFFFFFFFFFFFFFFFFF DUP3 SUB PUSH2 0x466 JUMPI PUSH2 0x465 PUSH2 0x3C6 JUMP JUMPDEST JUMPDEST PUSH1 0x1 DUP3 ADD SWAP1 POP SWAP2 SWAP1 POP JUMP JUMPDEST PUSH1 0x0 DUP2 MLOAD SWAP1 POP SWAP2 SWAP1 POP JUMP JUMPDEST PUSH1 0x0 DUP3 DUP3 MSTORE PUSH1 0x20 DUP3 ADD SWAP1 POP SWAP3 SWAP2 POP POP JUMP JUMPDEST PUSH1 0x0 JUMPDEST DUP4 DUP2 LT ISZERO PUSH2 0x4AB JUMPI DUP1 DUP3 ADD MLOAD DUP2 DUP5 ADD MSTORE PUSH1 0x20 DUP2 ADD SWAP1 POP PUSH2 0x490 JUMP JUMPDEST PUSH1 0x0 DUP5 DUP5 ADD MSTORE POP POP POP POP JUMP JUMPDEST PUSH1 0x0 PUSH2 0x4C2 DUP3 PUSH2 0x471 JUMP JUMPDEST PUSH2 0x4CC DUP2 DUP6 PUSH2 0x47C JUMP JUMPDEST SWAP4 POP PUSH2 0x4DC DUP2 DUP6 PUSH1 0x20 DUP7 ADD PUSH2 0x48D JUMP JUMPDEST PUSH2 0x4E5 DUP2 PUSH2 0x1DC JUMP JUMPDEST DUP5 ADD SWAP2 POP POP SWAP3 SWAP2 POP POP JUMP JUMPDEST PUSH1 0x0 PUSH1 0x20 DUP3 ADD SWAP1 POP DUP2 DUP2 SUB PUSH1 0x0 DUP4 ADD MSTORE PUSH2 0x50A DUP2 DUP5 PUSH2 0x4B7 JUMP JUMPDEST SWAP1 POP SWAP3 SWAP2 POP POP JUMP INVALID LOG2 PUSH5 0x6970667358 0x22 SLT KECCAK256 0xF7 MSIZE 0x49 0x4E PUSH18 0x98431D673338A4A252176E13651959D5159F 0xC0 BASEFEE 0xBB POP 0xFC SWAP6 PUSH18 0xC5E264736F6C634300081200330000000000 "
				},
				"gasEstimates": {
					"creation": {
						"codeDepositCost": "270400",
						"executionCost": "312",
						"totalCost": "270712"
					},
					"external": {
						"getSum()": "infinite",
						"getSum2()": "infinite",
						"isEqual(string,string)": "infinite"
					}
				},
				"methodIdentifiers": {
					"getSum()": "569c5f6d",
					"getSum2()": "32522e09",
					"isEqual(string,string)": "465c4105"
				}
			},
			"storageLayout": {
				"storage": [],
				"types": null
			},
			"userdoc": {
				"kind": "user",
				"methods": {},
				"version": 1
			}
		}
	}
}