{
	"contracts/09-struct.sol": {
		"struct_demo": {
			"abi": [
				{
					"inputs": [],
					"name": "getUser",
					"outputs": [
						{
							"components": [
								{
									"internalType": "string",
									"name": "name",
									"type": "string"
								},
								{
									"internalType": "uint8",
									"name": "age",
									"type": "uint8"
								},
								{
									"internalType": "string",
									"name": "sex",
									"type": "string"
								}
							],
							"internalType": "struct User",
							"name": "",
							"type": "tuple"
						}
					],
					"stateMutability": "view",
					"type": "function"
				},
				{
					"inputs": [
						{
							"internalType": "string",
							"name": "_name",
							"type": "string"
						},
						{
							"internalType": "uint8",
							"name": "_age",
							"type": "uint8"
						},
						{
							"internalType": "string",
							"name": "_sex",
							"type": "string"
						}
					],
					"name": "setUser",
					"outputs": [],
					"stateMutability": "nonpayable",
					"type": "function"
				}
			],
			"devdoc": {
				"kind": "dev",
				"methods": {},
				"version": 1
			},
			"evm": {
				"assembly": "    /* \"contracts/09-struct.sol\":127:418  contract struct_demo {... */\n  mstore(0x40, 0x80)\n  callvalue\n  dup1\n  iszero\n  tag_1\n  jumpi\n  0x00\n  dup1\n  revert\ntag_1:\n  pop\n  dataSize(sub_0)\n  dup1\n  dataOffset(sub_0)\n  0x00\n  codecopy\n  0x00\n  return\nstop\n\nsub_0: assembly {\n        /* \"contracts/09-struct.sol\":127:418  contract struct_demo {... */\n      mstore(0x40, 0x80)\n      callvalue\n      dup1\n      iszero\n      tag_1\n      jumpi\n      0x00\n      dup1\n      revert\n    tag_1:\n      pop\n      jumpi(tag_2, lt(calldatasize, 0x04))\n      shr(0xe0, calldataload(0x00))\n      dup1\n      0x2d1ca992\n      eq\n      tag_3\n      jumpi\n      dup1\n      0x832880e7\n      eq\n      tag_4\n      jumpi\n    tag_2:\n      0x00\n      dup1\n      revert\n        /* \"contracts/09-struct.sol\":170:331  function setUser(string memory _name, uint8 _age, string memory _sex) public {... */\n    tag_3:\n      tag_5\n      0x04\n      dup1\n      calldatasize\n      sub\n      dup2\n      add\n      swap1\n      tag_6\n      swap2\n      swap1\n      tag_7\n      jump\t// in\n    tag_6:\n      tag_8\n      jump\t// in\n    tag_5:\n      stop\n        /* \"contracts/09-struct.sol\":337:416  function getUser() public view returns(User memory){... */\n    tag_4:\n      tag_9\n      tag_10\n      jump\t// in\n    tag_9:\n      mload(0x40)\n      tag_11\n      swap2\n      swap1\n      tag_12\n      jump\t// in\n    tag_11:\n      mload(0x40)\n      dup1\n      swap2\n      sub\n      swap1\n      return\n        /* \"contracts/09-struct.sol\":170:331  function setUser(string memory _name, uint8 _age, string memory _sex) public {... */\n    tag_8:\n        /* \"contracts/09-struct.sol\":269:274  _name */\n      dup3\n        /* \"contracts/09-struct.sol\":257:261  user */\n      0x00\n        /* \"contracts/09-struct.sol\":257:266  user.name */\n      dup1\n      add\n        /* \"contracts/09-struct.sol\":257:274  user.name = _name */\n      swap1\n      dup2\n      tag_14\n      swap2\n      swap1\n      tag_15\n      jump\t// in\n    tag_14:\n      pop\n        /* \"contracts/09-struct.sol\":295:299  _age */\n      dup2\n        /* \"contracts/09-struct.sol\":284:288  user */\n      0x00\n        /* \"contracts/09-struct.sol\":284:292  user.age */\n      0x01\n      add\n      0x00\n        /* \"contracts/09-struct.sol\":284:299  user.age = _age */\n      0x0100\n      exp\n      dup2\n      sload\n      dup2\n      0xff\n      mul\n      not\n      and\n      swap1\n      dup4\n      0xff\n      and\n      mul\n      or\n      swap1\n      sstore\n      pop\n        /* \"contracts/09-struct.sol\":320:324  _sex */\n      dup1\n        /* \"contracts/09-struct.sol\":309:313  user */\n      0x00\n        /* \"contracts/09-struct.sol\":309:317  user.sex */\n      0x02\n      add\n        /* \"contracts/09-struct.sol\":309:324  user.sex = _sex */\n      swap1\n      dup2\n      tag_16\n      swap2\n      swap1\n      tag_15\n      jump\t// in\n    tag_16:\n      pop\n        /* \"contracts/09-struct.sol\":170:331  function setUser(string memory _name, uint8 _age, string memory _sex) public {... */\n      pop\n      pop\n      pop\n      jump\t// out\n        /* \"contracts/09-struct.sol\":337:416  function getUser() public view returns(User memory){... */\n    tag_10:\n        /* \"contracts/09-struct.sol\":376:387  User memory */\n      tag_17\n      tag_18\n      jump\t// in\n    tag_17:\n        /* \"contracts/09-struct.sol\":405:409  user */\n      0x00\n        /* \"contracts/09-struct.sol\":398:409  return user */\n      mload(0x40)\n      dup1\n      0x60\n      add\n      0x40\n      mstore\n      swap1\n      dup2\n      0x00\n      dup3\n      add\n      dup1\n      sload\n      tag_20\n      swap1\n      tag_21\n      jump\t// in\n    tag_20:\n      dup1\n      0x1f\n      add\n      0x20\n      dup1\n      swap2\n      div\n      mul\n      0x20\n      add\n      mload(0x40)\n      swap1\n      dup2\n      add\n      0x40\n      mstore\n      dup1\n      swap3\n      swap2\n      swap1\n      dup2\n      dup2\n      mstore\n      0x20\n      add\n      dup3\n      dup1\n      sload\n      tag_22\n      swap1\n      tag_21\n      jump\t// in\n    tag_22:\n      dup1\n      iszero\n      tag_23\n      jumpi\n      dup1\n      0x1f\n      lt\n      tag_24\n      jumpi\n      0x0100\n      dup1\n      dup4\n      sload\n      div\n      mul\n      dup4\n      mstore\n      swap2\n      0x20\n      add\n      swap2\n      jump(tag_23)\n    tag_24:\n      dup3\n      add\n      swap2\n      swap1\n      0x00\n      mstore\n      keccak256(0x00, 0x20)\n      swap1\n    tag_25:\n      dup2\n      sload\n      dup2\n      mstore\n      swap1\n      0x01\n      add\n      swap1\n      0x20\n      add\n      dup1\n      dup4\n      gt\n      tag_25\n      jumpi\n      dup3\n      swap1\n      sub\n      0x1f\n      and\n      dup3\n      add\n      swap2\n    tag_23:\n      pop\n      pop\n      pop\n      pop\n      pop\n      dup2\n      mstore\n      0x20\n      add\n      0x01\n      dup3\n      add\n      0x00\n      swap1\n      sload\n      swap1\n      0x0100\n      exp\n      swap1\n      div\n      0xff\n      and\n      0xff\n      and\n      0xff\n      and\n      dup2\n      mstore\n      0x20\n      add\n      0x02\n      dup3\n      add\n      dup1\n      sload\n      tag_26\n      swap1\n      tag_21\n      jump\t// in\n    tag_26:\n      dup1\n      0x1f\n      add\n      0x20\n      dup1\n      swap2\n      div\n      mul\n      0x20\n      add\n      mload(0x40)\n      swap1\n      dup2\n      add\n      0x40\n      mstore\n      dup1\n      swap3\n      swap2\n      swap1\n      dup2\n      dup2\n      mstore\n      0x20\n      add\n      dup3\n      dup1\n      sload\n      tag_27\n      swap1\n      tag_21\n      jump\t// in\n    tag_27:\n      dup1\n      iszero\n      tag_28\n      jumpi\n      dup1\n      0x1f\n      lt\n      tag_29\n      jumpi\n      0x0100\n      dup1\n      dup4\n      sload\n      div\n      mul\n      dup4\n      mstore\n      swap2\n      0x20\n      add\n      swap2\n      jump(tag_28)\n    tag_29:\n      dup3\n      add\n      swap2\n      swap1\n      0x00\n      mstore\n      keccak256(0x00, 0x20)\n      swap1\n    tag_30:\n      dup2\n      sload\n      dup2\n      mstore\n      swap1\n      0x01\n      add\n      swap1\n      0x20\n      add\n      dup1\n      dup4\n      gt\n      tag_30\n      jumpi\n      dup3\n      swap1\n      sub\n      0x1f\n      and\n      dup3\n      add\n      swap2\n    tag_28:\n      pop\n      pop\n      pop\n      pop\n      pop\n      dup2\n      mstore\n      pop\n      pop\n      swap1\n      pop\n        /* \"contracts/09-struct.sol\":337:416  function getUser() public view returns(User memory){... */\n      swap1\n      jump\t// out\n    tag_18:\n      mload(0x40)\n      dup1\n      0x60\n      add\n      0x40\n      mstore\n      dup1\n      0x60\n      dup2\n      mstore\n      0x20\n      add\n      and(0xff, 0x00)\n      dup2\n      mstore\n      0x20\n      add\n      0x60\n      dup2\n      mstore\n      pop\n      swap1\n      jump\t// out\n        /* \"#utility.yul\":7:82   */\n    tag_31:\n        /* \"#utility.yul\":40:46   */\n      0x00\n        /* \"#utility.yul\":73:75   */\n      0x40\n        /* \"#utility.yul\":67:76   */\n      mload\n        /* \"#utility.yul\":57:76   */\n      swap1\n      pop\n        /* \"#utility.yul\":7:82   */\n      swap1\n      jump\t// out\n        /* \"#utility.yul\":88:205   */\n    tag_32:\n        /* \"#utility.yul\":197:198   */\n      0x00\n        /* \"#utility.yul\":194:195   */\n      dup1\n        /* \"#utility.yul\":187:199   */\n      revert\n        /* \"#utility.yul\":211:328   */\n    tag_33:\n        /* \"#utility.yul\":320:321   */\n      0x00\n        /* \"#utility.yul\":317:318   */\n      dup1\n        /* \"#utility.yul\":310:322   */\n      revert\n        /* \"#utility.yul\":334:451   */\n    tag_34:\n        /* \"#utility.yul\":443:444   */\n      0x00\n        /* \"#utility.yul\":440:441   */\n      dup1\n        /* \"#utility.yul\":433:445   */\n      revert\n        /* \"#utility.yul\":457:574   */\n    tag_35:\n        /* \"#utility.yul\":566:567   */\n      0x00\n        /* \"#utility.yul\":563:564   */\n      dup1\n        /* \"#utility.yul\":556:568   */\n      revert\n        /* \"#utility.yul\":580:682   */\n    tag_36:\n        /* \"#utility.yul\":621:627   */\n      0x00\n        /* \"#utility.yul\":672:674   */\n      0x1f\n        /* \"#utility.yul\":668:675   */\n      not\n        /* \"#utility.yul\":663:665   */\n      0x1f\n        /* \"#utility.yul\":656:661   */\n      dup4\n        /* \"#utility.yul\":652:666   */\n      add\n        /* \"#utility.yul\":648:676   */\n      and\n        /* \"#utility.yul\":638:676   */\n      swap1\n      pop\n        /* \"#utility.yul\":580:682   */\n      swap2\n      swap1\n      pop\n      jump\t// out\n        /* \"#utility.yul\":688:868   */\n    tag_37:\n        /* \"#utility.yul\":736:813   */\n      0x4e487b7100000000000000000000000000000000000000000000000000000000\n        /* \"#utility.yul\":733:734   */\n      0x00\n        /* \"#utility.yul\":726:814   */\n      mstore\n        /* \"#utility.yul\":833:837   */\n      0x41\n        /* \"#utility.yul\":830:831   */\n      0x04\n        /* \"#utility.yul\":823:838   */\n      mstore\n        /* \"#utility.yul\":857:861   */\n      0x24\n        /* \"#utility.yul\":854:855   */\n      0x00\n        /* \"#utility.yul\":847:862   */\n      revert\n        /* \"#utility.yul\":874:1155   */\n    tag_38:\n        /* \"#utility.yul\":957:984   */\n      tag_79\n        /* \"#utility.yul\":979:983   */\n      dup3\n        /* \"#utility.yul\":957:984   */\n      tag_36\n      jump\t// in\n    tag_79:\n        /* \"#utility.yul\":949:955   */\n      dup2\n        /* \"#utility.yul\":945:985   */\n      add\n        /* \"#utility.yul\":1087:1093   */\n      dup2\n        /* \"#utility.yul\":1075:1085   */\n      dup2\n        /* \"#utility.yul\":1072:1094   */\n      lt\n        /* \"#utility.yul\":1051:1069   */\n      0xffffffffffffffff\n        /* \"#utility.yul\":1039:1049   */\n      dup3\n        /* \"#utility.yul\":1036:1070   */\n      gt\n        /* \"#utility.yul\":1033:1095   */\n      or\n        /* \"#utility.yul\":1030:1118   */\n      iszero\n      tag_80\n      jumpi\n        /* \"#utility.yul\":1098:1116   */\n      tag_81\n      tag_37\n      jump\t// in\n    tag_81:\n        /* \"#utility.yul\":1030:1118   */\n    tag_80:\n        /* \"#utility.yul\":1138:1148   */\n      dup1\n        /* \"#utility.yul\":1134:1136   */\n      0x40\n        /* \"#utility.yul\":1127:1149   */\n      mstore\n        /* \"#utility.yul\":917:1155   */\n      pop\n        /* \"#utility.yul\":874:1155   */\n      pop\n      pop\n      jump\t// out\n        /* \"#utility.yul\":1161:1290   */\n    tag_39:\n        /* \"#utility.yul\":1195:1201   */\n      0x00\n        /* \"#utility.yul\":1222:1242   */\n      tag_83\n      tag_31\n      jump\t// in\n    tag_83:\n        /* \"#utility.yul\":1212:1242   */\n      swap1\n      pop\n        /* \"#utility.yul\":1251:1284   */\n      tag_84\n        /* \"#utility.yul\":1279:1283   */\n      dup3\n        /* \"#utility.yul\":1271:1277   */\n      dup3\n        /* \"#utility.yul\":1251:1284   */\n      tag_38\n      jump\t// in\n    tag_84:\n        /* \"#utility.yul\":1161:1290   */\n      swap2\n      swap1\n      pop\n      jump\t// out\n        /* \"#utility.yul\":1296:1604   */\n    tag_40:\n        /* \"#utility.yul\":1358:1362   */\n      0x00\n        /* \"#utility.yul\":1448:1466   */\n      0xffffffffffffffff\n        /* \"#utility.yul\":1440:1446   */\n      dup3\n        /* \"#utility.yul\":1437:1467   */\n      gt\n        /* \"#utility.yul\":1434:1490   */\n      iszero\n      tag_86\n      jumpi\n        /* \"#utility.yul\":1470:1488   */\n      tag_87\n      tag_37\n      jump\t// in\n    tag_87:\n        /* \"#utility.yul\":1434:1490   */\n    tag_86:\n        /* \"#utility.yul\":1508:1537   */\n      tag_88\n        /* \"#utility.yul\":1530:1536   */\n      dup3\n        /* \"#utility.yul\":1508:1537   */\n      tag_36\n      jump\t// in\n    tag_88:\n        /* \"#utility.yul\":1500:1537   */\n      swap1\n      pop\n        /* \"#utility.yul\":1592:1596   */\n      0x20\n        /* \"#utility.yul\":1586:1590   */\n      dup2\n        /* \"#utility.yul\":1582:1597   */\n      add\n        /* \"#utility.yul\":1574:1597   */\n      swap1\n      pop\n        /* \"#utility.yul\":1296:1604   */\n      swap2\n      swap1\n      pop\n      jump\t// out\n        /* \"#utility.yul\":1610:1756   */\n    tag_41:\n        /* \"#utility.yul\":1707:1713   */\n      dup3\n        /* \"#utility.yul\":1702:1705   */\n      dup2\n        /* \"#utility.yul\":1697:1700   */\n      dup4\n        /* \"#utility.yul\":1684:1714   */\n      calldatacopy\n        /* \"#utility.yul\":1748:1749   */\n      0x00\n        /* \"#utility.yul\":1739:1745   */\n      dup4\n        /* \"#utility.yul\":1734:1737   */\n      dup4\n        /* \"#utility.yul\":1730:1746   */\n      add\n        /* \"#utility.yul\":1723:1750   */\n      mstore\n        /* \"#utility.yul\":1610:1756   */\n      pop\n      pop\n      pop\n      jump\t// out\n        /* \"#utility.yul\":1762:2187   */\n    tag_42:\n        /* \"#utility.yul\":1840:1845   */\n      0x00\n        /* \"#utility.yul\":1865:1931   */\n      tag_91\n        /* \"#utility.yul\":1881:1930   */\n      tag_92\n        /* \"#utility.yul\":1923:1929   */\n      dup5\n        /* \"#utility.yul\":1881:1930   */\n      tag_40\n      jump\t// in\n    tag_92:\n        /* \"#utility.yul\":1865:1931   */\n      tag_39\n      jump\t// in\n    tag_91:\n        /* \"#utility.yul\":1856:1931   */\n      swap1\n      pop\n        /* \"#utility.yul\":1954:1960   */\n      dup3\n        /* \"#utility.yul\":1947:1952   */\n      dup2\n        /* \"#utility.yul\":1940:1961   */\n      mstore\n        /* \"#utility.yul\":1992:1996   */\n      0x20\n        /* \"#utility.yul\":1985:1990   */\n      dup2\n        /* \"#utility.yul\":1981:1997   */\n      add\n        /* \"#utility.yul\":2030:2033   */\n      dup5\n        /* \"#utility.yul\":2021:2027   */\n      dup5\n        /* \"#utility.yul\":2016:2019   */\n      dup5\n        /* \"#utility.yul\":2012:2028   */\n      add\n        /* \"#utility.yul\":2009:2034   */\n      gt\n        /* \"#utility.yul\":2006:2118   */\n      iszero\n      tag_93\n      jumpi\n        /* \"#utility.yul\":2037:2116   */\n      tag_94\n      tag_35\n      jump\t// in\n    tag_94:\n        /* \"#utility.yul\":2006:2118   */\n    tag_93:\n        /* \"#utility.yul\":2127:2181   */\n      tag_95\n        /* \"#utility.yul\":2174:2180   */\n      dup5\n        /* \"#utility.yul\":2169:2172   */\n      dup3\n        /* \"#utility.yul\":2164:2167   */\n      dup6\n        /* \"#utility.yul\":2127:2181   */\n      tag_41\n      jump\t// in\n    tag_95:\n        /* \"#utility.yul\":1846:2187   */\n      pop\n        /* \"#utility.yul\":1762:2187   */\n      swap4\n      swap3\n      pop\n      pop\n      pop\n      jump\t// out\n        /* \"#utility.yul\":2207:2547   */\n    tag_43:\n        /* \"#utility.yul\":2263:2268   */\n      0x00\n        /* \"#utility.yul\":2312:2315   */\n      dup3\n        /* \"#utility.yul\":2305:2309   */\n      0x1f\n        /* \"#utility.yul\":2297:2303   */\n      dup4\n        /* \"#utility.yul\":2293:2310   */\n      add\n        /* \"#utility.yul\":2289:2316   */\n      slt\n        /* \"#utility.yul\":2279:2401   */\n      tag_97\n      jumpi\n        /* \"#utility.yul\":2320:2399   */\n      tag_98\n      tag_34\n      jump\t// in\n    tag_98:\n        /* \"#utility.yul\":2279:2401   */\n    tag_97:\n        /* \"#utility.yul\":2437:2443   */\n      dup2\n        /* \"#utility.yul\":2424:2444   */\n      calldataload\n        /* \"#utility.yul\":2462:2541   */\n      tag_99\n        /* \"#utility.yul\":2537:2540   */\n      dup5\n        /* \"#utility.yul\":2529:2535   */\n      dup3\n        /* \"#utility.yul\":2522:2526   */\n      0x20\n        /* \"#utility.yul\":2514:2520   */\n      dup7\n        /* \"#utility.yul\":2510:2527   */\n      add\n        /* \"#utility.yul\":2462:2541   */\n      tag_42\n      jump\t// in\n    tag_99:\n        /* \"#utility.yul\":2453:2541   */\n      swap2\n      pop\n        /* \"#utility.yul\":2269:2547   */\n      pop\n        /* \"#utility.yul\":2207:2547   */\n      swap3\n      swap2\n      pop\n      pop\n      jump\t// out\n        /* \"#utility.yul\":2553:2639   */\n    tag_44:\n        /* \"#utility.yul\":2588:2595   */\n      0x00\n        /* \"#utility.yul\":2628:2632   */\n      0xff\n        /* \"#utility.yul\":2621:2626   */\n      dup3\n        /* \"#utility.yul\":2617:2633   */\n      and\n        /* \"#utility.yul\":2606:2633   */\n      swap1\n      pop\n        /* \"#utility.yul\":2553:2639   */\n      swap2\n      swap1\n      pop\n      jump\t// out\n        /* \"#utility.yul\":2645:2763   */\n    tag_45:\n        /* \"#utility.yul\":2716:2738   */\n      tag_102\n        /* \"#utility.yul\":2732:2737   */\n      dup2\n        /* \"#utility.yul\":2716:2738   */\n      tag_44\n      jump\t// in\n    tag_102:\n        /* \"#utility.yul\":2709:2714   */\n      dup2\n        /* \"#utility.yul\":2706:2739   */\n      eq\n        /* \"#utility.yul\":2696:2757   */\n      tag_103\n      jumpi\n        /* \"#utility.yul\":2753:2754   */\n      0x00\n        /* \"#utility.yul\":2750:2751   */\n      dup1\n        /* \"#utility.yul\":2743:2755   */\n      revert\n        /* \"#utility.yul\":2696:2757   */\n    tag_103:\n        /* \"#utility.yul\":2645:2763   */\n      pop\n      jump\t// out\n        /* \"#utility.yul\":2769:2904   */\n    tag_46:\n        /* \"#utility.yul\":2813:2818   */\n      0x00\n        /* \"#utility.yul\":2851:2857   */\n      dup2\n        /* \"#utility.yul\":2838:2858   */\n      calldataload\n        /* \"#utility.yul\":2829:2858   */\n      swap1\n      pop\n        /* \"#utility.yul\":2867:2898   */\n      tag_105\n        /* \"#utility.yul\":2892:2897   */\n      dup2\n        /* \"#utility.yul\":2867:2898   */\n      tag_45\n      jump\t// in\n    tag_105:\n        /* \"#utility.yul\":2769:2904   */\n      swap3\n      swap2\n      pop\n      pop\n      jump\t// out\n        /* \"#utility.yul\":2910:3885   */\n    tag_7:\n        /* \"#utility.yul\":3005:3011   */\n      0x00\n        /* \"#utility.yul\":3013:3019   */\n      dup1\n        /* \"#utility.yul\":3021:3027   */\n      0x00\n        /* \"#utility.yul\":3070:3072   */\n      0x60\n        /* \"#utility.yul\":3058:3067   */\n      dup5\n        /* \"#utility.yul\":3049:3056   */\n      dup7\n        /* \"#utility.yul\":3045:3068   */\n      sub\n        /* \"#utility.yul\":3041:3073   */\n      slt\n        /* \"#utility.yul\":3038:3157   */\n      iszero\n      tag_107\n      jumpi\n        /* \"#utility.yul\":3076:3155   */\n      tag_108\n      tag_32\n      jump\t// in\n    tag_108:\n        /* \"#utility.yul\":3038:3157   */\n    tag_107:\n        /* \"#utility.yul\":3224:3225   */\n      0x00\n        /* \"#utility.yul\":3213:3222   */\n      dup5\n        /* \"#utility.yul\":3209:3226   */\n      add\n        /* \"#utility.yul\":3196:3227   */\n      calldataload\n        /* \"#utility.yul\":3254:3272   */\n      0xffffffffffffffff\n        /* \"#utility.yul\":3246:3252   */\n      dup2\n        /* \"#utility.yul\":3243:3273   */\n      gt\n        /* \"#utility.yul\":3240:3357   */\n      iszero\n      tag_109\n      jumpi\n        /* \"#utility.yul\":3276:3355   */\n      tag_110\n      tag_33\n      jump\t// in\n    tag_110:\n        /* \"#utility.yul\":3240:3357   */\n    tag_109:\n        /* \"#utility.yul\":3381:3444   */\n      tag_111\n        /* \"#utility.yul\":3436:3443   */\n      dup7\n        /* \"#utility.yul\":3427:3433   */\n      dup3\n        /* \"#utility.yul\":3416:3425   */\n      dup8\n        /* \"#utility.yul\":3412:3434   */\n      add\n        /* \"#utility.yul\":3381:3444   */\n      tag_43\n      jump\t// in\n    tag_111:\n        /* \"#utility.yul\":3371:3444   */\n      swap4\n      pop\n        /* \"#utility.yul\":3167:3454   */\n      pop\n        /* \"#utility.yul\":3493:3495   */\n      0x20\n        /* \"#utility.yul\":3519:3570   */\n      tag_112\n        /* \"#utility.yul\":3562:3569   */\n      dup7\n        /* \"#utility.yul\":3553:3559   */\n      dup3\n        /* \"#utility.yul\":3542:3551   */\n      dup8\n        /* \"#utility.yul\":3538:3560   */\n      add\n        /* \"#utility.yul\":3519:3570   */\n      tag_46\n      jump\t// in\n    tag_112:\n        /* \"#utility.yul\":3509:3570   */\n      swap3\n      pop\n        /* \"#utility.yul\":3464:3580   */\n      pop\n        /* \"#utility.yul\":3647:3649   */\n      0x40\n        /* \"#utility.yul\":3636:3645   */\n      dup5\n        /* \"#utility.yul\":3632:3650   */\n      add\n        /* \"#utility.yul\":3619:3651   */\n      calldataload\n        /* \"#utility.yul\":3678:3696   */\n      0xffffffffffffffff\n        /* \"#utility.yul\":3670:3676   */\n      dup2\n        /* \"#utility.yul\":3667:3697   */\n      gt\n        /* \"#utility.yul\":3664:3781   */\n      iszero\n      tag_113\n      jumpi\n        /* \"#utility.yul\":3700:3779   */\n      tag_114\n      tag_33\n      jump\t// in\n    tag_114:\n        /* \"#utility.yul\":3664:3781   */\n    tag_113:\n        /* \"#utility.yul\":3805:3868   */\n      tag_115\n        /* \"#utility.yul\":3860:3867   */\n      dup7\n        /* \"#utility.yul\":3851:3857   */\n      dup3\n        /* \"#utility.yul\":3840:3849   */\n      dup8\n        /* \"#utility.yul\":3836:3858   */\n      add\n        /* \"#utility.yul\":3805:3868   */\n      tag_43\n      jump\t// in\n    tag_115:\n        /* \"#utility.yul\":3795:3868   */\n      swap2\n      pop\n        /* \"#utility.yul\":3590:3878   */\n      pop\n        /* \"#utility.yul\":2910:3885   */\n      swap3\n      pop\n      swap3\n      pop\n      swap3\n      jump\t// out\n        /* \"#utility.yul\":3891:3990   */\n    tag_47:\n        /* \"#utility.yul\":3943:3949   */\n      0x00\n        /* \"#utility.yul\":3977:3982   */\n      dup2\n        /* \"#utility.yul\":3971:3983   */\n      mload\n        /* \"#utility.yul\":3961:3983   */\n      swap1\n      pop\n        /* \"#utility.yul\":3891:3990   */\n      swap2\n      swap1\n      pop\n      jump\t// out\n        /* \"#utility.yul\":3996:4155   */\n    tag_48:\n        /* \"#utility.yul\":4070:4081   */\n      0x00\n        /* \"#utility.yul\":4104:4110   */\n      dup3\n        /* \"#utility.yul\":4099:4102   */\n      dup3\n        /* \"#utility.yul\":4092:4111   */\n      mstore\n        /* \"#utility.yul\":4144:4148   */\n      0x20\n        /* \"#utility.yul\":4139:4142   */\n      dup3\n        /* \"#utility.yul\":4135:4149   */\n      add\n        /* \"#utility.yul\":4120:4149   */\n      swap1\n      pop\n        /* \"#utility.yul\":3996:4155   */\n      swap3\n      swap2\n      pop\n      pop\n      jump\t// out\n        /* \"#utility.yul\":4161:4407   */\n    tag_49:\n        /* \"#utility.yul\":4242:4243   */\n      0x00\n        /* \"#utility.yul\":4252:4365   */\n    tag_119:\n        /* \"#utility.yul\":4266:4272   */\n      dup4\n        /* \"#utility.yul\":4263:4264   */\n      dup2\n        /* \"#utility.yul\":4260:4273   */\n      lt\n        /* \"#utility.yul\":4252:4365   */\n      iszero\n      tag_121\n      jumpi\n        /* \"#utility.yul\":4351:4352   */\n      dup1\n        /* \"#utility.yul\":4346:4349   */\n      dup3\n        /* \"#utility.yul\":4342:4353   */\n      add\n        /* \"#utility.yul\":4336:4354   */\n      mload\n        /* \"#utility.yul\":4332:4333   */\n      dup2\n        /* \"#utility.yul\":4327:4330   */\n      dup5\n        /* \"#utility.yul\":4323:4334   */\n      add\n        /* \"#utility.yul\":4316:4355   */\n      mstore\n        /* \"#utility.yul\":4288:4290   */\n      0x20\n        /* \"#utility.yul\":4285:4286   */\n      dup2\n        /* \"#utility.yul\":4281:4291   */\n      add\n        /* \"#utility.yul\":4276:4291   */\n      swap1\n      pop\n        /* \"#utility.yul\":4252:4365   */\n      jump(tag_119)\n    tag_121:\n        /* \"#utility.yul\":4399:4400   */\n      0x00\n        /* \"#utility.yul\":4390:4396   */\n      dup5\n        /* \"#utility.yul\":4385:4388   */\n      dup5\n        /* \"#utility.yul\":4381:4397   */\n      add\n        /* \"#utility.yul\":4374:4401   */\n      mstore\n        /* \"#utility.yul\":4223:4407   */\n      pop\n        /* \"#utility.yul\":4161:4407   */\n      pop\n      pop\n      pop\n      jump\t// out\n        /* \"#utility.yul\":4413:4770   */\n    tag_50:\n        /* \"#utility.yul\":4491:4494   */\n      0x00\n        /* \"#utility.yul\":4519:4558   */\n      tag_123\n        /* \"#utility.yul\":4552:4557   */\n      dup3\n        /* \"#utility.yul\":4519:4558   */\n      tag_47\n      jump\t// in\n    tag_123:\n        /* \"#utility.yul\":4574:4635   */\n      tag_124\n        /* \"#utility.yul\":4628:4634   */\n      dup2\n        /* \"#utility.yul\":4623:4626   */\n      dup6\n        /* \"#utility.yul\":4574:4635   */\n      tag_48\n      jump\t// in\n    tag_124:\n        /* \"#utility.yul\":4567:4635   */\n      swap4\n      pop\n        /* \"#utility.yul\":4644:4709   */\n      tag_125\n        /* \"#utility.yul\":4702:4708   */\n      dup2\n        /* \"#utility.yul\":4697:4700   */\n      dup6\n        /* \"#utility.yul\":4690:4694   */\n      0x20\n        /* \"#utility.yul\":4683:4688   */\n      dup7\n        /* \"#utility.yul\":4679:4695   */\n      add\n        /* \"#utility.yul\":4644:4709   */\n      tag_49\n      jump\t// in\n    tag_125:\n        /* \"#utility.yul\":4734:4763   */\n      tag_126\n        /* \"#utility.yul\":4756:4762   */\n      dup2\n        /* \"#utility.yul\":4734:4763   */\n      tag_36\n      jump\t// in\n    tag_126:\n        /* \"#utility.yul\":4729:4732   */\n      dup5\n        /* \"#utility.yul\":4725:4764   */\n      add\n        /* \"#utility.yul\":4718:4764   */\n      swap2\n      pop\n        /* \"#utility.yul\":4495:4770   */\n      pop\n        /* \"#utility.yul\":4413:4770   */\n      swap3\n      swap2\n      pop\n      pop\n      jump\t// out\n        /* \"#utility.yul\":4776:4878   */\n    tag_51:\n        /* \"#utility.yul\":4849:4871   */\n      tag_128\n        /* \"#utility.yul\":4865:4870   */\n      dup2\n        /* \"#utility.yul\":4849:4871   */\n      tag_44\n      jump\t// in\n    tag_128:\n        /* \"#utility.yul\":4844:4847   */\n      dup3\n        /* \"#utility.yul\":4837:4872   */\n      mstore\n        /* \"#utility.yul\":4776:4878   */\n      pop\n      pop\n      jump\t// out\n        /* \"#utility.yul\":4918:5751   */\n    tag_52:\n        /* \"#utility.yul\":5025:5028   */\n      0x00\n        /* \"#utility.yul\":5061:5065   */\n      0x60\n        /* \"#utility.yul\":5056:5059   */\n      dup4\n        /* \"#utility.yul\":5052:5066   */\n      add\n        /* \"#utility.yul\":5148:5152   */\n      0x00\n        /* \"#utility.yul\":5141:5146   */\n      dup4\n        /* \"#utility.yul\":5137:5153   */\n      add\n        /* \"#utility.yul\":5131:5154   */\n      mload\n        /* \"#utility.yul\":5201:5204   */\n      dup5\n        /* \"#utility.yul\":5195:5199   */\n      dup3\n        /* \"#utility.yul\":5191:5205   */\n      sub\n        /* \"#utility.yul\":5184:5188   */\n      0x00\n        /* \"#utility.yul\":5179:5182   */\n      dup7\n        /* \"#utility.yul\":5175:5189   */\n      add\n        /* \"#utility.yul\":5168:5206   */\n      mstore\n        /* \"#utility.yul\":5227:5300   */\n      tag_130\n        /* \"#utility.yul\":5295:5299   */\n      dup3\n        /* \"#utility.yul\":5281:5293   */\n      dup3\n        /* \"#utility.yul\":5227:5300   */\n      tag_50\n      jump\t// in\n    tag_130:\n        /* \"#utility.yul\":5219:5300   */\n      swap2\n      pop\n        /* \"#utility.yul\":5076:5311   */\n      pop\n        /* \"#utility.yul\":5392:5396   */\n      0x20\n        /* \"#utility.yul\":5385:5390   */\n      dup4\n        /* \"#utility.yul\":5381:5397   */\n      add\n        /* \"#utility.yul\":5375:5398   */\n      mload\n        /* \"#utility.yul\":5411:5470   */\n      tag_131\n        /* \"#utility.yul\":5464:5468   */\n      0x20\n        /* \"#utility.yul\":5459:5462   */\n      dup7\n        /* \"#utility.yul\":5455:5469   */\n      add\n        /* \"#utility.yul\":5441:5453   */\n      dup3\n        /* \"#utility.yul\":5411:5470   */\n      tag_51\n      jump\t// in\n    tag_131:\n        /* \"#utility.yul\":5321:5480   */\n      pop\n        /* \"#utility.yul\":5561:5565   */\n      0x40\n        /* \"#utility.yul\":5554:5559   */\n      dup4\n        /* \"#utility.yul\":5550:5566   */\n      add\n        /* \"#utility.yul\":5544:5567   */\n      mload\n        /* \"#utility.yul\":5614:5617   */\n      dup5\n        /* \"#utility.yul\":5608:5612   */\n      dup3\n        /* \"#utility.yul\":5604:5618   */\n      sub\n        /* \"#utility.yul\":5597:5601   */\n      0x40\n        /* \"#utility.yul\":5592:5595   */\n      dup7\n        /* \"#utility.yul\":5588:5602   */\n      add\n        /* \"#utility.yul\":5581:5619   */\n      mstore\n        /* \"#utility.yul\":5640:5713   */\n      tag_132\n        /* \"#utility.yul\":5708:5712   */\n      dup3\n        /* \"#utility.yul\":5694:5706   */\n      dup3\n        /* \"#utility.yul\":5640:5713   */\n      tag_50\n      jump\t// in\n    tag_132:\n        /* \"#utility.yul\":5632:5713   */\n      swap2\n      pop\n        /* \"#utility.yul\":5490:5724   */\n      pop\n        /* \"#utility.yul\":5741:5745   */\n      dup1\n        /* \"#utility.yul\":5734:5745   */\n      swap2\n      pop\n        /* \"#utility.yul\":5030:5751   */\n      pop\n        /* \"#utility.yul\":4918:5751   */\n      swap3\n      swap2\n      pop\n      pop\n      jump\t// out\n        /* \"#utility.yul\":5757:6106   */\n    tag_12:\n        /* \"#utility.yul\":5888:5892   */\n      0x00\n        /* \"#utility.yul\":5926:5928   */\n      0x20\n        /* \"#utility.yul\":5915:5924   */\n      dup3\n        /* \"#utility.yul\":5911:5929   */\n      add\n        /* \"#utility.yul\":5903:5929   */\n      swap1\n      pop\n        /* \"#utility.yul\":5975:5984   */\n      dup2\n        /* \"#utility.yul\":5969:5973   */\n      dup2\n        /* \"#utility.yul\":5965:5985   */\n      sub\n        /* \"#utility.yul\":5961:5962   */\n      0x00\n        /* \"#utility.yul\":5950:5959   */\n      dup4\n        /* \"#utility.yul\":5946:5963   */\n      add\n        /* \"#utility.yul\":5939:5986   */\n      mstore\n        /* \"#utility.yul\":6003:6099   */\n      tag_134\n        /* \"#utility.yul\":6094:6098   */\n      dup2\n        /* \"#utility.yul\":6085:6091   */\n      dup5\n        /* \"#utility.yul\":6003:6099   */\n      tag_52\n      jump\t// in\n    tag_134:\n        /* \"#utility.yul\":5995:6099   */\n      swap1\n      pop\n        /* \"#utility.yul\":5757:6106   */\n      swap3\n      swap2\n      pop\n      pop\n      jump\t// out\n        /* \"#utility.yul\":6112:6292   */\n    tag_53:\n        /* \"#utility.yul\":6160:6237   */\n      0x4e487b7100000000000000000000000000000000000000000000000000000000\n        /* \"#utility.yul\":6157:6158   */\n      0x00\n        /* \"#utility.yul\":6150:6238   */\n      mstore\n        /* \"#utility.yul\":6257:6261   */\n      0x22\n        /* \"#utility.yul\":6254:6255   */\n      0x04\n        /* \"#utility.yul\":6247:6262   */\n      mstore\n        /* \"#utility.yul\":6281:6285   */\n      0x24\n        /* \"#utility.yul\":6278:6279   */\n      0x00\n        /* \"#utility.yul\":6271:6286   */\n      revert\n        /* \"#utility.yul\":6298:6618   */\n    tag_21:\n        /* \"#utility.yul\":6342:6348   */\n      0x00\n        /* \"#utility.yul\":6379:6380   */\n      0x02\n        /* \"#utility.yul\":6373:6377   */\n      dup3\n        /* \"#utility.yul\":6369:6381   */\n      div\n        /* \"#utility.yul\":6359:6381   */\n      swap1\n      pop\n        /* \"#utility.yul\":6426:6427   */\n      0x01\n        /* \"#utility.yul\":6420:6424   */\n      dup3\n        /* \"#utility.yul\":6416:6428   */\n      and\n        /* \"#utility.yul\":6447:6465   */\n      dup1\n        /* \"#utility.yul\":6437:6518   */\n      tag_137\n      jumpi\n        /* \"#utility.yul\":6503:6507   */\n      0x7f\n        /* \"#utility.yul\":6495:6501   */\n      dup3\n        /* \"#utility.yul\":6491:6508   */\n      and\n        /* \"#utility.yul\":6481:6508   */\n      swap2\n      pop\n        /* \"#utility.yul\":6437:6518   */\n    tag_137:\n        /* \"#utility.yul\":6565:6567   */\n      0x20\n        /* \"#utility.yul\":6557:6563   */\n      dup3\n        /* \"#utility.yul\":6554:6568   */\n      lt\n        /* \"#utility.yul\":6534:6552   */\n      dup2\n        /* \"#utility.yul\":6531:6569   */\n      sub\n        /* \"#utility.yul\":6528:6612   */\n      tag_138\n      jumpi\n        /* \"#utility.yul\":6584:6602   */\n      tag_139\n      tag_53\n      jump\t// in\n    tag_139:\n        /* \"#utility.yul\":6528:6612   */\n    tag_138:\n        /* \"#utility.yul\":6349:6618   */\n      pop\n        /* \"#utility.yul\":6298:6618   */\n      swap2\n      swap1\n      pop\n      jump\t// out\n        /* \"#utility.yul\":6624:6765   */\n    tag_54:\n        /* \"#utility.yul\":6673:6677   */\n      0x00\n        /* \"#utility.yul\":6696:6699   */\n      dup2\n        /* \"#utility.yul\":6688:6699   */\n      swap1\n      pop\n        /* \"#utility.yul\":6719:6722   */\n      dup2\n        /* \"#utility.yul\":6716:6717   */\n      0x00\n        /* \"#utility.yul\":6709:6723   */\n      mstore\n        /* \"#utility.yul\":6753:6757   */\n      0x20\n        /* \"#utility.yul\":6750:6751   */\n      0x00\n        /* \"#utility.yul\":6740:6758   */\n      keccak256\n        /* \"#utility.yul\":6732:6758   */\n      swap1\n      pop\n        /* \"#utility.yul\":6624:6765   */\n      swap2\n      swap1\n      pop\n      jump\t// out\n        /* \"#utility.yul\":6771:6864   */\n    tag_55:\n        /* \"#utility.yul\":6808:6814   */\n      0x00\n        /* \"#utility.yul\":6855:6857   */\n      0x20\n        /* \"#utility.yul\":6850:6852   */\n      0x1f\n        /* \"#utility.yul\":6843:6848   */\n      dup4\n        /* \"#utility.yul\":6839:6853   */\n      add\n        /* \"#utility.yul\":6835:6858   */\n      div\n        /* \"#utility.yul\":6825:6858   */\n      swap1\n      pop\n        /* \"#utility.yul\":6771:6864   */\n      swap2\n      swap1\n      pop\n      jump\t// out\n        /* \"#utility.yul\":6870:6977   */\n    tag_56:\n        /* \"#utility.yul\":6914:6922   */\n      0x00\n        /* \"#utility.yul\":6964:6969   */\n      dup3\n        /* \"#utility.yul\":6958:6962   */\n      dup3\n        /* \"#utility.yul\":6954:6970   */\n      shl\n        /* \"#utility.yul\":6933:6970   */\n      swap1\n      pop\n        /* \"#utility.yul\":6870:6977   */\n      swap3\n      swap2\n      pop\n      pop\n      jump\t// out\n        /* \"#utility.yul\":6983:7376   */\n    tag_57:\n        /* \"#utility.yul\":7052:7058   */\n      0x00\n        /* \"#utility.yul\":7102:7103   */\n      0x08\n        /* \"#utility.yul\":7090:7100   */\n      dup4\n        /* \"#utility.yul\":7086:7104   */\n      mul\n        /* \"#utility.yul\":7125:7222   */\n      tag_144\n        /* \"#utility.yul\":7155:7221   */\n      0xffffffffffffffffffffffffffffffffffffffffffffffffffffffffffffffff\n        /* \"#utility.yul\":7144:7153   */\n      dup3\n        /* \"#utility.yul\":7125:7222   */\n      tag_56\n      jump\t// in\n    tag_144:\n        /* \"#utility.yul\":7243:7282   */\n      tag_145\n        /* \"#utility.yul\":7273:7281   */\n      dup7\n        /* \"#utility.yul\":7262:7271   */\n      dup4\n        /* \"#utility.yul\":7243:7282   */\n      tag_56\n      jump\t// in\n    tag_145:\n        /* \"#utility.yul\":7231:7282   */\n      swap6\n      pop\n        /* \"#utility.yul\":7315:7319   */\n      dup1\n        /* \"#utility.yul\":7311:7320   */\n      not\n        /* \"#utility.yul\":7304:7309   */\n      dup5\n        /* \"#utility.yul\":7300:7321   */\n      and\n        /* \"#utility.yul\":7291:7321   */\n      swap4\n      pop\n        /* \"#utility.yul\":7364:7368   */\n      dup1\n        /* \"#utility.yul\":7354:7362   */\n      dup7\n        /* \"#utility.yul\":7350:7369   */\n      and\n        /* \"#utility.yul\":7343:7348   */\n      dup5\n        /* \"#utility.yul\":7340:7370   */\n      or\n        /* \"#utility.yul\":7330:7370   */\n      swap3\n      pop\n        /* \"#utility.yul\":7059:7376   */\n      pop\n      pop\n        /* \"#utility.yul\":6983:7376   */\n      swap4\n      swap3\n      pop\n      pop\n      pop\n      jump\t// out\n        /* \"#utility.yul\":7382:7459   */\n    tag_58:\n        /* \"#utility.yul\":7419:7426   */\n      0x00\n        /* \"#utility.yul\":7448:7453   */\n      dup2\n        /* \"#utility.yul\":7437:7453   */\n      swap1\n      pop\n        /* \"#utility.yul\":7382:7459   */\n      swap2\n      swap1\n      pop\n      jump\t// out\n        /* \"#utility.yul\":7465:7525   */\n    tag_59:\n        /* \"#utility.yul\":7493:7496   */\n      0x00\n        /* \"#utility.yul\":7514:7519   */\n      dup2\n        /* \"#utility.yul\":7507:7519   */\n      swap1\n      pop\n        /* \"#utility.yul\":7465:7525   */\n      swap2\n      swap1\n      pop\n      jump\t// out\n        /* \"#utility.yul\":7531:7673   */\n    tag_60:\n        /* \"#utility.yul\":7581:7590   */\n      0x00\n        /* \"#utility.yul\":7614:7667   */\n      tag_149\n        /* \"#utility.yul\":7632:7666   */\n      tag_150\n        /* \"#utility.yul\":7641:7665   */\n      tag_151\n        /* \"#utility.yul\":7659:7664   */\n      dup5\n        /* \"#utility.yul\":7641:7665   */\n      tag_58\n      jump\t// in\n    tag_151:\n        /* \"#utility.yul\":7632:7666   */\n      tag_59\n      jump\t// in\n    tag_150:\n        /* \"#utility.yul\":7614:7667   */\n      tag_58\n      jump\t// in\n    tag_149:\n        /* \"#utility.yul\":7601:7667   */\n      swap1\n      pop\n        /* \"#utility.yul\":7531:7673   */\n      swap2\n      swap1\n      pop\n      jump\t// out\n        /* \"#utility.yul\":7679:7754   */\n    tag_61:\n        /* \"#utility.yul\":7722:7725   */\n      0x00\n        /* \"#utility.yul\":7743:7748   */\n      dup2\n        /* \"#utility.yul\":7736:7748   */\n      swap1\n      pop\n        /* \"#utility.yul\":7679:7754   */\n      swap2\n      swap1\n      pop\n      jump\t// out\n        /* \"#utility.yul\":7760:8029   */\n    tag_62:\n        /* \"#utility.yul\":7870:7909   */\n      tag_154\n        /* \"#utility.yul\":7901:7908   */\n      dup4\n        /* \"#utility.yul\":7870:7909   */\n      tag_60\n      jump\t// in\n    tag_154:\n        /* \"#utility.yul\":7931:8022   */\n      tag_155\n        /* \"#utility.yul\":7980:8021   */\n      tag_156\n        /* \"#utility.yul\":8004:8020   */\n      dup3\n        /* \"#utility.yul\":7980:8021   */\n      tag_61\n      jump\t// in\n    tag_156:\n        /* \"#utility.yul\":7972:7978   */\n      dup5\n        /* \"#utility.yul\":7965:7969   */\n      dup5\n        /* \"#utility.yul\":7959:7970   */\n      sload\n        /* \"#utility.yul\":7931:8022   */\n      tag_57\n      jump\t// in\n    tag_155:\n        /* \"#utility.yul\":7925:7929   */\n      dup3\n        /* \"#utility.yul\":7918:8023   */\n      sstore\n        /* \"#utility.yul\":7836:8029   */\n      pop\n        /* \"#utility.yul\":7760:8029   */\n      pop\n      pop\n      pop\n      jump\t// out\n        /* \"#utility.yul\":8035:8108   */\n    tag_63:\n        /* \"#utility.yul\":8080:8083   */\n      0x00\n        /* \"#utility.yul\":8035:8108   */\n      swap1\n      jump\t// out\n        /* \"#utility.yul\":8114:8303   */\n    tag_64:\n        /* \"#utility.yul\":8191:8223   */\n      tag_159\n      tag_63\n      jump\t// in\n    tag_159:\n        /* \"#utility.yul\":8232:8297   */\n      tag_160\n        /* \"#utility.yul\":8290:8296   */\n      dup2\n        /* \"#utility.yul\":8282:8288   */\n      dup5\n        /* \"#utility.yul\":8276:8280   */\n      dup5\n        /* \"#utility.yul\":8232:8297   */\n      tag_62\n      jump\t// in\n    tag_160:\n        /* \"#utility.yul\":8167:8303   */\n      pop\n        /* \"#utility.yul\":8114:8303   */\n      pop\n      pop\n      jump\t// out\n        /* \"#utility.yul\":8309:8495   */\n    tag_65:\n        /* \"#utility.yul\":8369:8489   */\n    tag_162:\n        /* \"#utility.yul\":8386:8389   */\n      dup2\n        /* \"#utility.yul\":8379:8384   */\n      dup2\n        /* \"#utility.yul\":8376:8390   */\n      lt\n        /* \"#utility.yul\":8369:8489   */\n      iszero\n      tag_164\n      jumpi\n        /* \"#utility.yul\":8440:8479   */\n      tag_165\n        /* \"#utility.yul\":8477:8478   */\n      0x00\n        /* \"#utility.yul\":8470:8475   */\n      dup3\n        /* \"#utility.yul\":8440:8479   */\n      tag_64\n      jump\t// in\n    tag_165:\n        /* \"#utility.yul\":8413:8414   */\n      0x01\n        /* \"#utility.yul\":8406:8411   */\n      dup2\n        /* \"#utility.yul\":8402:8415   */\n      add\n        /* \"#utility.yul\":8393:8415   */\n      swap1\n      pop\n        /* \"#utility.yul\":8369:8489   */\n      jump(tag_162)\n    tag_164:\n        /* \"#utility.yul\":8309:8495   */\n      pop\n      pop\n      jump\t// out\n        /* \"#utility.yul\":8501:9044   */\n    tag_66:\n        /* \"#utility.yul\":8602:8604   */\n      0x1f\n        /* \"#utility.yul\":8597:8600   */\n      dup3\n        /* \"#utility.yul\":8594:8605   */\n      gt\n        /* \"#utility.yul\":8591:9037   */\n      iszero\n      tag_167\n      jumpi\n        /* \"#utility.yul\":8636:8674   */\n      tag_168\n        /* \"#utility.yul\":8668:8673   */\n      dup2\n        /* \"#utility.yul\":8636:8674   */\n      tag_54\n      jump\t// in\n    tag_168:\n        /* \"#utility.yul\":8720:8749   */\n      tag_169\n        /* \"#utility.yul\":8738:8748   */\n      dup5\n        /* \"#utility.yul\":8720:8749   */\n      tag_55\n      jump\t// in\n    tag_169:\n        /* \"#utility.yul\":8710:8718   */\n      dup2\n        /* \"#utility.yul\":8706:8750   */\n      add\n        /* \"#utility.yul\":8903:8905   */\n      0x20\n        /* \"#utility.yul\":8891:8901   */\n      dup6\n        /* \"#utility.yul\":8888:8906   */\n      lt\n        /* \"#utility.yul\":8885:8934   */\n      iszero\n      tag_170\n      jumpi\n        /* \"#utility.yul\":8924:8932   */\n      dup2\n        /* \"#utility.yul\":8909:8932   */\n      swap1\n      pop\n        /* \"#utility.yul\":8885:8934   */\n    tag_170:\n        /* \"#utility.yul\":8947:9027   */\n      tag_171\n        /* \"#utility.yul\":9003:9025   */\n      tag_172\n        /* \"#utility.yul\":9021:9024   */\n      dup6\n        /* \"#utility.yul\":9003:9025   */\n      tag_55\n      jump\t// in\n    tag_172:\n        /* \"#utility.yul\":8993:9001   */\n      dup4\n        /* \"#utility.yul\":8989:9026   */\n      add\n        /* \"#utility.yul\":8976:8987   */\n      dup3\n        /* \"#utility.yul\":8947:9027   */\n      tag_65\n      jump\t// in\n    tag_171:\n        /* \"#utility.yul\":8606:9037   */\n      pop\n      pop\n        /* \"#utility.yul\":8591:9037   */\n    tag_167:\n        /* \"#utility.yul\":8501:9044   */\n      pop\n      pop\n      pop\n      jump\t// out\n        /* \"#utility.yul\":9050:9167   */\n    tag_67:\n        /* \"#utility.yul\":9104:9112   */\n      0x00\n        /* \"#utility.yul\":9154:9159   */\n      dup3\n        /* \"#utility.yul\":9148:9152   */\n      dup3\n        /* \"#utility.yul\":9144:9160   */\n      shr\n        /* \"#utility.yul\":9123:9160   */\n      swap1\n      pop\n        /* \"#utility.yul\":9050:9167   */\n      swap3\n      swap2\n      pop\n      pop\n      jump\t// out\n        /* \"#utility.yul\":9173:9342   */\n    tag_68:\n        /* \"#utility.yul\":9217:9223   */\n      0x00\n        /* \"#utility.yul\":9250:9301   */\n      tag_175\n        /* \"#utility.yul\":9298:9299   */\n      0x00\n        /* \"#utility.yul\":9294:9300   */\n      not\n        /* \"#utility.yul\":9286:9291   */\n      dup5\n        /* \"#utility.yul\":9283:9284   */\n      0x08\n        /* \"#utility.yul\":9279:9292   */\n      mul\n        /* \"#utility.yul\":9250:9301   */\n      tag_67\n      jump\t// in\n    tag_175:\n        /* \"#utility.yul\":9246:9302   */\n      not\n        /* \"#utility.yul\":9331:9335   */\n      dup1\n        /* \"#utility.yul\":9325:9329   */\n      dup4\n        /* \"#utility.yul\":9321:9336   */\n      and\n        /* \"#utility.yul\":9311:9336   */\n      swap2\n      pop\n        /* \"#utility.yul\":9224:9342   */\n      pop\n        /* \"#utility.yul\":9173:9342   */\n      swap3\n      swap2\n      pop\n      pop\n      jump\t// out\n        /* \"#utility.yul\":9347:9642   */\n    tag_69:\n        /* \"#utility.yul\":9423:9427   */\n      0x00\n        /* \"#utility.yul\":9569:9598   */\n      tag_177\n        /* \"#utility.yul\":9594:9597   */\n      dup4\n        /* \"#utility.yul\":9588:9592   */\n      dup4\n        /* \"#utility.yul\":9569:9598   */\n      tag_68\n      jump\t// in\n    tag_177:\n        /* \"#utility.yul\":9561:9598   */\n      swap2\n      pop\n        /* \"#utility.yul\":9631:9634   */\n      dup3\n        /* \"#utility.yul\":9628:9629   */\n      0x02\n        /* \"#utility.yul\":9624:9635   */\n      mul\n        /* \"#utility.yul\":9618:9622   */\n      dup3\n        /* \"#utility.yul\":9615:9636   */\n      or\n        /* \"#utility.yul\":9607:9636   */\n      swap1\n      pop\n        /* \"#utility.yul\":9347:9642   */\n      swap3\n      swap2\n      pop\n      pop\n      jump\t// out\n        /* \"#utility.yul\":9647:11042   */\n    tag_15:\n        /* \"#utility.yul\":9764:9801   */\n      tag_179\n        /* \"#utility.yul\":9797:9800   */\n      dup3\n        /* \"#utility.yul\":9764:9801   */\n      tag_47\n      jump\t// in\n    tag_179:\n        /* \"#utility.yul\":9866:9884   */\n      0xffffffffffffffff\n        /* \"#utility.yul\":9858:9864   */\n      dup2\n        /* \"#utility.yul\":9855:9885   */\n      gt\n        /* \"#utility.yul\":9852:9908   */\n      iszero\n      tag_180\n      jumpi\n        /* \"#utility.yul\":9888:9906   */\n      tag_181\n      tag_37\n      jump\t// in\n    tag_181:\n        /* \"#utility.yul\":9852:9908   */\n    tag_180:\n        /* \"#utility.yul\":9932:9970   */\n      tag_182\n        /* \"#utility.yul\":9964:9968   */\n      dup3\n        /* \"#utility.yul\":9958:9969   */\n      sload\n        /* \"#utility.yul\":9932:9970   */\n      tag_21\n      jump\t// in\n    tag_182:\n        /* \"#utility.yul\":10017:10084   */\n      tag_183\n        /* \"#utility.yul\":10077:10083   */\n      dup3\n        /* \"#utility.yul\":10069:10075   */\n      dup3\n        /* \"#utility.yul\":10063:10067   */\n      dup6\n        /* \"#utility.yul\":10017:10084   */\n      tag_66\n      jump\t// in\n    tag_183:\n        /* \"#utility.yul\":10111:10112   */\n      0x00\n        /* \"#utility.yul\":10135:10139   */\n      0x20\n        /* \"#utility.yul\":10122:10139   */\n      swap1\n      pop\n        /* \"#utility.yul\":10167:10169   */\n      0x1f\n        /* \"#utility.yul\":10159:10165   */\n      dup4\n        /* \"#utility.yul\":10156:10170   */\n      gt\n        /* \"#utility.yul\":10184:10185   */\n      0x01\n        /* \"#utility.yul\":10179:10797   */\n      dup2\n      eq\n      tag_185\n      jumpi\n        /* \"#utility.yul\":10841:10842   */\n      0x00\n        /* \"#utility.yul\":10858:10864   */\n      dup5\n        /* \"#utility.yul\":10855:10932   */\n      iszero\n      tag_186\n      jumpi\n        /* \"#utility.yul\":10907:10916   */\n      dup3\n        /* \"#utility.yul\":10902:10905   */\n      dup8\n        /* \"#utility.yul\":10898:10917   */\n      add\n        /* \"#utility.yul\":10892:10918   */\n      mload\n        /* \"#utility.yul\":10883:10918   */\n      swap1\n      pop\n        /* \"#utility.yul\":10855:10932   */\n    tag_186:\n        /* \"#utility.yul\":10958:11025   */\n      tag_187\n        /* \"#utility.yul\":11018:11024   */\n      dup6\n        /* \"#utility.yul\":11011:11016   */\n      dup3\n        /* \"#utility.yul\":10958:11025   */\n      tag_69\n      jump\t// in\n    tag_187:\n        /* \"#utility.yul\":10952:10956   */\n      dup7\n        /* \"#utility.yul\":10945:11026   */\n      sstore\n        /* \"#utility.yul\":10814:11036   */\n      pop\n        /* \"#utility.yul\":10149:11036   */\n      jump(tag_184)\n        /* \"#utility.yul\":10179:10797   */\n    tag_185:\n        /* \"#utility.yul\":10231:10235   */\n      0x1f\n        /* \"#utility.yul\":10227:10236   */\n      not\n        /* \"#utility.yul\":10219:10225   */\n      dup5\n        /* \"#utility.yul\":10215:10237   */\n      and\n        /* \"#utility.yul\":10265:10302   */\n      tag_188\n        /* \"#utility.yul\":10297:10301   */\n      dup7\n        /* \"#utility.yul\":10265:10302   */\n      tag_54\n      jump\t// in\n    tag_188:\n        /* \"#utility.yul\":10324:10325   */\n      0x00\n        /* \"#utility.yul\":10338:10546   */\n    tag_189:\n        /* \"#utility.yul\":10352:10359   */\n      dup3\n        /* \"#utility.yul\":10349:10350   */\n      dup2\n        /* \"#utility.yul\":10346:10360   */\n      lt\n        /* \"#utility.yul\":10338:10546   */\n      iszero\n      tag_191\n      jumpi\n        /* \"#utility.yul\":10431:10440   */\n      dup5\n        /* \"#utility.yul\":10426:10429   */\n      dup10\n        /* \"#utility.yul\":10422:10441   */\n      add\n        /* \"#utility.yul\":10416:10442   */\n      mload\n        /* \"#utility.yul\":10408:10414   */\n      dup3\n        /* \"#utility.yul\":10401:10443   */\n      sstore\n        /* \"#utility.yul\":10482:10483   */\n      0x01\n        /* \"#utility.yul\":10474:10480   */\n      dup3\n        /* \"#utility.yul\":10470:10484   */\n      add\n        /* \"#utility.yul\":10460:10484   */\n      swap2\n      pop\n        /* \"#utility.yul\":10529:10531   */\n      0x20\n        /* \"#utility.yul\":10518:10527   */\n      dup6\n        /* \"#utility.yul\":10514:10532   */\n      add\n        /* \"#utility.yul\":10501:10532   */\n      swap5\n      pop\n        /* \"#utility.yul\":10375:10379   */\n      0x20\n        /* \"#utility.yul\":10372:10373   */\n      dup2\n        /* \"#utility.yul\":10368:10380   */\n      add\n        /* \"#utility.yul\":10363:10380   */\n      swap1\n      pop\n        /* \"#utility.yul\":10338:10546   */\n      jump(tag_189)\n    tag_191:\n        /* \"#utility.yul\":10574:10580   */\n      dup7\n        /* \"#utility.yul\":10565:10572   */\n      dup4\n        /* \"#utility.yul\":10562:10581   */\n      lt\n        /* \"#utility.yul\":10559:10738   */\n      iszero\n      tag_192\n      jumpi\n        /* \"#utility.yul\":10632:10641   */\n      dup5\n        /* \"#utility.yul\":10627:10630   */\n      dup10\n        /* \"#utility.yul\":10623:10642   */\n      add\n        /* \"#utility.yul\":10617:10643   */\n      mload\n        /* \"#utility.yul\":10675:10723   */\n      tag_193\n        /* \"#utility.yul\":10717:10721   */\n      0x1f\n        /* \"#utility.yul\":10709:10715   */\n      dup10\n        /* \"#utility.yul\":10705:10722   */\n      and\n        /* \"#utility.yul\":10694:10703   */\n      dup3\n        /* \"#utility.yul\":10675:10723   */\n      tag_68\n      jump\t// in\n    tag_193:\n        /* \"#utility.yul\":10667:10673   */\n      dup4\n        /* \"#utility.yul\":10660:10724   */\n      sstore\n        /* \"#utility.yul\":10582:10738   */\n      pop\n        /* \"#utility.yul\":10559:10738   */\n    tag_192:\n        /* \"#utility.yul\":10784:10785   */\n      0x01\n        /* \"#utility.yul\":10780:10781   */\n      0x02\n        /* \"#utility.yul\":10772:10778   */\n      dup9\n        /* \"#utility.yul\":10768:10782   */\n      mul\n        /* \"#utility.yul\":10764:10786   */\n      add\n        /* \"#utility.yul\":10758:10762   */\n      dup9\n        /* \"#utility.yul\":10751:10787   */\n      sstore\n        /* \"#utility.yul\":10186:10797   */\n      pop\n      pop\n      pop\n        /* \"#utility.yul\":10149:11036   */\n    tag_184:\n      pop\n        /* \"#utility.yul\":9739:11042   */\n      pop\n      pop\n      pop\n        /* \"#utility.yul\":9647:11042   */\n      pop\n      pop\n      jump\t// out\n\n    auxdata: 0xa26469706673582212202e9c26faedda310543214c1bd4f18ff7ba6e634bed6613ee185f22508025270564736f6c63430008120033\n}\n",
				"bytecode": {
					"linkReferences": {},
					"object": "608060405234801561001057600080fd5b5061087f806100206000396000f3fe608060405234801561001057600080fd5b50600436106100365760003560e01c80632d1ca9921461003b578063832880e714610057575b600080fd5b610055600480360381019061005091906103cf565b610075565b005b61005f6100bd565b60405161006c919061053f565b60405180910390f35b826000800190816100869190610777565b5081600060010160006101000a81548160ff021916908360ff16021790555080600060020190816100b79190610777565b50505050565b6100c5610218565b60006040518060600160405290816000820180546100e290610590565b80601f016020809104026020016040519081016040528092919081815260200182805461010e90610590565b801561015b5780601f106101305761010080835404028352916020019161015b565b820191906000526020600020905b81548152906001019060200180831161013e57829003601f168201915b505050505081526020016001820160009054906101000a900460ff1660ff1660ff16815260200160028201805461019190610590565b80601f01602080910402602001604051908101604052809291908181526020018280546101bd90610590565b801561020a5780601f106101df5761010080835404028352916020019161020a565b820191906000526020600020905b8154815290600101906020018083116101ed57829003601f168201915b505050505081525050905090565b604051806060016040528060608152602001600060ff168152602001606081525090565b6000604051905090565b600080fd5b600080fd5b600080fd5b600080fd5b6000601f19601f8301169050919050565b7f4e487b7100000000000000000000000000000000000000000000000000000000600052604160045260246000fd5b6102a38261025a565b810181811067ffffffffffffffff821117156102c2576102c161026b565b5b80604052505050565b60006102d561023c565b90506102e1828261029a565b919050565b600067ffffffffffffffff8211156103015761030061026b565b5b61030a8261025a565b9050602081019050919050565b82818337600083830152505050565b6000610339610334846102e6565b6102cb565b90508281526020810184848401111561035557610354610255565b5b610360848285610317565b509392505050565b600082601f83011261037d5761037c610250565b5b813561038d848260208601610326565b91505092915050565b600060ff82169050919050565b6103ac81610396565b81146103b757600080fd5b50565b6000813590506103c9816103a3565b92915050565b6000806000606084860312156103e8576103e7610246565b5b600084013567ffffffffffffffff8111156104065761040561024b565b5b61041286828701610368565b9350506020610423868287016103ba565b925050604084013567ffffffffffffffff8111156104445761044361024b565b5b61045086828701610368565b9150509250925092565b600081519050919050565b600082825260208201905092915050565b60005b83811015610494578082015181840152602081019050610479565b60008484015250505050565b60006104ab8261045a565b6104b58185610465565b93506104c5818560208601610476565b6104ce8161025a565b840191505092915050565b6104e281610396565b82525050565b6000606083016000830151848203600086015261050582826104a0565b915050602083015161051a60208601826104d9565b506040830151848203604086015261053282826104a0565b9150508091505092915050565b6000602082019050818103600083015261055981846104e8565b905092915050565b7f4e487b7100000000000000000000000000000000000000000000000000000000600052602260045260246000fd5b600060028204905060018216806105a857607f821691505b6020821081036105bb576105ba610561565b5b50919050565b60008190508160005260206000209050919050565b60006020601f8301049050919050565b600082821b905092915050565b6000600883026106237fffffffffffffffffffffffffffffffffffffffffffffffffffffffffffffffff826105e6565b61062d86836105e6565b95508019841693508086168417925050509392505050565b6000819050919050565b6000819050919050565b600061067461066f61066a84610645565b61064f565b610645565b9050919050565b6000819050919050565b61068e83610659565b6106a261069a8261067b565b8484546105f3565b825550505050565b600090565b6106b76106aa565b6106c2818484610685565b505050565b5b818110156106e6576106db6000826106af565b6001810190506106c8565b5050565b601f82111561072b576106fc816105c1565b610705846105d6565b81016020851015610714578190505b610728610720856105d6565b8301826106c7565b50505b505050565b600082821c905092915050565b600061074e60001984600802610730565b1980831691505092915050565b6000610767838361073d565b9150826002028217905092915050565b6107808261045a565b67ffffffffffffffff8111156107995761079861026b565b5b6107a38254610590565b6107ae8282856106ea565b600060209050601f8311600181146107e157600084156107cf578287015190505b6107d9858261075b565b865550610841565b601f1984166107ef866105c1565b60005b82811015610817578489015182556001820191506020850194506020810190506107f2565b868310156108345784890151610830601f89168261073d565b8355505b6001600288020188555050505b50505050505056fea26469706673582212202e9c26faedda310543214c1bd4f18ff7ba6e634bed6613ee185f22508025270564736f6c63430008120033",
					"opcodes": "PUSH1 0x80 PUSH1 0x40 MSTORE CALLVALUE DUP1 ISZERO PUSH2 0x10 JUMPI PUSH1 0x0 DUP1 REVERT JUMPDEST POP PUSH2 0x87F DUP1 PUSH2 0x20 PUSH1 0x0 CODECOPY PUSH1 0x0 RETURN INVALID PUSH1 0x80 PUSH1 0x40 MSTORE CALLVALUE DUP1 ISZERO PUSH2 0x10 JUMPI PUSH1 0x0 DUP1 REVERT JUMPDEST POP PUSH1 0x4 CALLDATASIZE LT PUSH2 0x36 JUMPI PUSH1 0x0 CALLDATALOAD PUSH1 0xE0 SHR DUP1 PUSH4 0x2D1CA992 EQ PUSH2 0x3B JUMPI DUP1 PUSH4 0x832880E7 EQ PUSH2 0x57 JUMPI JUMPDEST PUSH1 0x0 DUP1 REVERT JUMPDEST PUSH2 0x55 PUSH1 0x4 DUP1 CALLDATASIZE SUB DUP2 ADD SWAP1 PUSH2 0x50 SWAP2 SWAP1 PUSH2 0x3CF JUMP JUMPDEST PUSH2 0x75 JUMP JUMPDEST STOP JUMPDEST PUSH2 0x5F PUSH2 0xBD JUMP JUMPDEST PUSH1 0x40 MLOAD PUSH2 0x6C SWAP2 SWAP1 PUSH2 0x53F JUMP JUMPDEST PUSH1 0x40 MLOAD DUP1 SWAP2 SUB SWAP1 RETURN JUMPDEST DUP3 PUSH1 0x0 DUP1 ADD SWAP1 DUP2 PUSH2 0x86 SWAP2 SWAP1 PUSH2 0x777 JUMP JUMPDEST POP DUP2 PUSH1 0x0 PUSH1 0x1 ADD PUSH1 0x0 PUSH2 0x100 EXP DUP2 SLOAD DUP2 PUSH1 0xFF MUL NOT AND SWAP1 DUP4 PUSH1 0xFF AND MUL OR SWAP1 SSTORE POP DUP1 PUSH1 0x0 PUSH1 0x2 ADD SWAP1 DUP2 PUSH2 0xB7 SWAP2 SWAP1 PUSH2 0x777 JUMP JUMPDEST POP POP POP POP JUMP JUMPDEST PUSH2 0xC5 PUSH2 0x218 JUMP JUMPDEST PUSH1 0x0 PUSH1 0x40 MLOAD DUP1 PUSH1 0x60 ADD PUSH1 0x40 MSTORE SWAP1 DUP2 PUSH1 0x0 DUP3 ADD DUP1 SLOAD PUSH2 0xE2 SWAP1 PUSH2 0x590 JUMP JUMPDEST DUP1 PUSH1 0x1F ADD PUSH1 0x20 DUP1 SWAP2 DIV MUL PUSH1 0x20 ADD PUSH1 0x40 MLOAD SWAP1 DUP2 ADD PUSH1 0x40 MSTORE DUP1 SWAP3 SWAP2 SWAP1 DUP2 DUP2 MSTORE PUSH1 0x20 ADD DUP3 DUP1 SLOAD PUSH2 0x10E SWAP1 PUSH2 0x590 JUMP JUMPDEST DUP1 ISZERO PUSH2 0x15B JUMPI DUP1 PUSH1 0x1F LT PUSH2 0x130 JUMPI PUSH2 0x100 DUP1 DUP4 SLOAD DIV MUL DUP4 MSTORE SWAP2 PUSH1 0x20 ADD SWAP2 PUSH2 0x15B JUMP JUMPDEST DUP3 ADD SWAP2 SWAP1 PUSH1 0x0 MSTORE PUSH1 0x20 PUSH1 0x0 KECCAK256 SWAP1 JUMPDEST DUP2 SLOAD DUP2 MSTORE SWAP1 PUSH1 0x1 ADD SWAP1 PUSH1 0x20 ADD DUP1 DUP4 GT PUSH2 0x13E JUMPI DUP3 SWAP1 SUB PUSH1 0x1F AND DUP3 ADD SWAP2 JUMPDEST POP POP POP POP POP DUP2 MSTORE PUSH1 0x20 ADD PUSH1 0x1 DUP3 ADD PUSH1 0x0 SWAP1 SLOAD SWAP1 PUSH2 0x100 EXP SWAP1 DIV PUSH1 0xFF AND PUSH1 0xFF AND PUSH1 0xFF AND DUP2 MSTORE PUSH1 0x20 ADD PUSH1 0x2 DUP3 ADD DUP1 SLOAD PUSH2 0x191 SWAP1 PUSH2 0x590 JUMP JUMPDEST DUP1 PUSH1 0x1F ADD PUSH1 0x20 DUP1 SWAP2 DIV MUL PUSH1 0x20 ADD PUSH1 0x40 MLOAD SWAP1 DUP2 ADD PUSH1 0x40 MSTORE DUP1 SWAP3 SWAP2 SWAP1 DUP2 DUP2 MSTORE PUSH1 0x20 ADD DUP3 DUP1 SLOAD PUSH2 0x1BD SWAP1 PUSH2 0x590 JUMP JUMPDEST DUP1 ISZERO PUSH2 0x20A JUMPI DUP1 PUSH1 0x1F LT PUSH2 0x1DF JUMPI PUSH2 0x100 DUP1 DUP4 SLOAD DIV MUL DUP4 MSTORE SWAP2 PUSH1 0x20 ADD SWAP2 PUSH2 0x20A JUMP JUMPDEST DUP3 ADD SWAP2 SWAP1 PUSH1 0x0 MSTORE PUSH1 0x20 PUSH1 0x0 KECCAK256 SWAP1 JUMPDEST DUP2 SLOAD DUP2 MSTORE SWAP1 PUSH1 0x1 ADD SWAP1 PUSH1 0x20 ADD DUP1 DUP4 GT PUSH2 0x1ED JUMPI DUP3 SWAP1 SUB PUSH1 0x1F AND DUP3 ADD SWAP2 JUMPDEST POP POP POP POP POP DUP2 MSTORE POP POP SWAP1 POP SWAP1 JUMP JUMPDEST PUSH1 0x40 MLOAD DUP1 PUSH1 0x60 ADD PUSH1 0x40 MSTORE DUP1 PUSH1 0x60 DUP2 MSTORE PUSH1 0x20 ADD PUSH1 0x0 PUSH1 0xFF AND DUP2 MSTORE PUSH1 0x20 ADD PUSH1 0x60 DUP2 MSTORE POP SWAP1 JUMP JUMPDEST PUSH1 0x0 PUSH1 0x40 MLOAD SWAP1 POP SWAP1 JUMP JUMPDEST PUSH1 0x0 DUP1 REVERT JUMPDEST PUSH1 0x0 DUP1 REVERT JUMPDEST PUSH1 0x0 DUP1 REVERT JUMPDEST PUSH1 0x0 DUP1 REVERT JUMPDEST PUSH1 0x0 PUSH1 0x1F NOT PUSH1 0x1F DUP4 ADD AND SWAP1 POP SWAP2 SWAP1 POP JUMP JUMPDEST PUSH32 0x4E487B7100000000000000000000000000000000000000000000000000000000 PUSH1 0x0 MSTORE PUSH1 0x41 PUSH1 0x4 MSTORE PUSH1 0x24 PUSH1 0x0 REVERT JUMPDEST PUSH2 0x2A3 DUP3 PUSH2 0x25A JUMP JUMPDEST DUP2 ADD DUP2 DUP2 LT PUSH8 0xFFFFFFFFFFFFFFFF DUP3 GT OR ISZERO PUSH2 0x2C2 JUMPI PUSH2 0x2C1 PUSH2 0x26B JUMP JUMPDEST JUMPDEST DUP1 PUSH1 0x40 MSTORE POP POP POP JUMP JUMPDEST PUSH1 0x0 PUSH2 0x2D5 PUSH2 0x23C JUMP JUMPDEST SWAP1 POP PUSH2 0x2E1 DUP3 DUP3 PUSH2 0x29A JUMP JUMPDEST SWAP2 SWAP1 POP JUMP JUMPDEST PUSH1 0x0 PUSH8 0xFFFFFFFFFFFFFFFF DUP3 GT ISZERO PUSH2 0x301 JUMPI PUSH2 0x300 PUSH2 0x26B JUMP JUMPDEST JUMPDEST PUSH2 0x30A DUP3 PUSH2 0x25A JUMP JUMPDEST SWAP1 POP PUSH1 0x20 DUP2 ADD SWAP1 POP SWAP2 SWAP1 POP JUMP JUMPDEST DUP3 DUP2 DUP4 CALLDATACOPY PUSH1 0x0 DUP4 DUP4 ADD MSTORE POP POP POP JUMP JUMPDEST PUSH1 0x0 PUSH2 0x339 PUSH2 0x334 DUP5 PUSH2 0x2E6 JUMP JUMPDEST PUSH2 0x2CB JUMP JUMPDEST SWAP1 POP DUP3 DUP2 MSTORE PUSH1 0x20 DUP2 ADD DUP5 DUP5 DUP5 ADD GT ISZERO PUSH2 0x355 JUMPI PUSH2 0x354 PUSH2 0x255 JUMP JUMPDEST JUMPDEST PUSH2 0x360 DUP5 DUP3 DUP6 PUSH2 0x317 JUMP JUMPDEST POP SWAP4 SWAP3 POP POP POP JUMP JUMPDEST PUSH1 0x0 DUP3 PUSH1 0x1F DUP4 ADD SLT PUSH2 0x37D JUMPI PUSH2 0x37C PUSH2 0x250 JUMP JUMPDEST JUMPDEST DUP2 CALLDATALOAD PUSH2 0x38D DUP5 DUP3 PUSH1 0x20 DUP7 ADD PUSH2 0x326 JUMP JUMPDEST SWAP2 POP POP SWAP3 SWAP2 POP POP JUMP JUMPDEST PUSH1 0x0 PUSH1 0xFF DUP3 AND SWAP1 POP SWAP2 SWAP1 POP JUMP JUMPDEST PUSH2 0x3AC DUP2 PUSH2 0x396 JUMP JUMPDEST DUP2 EQ PUSH2 0x3B7 JUMPI PUSH1 0x0 DUP1 REVERT JUMPDEST POP JUMP JUMPDEST PUSH1 0x0 DUP2 CALLDATALOAD SWAP1 POP PUSH2 0x3C9 DUP2 PUSH2 0x3A3 JUMP JUMPDEST SWAP3 SWAP2 POP POP JUMP JUMPDEST PUSH1 0x0 DUP1 PUSH1 0x0 PUSH1 0x60 DUP5 DUP7 SUB SLT ISZERO PUSH2 0x3E8 JUMPI PUSH2 0x3E7 PUSH2 0x246 JUMP JUMPDEST JUMPDEST PUSH1 0x0 DUP5 ADD CALLDATALOAD PUSH8 0xFFFFFFFFFFFFFFFF DUP2 GT ISZERO PUSH2 0x406 JUMPI PUSH2 0x405 PUSH2 0x24B JUMP JUMPDEST JUMPDEST PUSH2 0x412 DUP7 DUP3 DUP8 ADD PUSH2 0x368 JUMP JUMPDEST SWAP4 POP POP PUSH1 0x20 PUSH2 0x423 DUP7 DUP3 DUP8 ADD PUSH2 0x3BA JUMP JUMPDEST SWAP3 POP POP PUSH1 0x40 DUP5 ADD CALLDATALOAD PUSH8 0xFFFFFFFFFFFFFFFF DUP2 GT ISZERO PUSH2 0x444 JUMPI PUSH2 0x443 PUSH2 0x24B JUMP JUMPDEST JUMPDEST PUSH2 0x450 DUP7 DUP3 DUP8 ADD PUSH2 0x368 JUMP JUMPDEST SWAP2 POP POP SWAP3 POP SWAP3 POP SWAP3 JUMP JUMPDEST PUSH1 0x0 DUP2 MLOAD SWAP1 POP SWAP2 SWAP1 POP JUMP JUMPDEST PUSH1 0x0 DUP3 DUP3 MSTORE PUSH1 0x20 DUP3 ADD SWAP1 POP SWAP3 SWAP2 POP POP JUMP JUMPDEST PUSH1 0x0 JUMPDEST DUP4 DUP2 LT ISZERO PUSH2 0x494 JUMPI DUP1 DUP3 ADD MLOAD DUP2 DUP5 ADD MSTORE PUSH1 0x20 DUP2 ADD SWAP1 POP PUSH2 0x479 JUMP JUMPDEST PUSH1 0x0 DUP5 DUP5 ADD MSTORE POP POP POP POP JUMP JUMPDEST PUSH1 0x0 PUSH2 0x4AB DUP3 PUSH2 0x45A JUMP JUMPDEST PUSH2 0x4B5 DUP2 DUP6 PUSH2 0x465 JUMP JUMPDEST SWAP4 POP PUSH2 0x4C5 DUP2 DUP6 PUSH1 0x20 DUP7 ADD PUSH2 0x476 JUMP JUMPDEST PUSH2 0x4CE DUP2 PUSH2 0x25A JUMP JUMPDEST DUP5 ADD SWAP2 POP POP SWAP3 SWAP2 POP POP JUMP JUMPDEST PUSH2 0x4E2 DUP2 PUSH2 0x396 JUMP JUMPDEST DUP3 MSTORE POP POP JUMP JUMPDEST PUSH1 0x0 PUSH1 0x60 DUP4 ADD PUSH1 0x0 DUP4 ADD MLOAD DUP5 DUP3 SUB PUSH1 0x0 DUP7 ADD MSTORE PUSH2 0x505 DUP3 DUP3 PUSH2 0x4A0 JUMP JUMPDEST SWAP2 POP POP PUSH1 0x20 DUP4 ADD MLOAD PUSH2 0x51A PUSH1 0x20 DUP7 ADD DUP3 PUSH2 0x4D9 JUMP JUMPDEST POP PUSH1 0x40 DUP4 ADD MLOAD DUP5 DUP3 SUB PUSH1 0x40 DUP7 ADD MSTORE PUSH2 0x532 DUP3 DUP3 PUSH2 0x4A0 JUMP JUMPDEST SWAP2 POP POP DUP1 SWAP2 POP POP SWAP3 SWAP2 POP POP JUMP JUMPDEST PUSH1 0x0 PUSH1 0x20 DUP3 ADD SWAP1 POP DUP2 DUP2 SUB PUSH1 0x0 DUP4 ADD MSTORE PUSH2 0x559 DUP2 DUP5 PUSH2 0x4E8 JUMP JUMPDEST SWAP1 POP SWAP3 SWAP2 POP POP JUMP JUMPDEST PUSH32 0x4E487B7100000000000000000000000000000000000000000000000000000000 PUSH1 0x0 MSTORE PUSH1 0x22 PUSH1 0x4 MSTORE PUSH1 0x24 PUSH1 0x0 REVERT JUMPDEST PUSH1 0x0 PUSH1 0x2 DUP3 DIV SWAP1 POP PUSH1 0x1 DUP3 AND DUP1 PUSH2 0x5A8 JUMPI PUSH1 0x7F DUP3 AND SWAP2 POP JUMPDEST PUSH1 0x20 DUP3 LT DUP2 SUB PUSH2 0x5BB JUMPI PUSH2 0x5BA PUSH2 0x561 JUMP JUMPDEST JUMPDEST POP SWAP2 SWAP1 POP JUMP JUMPDEST PUSH1 0x0 DUP2 SWAP1 POP DUP2 PUSH1 0x0 MSTORE PUSH1 0x20 PUSH1 0x0 KECCAK256 SWAP1 POP SWAP2 SWAP1 POP JUMP JUMPDEST PUSH1 0x0 PUSH1 0x20 PUSH1 0x1F DUP4 ADD DIV SWAP1 POP SWAP2 SWAP1 POP JUMP JUMPDEST PUSH1 0x0 DUP3 DUP3 SHL SWAP1 POP SWAP3 SWAP2 POP POP JUMP JUMPDEST PUSH1 0x0 PUSH1 0x8 DUP4 MUL PUSH2 0x623 PUSH32 0xFFFFFFFFFFFFFFFFFFFFFFFFFFFFFFFFFFFFFFFFFFFFFFFFFFFFFFFFFFFFFFFF DUP3 PUSH2 0x5E6 JUMP JUMPDEST PUSH2 0x62D DUP7 DUP4 PUSH2 0x5E6 JUMP JUMPDEST SWAP6 POP DUP1 NOT DUP5 AND SWAP4 POP DUP1 DUP7 AND DUP5 OR SWAP3 POP POP POP SWAP4 SWAP3 POP POP POP JUMP JUMPDEST PUSH1 0x0 DUP2 SWAP1 POP SWAP2 SWAP1 POP JUMP JUMPDEST PUSH1 0x0 DUP2 SWAP1 POP SWAP2 SWAP1 POP JUMP JUMPDEST PUSH1 0x0 PUSH2 0x674 PUSH2 0x66F PUSH2 0x66A DUP5 PUSH2 0x645 JUMP JUMPDEST PUSH2 0x64F JUMP JUMPDEST PUSH2 0x645 JUMP JUMPDEST SWAP1 POP SWAP2 SWAP1 POP JUMP JUMPDEST PUSH1 0x0 DUP2 SWAP1 POP SWAP2 SWAP1 POP JUMP JUMPDEST PUSH2 0x68E DUP4 PUSH2 0x659 JUMP JUMPDEST PUSH2 0x6A2 PUSH2 0x69A DUP3 PUSH2 0x67B JUMP JUMPDEST DUP5 DUP5 SLOAD PUSH2 0x5F3 JUMP JUMPDEST DUP3 SSTORE POP POP POP POP JUMP JUMPDEST PUSH1 0x0 SWAP1 JUMP JUMPDEST PUSH2 0x6B7 PUSH2 0x6AA JUMP JUMPDEST PUSH2 0x6C2 DUP2 DUP5 DUP5 PUSH2 0x685 JUMP JUMPDEST POP POP POP JUMP JUMPDEST JUMPDEST DUP2 DUP2 LT ISZERO PUSH2 0x6E6 JUMPI PUSH2 0x6DB PUSH1 0x0 DUP3 PUSH2 0x6AF JUMP JUMPDEST PUSH1 0x1 DUP2 ADD SWAP1 POP PUSH2 0x6C8 JUMP JUMPDEST POP POP JUMP JUMPDEST PUSH1 0x1F DUP3 GT ISZERO PUSH2 0x72B JUMPI PUSH2 0x6FC DUP2 PUSH2 0x5C1 JUMP JUMPDEST PUSH2 0x705 DUP5 PUSH2 0x5D6 JUMP JUMPDEST DUP2 ADD PUSH1 0x20 DUP6 LT ISZERO PUSH2 0x714 JUMPI DUP2 SWAP1 POP JUMPDEST PUSH2 0x728 PUSH2 0x720 DUP6 PUSH2 0x5D6 JUMP JUMPDEST DUP4 ADD DUP3 PUSH2 0x6C7 JUMP JUMPDEST POP POP JUMPDEST POP POP POP JUMP JUMPDEST PUSH1 0x0 DUP3 DUP3 SHR SWAP1 POP SWAP3 SWAP2 POP POP JUMP JUMPDEST PUSH1 0x0 PUSH2 0x74E PUSH1 0x0 NOT DUP5 PUSH1 0x8 MUL PUSH2 0x730 JUMP JUMPDEST NOT DUP1 DUP4 AND SWAP2 POP POP SWAP3 SWAP2 POP POP JUMP JUMPDEST PUSH1 0x0 PUSH2 0x767 DUP4 DUP4 PUSH2 0x73D JUMP JUMPDEST SWAP2 POP DUP3 PUSH1 0x2 MUL DUP3 OR SWAP1 POP SWAP3 SWAP2 POP POP JUMP JUMPDEST PUSH2 0x780 DUP3 PUSH2 0x45A JUMP JUMPDEST PUSH8 0xFFFFFFFFFFFFFFFF DUP2 GT ISZERO PUSH2 0x799 JUMPI PUSH2 0x798 PUSH2 0x26B JUMP JUMPDEST JUMPDEST PUSH2 0x7A3 DUP3 SLOAD PUSH2 0x590 JUMP JUMPDEST PUSH2 0x7AE DUP3 DUP3 DUP6 PUSH2 0x6EA JUMP JUMPDEST PUSH1 0x0 PUSH1 0x20 SWAP1 POP PUSH1 0x1F DUP4 GT PUSH1 0x1 DUP2 EQ PUSH2 0x7E1 JUMPI PUSH1 0x0 DUP5 ISZERO PUSH2 0x7CF JUMPI DUP3 DUP8 ADD MLOAD SWAP1 POP JUMPDEST PUSH2 0x7D9 DUP6 DUP3 PUSH2 0x75B JUMP JUMPDEST DUP7 SSTORE POP PUSH2 0x841 JUMP JUMPDEST PUSH1 0x1F NOT DUP5 AND PUSH2 0x7EF DUP7 PUSH2 0x5C1 JUMP JUMPDEST PUSH1 0x0 JUMPDEST DUP3 DUP2 LT ISZERO PUSH2 0x817 JUMPI DUP5 DUP10 ADD MLOAD DUP3 SSTORE PUSH1 0x1 DUP3 ADD SWAP2 POP PUSH1 0x20 DUP6 ADD SWAP5 POP PUSH1 0x20 DUP2 ADD SWAP1 POP PUSH2 0x7F2 JUMP JUMPDEST DUP7 DUP4 LT ISZERO PUSH2 0x834 JUMPI DUP5 DUP10 ADD MLOAD PUSH2 0x830 PUSH1 0x1F DUP10 AND DUP3 PUSH2 0x73D JUMP JUMPDEST DUP4 SSTORE POP JUMPDEST PUSH1 0x1 PUSH1 0x2 DUP9 MUL ADD DUP9 SSTORE POP POP POP JUMPDEST POP POP POP POP POP POP JUMP INVALID LOG2 PUSH5 0x6970667358 0x22 SLT KECCAK256 0x2E SWAP13 0x26 STATICCALL 0xED 0xDA BALANCE SDIV NUMBER 0x21 0x4C SHL 0xD4 CALL DUP16 0xF7 0xBA PUSH15 0x634BED6613EE185F22508025270564 PUSH20 0x6F6C634300081200330000000000000000000000 "
				},
				"gasEstimates": {
					"creation": {
						"codeDepositCost": "435000",
						"executionCost": "468",
						"totalCost": "435468"
					},
					"external": {
						"getUser()": "infinite",
						"setUser(string,uint8,string)": "infinite"
					}
				},
				"methodIdentifiers": {
					"getUser()": "832880e7",
					"setUser(string,uint8,string)": "2d1ca992"
				}
			},
			"storageLayout": {
				"storage": [
					{
						"astId": 11,
						"contract": "contracts/09-struct.sol:struct_demo",
						"label": "user",
						"offset": 0,
						"slot": "0",
						"type": "t_struct(User)8_storage"
					}
				],
				"types": {
					"t_string_storage": {
						"encoding": "bytes",
						"label": "string",
						"numberOfBytes": "32"
					},
					"t_struct(User)8_storage": {
						"encoding": "inplace",
						"label": "struct User",
						"members": [
							{
								"astId": 3,
								"contract": "contracts/09-struct.sol:struct_demo",
								"label": "name",
								"offset": 0,
								"slot": "0",
								"type": "t_string_storage"
							},
							{
								"astId": 5,
								"contract": "contracts/09-struct.sol:struct_demo",
								"label": "age",
								"offset": 0,
								"slot": "1",
								"type": "t_uint8"
							},
							{
								"astId": 7,
								"contract": "contracts/09-struct.sol:struct_demo",
								"label": "sex",
								"offset": 0,
								"slot": "2",
								"type": "t_string_storage"
							}
						],
						"numberOfBytes": "96"
					},
					"t_uint8": {
						"encoding": "inplace",
						"label": "uint8",
						"numberOfBytes": "1"
					}
				}
			},
			"userdoc": {
				"kind": "user",
				"methods": {},
				"version": 1
			}
		}
	}
}