{
	"contracts/11-require.sol": {
		"money_demo": {
			"abi": [
				{
					"inputs": [
						{
							"internalType": "address",
							"name": "_owner",
							"type": "address"
						}
					],
					"stateMutability": "nonpayable",
					"type": "constructor"
				},
				{
					"inputs": [],
					"name": "admin",
					"outputs": [
						{
							"internalType": "address",
							"name": "",
							"type": "address"
						}
					],
					"stateMutability": "view",
					"type": "function"
				},
				{
					"inputs": [
						{
							"internalType": "uint256",
							"name": "_amount",
							"type": "uint256"
						}
					],
					"name": "deposit",
					"outputs": [],
					"stateMutability": "payable",
					"type": "function"
				},
				{
					"inputs": [],
					"name": "getBalance",
					"outputs": [
						{
							"internalType": "uint256",
							"name": "",
							"type": "uint256"
						},
						{
							"internalType": "uint256",
							"name": "",
							"type": "uint256"
						}
					],
					"stateMutability": "view",
					"type": "function"
				},
				{
					"inputs": [],
					"name": "user",
					"outputs": [
						{
							"internalType": "address payable",
							"name": "",
							"type": "address"
						}
					],
					"stateMutability": "view",
					"type": "function"
				},
				{
					"inputs": [
						{
							"internalType": "uint256",
							"name": "_amount",
							"type": "uint256"
						}
					],
					"name": "withdraw",
					"outputs": [],
					"stateMutability": "payable",
					"type": "function"
				}
			],
			"devdoc": {
				"kind": "dev",
				"methods": {},
				"version": 1
			},
			"evm": {
				"assembly": "    /* \"contracts/11-require.sol\":63:1020  contract money_demo{... */\n  mstore(0x40, 0x80)\n    /* \"contracts/11-require.sol\":173:231  constructor(address _owner){... */\n  callvalue\n  dup1\n  iszero\n  tag_1\n  jumpi\n  0x00\n  dup1\n  revert\ntag_1:\n  pop\n  mload(0x40)\n  sub(codesize, bytecodeSize)\n  dup1\n  bytecodeSize\n  dup4\n  codecopy\n  dup2\n  dup2\n  add\n  0x40\n  mstore\n  dup2\n  add\n  swap1\n  tag_2\n  swap2\n  swap1\n  tag_3\n  jump\t// in\ntag_2:\n    /* \"contracts/11-require.sol\":218:224  _owner */\n  dup1\n    /* \"contracts/11-require.sol\":210:215  admin */\n  0x00\n  dup1\n    /* \"contracts/11-require.sol\":210:224  admin = _owner */\n  0x0100\n  exp\n  dup2\n  sload\n  dup2\n  0xffffffffffffffffffffffffffffffffffffffff\n  mul\n  not\n  and\n  swap1\n  dup4\n  0xffffffffffffffffffffffffffffffffffffffff\n  and\n  mul\n  or\n  swap1\n  sstore\n  pop\n    /* \"contracts/11-require.sol\":173:231  constructor(address _owner){... */\n  pop\n    /* \"contracts/11-require.sol\":63:1020  contract money_demo{... */\n  jump(tag_6)\n    /* \"#utility.yul\":88:205   */\ntag_8:\n    /* \"#utility.yul\":197:198   */\n  0x00\n    /* \"#utility.yul\":194:195   */\n  dup1\n    /* \"#utility.yul\":187:199   */\n  revert\n    /* \"#utility.yul\":334:460   */\ntag_10:\n    /* \"#utility.yul\":371:378   */\n  0x00\n    /* \"#utility.yul\":411:453   */\n  0xffffffffffffffffffffffffffffffffffffffff\n    /* \"#utility.yul\":404:409   */\n  dup3\n    /* \"#utility.yul\":400:454   */\n  and\n    /* \"#utility.yul\":389:454   */\n  swap1\n  pop\n    /* \"#utility.yul\":334:460   */\n  swap2\n  swap1\n  pop\n  jump\t// out\n    /* \"#utility.yul\":466:562   */\ntag_11:\n    /* \"#utility.yul\":503:510   */\n  0x00\n    /* \"#utility.yul\":532:556   */\n  tag_20\n    /* \"#utility.yul\":550:555   */\n  dup3\n    /* \"#utility.yul\":532:556   */\n  tag_10\n  jump\t// in\ntag_20:\n    /* \"#utility.yul\":521:556   */\n  swap1\n  pop\n    /* \"#utility.yul\":466:562   */\n  swap2\n  swap1\n  pop\n  jump\t// out\n    /* \"#utility.yul\":568:690   */\ntag_12:\n    /* \"#utility.yul\":641:665   */\n  tag_22\n    /* \"#utility.yul\":659:664   */\n  dup2\n    /* \"#utility.yul\":641:665   */\n  tag_11\n  jump\t// in\ntag_22:\n    /* \"#utility.yul\":634:639   */\n  dup2\n    /* \"#utility.yul\":631:666   */\n  eq\n    /* \"#utility.yul\":621:684   */\n  tag_23\n  jumpi\n    /* \"#utility.yul\":680:681   */\n  0x00\n    /* \"#utility.yul\":677:678   */\n  dup1\n    /* \"#utility.yul\":670:682   */\n  revert\n    /* \"#utility.yul\":621:684   */\ntag_23:\n    /* \"#utility.yul\":568:690   */\n  pop\n  jump\t// out\n    /* \"#utility.yul\":696:839   */\ntag_13:\n    /* \"#utility.yul\":753:758   */\n  0x00\n    /* \"#utility.yul\":784:790   */\n  dup2\n    /* \"#utility.yul\":778:791   */\n  mload\n    /* \"#utility.yul\":769:791   */\n  swap1\n  pop\n    /* \"#utility.yul\":800:833   */\n  tag_25\n    /* \"#utility.yul\":827:832   */\n  dup2\n    /* \"#utility.yul\":800:833   */\n  tag_12\n  jump\t// in\ntag_25:\n    /* \"#utility.yul\":696:839   */\n  swap3\n  swap2\n  pop\n  pop\n  jump\t// out\n    /* \"#utility.yul\":845:1196   */\ntag_3:\n    /* \"#utility.yul\":915:921   */\n  0x00\n    /* \"#utility.yul\":964:966   */\n  0x20\n    /* \"#utility.yul\":952:961   */\n  dup3\n    /* \"#utility.yul\":943:950   */\n  dup5\n    /* \"#utility.yul\":939:962   */\n  sub\n    /* \"#utility.yul\":935:967   */\n  slt\n    /* \"#utility.yul\":932:1051   */\n  iszero\n  tag_27\n  jumpi\n    /* \"#utility.yul\":970:1049   */\n  tag_28\n  tag_8\n  jump\t// in\ntag_28:\n    /* \"#utility.yul\":932:1051   */\ntag_27:\n    /* \"#utility.yul\":1090:1091   */\n  0x00\n    /* \"#utility.yul\":1115:1179   */\n  tag_29\n    /* \"#utility.yul\":1171:1178   */\n  dup5\n    /* \"#utility.yul\":1162:1168   */\n  dup3\n    /* \"#utility.yul\":1151:1160   */\n  dup6\n    /* \"#utility.yul\":1147:1169   */\n  add\n    /* \"#utility.yul\":1115:1179   */\n  tag_13\n  jump\t// in\ntag_29:\n    /* \"#utility.yul\":1105:1179   */\n  swap2\n  pop\n    /* \"#utility.yul\":1061:1189   */\n  pop\n    /* \"#utility.yul\":845:1196   */\n  swap3\n  swap2\n  pop\n  pop\n  jump\t// out\n    /* \"contracts/11-require.sol\":63:1020  contract money_demo{... */\ntag_6:\n  dataSize(sub_0)\n  dup1\n  dataOffset(sub_0)\n  0x00\n  codecopy\n  0x00\n  return\nstop\n\nsub_0: assembly {\n        /* \"contracts/11-require.sol\":63:1020  contract money_demo{... */\n      mstore(0x40, 0x80)\n      jumpi(tag_1, lt(calldatasize, 0x04))\n      shr(0xe0, calldataload(0x00))\n      dup1\n      0x12065fe0\n      eq\n      tag_2\n      jumpi\n      dup1\n      0x2e1a7d4d\n      eq\n      tag_3\n      jumpi\n      dup1\n      0x4f8632ba\n      eq\n      tag_4\n      jumpi\n      dup1\n      0xb6b55f25\n      eq\n      tag_5\n      jumpi\n      dup1\n      0xf851a440\n      eq\n      tag_6\n      jumpi\n    tag_1:\n      0x00\n      dup1\n      revert\n        /* \"contracts/11-require.sol\":750:924  function getBalance() public view returns(uint256, uint256){... */\n    tag_2:\n      callvalue\n      dup1\n      iszero\n      tag_7\n      jumpi\n      0x00\n      dup1\n      revert\n    tag_7:\n      pop\n      tag_8\n      tag_9\n      jump\t// in\n    tag_8:\n      mload(0x40)\n      tag_10\n      swap3\n      swap2\n      swap1\n      tag_11\n      jump\t// in\n    tag_10:\n      mload(0x40)\n      dup1\n      swap2\n      sub\n      swap1\n      return\n        /* \"contracts/11-require.sol\":930:1018  function withdraw(uint256 _amount) public payable{... */\n    tag_3:\n      tag_12\n      0x04\n      dup1\n      calldatasize\n      sub\n      dup2\n      add\n      swap1\n      tag_13\n      swap2\n      swap1\n      tag_14\n      jump\t// in\n    tag_13:\n      tag_15\n      jump\t// in\n    tag_12:\n      stop\n        /* \"contracts/11-require.sol\":114:141  address payable public user */\n    tag_4:\n      callvalue\n      dup1\n      iszero\n      tag_16\n      jumpi\n      0x00\n      dup1\n      revert\n    tag_16:\n      pop\n      tag_17\n      tag_18\n      jump\t// in\n    tag_17:\n      mload(0x40)\n      tag_19\n      swap2\n      swap1\n      tag_20\n      jump\t// in\n    tag_19:\n      mload(0x40)\n      dup1\n      swap2\n      sub\n      swap1\n      return\n        /* \"contracts/11-require.sol\":237:744  function deposit(uint256 _amount) public payable{... */\n    tag_5:\n      tag_21\n      0x04\n      dup1\n      calldatasize\n      sub\n      dup2\n      add\n      swap1\n      tag_22\n      swap2\n      swap1\n      tag_14\n      jump\t// in\n    tag_22:\n      tag_23\n      jump\t// in\n    tag_21:\n      stop\n        /* \"contracts/11-require.sol\":88:108  address public admin */\n    tag_6:\n      callvalue\n      dup1\n      iszero\n      tag_24\n      jumpi\n      0x00\n      dup1\n      revert\n    tag_24:\n      pop\n      tag_25\n      tag_26\n      jump\t// in\n    tag_25:\n      mload(0x40)\n      tag_27\n      swap2\n      swap1\n      tag_28\n      jump\t// in\n    tag_27:\n      mload(0x40)\n      dup1\n      swap2\n      sub\n      swap1\n      return\n        /* \"contracts/11-require.sol\":750:924  function getBalance() public view returns(uint256, uint256){... */\n    tag_9:\n        /* \"contracts/11-require.sol\":792:799  uint256 */\n      0x00\n        /* \"contracts/11-require.sol\":801:808  uint256 */\n      dup1\n        /* \"contracts/11-require.sol\":882:903  address(this).balance */\n      selfbalance\n        /* \"contracts/11-require.sol\":905:916  totalAmount */\n      sload(0x02)\n        /* \"contracts/11-require.sol\":874:917  return (address(this).balance, totalAmount) */\n      swap2\n      pop\n      swap2\n      pop\n        /* \"contracts/11-require.sol\":750:924  function getBalance() public view returns(uint256, uint256){... */\n      swap1\n      swap2\n      jump\t// out\n        /* \"contracts/11-require.sol\":930:1018  function withdraw(uint256 _amount) public payable{... */\n    tag_15:\n        /* \"contracts/11-require.sol\":989:993  user */\n      0x01\n      0x00\n      swap1\n      sload\n      swap1\n      0x0100\n      exp\n      swap1\n      div\n      0xffffffffffffffffffffffffffffffffffffffff\n      and\n        /* \"contracts/11-require.sol\":989:1002  user.transfer */\n      0xffffffffffffffffffffffffffffffffffffffff\n      and\n        /* \"contracts/11-require.sol\":989:1011  user.transfer(_amount) */\n      0x08fc\n        /* \"contracts/11-require.sol\":1003:1010  _amount */\n      dup3\n        /* \"contracts/11-require.sol\":989:1011  user.transfer(_amount) */\n      swap1\n      dup2\n      iszero\n      mul\n      swap1\n      mload(0x40)\n      0x00\n      mload(0x40)\n      dup1\n      dup4\n      sub\n      dup2\n      dup6\n      dup9\n      dup9\n      call\n      swap4\n      pop\n      pop\n      pop\n      pop\n      iszero\n      dup1\n      iszero\n      tag_32\n      jumpi\n      returndatasize\n      0x00\n      dup1\n      returndatacopy\n      revert(0x00, returndatasize)\n    tag_32:\n      pop\n        /* \"contracts/11-require.sol\":930:1018  function withdraw(uint256 _amount) public payable{... */\n      pop\n      jump\t// out\n        /* \"contracts/11-require.sol\":114:141  address payable public user */\n    tag_18:\n      0x01\n      0x00\n      swap1\n      sload\n      swap1\n      0x0100\n      exp\n      swap1\n      div\n      0xffffffffffffffffffffffffffffffffffffffff\n      and\n      dup2\n      jump\t// out\n        /* \"contracts/11-require.sol\":237:744  function deposit(uint256 _amount) public payable{... */\n    tag_23:\n        /* \"contracts/11-require.sol\":315:324  msg.value */\n      callvalue\n        /* \"contracts/11-require.sol\":304:311  _amount */\n      dup2\n        /* \"contracts/11-require.sol\":304:324  _amount == msg.value */\n      eq\n        /* \"contracts/11-require.sol\":296:357  require(_amount == msg.value, \"amount must equals msg.value\") */\n      tag_34\n      jumpi\n      mload(0x40)\n      0x08c379a000000000000000000000000000000000000000000000000000000000\n      dup2\n      mstore\n      0x04\n      add\n      tag_35\n      swap1\n      tag_36\n      jump\t// in\n    tag_35:\n      mload(0x40)\n      dup1\n      swap2\n      sub\n      swap1\n      revert\n    tag_34:\n        /* \"contracts/11-require.sol\":384:385  0 */\n      0x00\n        /* \"contracts/11-require.sol\":374:381  _amount */\n      dup2\n        /* \"contracts/11-require.sol\":374:385  _amount > 0 */\n      gt\n        /* \"contracts/11-require.sol\":367:386  assert(_amount > 0) */\n      tag_37\n      jumpi\n      tag_38\n      tag_39\n      jump\t// in\n    tag_38:\n    tag_37:\n        /* \"contracts/11-require.sol\":536:545  msg.value */\n      callvalue\n        /* \"contracts/11-require.sol\":525:532  _amount */\n      dup2\n        /* \"contracts/11-require.sol\":525:545  _amount != msg.value */\n      sub\n        /* \"contracts/11-require.sol\":547:554  return; */\n      tag_33\n        /* \"contracts/11-require.sol\":522:554  if(_amount != msg.value) return; */\n      jumpi\n        /* \"contracts/11-require.sol\":579:589  msg.sender */\n      caller\n        /* \"contracts/11-require.sol\":564:568  user */\n      0x01\n      0x00\n        /* \"contracts/11-require.sol\":564:590  user = payable(msg.sender) */\n      0x0100\n      exp\n      dup2\n      sload\n      dup2\n      0xffffffffffffffffffffffffffffffffffffffff\n      mul\n      not\n      and\n      swap1\n      dup4\n      0xffffffffffffffffffffffffffffffffffffffff\n      and\n      mul\n      or\n      swap1\n      sstore\n      pop\n        /* \"contracts/11-require.sol\":628:635  _amount */\n      dup1\n        /* \"contracts/11-require.sol\":614:625  totalAmount */\n      0x02\n        /* \"contracts/11-require.sol\":614:635  totalAmount = _amount */\n      dup2\n      swap1\n      sstore\n      pop\n        /* \"contracts/11-require.sol\":237:744  function deposit(uint256 _amount) public payable{... */\n    tag_33:\n      pop\n      jump\t// out\n        /* \"contracts/11-require.sol\":88:108  address public admin */\n    tag_26:\n      0x00\n      dup1\n      sload\n      swap1\n      0x0100\n      exp\n      swap1\n      div\n      0xffffffffffffffffffffffffffffffffffffffff\n      and\n      dup2\n      jump\t// out\n        /* \"#utility.yul\":7:84   */\n    tag_41:\n        /* \"#utility.yul\":44:51   */\n      0x00\n        /* \"#utility.yul\":73:78   */\n      dup2\n        /* \"#utility.yul\":62:78   */\n      swap1\n      pop\n        /* \"#utility.yul\":7:84   */\n      swap2\n      swap1\n      pop\n      jump\t// out\n        /* \"#utility.yul\":90:208   */\n    tag_42:\n        /* \"#utility.yul\":177:201   */\n      tag_59\n        /* \"#utility.yul\":195:200   */\n      dup2\n        /* \"#utility.yul\":177:201   */\n      tag_41\n      jump\t// in\n    tag_59:\n        /* \"#utility.yul\":172:175   */\n      dup3\n        /* \"#utility.yul\":165:202   */\n      mstore\n        /* \"#utility.yul\":90:208   */\n      pop\n      pop\n      jump\t// out\n        /* \"#utility.yul\":214:546   */\n    tag_11:\n        /* \"#utility.yul\":335:339   */\n      0x00\n        /* \"#utility.yul\":373:375   */\n      0x40\n        /* \"#utility.yul\":362:371   */\n      dup3\n        /* \"#utility.yul\":358:376   */\n      add\n        /* \"#utility.yul\":350:376   */\n      swap1\n      pop\n        /* \"#utility.yul\":386:457   */\n      tag_61\n        /* \"#utility.yul\":454:455   */\n      0x00\n        /* \"#utility.yul\":443:452   */\n      dup4\n        /* \"#utility.yul\":439:456   */\n      add\n        /* \"#utility.yul\":430:436   */\n      dup6\n        /* \"#utility.yul\":386:457   */\n      tag_42\n      jump\t// in\n    tag_61:\n        /* \"#utility.yul\":467:539   */\n      tag_62\n        /* \"#utility.yul\":535:537   */\n      0x20\n        /* \"#utility.yul\":524:533   */\n      dup4\n        /* \"#utility.yul\":520:538   */\n      add\n        /* \"#utility.yul\":511:517   */\n      dup5\n        /* \"#utility.yul\":467:539   */\n      tag_42\n      jump\t// in\n    tag_62:\n        /* \"#utility.yul\":214:546   */\n      swap4\n      swap3\n      pop\n      pop\n      pop\n      jump\t// out\n        /* \"#utility.yul\":633:750   */\n    tag_44:\n        /* \"#utility.yul\":742:743   */\n      0x00\n        /* \"#utility.yul\":739:740   */\n      dup1\n        /* \"#utility.yul\":732:744   */\n      revert\n        /* \"#utility.yul\":879:1001   */\n    tag_46:\n        /* \"#utility.yul\":952:976   */\n      tag_67\n        /* \"#utility.yul\":970:975   */\n      dup2\n        /* \"#utility.yul\":952:976   */\n      tag_41\n      jump\t// in\n    tag_67:\n        /* \"#utility.yul\":945:950   */\n      dup2\n        /* \"#utility.yul\":942:977   */\n      eq\n        /* \"#utility.yul\":932:995   */\n      tag_68\n      jumpi\n        /* \"#utility.yul\":991:992   */\n      0x00\n        /* \"#utility.yul\":988:989   */\n      dup1\n        /* \"#utility.yul\":981:993   */\n      revert\n        /* \"#utility.yul\":932:995   */\n    tag_68:\n        /* \"#utility.yul\":879:1001   */\n      pop\n      jump\t// out\n        /* \"#utility.yul\":1007:1146   */\n    tag_47:\n        /* \"#utility.yul\":1053:1058   */\n      0x00\n        /* \"#utility.yul\":1091:1097   */\n      dup2\n        /* \"#utility.yul\":1078:1098   */\n      calldataload\n        /* \"#utility.yul\":1069:1098   */\n      swap1\n      pop\n        /* \"#utility.yul\":1107:1140   */\n      tag_70\n        /* \"#utility.yul\":1134:1139   */\n      dup2\n        /* \"#utility.yul\":1107:1140   */\n      tag_46\n      jump\t// in\n    tag_70:\n        /* \"#utility.yul\":1007:1146   */\n      swap3\n      swap2\n      pop\n      pop\n      jump\t// out\n        /* \"#utility.yul\":1152:1481   */\n    tag_14:\n        /* \"#utility.yul\":1211:1217   */\n      0x00\n        /* \"#utility.yul\":1260:1262   */\n      0x20\n        /* \"#utility.yul\":1248:1257   */\n      dup3\n        /* \"#utility.yul\":1239:1246   */\n      dup5\n        /* \"#utility.yul\":1235:1258   */\n      sub\n        /* \"#utility.yul\":1231:1263   */\n      slt\n        /* \"#utility.yul\":1228:1347   */\n      iszero\n      tag_72\n      jumpi\n        /* \"#utility.yul\":1266:1345   */\n      tag_73\n      tag_44\n      jump\t// in\n    tag_73:\n        /* \"#utility.yul\":1228:1347   */\n    tag_72:\n        /* \"#utility.yul\":1386:1387   */\n      0x00\n        /* \"#utility.yul\":1411:1464   */\n      tag_74\n        /* \"#utility.yul\":1456:1463   */\n      dup5\n        /* \"#utility.yul\":1447:1453   */\n      dup3\n        /* \"#utility.yul\":1436:1445   */\n      dup6\n        /* \"#utility.yul\":1432:1454   */\n      add\n        /* \"#utility.yul\":1411:1464   */\n      tag_47\n      jump\t// in\n    tag_74:\n        /* \"#utility.yul\":1401:1464   */\n      swap2\n      pop\n        /* \"#utility.yul\":1357:1474   */\n      pop\n        /* \"#utility.yul\":1152:1481   */\n      swap3\n      swap2\n      pop\n      pop\n      jump\t// out\n        /* \"#utility.yul\":1487:1613   */\n    tag_48:\n        /* \"#utility.yul\":1524:1531   */\n      0x00\n        /* \"#utility.yul\":1564:1606   */\n      0xffffffffffffffffffffffffffffffffffffffff\n        /* \"#utility.yul\":1557:1562   */\n      dup3\n        /* \"#utility.yul\":1553:1607   */\n      and\n        /* \"#utility.yul\":1542:1607   */\n      swap1\n      pop\n        /* \"#utility.yul\":1487:1613   */\n      swap2\n      swap1\n      pop\n      jump\t// out\n        /* \"#utility.yul\":1619:1723   */\n    tag_49:\n        /* \"#utility.yul\":1664:1671   */\n      0x00\n        /* \"#utility.yul\":1693:1717   */\n      tag_77\n        /* \"#utility.yul\":1711:1716   */\n      dup3\n        /* \"#utility.yul\":1693:1717   */\n      tag_48\n      jump\t// in\n    tag_77:\n        /* \"#utility.yul\":1682:1717   */\n      swap1\n      pop\n        /* \"#utility.yul\":1619:1723   */\n      swap2\n      swap1\n      pop\n      jump\t// out\n        /* \"#utility.yul\":1729:1871   */\n    tag_50:\n        /* \"#utility.yul\":1832:1864   */\n      tag_79\n        /* \"#utility.yul\":1858:1863   */\n      dup2\n        /* \"#utility.yul\":1832:1864   */\n      tag_49\n      jump\t// in\n    tag_79:\n        /* \"#utility.yul\":1827:1830   */\n      dup3\n        /* \"#utility.yul\":1820:1865   */\n      mstore\n        /* \"#utility.yul\":1729:1871   */\n      pop\n      pop\n      jump\t// out\n        /* \"#utility.yul\":1877:2131   */\n    tag_20:\n        /* \"#utility.yul\":1986:1990   */\n      0x00\n        /* \"#utility.yul\":2024:2026   */\n      0x20\n        /* \"#utility.yul\":2013:2022   */\n      dup3\n        /* \"#utility.yul\":2009:2027   */\n      add\n        /* \"#utility.yul\":2001:2027   */\n      swap1\n      pop\n        /* \"#utility.yul\":2037:2124   */\n      tag_81\n        /* \"#utility.yul\":2121:2122   */\n      0x00\n        /* \"#utility.yul\":2110:2119   */\n      dup4\n        /* \"#utility.yul\":2106:2123   */\n      add\n        /* \"#utility.yul\":2097:2103   */\n      dup5\n        /* \"#utility.yul\":2037:2124   */\n      tag_50\n      jump\t// in\n    tag_81:\n        /* \"#utility.yul\":1877:2131   */\n      swap3\n      swap2\n      pop\n      pop\n      jump\t// out\n        /* \"#utility.yul\":2137:2233   */\n    tag_51:\n        /* \"#utility.yul\":2174:2181   */\n      0x00\n        /* \"#utility.yul\":2203:2227   */\n      tag_83\n        /* \"#utility.yul\":2221:2226   */\n      dup3\n        /* \"#utility.yul\":2203:2227   */\n      tag_48\n      jump\t// in\n    tag_83:\n        /* \"#utility.yul\":2192:2227   */\n      swap1\n      pop\n        /* \"#utility.yul\":2137:2233   */\n      swap2\n      swap1\n      pop\n      jump\t// out\n        /* \"#utility.yul\":2239:2357   */\n    tag_52:\n        /* \"#utility.yul\":2326:2350   */\n      tag_85\n        /* \"#utility.yul\":2344:2349   */\n      dup2\n        /* \"#utility.yul\":2326:2350   */\n      tag_51\n      jump\t// in\n    tag_85:\n        /* \"#utility.yul\":2321:2324   */\n      dup3\n        /* \"#utility.yul\":2314:2351   */\n      mstore\n        /* \"#utility.yul\":2239:2357   */\n      pop\n      pop\n      jump\t// out\n        /* \"#utility.yul\":2363:2585   */\n    tag_28:\n        /* \"#utility.yul\":2456:2460   */\n      0x00\n        /* \"#utility.yul\":2494:2496   */\n      0x20\n        /* \"#utility.yul\":2483:2492   */\n      dup3\n        /* \"#utility.yul\":2479:2497   */\n      add\n        /* \"#utility.yul\":2471:2497   */\n      swap1\n      pop\n        /* \"#utility.yul\":2507:2578   */\n      tag_87\n        /* \"#utility.yul\":2575:2576   */\n      0x00\n        /* \"#utility.yul\":2564:2573   */\n      dup4\n        /* \"#utility.yul\":2560:2577   */\n      add\n        /* \"#utility.yul\":2551:2557   */\n      dup5\n        /* \"#utility.yul\":2507:2578   */\n      tag_52\n      jump\t// in\n    tag_87:\n        /* \"#utility.yul\":2363:2585   */\n      swap3\n      swap2\n      pop\n      pop\n      jump\t// out\n        /* \"#utility.yul\":2591:2760   */\n    tag_53:\n        /* \"#utility.yul\":2675:2686   */\n      0x00\n        /* \"#utility.yul\":2709:2715   */\n      dup3\n        /* \"#utility.yul\":2704:2707   */\n      dup3\n        /* \"#utility.yul\":2697:2716   */\n      mstore\n        /* \"#utility.yul\":2749:2753   */\n      0x20\n        /* \"#utility.yul\":2744:2747   */\n      dup3\n        /* \"#utility.yul\":2740:2754   */\n      add\n        /* \"#utility.yul\":2725:2754   */\n      swap1\n      pop\n        /* \"#utility.yul\":2591:2760   */\n      swap3\n      swap2\n      pop\n      pop\n      jump\t// out\n        /* \"#utility.yul\":2766:2944   */\n    tag_54:\n        /* \"#utility.yul\":2906:2936   */\n      0x616d6f756e74206d75737420657175616c73206d73672e76616c756500000000\n        /* \"#utility.yul\":2902:2903   */\n      0x00\n        /* \"#utility.yul\":2894:2900   */\n      dup3\n        /* \"#utility.yul\":2890:2904   */\n      add\n        /* \"#utility.yul\":2883:2937   */\n      mstore\n        /* \"#utility.yul\":2766:2944   */\n      pop\n      jump\t// out\n        /* \"#utility.yul\":2950:3316   */\n    tag_55:\n        /* \"#utility.yul\":3092:3095   */\n      0x00\n        /* \"#utility.yul\":3113:3180   */\n      tag_91\n        /* \"#utility.yul\":3177:3179   */\n      0x1c\n        /* \"#utility.yul\":3172:3175   */\n      dup4\n        /* \"#utility.yul\":3113:3180   */\n      tag_53\n      jump\t// in\n    tag_91:\n        /* \"#utility.yul\":3106:3180   */\n      swap2\n      pop\n        /* \"#utility.yul\":3189:3282   */\n      tag_92\n        /* \"#utility.yul\":3278:3281   */\n      dup3\n        /* \"#utility.yul\":3189:3282   */\n      tag_54\n      jump\t// in\n    tag_92:\n        /* \"#utility.yul\":3307:3309   */\n      0x20\n        /* \"#utility.yul\":3302:3305   */\n      dup3\n        /* \"#utility.yul\":3298:3310   */\n      add\n        /* \"#utility.yul\":3291:3310   */\n      swap1\n      pop\n        /* \"#utility.yul\":2950:3316   */\n      swap2\n      swap1\n      pop\n      jump\t// out\n        /* \"#utility.yul\":3322:3741   */\n    tag_36:\n        /* \"#utility.yul\":3488:3492   */\n      0x00\n        /* \"#utility.yul\":3526:3528   */\n      0x20\n        /* \"#utility.yul\":3515:3524   */\n      dup3\n        /* \"#utility.yul\":3511:3529   */\n      add\n        /* \"#utility.yul\":3503:3529   */\n      swap1\n      pop\n        /* \"#utility.yul\":3575:3584   */\n      dup2\n        /* \"#utility.yul\":3569:3573   */\n      dup2\n        /* \"#utility.yul\":3565:3585   */\n      sub\n        /* \"#utility.yul\":3561:3562   */\n      0x00\n        /* \"#utility.yul\":3550:3559   */\n      dup4\n        /* \"#utility.yul\":3546:3563   */\n      add\n        /* \"#utility.yul\":3539:3586   */\n      mstore\n        /* \"#utility.yul\":3603:3734   */\n      tag_94\n        /* \"#utility.yul\":3729:3733   */\n      dup2\n        /* \"#utility.yul\":3603:3734   */\n      tag_55\n      jump\t// in\n    tag_94:\n        /* \"#utility.yul\":3595:3734   */\n      swap1\n      pop\n        /* \"#utility.yul\":3322:3741   */\n      swap2\n      swap1\n      pop\n      jump\t// out\n        /* \"#utility.yul\":3747:3927   */\n    tag_39:\n        /* \"#utility.yul\":3795:3872   */\n      0x4e487b7100000000000000000000000000000000000000000000000000000000\n        /* \"#utility.yul\":3792:3793   */\n      0x00\n        /* \"#utility.yul\":3785:3873   */\n      mstore\n        /* \"#utility.yul\":3892:3896   */\n      0x01\n        /* \"#utility.yul\":3889:3890   */\n      0x04\n        /* \"#utility.yul\":3882:3897   */\n      mstore\n        /* \"#utility.yul\":3916:3920   */\n      0x24\n        /* \"#utility.yul\":3913:3914   */\n      0x00\n        /* \"#utility.yul\":3906:3921   */\n      revert\n\n    auxdata: 0xa264697066735822122035e02d0c4a015eb52ab58539eb610c9e65fa1ca91a214fbd6cb6648769fbc12f64736f6c63430008120033\n}\n",
				"bytecode": {
					"linkReferences": {},
					"object": "608060405234801561001057600080fd5b506040516105a53803806105a5833981810160405281019061003291906100db565b806000806101000a81548173ffffffffffffffffffffffffffffffffffffffff021916908373ffffffffffffffffffffffffffffffffffffffff16021790555050610108565b600080fd5b600073ffffffffffffffffffffffffffffffffffffffff82169050919050565b60006100a88261007d565b9050919050565b6100b88161009d565b81146100c357600080fd5b50565b6000815190506100d5816100af565b92915050565b6000602082840312156100f1576100f0610078565b5b60006100ff848285016100c6565b91505092915050565b61048e806101176000396000f3fe60806040526004361061004a5760003560e01c806312065fe01461004f5780632e1a7d4d1461007b5780634f8632ba14610097578063b6b55f25146100c2578063f851a440146100de575b600080fd5b34801561005b57600080fd5b50610064610109565b60405161007292919061028d565b60405180910390f35b610095600480360381019061009091906102e7565b610118565b005b3480156100a357600080fd5b506100ac610184565b6040516100b99190610355565b60405180910390f35b6100dc60048036038101906100d791906102e7565b6101aa565b005b3480156100ea57600080fd5b506100f3610250565b6040516101009190610391565b60405180910390f35b60008047600254915091509091565b600160009054906101000a900473ffffffffffffffffffffffffffffffffffffffff1673ffffffffffffffffffffffffffffffffffffffff166108fc829081150290604051600060405180830381858888f19350505050158015610180573d6000803e3d6000fd5b5050565b600160009054906101000a900473ffffffffffffffffffffffffffffffffffffffff1681565b3481146101ec576040517f08c379a00000000000000000000000000000000000000000000000000000000081526004016101e390610409565b60405180910390fd5b600081116101fd576101fc610429565b5b34810361024d5733600160006101000a81548173ffffffffffffffffffffffffffffffffffffffff021916908373ffffffffffffffffffffffffffffffffffffffff160217905550806002819055505b50565b60008054906101000a900473ffffffffffffffffffffffffffffffffffffffff1681565b6000819050919050565b61028781610274565b82525050565b60006040820190506102a2600083018561027e565b6102af602083018461027e565b9392505050565b600080fd5b6102c481610274565b81146102cf57600080fd5b50565b6000813590506102e1816102bb565b92915050565b6000602082840312156102fd576102fc6102b6565b5b600061030b848285016102d2565b91505092915050565b600073ffffffffffffffffffffffffffffffffffffffff82169050919050565b600061033f82610314565b9050919050565b61034f81610334565b82525050565b600060208201905061036a6000830184610346565b92915050565b600061037b82610314565b9050919050565b61038b81610370565b82525050565b60006020820190506103a66000830184610382565b92915050565b600082825260208201905092915050565b7f616d6f756e74206d75737420657175616c73206d73672e76616c756500000000600082015250565b60006103f3601c836103ac565b91506103fe826103bd565b602082019050919050565b60006020820190508181036000830152610422816103e6565b9050919050565b7f4e487b7100000000000000000000000000000000000000000000000000000000600052600160045260246000fdfea264697066735822122035e02d0c4a015eb52ab58539eb610c9e65fa1ca91a214fbd6cb6648769fbc12f64736f6c63430008120033",
					"opcodes": "PUSH1 0x80 PUSH1 0x40 MSTORE CALLVALUE DUP1 ISZERO PUSH2 0x10 JUMPI PUSH1 0x0 DUP1 REVERT JUMPDEST POP PUSH1 0x40 MLOAD PUSH2 0x5A5 CODESIZE SUB DUP1 PUSH2 0x5A5 DUP4 CODECOPY DUP2 DUP2 ADD PUSH1 0x40 MSTORE DUP2 ADD SWAP1 PUSH2 0x32 SWAP2 SWAP1 PUSH2 0xDB JUMP JUMPDEST DUP1 PUSH1 0x0 DUP1 PUSH2 0x100 EXP DUP2 SLOAD DUP2 PUSH20 0xFFFFFFFFFFFFFFFFFFFFFFFFFFFFFFFFFFFFFFFF MUL NOT AND SWAP1 DUP4 PUSH20 0xFFFFFFFFFFFFFFFFFFFFFFFFFFFFFFFFFFFFFFFF AND MUL OR SWAP1 SSTORE POP POP PUSH2 0x108 JUMP JUMPDEST PUSH1 0x0 DUP1 REVERT JUMPDEST PUSH1 0x0 PUSH20 0xFFFFFFFFFFFFFFFFFFFFFFFFFFFFFFFFFFFFFFFF DUP3 AND SWAP1 POP SWAP2 SWAP1 POP JUMP JUMPDEST PUSH1 0x0 PUSH2 0xA8 DUP3 PUSH2 0x7D JUMP JUMPDEST SWAP1 POP SWAP2 SWAP1 POP JUMP JUMPDEST PUSH2 0xB8 DUP2 PUSH2 0x9D JUMP JUMPDEST DUP2 EQ PUSH2 0xC3 JUMPI PUSH1 0x0 DUP1 REVERT JUMPDEST POP JUMP JUMPDEST PUSH1 0x0 DUP2 MLOAD SWAP1 POP PUSH2 0xD5 DUP2 PUSH2 0xAF JUMP JUMPDEST SWAP3 SWAP2 POP POP JUMP JUMPDEST PUSH1 0x0 PUSH1 0x20 DUP3 DUP5 SUB SLT ISZERO PUSH2 0xF1 JUMPI PUSH2 0xF0 PUSH2 0x78 JUMP JUMPDEST JUMPDEST PUSH1 0x0 PUSH2 0xFF DUP5 DUP3 DUP6 ADD PUSH2 0xC6 JUMP JUMPDEST SWAP2 POP POP SWAP3 SWAP2 POP POP JUMP JUMPDEST PUSH2 0x48E DUP1 PUSH2 0x117 PUSH1 0x0 CODECOPY PUSH1 0x0 RETURN INVALID PUSH1 0x80 PUSH1 0x40 MSTORE PUSH1 0x4 CALLDATASIZE LT PUSH2 0x4A JUMPI PUSH1 0x0 CALLDATALOAD PUSH1 0xE0 SHR DUP1 PUSH4 0x12065FE0 EQ PUSH2 0x4F JUMPI DUP1 PUSH4 0x2E1A7D4D EQ PUSH2 0x7B JUMPI DUP1 PUSH4 0x4F8632BA EQ PUSH2 0x97 JUMPI DUP1 PUSH4 0xB6B55F25 EQ PUSH2 0xC2 JUMPI DUP1 PUSH4 0xF851A440 EQ PUSH2 0xDE JUMPI JUMPDEST PUSH1 0x0 DUP1 REVERT JUMPDEST CALLVALUE DUP1 ISZERO PUSH2 0x5B JUMPI PUSH1 0x0 DUP1 REVERT JUMPDEST POP PUSH2 0x64 PUSH2 0x109 JUMP JUMPDEST PUSH1 0x40 MLOAD PUSH2 0x72 SWAP3 SWAP2 SWAP1 PUSH2 0x28D JUMP JUMPDEST PUSH1 0x40 MLOAD DUP1 SWAP2 SUB SWAP1 RETURN JUMPDEST PUSH2 0x95 PUSH1 0x4 DUP1 CALLDATASIZE SUB DUP2 ADD SWAP1 PUSH2 0x90 SWAP2 SWAP1 PUSH2 0x2E7 JUMP JUMPDEST PUSH2 0x118 JUMP JUMPDEST STOP JUMPDEST CALLVALUE DUP1 ISZERO PUSH2 0xA3 JUMPI PUSH1 0x0 DUP1 REVERT JUMPDEST POP PUSH2 0xAC PUSH2 0x184 JUMP JUMPDEST PUSH1 0x40 MLOAD PUSH2 0xB9 SWAP2 SWAP1 PUSH2 0x355 JUMP JUMPDEST PUSH1 0x40 MLOAD DUP1 SWAP2 SUB SWAP1 RETURN JUMPDEST PUSH2 0xDC PUSH1 0x4 DUP1 CALLDATASIZE SUB DUP2 ADD SWAP1 PUSH2 0xD7 SWAP2 SWAP1 PUSH2 0x2E7 JUMP JUMPDEST PUSH2 0x1AA JUMP JUMPDEST STOP JUMPDEST CALLVALUE DUP1 ISZERO PUSH2 0xEA JUMPI PUSH1 0x0 DUP1 REVERT JUMPDEST POP PUSH2 0xF3 PUSH2 0x250 JUMP JUMPDEST PUSH1 0x40 MLOAD PUSH2 0x100 SWAP2 SWAP1 PUSH2 0x391 JUMP JUMPDEST PUSH1 0x40 MLOAD DUP1 SWAP2 SUB SWAP1 RETURN JUMPDEST PUSH1 0x0 DUP1 SELFBALANCE PUSH1 0x2 SLOAD SWAP2 POP SWAP2 POP SWAP1 SWAP2 JUMP JUMPDEST PUSH1 0x1 PUSH1 0x0 SWAP1 SLOAD SWAP1 PUSH2 0x100 EXP SWAP1 DIV PUSH20 0xFFFFFFFFFFFFFFFFFFFFFFFFFFFFFFFFFFFFFFFF AND PUSH20 0xFFFFFFFFFFFFFFFFFFFFFFFFFFFFFFFFFFFFFFFF AND PUSH2 0x8FC DUP3 SWAP1 DUP2 ISZERO MUL SWAP1 PUSH1 0x40 MLOAD PUSH1 0x0 PUSH1 0x40 MLOAD DUP1 DUP4 SUB DUP2 DUP6 DUP9 DUP9 CALL SWAP4 POP POP POP POP ISZERO DUP1 ISZERO PUSH2 0x180 JUMPI RETURNDATASIZE PUSH1 0x0 DUP1 RETURNDATACOPY RETURNDATASIZE PUSH1 0x0 REVERT JUMPDEST POP POP JUMP JUMPDEST PUSH1 0x1 PUSH1 0x0 SWAP1 SLOAD SWAP1 PUSH2 0x100 EXP SWAP1 DIV PUSH20 0xFFFFFFFFFFFFFFFFFFFFFFFFFFFFFFFFFFFFFFFF AND DUP2 JUMP JUMPDEST CALLVALUE DUP2 EQ PUSH2 0x1EC JUMPI PUSH1 0x40 MLOAD PUSH32 0x8C379A000000000000000000000000000000000000000000000000000000000 DUP2 MSTORE PUSH1 0x4 ADD PUSH2 0x1E3 SWAP1 PUSH2 0x409 JUMP JUMPDEST PUSH1 0x40 MLOAD DUP1 SWAP2 SUB SWAP1 REVERT JUMPDEST PUSH1 0x0 DUP2 GT PUSH2 0x1FD JUMPI PUSH2 0x1FC PUSH2 0x429 JUMP JUMPDEST JUMPDEST CALLVALUE DUP2 SUB PUSH2 0x24D JUMPI CALLER PUSH1 0x1 PUSH1 0x0 PUSH2 0x100 EXP DUP2 SLOAD DUP2 PUSH20 0xFFFFFFFFFFFFFFFFFFFFFFFFFFFFFFFFFFFFFFFF MUL NOT AND SWAP1 DUP4 PUSH20 0xFFFFFFFFFFFFFFFFFFFFFFFFFFFFFFFFFFFFFFFF AND MUL OR SWAP1 SSTORE POP DUP1 PUSH1 0x2 DUP2 SWAP1 SSTORE POP JUMPDEST POP JUMP JUMPDEST PUSH1 0x0 DUP1 SLOAD SWAP1 PUSH2 0x100 EXP SWAP1 DIV PUSH20 0xFFFFFFFFFFFFFFFFFFFFFFFFFFFFFFFFFFFFFFFF AND DUP2 JUMP JUMPDEST PUSH1 0x0 DUP2 SWAP1 POP SWAP2 SWAP1 POP JUMP JUMPDEST PUSH2 0x287 DUP2 PUSH2 0x274 JUMP JUMPDEST DUP3 MSTORE POP POP JUMP JUMPDEST PUSH1 0x0 PUSH1 0x40 DUP3 ADD SWAP1 POP PUSH2 0x2A2 PUSH1 0x0 DUP4 ADD DUP6 PUSH2 0x27E JUMP JUMPDEST PUSH2 0x2AF PUSH1 0x20 DUP4 ADD DUP5 PUSH2 0x27E JUMP JUMPDEST SWAP4 SWAP3 POP POP POP JUMP JUMPDEST PUSH1 0x0 DUP1 REVERT JUMPDEST PUSH2 0x2C4 DUP2 PUSH2 0x274 JUMP JUMPDEST DUP2 EQ PUSH2 0x2CF JUMPI PUSH1 0x0 DUP1 REVERT JUMPDEST POP JUMP JUMPDEST PUSH1 0x0 DUP2 CALLDATALOAD SWAP1 POP PUSH2 0x2E1 DUP2 PUSH2 0x2BB JUMP JUMPDEST SWAP3 SWAP2 POP POP JUMP JUMPDEST PUSH1 0x0 PUSH1 0x20 DUP3 DUP5 SUB SLT ISZERO PUSH2 0x2FD JUMPI PUSH2 0x2FC PUSH2 0x2B6 JUMP JUMPDEST JUMPDEST PUSH1 0x0 PUSH2 0x30B DUP5 DUP3 DUP6 ADD PUSH2 0x2D2 JUMP JUMPDEST SWAP2 POP POP SWAP3 SWAP2 POP POP JUMP JUMPDEST PUSH1 0x0 PUSH20 0xFFFFFFFFFFFFFFFFFFFFFFFFFFFFFFFFFFFFFFFF DUP3 AND SWAP1 POP SWAP2 SWAP1 POP JUMP JUMPDEST PUSH1 0x0 PUSH2 0x33F DUP3 PUSH2 0x314 JUMP JUMPDEST SWAP1 POP SWAP2 SWAP1 POP JUMP JUMPDEST PUSH2 0x34F DUP2 PUSH2 0x334 JUMP JUMPDEST DUP3 MSTORE POP POP JUMP JUMPDEST PUSH1 0x0 PUSH1 0x20 DUP3 ADD SWAP1 POP PUSH2 0x36A PUSH1 0x0 DUP4 ADD DUP5 PUSH2 0x346 JUMP JUMPDEST SWAP3 SWAP2 POP POP JUMP JUMPDEST PUSH1 0x0 PUSH2 0x37B DUP3 PUSH2 0x314 JUMP JUMPDEST SWAP1 POP SWAP2 SWAP1 POP JUMP JUMPDEST PUSH2 0x38B DUP2 PUSH2 0x370 JUMP JUMPDEST DUP3 MSTORE POP POP JUMP JUMPDEST PUSH1 0x0 PUSH1 0x20 DUP3 ADD SWAP1 POP PUSH2 0x3A6 PUSH1 0x0 DUP4 ADD DUP5 PUSH2 0x382 JUMP JUMPDEST SWAP3 SWAP2 POP POP JUMP JUMPDEST PUSH1 0x0 DUP3 DUP3 MSTORE PUSH1 0x20 DUP3 ADD SWAP1 POP SWAP3 SWAP2 POP POP JUMP JUMPDEST PUSH32 0x616D6F756E74206D75737420657175616C73206D73672E76616C756500000000 PUSH1 0x0 DUP3 ADD MSTORE POP JUMP JUMPDEST PUSH1 0x0 PUSH2 0x3F3 PUSH1 0x1C DUP4 PUSH2 0x3AC JUMP JUMPDEST SWAP2 POP PUSH2 0x3FE DUP3 PUSH2 0x3BD JUMP JUMPDEST PUSH1 0x20 DUP3 ADD SWAP1 POP SWAP2 SWAP1 POP JUMP JUMPDEST PUSH1 0x0 PUSH1 0x20 DUP3 ADD SWAP1 POP DUP2 DUP2 SUB PUSH1 0x0 DUP4 ADD MSTORE PUSH2 0x422 DUP2 PUSH2 0x3E6 JUMP JUMPDEST SWAP1 POP SWAP2 SWAP1 POP JUMP JUMPDEST PUSH32 0x4E487B7100000000000000000000000000000000000000000000000000000000 PUSH1 0x0 MSTORE PUSH1 0x1 PUSH1 0x4 MSTORE PUSH1 0x24 PUSH1 0x0 REVERT INVALID LOG2 PUSH5 0x6970667358 0x22 SLT KECCAK256 CALLDATALOAD 0xE0 0x2D 0xC 0x4A ADD 0x5E 0xB5 0x2A 0xB5 DUP6 CODECOPY 0xEB PUSH2 0xC9E PUSH6 0xFA1CA91A214F 0xBD PUSH13 0xB6648769FBC12F64736F6C6343 STOP ADDMOD SLT STOP CALLER "
				},
				"gasEstimates": {
					"creation": {
						"codeDepositCost": "233200",
						"executionCost": "infinite",
						"totalCost": "infinite"
					},
					"external": {
						"admin()": "2577",
						"deposit(uint256)": "46873",
						"getBalance()": "infinite",
						"user()": "2536",
						"withdraw(uint256)": "infinite"
					}
				},
				"methodIdentifiers": {
					"admin()": "f851a440",
					"deposit(uint256)": "b6b55f25",
					"getBalance()": "12065fe0",
					"user()": "4f8632ba",
					"withdraw(uint256)": "2e1a7d4d"
				}
			},
			"storageLayout": {
				"storage": [
					{
						"astId": 3,
						"contract": "contracts/11-require.sol:money_demo",
						"label": "admin",
						"offset": 0,
						"slot": "0",
						"type": "t_address"
					},
					{
						"astId": 5,
						"contract": "contracts/11-require.sol:money_demo",
						"label": "user",
						"offset": 0,
						"slot": "1",
						"type": "t_address_payable"
					},
					{
						"astId": 7,
						"contract": "contracts/11-require.sol:money_demo",
						"label": "totalAmount",
						"offset": 0,
						"slot": "2",
						"type": "t_uint256"
					}
				],
				"types": {
					"t_address": {
						"encoding": "inplace",
						"label": "address",
						"numberOfBytes": "20"
					},
					"t_address_payable": {
						"encoding": "inplace",
						"label": "address payable",
						"numberOfBytes": "20"
					},
					"t_uint256": {
						"encoding": "inplace",
						"label": "uint256",
						"numberOfBytes": "32"
					}
				}
			},
			"userdoc": {
				"kind": "user",
				"methods": {},
				"version": 1
			}
		}
	}
}