{
	"contracts/10-storage_demo.sol": {
		"storage_demo": {
			"abi": [
				{
					"inputs": [
						{
							"internalType": "uint8",
							"name": "_age",
							"type": "uint8"
						}
					],
					"name": "callsetAge3",
					"outputs": [],
					"stateMutability": "nonpayable",
					"type": "function"
				},
				{
					"inputs": [],
					"name": "getUser",
					"outputs": [
						{
							"components": [
								{
									"internalType": "string",
									"name": "name",
									"type": "string"
								},
								{
									"internalType": "uint8",
									"name": "age",
									"type": "uint8"
								},
								{
									"internalType": "string",
									"name": "sex",
									"type": "string"
								}
							],
							"internalType": "struct User",
							"name": "",
							"type": "tuple"
						}
					],
					"stateMutability": "view",
					"type": "function"
				},
				{
					"inputs": [
						{
							"internalType": "uint8",
							"name": "_age",
							"type": "uint8"
						}
					],
					"name": "setAge1",
					"outputs": [],
					"stateMutability": "nonpayable",
					"type": "function"
				},
				{
					"inputs": [
						{
							"internalType": "uint8",
							"name": "_age",
							"type": "uint8"
						}
					],
					"name": "setAge2",
					"outputs": [],
					"stateMutability": "nonpayable",
					"type": "function"
				},
				{
					"inputs": [
						{
							"internalType": "string",
							"name": "_name",
							"type": "string"
						},
						{
							"internalType": "uint8",
							"name": "_age",
							"type": "uint8"
						},
						{
							"internalType": "string",
							"name": "_sex",
							"type": "string"
						}
					],
					"name": "setUser",
					"outputs": [],
					"stateMutability": "nonpayable",
					"type": "function"
				}
			],
			"devdoc": {
				"kind": "dev",
				"methods": {},
				"version": 1
			},
			"evm": {
				"assembly": "    /* \"contracts/10-storage_demo.sol\":127:850  contract storage_demo{... */\n  mstore(0x40, 0x80)\n  callvalue\n  dup1\n  iszero\n  tag_1\n  jumpi\n  0x00\n  dup1\n  revert\ntag_1:\n  pop\n  dataSize(sub_0)\n  dup1\n  dataOffset(sub_0)\n  0x00\n  codecopy\n  0x00\n  return\nstop\n\nsub_0: assembly {\n        /* \"contracts/10-storage_demo.sol\":127:850  contract storage_demo{... */\n      mstore(0x40, 0x80)\n      callvalue\n      dup1\n      iszero\n      tag_1\n      jumpi\n      0x00\n      dup1\n      revert\n    tag_1:\n      pop\n      jumpi(tag_2, lt(calldatasize, 0x04))\n      shr(0xe0, calldataload(0x00))\n      dup1\n      0x16a23956\n      eq\n      tag_3\n      jumpi\n      dup1\n      0x2d1ca992\n      eq\n      tag_4\n      jumpi\n      dup1\n      0x4897089e\n      eq\n      tag_5\n      jumpi\n      dup1\n      0x6835d01e\n      eq\n      tag_6\n      jumpi\n      dup1\n      0x832880e7\n      eq\n      tag_7\n      jumpi\n    tag_2:\n      0x00\n      dup1\n      revert\n        /* \"contracts/10-storage_demo.sol\":557:664  function setAge2(uint8 _age) public {... */\n    tag_3:\n      tag_8\n      0x04\n      dup1\n      calldatasize\n      sub\n      dup2\n      add\n      swap1\n      tag_9\n      swap2\n      swap1\n      tag_10\n      jump\t// in\n    tag_9:\n      tag_11\n      jump\t// in\n    tag_8:\n      stop\n        /* \"contracts/10-storage_demo.sol\":174:350  function setUser(string memory _name, uint8 _age, string memory _sex) public {... */\n    tag_4:\n      tag_12\n      0x04\n      dup1\n      calldatasize\n      sub\n      dup2\n      add\n      swap1\n      tag_13\n      swap2\n      swap1\n      tag_14\n      jump\t// in\n    tag_13:\n      tag_15\n      jump\t// in\n    tag_12:\n      stop\n        /* \"contracts/10-storage_demo.sol\":767:848  function callsetAge3(uint8 _age) public {... */\n    tag_5:\n      tag_16\n      0x04\n      dup1\n      calldatasize\n      sub\n      dup2\n      add\n      swap1\n      tag_17\n      swap2\n      swap1\n      tag_10\n      jump\t// in\n    tag_17:\n      tag_18\n      jump\t// in\n    tag_16:\n      stop\n        /* \"contracts/10-storage_demo.sol\":445:551  function setAge1(uint8 _age) public {... */\n    tag_6:\n      tag_19\n      0x04\n      dup1\n      calldatasize\n      sub\n      dup2\n      add\n      swap1\n      tag_20\n      swap2\n      swap1\n      tag_10\n      jump\t// in\n    tag_20:\n      tag_21\n      jump\t// in\n    tag_19:\n      stop\n        /* \"contracts/10-storage_demo.sol\":355:439  function getUser() public view returns(User memory){... */\n    tag_7:\n      tag_22\n      tag_23\n      jump\t// in\n    tag_22:\n      mload(0x40)\n      tag_24\n      swap2\n      swap1\n      tag_25\n      jump\t// in\n    tag_24:\n      mload(0x40)\n      dup1\n      swap2\n      sub\n      swap1\n      return\n        /* \"contracts/10-storage_demo.sol\":557:664  function setAge2(uint8 _age) public {... */\n    tag_11:\n        /* \"contracts/10-storage_demo.sol\":603:620  User storage user */\n      0x00\n        /* \"contracts/10-storage_demo.sol\":653:657  _age */\n      dup2\n        /* \"contracts/10-storage_demo.sol\":642:646  user */\n      dup2\n        /* \"contracts/10-storage_demo.sol\":642:650  user.age */\n      0x01\n      add\n      0x00\n        /* \"contracts/10-storage_demo.sol\":642:657  user.age = _age */\n      0x0100\n      exp\n      dup2\n      sload\n      dup2\n      0xff\n      mul\n      not\n      and\n      swap1\n      dup4\n      0xff\n      and\n      mul\n      or\n      swap1\n      sstore\n      pop\n        /* \"contracts/10-storage_demo.sol\":593:664  {... */\n      pop\n        /* \"contracts/10-storage_demo.sol\":557:664  function setAge2(uint8 _age) public {... */\n      pop\n      jump\t// out\n        /* \"contracts/10-storage_demo.sol\":174:350  function setUser(string memory _name, uint8 _age, string memory _sex) public {... */\n    tag_15:\n        /* \"contracts/10-storage_demo.sol\":278:283  _name */\n      dup3\n        /* \"contracts/10-storage_demo.sol\":261:270  adminUser */\n      0x00\n        /* \"contracts/10-storage_demo.sol\":261:275  adminUser.name */\n      dup1\n      add\n        /* \"contracts/10-storage_demo.sol\":261:283  adminUser.name = _name */\n      swap1\n      dup2\n      tag_28\n      swap2\n      swap1\n      tag_29\n      jump\t// in\n    tag_28:\n      pop\n        /* \"contracts/10-storage_demo.sol\":309:313  _age */\n      dup2\n        /* \"contracts/10-storage_demo.sol\":293:302  adminUser */\n      0x00\n        /* \"contracts/10-storage_demo.sol\":293:306  adminUser.age */\n      0x01\n      add\n      0x00\n        /* \"contracts/10-storage_demo.sol\":293:313  adminUser.age = _age */\n      0x0100\n      exp\n      dup2\n      sload\n      dup2\n      0xff\n      mul\n      not\n      and\n      swap1\n      dup4\n      0xff\n      and\n      mul\n      or\n      swap1\n      sstore\n      pop\n        /* \"contracts/10-storage_demo.sol\":339:343  _sex */\n      dup1\n        /* \"contracts/10-storage_demo.sol\":323:332  adminUser */\n      0x00\n        /* \"contracts/10-storage_demo.sol\":323:336  adminUser.sex */\n      0x02\n      add\n        /* \"contracts/10-storage_demo.sol\":323:343  adminUser.sex = _sex */\n      swap1\n      dup2\n      tag_30\n      swap2\n      swap1\n      tag_29\n      jump\t// in\n    tag_30:\n      pop\n        /* \"contracts/10-storage_demo.sol\":174:350  function setUser(string memory _name, uint8 _age, string memory _sex) public {... */\n      pop\n      pop\n      pop\n      jump\t// out\n        /* \"contracts/10-storage_demo.sol\":767:848  function callsetAge3(uint8 _age) public {... */\n    tag_18:\n        /* \"contracts/10-storage_demo.sol\":817:841  setAge3(adminUser, _age) */\n      tag_32\n        /* \"contracts/10-storage_demo.sol\":825:834  adminUser */\n      0x00\n        /* \"contracts/10-storage_demo.sol\":836:840  _age */\n      dup3\n        /* \"contracts/10-storage_demo.sol\":817:824  setAge3 */\n      tag_33\n        /* \"contracts/10-storage_demo.sol\":817:841  setAge3(adminUser, _age) */\n      jump\t// in\n    tag_32:\n        /* \"contracts/10-storage_demo.sol\":767:848  function callsetAge3(uint8 _age) public {... */\n      pop\n      jump\t// out\n        /* \"contracts/10-storage_demo.sol\":445:551  function setAge1(uint8 _age) public {... */\n    tag_21:\n        /* \"contracts/10-storage_demo.sol\":491:507  User memory user */\n      0x00\n        /* \"contracts/10-storage_demo.sol\":510:519  adminUser */\n      dup1\n        /* \"contracts/10-storage_demo.sol\":491:519  User memory user = adminUser */\n      mload(0x40)\n      dup1\n      0x60\n      add\n      0x40\n      mstore\n      swap1\n      dup2\n      0x00\n      dup3\n      add\n      dup1\n      sload\n      tag_35\n      swap1\n      tag_36\n      jump\t// in\n    tag_35:\n      dup1\n      0x1f\n      add\n      0x20\n      dup1\n      swap2\n      div\n      mul\n      0x20\n      add\n      mload(0x40)\n      swap1\n      dup2\n      add\n      0x40\n      mstore\n      dup1\n      swap3\n      swap2\n      swap1\n      dup2\n      dup2\n      mstore\n      0x20\n      add\n      dup3\n      dup1\n      sload\n      tag_37\n      swap1\n      tag_36\n      jump\t// in\n    tag_37:\n      dup1\n      iszero\n      tag_38\n      jumpi\n      dup1\n      0x1f\n      lt\n      tag_39\n      jumpi\n      0x0100\n      dup1\n      dup4\n      sload\n      div\n      mul\n      dup4\n      mstore\n      swap2\n      0x20\n      add\n      swap2\n      jump(tag_38)\n    tag_39:\n      dup3\n      add\n      swap2\n      swap1\n      0x00\n      mstore\n      keccak256(0x00, 0x20)\n      swap1\n    tag_40:\n      dup2\n      sload\n      dup2\n      mstore\n      swap1\n      0x01\n      add\n      swap1\n      0x20\n      add\n      dup1\n      dup4\n      gt\n      tag_40\n      jumpi\n      dup3\n      swap1\n      sub\n      0x1f\n      and\n      dup3\n      add\n      swap2\n    tag_38:\n      pop\n      pop\n      pop\n      pop\n      pop\n      dup2\n      mstore\n      0x20\n      add\n      0x01\n      dup3\n      add\n      0x00\n      swap1\n      sload\n      swap1\n      0x0100\n      exp\n      swap1\n      div\n      0xff\n      and\n      0xff\n      and\n      0xff\n      and\n      dup2\n      mstore\n      0x20\n      add\n      0x02\n      dup3\n      add\n      dup1\n      sload\n      tag_41\n      swap1\n      tag_36\n      jump\t// in\n    tag_41:\n      dup1\n      0x1f\n      add\n      0x20\n      dup1\n      swap2\n      div\n      mul\n      0x20\n      add\n      mload(0x40)\n      swap1\n      dup2\n      add\n      0x40\n      mstore\n      dup1\n      swap3\n      swap2\n      swap1\n      dup2\n      dup2\n      mstore\n      0x20\n      add\n      dup3\n      dup1\n      sload\n      tag_42\n      swap1\n      tag_36\n      jump\t// in\n    tag_42:\n      dup1\n      iszero\n      tag_43\n      jumpi\n      dup1\n      0x1f\n      lt\n      tag_44\n      jumpi\n      0x0100\n      dup1\n      dup4\n      sload\n      div\n      mul\n      dup4\n      mstore\n      swap2\n      0x20\n      add\n      swap2\n      jump(tag_43)\n    tag_44:\n      dup3\n      add\n      swap2\n      swap1\n      0x00\n      mstore\n      keccak256(0x00, 0x20)\n      swap1\n    tag_45:\n      dup2\n      sload\n      dup2\n      mstore\n      swap1\n      0x01\n      add\n      swap1\n      0x20\n      add\n      dup1\n      dup4\n      gt\n      tag_45\n      jumpi\n      dup3\n      swap1\n      sub\n      0x1f\n      and\n      dup3\n      add\n      swap2\n    tag_43:\n      pop\n      pop\n      pop\n      pop\n      pop\n      dup2\n      mstore\n      pop\n      pop\n      swap1\n      pop\n        /* \"contracts/10-storage_demo.sol\":540:544  _age */\n      dup2\n        /* \"contracts/10-storage_demo.sol\":529:533  user */\n      dup2\n        /* \"contracts/10-storage_demo.sol\":529:537  user.age */\n      0x20\n      add\n        /* \"contracts/10-storage_demo.sol\":529:544  user.age = _age */\n      swap1\n      0xff\n      and\n      swap1\n      dup2\n      0xff\n      and\n      dup2\n      mstore\n      pop\n      pop\n        /* \"contracts/10-storage_demo.sol\":481:551  {... */\n      pop\n        /* \"contracts/10-storage_demo.sol\":445:551  function setAge1(uint8 _age) public {... */\n      pop\n      jump\t// out\n        /* \"contracts/10-storage_demo.sol\":355:439  function getUser() public view returns(User memory){... */\n    tag_23:\n        /* \"contracts/10-storage_demo.sol\":394:405  User memory */\n      tag_46\n      tag_47\n      jump\t// in\n    tag_46:\n        /* \"contracts/10-storage_demo.sol\":423:432  adminUser */\n      0x00\n        /* \"contracts/10-storage_demo.sol\":416:432  return adminUser */\n      mload(0x40)\n      dup1\n      0x60\n      add\n      0x40\n      mstore\n      swap1\n      dup2\n      0x00\n      dup3\n      add\n      dup1\n      sload\n      tag_49\n      swap1\n      tag_36\n      jump\t// in\n    tag_49:\n      dup1\n      0x1f\n      add\n      0x20\n      dup1\n      swap2\n      div\n      mul\n      0x20\n      add\n      mload(0x40)\n      swap1\n      dup2\n      add\n      0x40\n      mstore\n      dup1\n      swap3\n      swap2\n      swap1\n      dup2\n      dup2\n      mstore\n      0x20\n      add\n      dup3\n      dup1\n      sload\n      tag_50\n      swap1\n      tag_36\n      jump\t// in\n    tag_50:\n      dup1\n      iszero\n      tag_51\n      jumpi\n      dup1\n      0x1f\n      lt\n      tag_52\n      jumpi\n      0x0100\n      dup1\n      dup4\n      sload\n      div\n      mul\n      dup4\n      mstore\n      swap2\n      0x20\n      add\n      swap2\n      jump(tag_51)\n    tag_52:\n      dup3\n      add\n      swap2\n      swap1\n      0x00\n      mstore\n      keccak256(0x00, 0x20)\n      swap1\n    tag_53:\n      dup2\n      sload\n      dup2\n      mstore\n      swap1\n      0x01\n      add\n      swap1\n      0x20\n      add\n      dup1\n      dup4\n      gt\n      tag_53\n      jumpi\n      dup3\n      swap1\n      sub\n      0x1f\n      and\n      dup3\n      add\n      swap2\n    tag_51:\n      pop\n      pop\n      pop\n      pop\n      pop\n      dup2\n      mstore\n      0x20\n      add\n      0x01\n      dup3\n      add\n      0x00\n      swap1\n      sload\n      swap1\n      0x0100\n      exp\n      swap1\n      div\n      0xff\n      and\n      0xff\n      and\n      0xff\n      and\n      dup2\n      mstore\n      0x20\n      add\n      0x02\n      dup3\n      add\n      dup1\n      sload\n      tag_54\n      swap1\n      tag_36\n      jump\t// in\n    tag_54:\n      dup1\n      0x1f\n      add\n      0x20\n      dup1\n      swap2\n      div\n      mul\n      0x20\n      add\n      mload(0x40)\n      swap1\n      dup2\n      add\n      0x40\n      mstore\n      dup1\n      swap3\n      swap2\n      swap1\n      dup2\n      dup2\n      mstore\n      0x20\n      add\n      dup3\n      dup1\n      sload\n      tag_55\n      swap1\n      tag_36\n      jump\t// in\n    tag_55:\n      dup1\n      iszero\n      tag_56\n      jumpi\n      dup1\n      0x1f\n      lt\n      tag_57\n      jumpi\n      0x0100\n      dup1\n      dup4\n      sload\n      div\n      mul\n      dup4\n      mstore\n      swap2\n      0x20\n      add\n      swap2\n      jump(tag_56)\n    tag_57:\n      dup3\n      add\n      swap2\n      swap1\n      0x00\n      mstore\n      keccak256(0x00, 0x20)\n      swap1\n    tag_58:\n      dup2\n      sload\n      dup2\n      mstore\n      swap1\n      0x01\n      add\n      swap1\n      0x20\n      add\n      dup1\n      dup4\n      gt\n      tag_58\n      jumpi\n      dup3\n      swap1\n      sub\n      0x1f\n      and\n      dup3\n      add\n      swap2\n    tag_56:\n      pop\n      pop\n      pop\n      pop\n      pop\n      dup2\n      mstore\n      pop\n      pop\n      swap1\n      pop\n        /* \"contracts/10-storage_demo.sol\":355:439  function getUser() public view returns(User memory){... */\n      swap1\n      jump\t// out\n        /* \"contracts/10-storage_demo.sol\":670:761  function setAge3(User storage _user, uint8 _age) internal {... */\n    tag_33:\n        /* \"contracts/10-storage_demo.sol\":750:754  _age */\n      dup1\n        /* \"contracts/10-storage_demo.sol\":738:743  _user */\n      dup3\n        /* \"contracts/10-storage_demo.sol\":738:747  _user.age */\n      0x01\n      add\n      0x00\n        /* \"contracts/10-storage_demo.sol\":738:754  _user.age = _age */\n      0x0100\n      exp\n      dup2\n      sload\n      dup2\n      0xff\n      mul\n      not\n      and\n      swap1\n      dup4\n      0xff\n      and\n      mul\n      or\n      swap1\n      sstore\n      pop\n        /* \"contracts/10-storage_demo.sol\":670:761  function setAge3(User storage _user, uint8 _age) internal {... */\n      pop\n      pop\n      jump\t// out\n    tag_47:\n      mload(0x40)\n      dup1\n      0x60\n      add\n      0x40\n      mstore\n      dup1\n      0x60\n      dup2\n      mstore\n      0x20\n      add\n      and(0xff, 0x00)\n      dup2\n      mstore\n      0x20\n      add\n      0x60\n      dup2\n      mstore\n      pop\n      swap1\n      jump\t// out\n        /* \"#utility.yul\":7:82   */\n    tag_60:\n        /* \"#utility.yul\":40:46   */\n      0x00\n        /* \"#utility.yul\":73:75   */\n      0x40\n        /* \"#utility.yul\":67:76   */\n      mload\n        /* \"#utility.yul\":57:76   */\n      swap1\n      pop\n        /* \"#utility.yul\":7:82   */\n      swap1\n      jump\t// out\n        /* \"#utility.yul\":88:205   */\n    tag_61:\n        /* \"#utility.yul\":197:198   */\n      0x00\n        /* \"#utility.yul\":194:195   */\n      dup1\n        /* \"#utility.yul\":187:199   */\n      revert\n        /* \"#utility.yul\":211:328   */\n    tag_62:\n        /* \"#utility.yul\":320:321   */\n      0x00\n        /* \"#utility.yul\":317:318   */\n      dup1\n        /* \"#utility.yul\":310:322   */\n      revert\n        /* \"#utility.yul\":334:420   */\n    tag_63:\n        /* \"#utility.yul\":369:376   */\n      0x00\n        /* \"#utility.yul\":409:413   */\n      0xff\n        /* \"#utility.yul\":402:407   */\n      dup3\n        /* \"#utility.yul\":398:414   */\n      and\n        /* \"#utility.yul\":387:414   */\n      swap1\n      pop\n        /* \"#utility.yul\":334:420   */\n      swap2\n      swap1\n      pop\n      jump\t// out\n        /* \"#utility.yul\":426:544   */\n    tag_64:\n        /* \"#utility.yul\":497:519   */\n      tag_105\n        /* \"#utility.yul\":513:518   */\n      dup2\n        /* \"#utility.yul\":497:519   */\n      tag_63\n      jump\t// in\n    tag_105:\n        /* \"#utility.yul\":490:495   */\n      dup2\n        /* \"#utility.yul\":487:520   */\n      eq\n        /* \"#utility.yul\":477:538   */\n      tag_106\n      jumpi\n        /* \"#utility.yul\":534:535   */\n      0x00\n        /* \"#utility.yul\":531:532   */\n      dup1\n        /* \"#utility.yul\":524:536   */\n      revert\n        /* \"#utility.yul\":477:538   */\n    tag_106:\n        /* \"#utility.yul\":426:544   */\n      pop\n      jump\t// out\n        /* \"#utility.yul\":550:685   */\n    tag_65:\n        /* \"#utility.yul\":594:599   */\n      0x00\n        /* \"#utility.yul\":632:638   */\n      dup2\n        /* \"#utility.yul\":619:639   */\n      calldataload\n        /* \"#utility.yul\":610:639   */\n      swap1\n      pop\n        /* \"#utility.yul\":648:679   */\n      tag_108\n        /* \"#utility.yul\":673:678   */\n      dup2\n        /* \"#utility.yul\":648:679   */\n      tag_64\n      jump\t// in\n    tag_108:\n        /* \"#utility.yul\":550:685   */\n      swap3\n      swap2\n      pop\n      pop\n      jump\t// out\n        /* \"#utility.yul\":691:1016   */\n    tag_10:\n        /* \"#utility.yul\":748:754   */\n      0x00\n        /* \"#utility.yul\":797:799   */\n      0x20\n        /* \"#utility.yul\":785:794   */\n      dup3\n        /* \"#utility.yul\":776:783   */\n      dup5\n        /* \"#utility.yul\":772:795   */\n      sub\n        /* \"#utility.yul\":768:800   */\n      slt\n        /* \"#utility.yul\":765:884   */\n      iszero\n      tag_110\n      jumpi\n        /* \"#utility.yul\":803:882   */\n      tag_111\n      tag_61\n      jump\t// in\n    tag_111:\n        /* \"#utility.yul\":765:884   */\n    tag_110:\n        /* \"#utility.yul\":923:924   */\n      0x00\n        /* \"#utility.yul\":948:999   */\n      tag_112\n        /* \"#utility.yul\":991:998   */\n      dup5\n        /* \"#utility.yul\":982:988   */\n      dup3\n        /* \"#utility.yul\":971:980   */\n      dup6\n        /* \"#utility.yul\":967:989   */\n      add\n        /* \"#utility.yul\":948:999   */\n      tag_65\n      jump\t// in\n    tag_112:\n        /* \"#utility.yul\":938:999   */\n      swap2\n      pop\n        /* \"#utility.yul\":894:1009   */\n      pop\n        /* \"#utility.yul\":691:1016   */\n      swap3\n      swap2\n      pop\n      pop\n      jump\t// out\n        /* \"#utility.yul\":1022:1139   */\n    tag_66:\n        /* \"#utility.yul\":1131:1132   */\n      0x00\n        /* \"#utility.yul\":1128:1129   */\n      dup1\n        /* \"#utility.yul\":1121:1133   */\n      revert\n        /* \"#utility.yul\":1145:1262   */\n    tag_67:\n        /* \"#utility.yul\":1254:1255   */\n      0x00\n        /* \"#utility.yul\":1251:1252   */\n      dup1\n        /* \"#utility.yul\":1244:1256   */\n      revert\n        /* \"#utility.yul\":1268:1370   */\n    tag_68:\n        /* \"#utility.yul\":1309:1315   */\n      0x00\n        /* \"#utility.yul\":1360:1362   */\n      0x1f\n        /* \"#utility.yul\":1356:1363   */\n      not\n        /* \"#utility.yul\":1351:1353   */\n      0x1f\n        /* \"#utility.yul\":1344:1349   */\n      dup4\n        /* \"#utility.yul\":1340:1354   */\n      add\n        /* \"#utility.yul\":1336:1364   */\n      and\n        /* \"#utility.yul\":1326:1364   */\n      swap1\n      pop\n        /* \"#utility.yul\":1268:1370   */\n      swap2\n      swap1\n      pop\n      jump\t// out\n        /* \"#utility.yul\":1376:1556   */\n    tag_69:\n        /* \"#utility.yul\":1424:1501   */\n      0x4e487b7100000000000000000000000000000000000000000000000000000000\n        /* \"#utility.yul\":1421:1422   */\n      0x00\n        /* \"#utility.yul\":1414:1502   */\n      mstore\n        /* \"#utility.yul\":1521:1525   */\n      0x41\n        /* \"#utility.yul\":1518:1519   */\n      0x04\n        /* \"#utility.yul\":1511:1526   */\n      mstore\n        /* \"#utility.yul\":1545:1549   */\n      0x24\n        /* \"#utility.yul\":1542:1543   */\n      0x00\n        /* \"#utility.yul\":1535:1550   */\n      revert\n        /* \"#utility.yul\":1562:1843   */\n    tag_70:\n        /* \"#utility.yul\":1645:1672   */\n      tag_118\n        /* \"#utility.yul\":1667:1671   */\n      dup3\n        /* \"#utility.yul\":1645:1672   */\n      tag_68\n      jump\t// in\n    tag_118:\n        /* \"#utility.yul\":1637:1643   */\n      dup2\n        /* \"#utility.yul\":1633:1673   */\n      add\n        /* \"#utility.yul\":1775:1781   */\n      dup2\n        /* \"#utility.yul\":1763:1773   */\n      dup2\n        /* \"#utility.yul\":1760:1782   */\n      lt\n        /* \"#utility.yul\":1739:1757   */\n      0xffffffffffffffff\n        /* \"#utility.yul\":1727:1737   */\n      dup3\n        /* \"#utility.yul\":1724:1758   */\n      gt\n        /* \"#utility.yul\":1721:1783   */\n      or\n        /* \"#utility.yul\":1718:1806   */\n      iszero\n      tag_119\n      jumpi\n        /* \"#utility.yul\":1786:1804   */\n      tag_120\n      tag_69\n      jump\t// in\n    tag_120:\n        /* \"#utility.yul\":1718:1806   */\n    tag_119:\n        /* \"#utility.yul\":1826:1836   */\n      dup1\n        /* \"#utility.yul\":1822:1824   */\n      0x40\n        /* \"#utility.yul\":1815:1837   */\n      mstore\n        /* \"#utility.yul\":1605:1843   */\n      pop\n        /* \"#utility.yul\":1562:1843   */\n      pop\n      pop\n      jump\t// out\n        /* \"#utility.yul\":1849:1978   */\n    tag_71:\n        /* \"#utility.yul\":1883:1889   */\n      0x00\n        /* \"#utility.yul\":1910:1930   */\n      tag_122\n      tag_60\n      jump\t// in\n    tag_122:\n        /* \"#utility.yul\":1900:1930   */\n      swap1\n      pop\n        /* \"#utility.yul\":1939:1972   */\n      tag_123\n        /* \"#utility.yul\":1967:1971   */\n      dup3\n        /* \"#utility.yul\":1959:1965   */\n      dup3\n        /* \"#utility.yul\":1939:1972   */\n      tag_70\n      jump\t// in\n    tag_123:\n        /* \"#utility.yul\":1849:1978   */\n      swap2\n      swap1\n      pop\n      jump\t// out\n        /* \"#utility.yul\":1984:2292   */\n    tag_72:\n        /* \"#utility.yul\":2046:2050   */\n      0x00\n        /* \"#utility.yul\":2136:2154   */\n      0xffffffffffffffff\n        /* \"#utility.yul\":2128:2134   */\n      dup3\n        /* \"#utility.yul\":2125:2155   */\n      gt\n        /* \"#utility.yul\":2122:2178   */\n      iszero\n      tag_125\n      jumpi\n        /* \"#utility.yul\":2158:2176   */\n      tag_126\n      tag_69\n      jump\t// in\n    tag_126:\n        /* \"#utility.yul\":2122:2178   */\n    tag_125:\n        /* \"#utility.yul\":2196:2225   */\n      tag_127\n        /* \"#utility.yul\":2218:2224   */\n      dup3\n        /* \"#utility.yul\":2196:2225   */\n      tag_68\n      jump\t// in\n    tag_127:\n        /* \"#utility.yul\":2188:2225   */\n      swap1\n      pop\n        /* \"#utility.yul\":2280:2284   */\n      0x20\n        /* \"#utility.yul\":2274:2278   */\n      dup2\n        /* \"#utility.yul\":2270:2285   */\n      add\n        /* \"#utility.yul\":2262:2285   */\n      swap1\n      pop\n        /* \"#utility.yul\":1984:2292   */\n      swap2\n      swap1\n      pop\n      jump\t// out\n        /* \"#utility.yul\":2298:2444   */\n    tag_73:\n        /* \"#utility.yul\":2395:2401   */\n      dup3\n        /* \"#utility.yul\":2390:2393   */\n      dup2\n        /* \"#utility.yul\":2385:2388   */\n      dup4\n        /* \"#utility.yul\":2372:2402   */\n      calldatacopy\n        /* \"#utility.yul\":2436:2437   */\n      0x00\n        /* \"#utility.yul\":2427:2433   */\n      dup4\n        /* \"#utility.yul\":2422:2425   */\n      dup4\n        /* \"#utility.yul\":2418:2434   */\n      add\n        /* \"#utility.yul\":2411:2438   */\n      mstore\n        /* \"#utility.yul\":2298:2444   */\n      pop\n      pop\n      pop\n      jump\t// out\n        /* \"#utility.yul\":2450:2875   */\n    tag_74:\n        /* \"#utility.yul\":2528:2533   */\n      0x00\n        /* \"#utility.yul\":2553:2619   */\n      tag_130\n        /* \"#utility.yul\":2569:2618   */\n      tag_131\n        /* \"#utility.yul\":2611:2617   */\n      dup5\n        /* \"#utility.yul\":2569:2618   */\n      tag_72\n      jump\t// in\n    tag_131:\n        /* \"#utility.yul\":2553:2619   */\n      tag_71\n      jump\t// in\n    tag_130:\n        /* \"#utility.yul\":2544:2619   */\n      swap1\n      pop\n        /* \"#utility.yul\":2642:2648   */\n      dup3\n        /* \"#utility.yul\":2635:2640   */\n      dup2\n        /* \"#utility.yul\":2628:2649   */\n      mstore\n        /* \"#utility.yul\":2680:2684   */\n      0x20\n        /* \"#utility.yul\":2673:2678   */\n      dup2\n        /* \"#utility.yul\":2669:2685   */\n      add\n        /* \"#utility.yul\":2718:2721   */\n      dup5\n        /* \"#utility.yul\":2709:2715   */\n      dup5\n        /* \"#utility.yul\":2704:2707   */\n      dup5\n        /* \"#utility.yul\":2700:2716   */\n      add\n        /* \"#utility.yul\":2697:2722   */\n      gt\n        /* \"#utility.yul\":2694:2806   */\n      iszero\n      tag_132\n      jumpi\n        /* \"#utility.yul\":2725:2804   */\n      tag_133\n      tag_67\n      jump\t// in\n    tag_133:\n        /* \"#utility.yul\":2694:2806   */\n    tag_132:\n        /* \"#utility.yul\":2815:2869   */\n      tag_134\n        /* \"#utility.yul\":2862:2868   */\n      dup5\n        /* \"#utility.yul\":2857:2860   */\n      dup3\n        /* \"#utility.yul\":2852:2855   */\n      dup6\n        /* \"#utility.yul\":2815:2869   */\n      tag_73\n      jump\t// in\n    tag_134:\n        /* \"#utility.yul\":2534:2875   */\n      pop\n        /* \"#utility.yul\":2450:2875   */\n      swap4\n      swap3\n      pop\n      pop\n      pop\n      jump\t// out\n        /* \"#utility.yul\":2895:3235   */\n    tag_75:\n        /* \"#utility.yul\":2951:2956   */\n      0x00\n        /* \"#utility.yul\":3000:3003   */\n      dup3\n        /* \"#utility.yul\":2993:2997   */\n      0x1f\n        /* \"#utility.yul\":2985:2991   */\n      dup4\n        /* \"#utility.yul\":2981:2998   */\n      add\n        /* \"#utility.yul\":2977:3004   */\n      slt\n        /* \"#utility.yul\":2967:3089   */\n      tag_136\n      jumpi\n        /* \"#utility.yul\":3008:3087   */\n      tag_137\n      tag_66\n      jump\t// in\n    tag_137:\n        /* \"#utility.yul\":2967:3089   */\n    tag_136:\n        /* \"#utility.yul\":3125:3131   */\n      dup2\n        /* \"#utility.yul\":3112:3132   */\n      calldataload\n        /* \"#utility.yul\":3150:3229   */\n      tag_138\n        /* \"#utility.yul\":3225:3228   */\n      dup5\n        /* \"#utility.yul\":3217:3223   */\n      dup3\n        /* \"#utility.yul\":3210:3214   */\n      0x20\n        /* \"#utility.yul\":3202:3208   */\n      dup7\n        /* \"#utility.yul\":3198:3215   */\n      add\n        /* \"#utility.yul\":3150:3229   */\n      tag_74\n      jump\t// in\n    tag_138:\n        /* \"#utility.yul\":3141:3229   */\n      swap2\n      pop\n        /* \"#utility.yul\":2957:3235   */\n      pop\n        /* \"#utility.yul\":2895:3235   */\n      swap3\n      swap2\n      pop\n      pop\n      jump\t// out\n        /* \"#utility.yul\":3241:4216   */\n    tag_14:\n        /* \"#utility.yul\":3336:3342   */\n      0x00\n        /* \"#utility.yul\":3344:3350   */\n      dup1\n        /* \"#utility.yul\":3352:3358   */\n      0x00\n        /* \"#utility.yul\":3401:3403   */\n      0x60\n        /* \"#utility.yul\":3389:3398   */\n      dup5\n        /* \"#utility.yul\":3380:3387   */\n      dup7\n        /* \"#utility.yul\":3376:3399   */\n      sub\n        /* \"#utility.yul\":3372:3404   */\n      slt\n        /* \"#utility.yul\":3369:3488   */\n      iszero\n      tag_140\n      jumpi\n        /* \"#utility.yul\":3407:3486   */\n      tag_141\n      tag_61\n      jump\t// in\n    tag_141:\n        /* \"#utility.yul\":3369:3488   */\n    tag_140:\n        /* \"#utility.yul\":3555:3556   */\n      0x00\n        /* \"#utility.yul\":3544:3553   */\n      dup5\n        /* \"#utility.yul\":3540:3557   */\n      add\n        /* \"#utility.yul\":3527:3558   */\n      calldataload\n        /* \"#utility.yul\":3585:3603   */\n      0xffffffffffffffff\n        /* \"#utility.yul\":3577:3583   */\n      dup2\n        /* \"#utility.yul\":3574:3604   */\n      gt\n        /* \"#utility.yul\":3571:3688   */\n      iszero\n      tag_142\n      jumpi\n        /* \"#utility.yul\":3607:3686   */\n      tag_143\n      tag_62\n      jump\t// in\n    tag_143:\n        /* \"#utility.yul\":3571:3688   */\n    tag_142:\n        /* \"#utility.yul\":3712:3775   */\n      tag_144\n        /* \"#utility.yul\":3767:3774   */\n      dup7\n        /* \"#utility.yul\":3758:3764   */\n      dup3\n        /* \"#utility.yul\":3747:3756   */\n      dup8\n        /* \"#utility.yul\":3743:3765   */\n      add\n        /* \"#utility.yul\":3712:3775   */\n      tag_75\n      jump\t// in\n    tag_144:\n        /* \"#utility.yul\":3702:3775   */\n      swap4\n      pop\n        /* \"#utility.yul\":3498:3785   */\n      pop\n        /* \"#utility.yul\":3824:3826   */\n      0x20\n        /* \"#utility.yul\":3850:3901   */\n      tag_145\n        /* \"#utility.yul\":3893:3900   */\n      dup7\n        /* \"#utility.yul\":3884:3890   */\n      dup3\n        /* \"#utility.yul\":3873:3882   */\n      dup8\n        /* \"#utility.yul\":3869:3891   */\n      add\n        /* \"#utility.yul\":3850:3901   */\n      tag_65\n      jump\t// in\n    tag_145:\n        /* \"#utility.yul\":3840:3901   */\n      swap3\n      pop\n        /* \"#utility.yul\":3795:3911   */\n      pop\n        /* \"#utility.yul\":3978:3980   */\n      0x40\n        /* \"#utility.yul\":3967:3976   */\n      dup5\n        /* \"#utility.yul\":3963:3981   */\n      add\n        /* \"#utility.yul\":3950:3982   */\n      calldataload\n        /* \"#utility.yul\":4009:4027   */\n      0xffffffffffffffff\n        /* \"#utility.yul\":4001:4007   */\n      dup2\n        /* \"#utility.yul\":3998:4028   */\n      gt\n        /* \"#utility.yul\":3995:4112   */\n      iszero\n      tag_146\n      jumpi\n        /* \"#utility.yul\":4031:4110   */\n      tag_147\n      tag_62\n      jump\t// in\n    tag_147:\n        /* \"#utility.yul\":3995:4112   */\n    tag_146:\n        /* \"#utility.yul\":4136:4199   */\n      tag_148\n        /* \"#utility.yul\":4191:4198   */\n      dup7\n        /* \"#utility.yul\":4182:4188   */\n      dup3\n        /* \"#utility.yul\":4171:4180   */\n      dup8\n        /* \"#utility.yul\":4167:4189   */\n      add\n        /* \"#utility.yul\":4136:4199   */\n      tag_75\n      jump\t// in\n    tag_148:\n        /* \"#utility.yul\":4126:4199   */\n      swap2\n      pop\n        /* \"#utility.yul\":3921:4209   */\n      pop\n        /* \"#utility.yul\":3241:4216   */\n      swap3\n      pop\n      swap3\n      pop\n      swap3\n      jump\t// out\n        /* \"#utility.yul\":4222:4321   */\n    tag_76:\n        /* \"#utility.yul\":4274:4280   */\n      0x00\n        /* \"#utility.yul\":4308:4313   */\n      dup2\n        /* \"#utility.yul\":4302:4314   */\n      mload\n        /* \"#utility.yul\":4292:4314   */\n      swap1\n      pop\n        /* \"#utility.yul\":4222:4321   */\n      swap2\n      swap1\n      pop\n      jump\t// out\n        /* \"#utility.yul\":4327:4486   */\n    tag_77:\n        /* \"#utility.yul\":4401:4412   */\n      0x00\n        /* \"#utility.yul\":4435:4441   */\n      dup3\n        /* \"#utility.yul\":4430:4433   */\n      dup3\n        /* \"#utility.yul\":4423:4442   */\n      mstore\n        /* \"#utility.yul\":4475:4479   */\n      0x20\n        /* \"#utility.yul\":4470:4473   */\n      dup3\n        /* \"#utility.yul\":4466:4480   */\n      add\n        /* \"#utility.yul\":4451:4480   */\n      swap1\n      pop\n        /* \"#utility.yul\":4327:4486   */\n      swap3\n      swap2\n      pop\n      pop\n      jump\t// out\n        /* \"#utility.yul\":4492:4738   */\n    tag_78:\n        /* \"#utility.yul\":4573:4574   */\n      0x00\n        /* \"#utility.yul\":4583:4696   */\n    tag_152:\n        /* \"#utility.yul\":4597:4603   */\n      dup4\n        /* \"#utility.yul\":4594:4595   */\n      dup2\n        /* \"#utility.yul\":4591:4604   */\n      lt\n        /* \"#utility.yul\":4583:4696   */\n      iszero\n      tag_154\n      jumpi\n        /* \"#utility.yul\":4682:4683   */\n      dup1\n        /* \"#utility.yul\":4677:4680   */\n      dup3\n        /* \"#utility.yul\":4673:4684   */\n      add\n        /* \"#utility.yul\":4667:4685   */\n      mload\n        /* \"#utility.yul\":4663:4664   */\n      dup2\n        /* \"#utility.yul\":4658:4661   */\n      dup5\n        /* \"#utility.yul\":4654:4665   */\n      add\n        /* \"#utility.yul\":4647:4686   */\n      mstore\n        /* \"#utility.yul\":4619:4621   */\n      0x20\n        /* \"#utility.yul\":4616:4617   */\n      dup2\n        /* \"#utility.yul\":4612:4622   */\n      add\n        /* \"#utility.yul\":4607:4622   */\n      swap1\n      pop\n        /* \"#utility.yul\":4583:4696   */\n      jump(tag_152)\n    tag_154:\n        /* \"#utility.yul\":4730:4731   */\n      0x00\n        /* \"#utility.yul\":4721:4727   */\n      dup5\n        /* \"#utility.yul\":4716:4719   */\n      dup5\n        /* \"#utility.yul\":4712:4728   */\n      add\n        /* \"#utility.yul\":4705:4732   */\n      mstore\n        /* \"#utility.yul\":4554:4738   */\n      pop\n        /* \"#utility.yul\":4492:4738   */\n      pop\n      pop\n      pop\n      jump\t// out\n        /* \"#utility.yul\":4744:5101   */\n    tag_79:\n        /* \"#utility.yul\":4822:4825   */\n      0x00\n        /* \"#utility.yul\":4850:4889   */\n      tag_156\n        /* \"#utility.yul\":4883:4888   */\n      dup3\n        /* \"#utility.yul\":4850:4889   */\n      tag_76\n      jump\t// in\n    tag_156:\n        /* \"#utility.yul\":4905:4966   */\n      tag_157\n        /* \"#utility.yul\":4959:4965   */\n      dup2\n        /* \"#utility.yul\":4954:4957   */\n      dup6\n        /* \"#utility.yul\":4905:4966   */\n      tag_77\n      jump\t// in\n    tag_157:\n        /* \"#utility.yul\":4898:4966   */\n      swap4\n      pop\n        /* \"#utility.yul\":4975:5040   */\n      tag_158\n        /* \"#utility.yul\":5033:5039   */\n      dup2\n        /* \"#utility.yul\":5028:5031   */\n      dup6\n        /* \"#utility.yul\":5021:5025   */\n      0x20\n        /* \"#utility.yul\":5014:5019   */\n      dup7\n        /* \"#utility.yul\":5010:5026   */\n      add\n        /* \"#utility.yul\":4975:5040   */\n      tag_78\n      jump\t// in\n    tag_158:\n        /* \"#utility.yul\":5065:5094   */\n      tag_159\n        /* \"#utility.yul\":5087:5093   */\n      dup2\n        /* \"#utility.yul\":5065:5094   */\n      tag_68\n      jump\t// in\n    tag_159:\n        /* \"#utility.yul\":5060:5063   */\n      dup5\n        /* \"#utility.yul\":5056:5095   */\n      add\n        /* \"#utility.yul\":5049:5095   */\n      swap2\n      pop\n        /* \"#utility.yul\":4826:5101   */\n      pop\n        /* \"#utility.yul\":4744:5101   */\n      swap3\n      swap2\n      pop\n      pop\n      jump\t// out\n        /* \"#utility.yul\":5107:5209   */\n    tag_80:\n        /* \"#utility.yul\":5180:5202   */\n      tag_161\n        /* \"#utility.yul\":5196:5201   */\n      dup2\n        /* \"#utility.yul\":5180:5202   */\n      tag_63\n      jump\t// in\n    tag_161:\n        /* \"#utility.yul\":5175:5178   */\n      dup3\n        /* \"#utility.yul\":5168:5203   */\n      mstore\n        /* \"#utility.yul\":5107:5209   */\n      pop\n      pop\n      jump\t// out\n        /* \"#utility.yul\":5249:6082   */\n    tag_81:\n        /* \"#utility.yul\":5356:5359   */\n      0x00\n        /* \"#utility.yul\":5392:5396   */\n      0x60\n        /* \"#utility.yul\":5387:5390   */\n      dup4\n        /* \"#utility.yul\":5383:5397   */\n      add\n        /* \"#utility.yul\":5479:5483   */\n      0x00\n        /* \"#utility.yul\":5472:5477   */\n      dup4\n        /* \"#utility.yul\":5468:5484   */\n      add\n        /* \"#utility.yul\":5462:5485   */\n      mload\n        /* \"#utility.yul\":5532:5535   */\n      dup5\n        /* \"#utility.yul\":5526:5530   */\n      dup3\n        /* \"#utility.yul\":5522:5536   */\n      sub\n        /* \"#utility.yul\":5515:5519   */\n      0x00\n        /* \"#utility.yul\":5510:5513   */\n      dup7\n        /* \"#utility.yul\":5506:5520   */\n      add\n        /* \"#utility.yul\":5499:5537   */\n      mstore\n        /* \"#utility.yul\":5558:5631   */\n      tag_163\n        /* \"#utility.yul\":5626:5630   */\n      dup3\n        /* \"#utility.yul\":5612:5624   */\n      dup3\n        /* \"#utility.yul\":5558:5631   */\n      tag_79\n      jump\t// in\n    tag_163:\n        /* \"#utility.yul\":5550:5631   */\n      swap2\n      pop\n        /* \"#utility.yul\":5407:5642   */\n      pop\n        /* \"#utility.yul\":5723:5727   */\n      0x20\n        /* \"#utility.yul\":5716:5721   */\n      dup4\n        /* \"#utility.yul\":5712:5728   */\n      add\n        /* \"#utility.yul\":5706:5729   */\n      mload\n        /* \"#utility.yul\":5742:5801   */\n      tag_164\n        /* \"#utility.yul\":5795:5799   */\n      0x20\n        /* \"#utility.yul\":5790:5793   */\n      dup7\n        /* \"#utility.yul\":5786:5800   */\n      add\n        /* \"#utility.yul\":5772:5784   */\n      dup3\n        /* \"#utility.yul\":5742:5801   */\n      tag_80\n      jump\t// in\n    tag_164:\n        /* \"#utility.yul\":5652:5811   */\n      pop\n        /* \"#utility.yul\":5892:5896   */\n      0x40\n        /* \"#utility.yul\":5885:5890   */\n      dup4\n        /* \"#utility.yul\":5881:5897   */\n      add\n        /* \"#utility.yul\":5875:5898   */\n      mload\n        /* \"#utility.yul\":5945:5948   */\n      dup5\n        /* \"#utility.yul\":5939:5943   */\n      dup3\n        /* \"#utility.yul\":5935:5949   */\n      sub\n        /* \"#utility.yul\":5928:5932   */\n      0x40\n        /* \"#utility.yul\":5923:5926   */\n      dup7\n        /* \"#utility.yul\":5919:5933   */\n      add\n        /* \"#utility.yul\":5912:5950   */\n      mstore\n        /* \"#utility.yul\":5971:6044   */\n      tag_165\n        /* \"#utility.yul\":6039:6043   */\n      dup3\n        /* \"#utility.yul\":6025:6037   */\n      dup3\n        /* \"#utility.yul\":5971:6044   */\n      tag_79\n      jump\t// in\n    tag_165:\n        /* \"#utility.yul\":5963:6044   */\n      swap2\n      pop\n        /* \"#utility.yul\":5821:6055   */\n      pop\n        /* \"#utility.yul\":6072:6076   */\n      dup1\n        /* \"#utility.yul\":6065:6076   */\n      swap2\n      pop\n        /* \"#utility.yul\":5361:6082   */\n      pop\n        /* \"#utility.yul\":5249:6082   */\n      swap3\n      swap2\n      pop\n      pop\n      jump\t// out\n        /* \"#utility.yul\":6088:6437   */\n    tag_25:\n        /* \"#utility.yul\":6219:6223   */\n      0x00\n        /* \"#utility.yul\":6257:6259   */\n      0x20\n        /* \"#utility.yul\":6246:6255   */\n      dup3\n        /* \"#utility.yul\":6242:6260   */\n      add\n        /* \"#utility.yul\":6234:6260   */\n      swap1\n      pop\n        /* \"#utility.yul\":6306:6315   */\n      dup2\n        /* \"#utility.yul\":6300:6304   */\n      dup2\n        /* \"#utility.yul\":6296:6316   */\n      sub\n        /* \"#utility.yul\":6292:6293   */\n      0x00\n        /* \"#utility.yul\":6281:6290   */\n      dup4\n        /* \"#utility.yul\":6277:6294   */\n      add\n        /* \"#utility.yul\":6270:6317   */\n      mstore\n        /* \"#utility.yul\":6334:6430   */\n      tag_167\n        /* \"#utility.yul\":6425:6429   */\n      dup2\n        /* \"#utility.yul\":6416:6422   */\n      dup5\n        /* \"#utility.yul\":6334:6430   */\n      tag_81\n      jump\t// in\n    tag_167:\n        /* \"#utility.yul\":6326:6430   */\n      swap1\n      pop\n        /* \"#utility.yul\":6088:6437   */\n      swap3\n      swap2\n      pop\n      pop\n      jump\t// out\n        /* \"#utility.yul\":6443:6623   */\n    tag_82:\n        /* \"#utility.yul\":6491:6568   */\n      0x4e487b7100000000000000000000000000000000000000000000000000000000\n        /* \"#utility.yul\":6488:6489   */\n      0x00\n        /* \"#utility.yul\":6481:6569   */\n      mstore\n        /* \"#utility.yul\":6588:6592   */\n      0x22\n        /* \"#utility.yul\":6585:6586   */\n      0x04\n        /* \"#utility.yul\":6578:6593   */\n      mstore\n        /* \"#utility.yul\":6612:6616   */\n      0x24\n        /* \"#utility.yul\":6609:6610   */\n      0x00\n        /* \"#utility.yul\":6602:6617   */\n      revert\n        /* \"#utility.yul\":6629:6949   */\n    tag_36:\n        /* \"#utility.yul\":6673:6679   */\n      0x00\n        /* \"#utility.yul\":6710:6711   */\n      0x02\n        /* \"#utility.yul\":6704:6708   */\n      dup3\n        /* \"#utility.yul\":6700:6712   */\n      div\n        /* \"#utility.yul\":6690:6712   */\n      swap1\n      pop\n        /* \"#utility.yul\":6757:6758   */\n      0x01\n        /* \"#utility.yul\":6751:6755   */\n      dup3\n        /* \"#utility.yul\":6747:6759   */\n      and\n        /* \"#utility.yul\":6778:6796   */\n      dup1\n        /* \"#utility.yul\":6768:6849   */\n      tag_170\n      jumpi\n        /* \"#utility.yul\":6834:6838   */\n      0x7f\n        /* \"#utility.yul\":6826:6832   */\n      dup3\n        /* \"#utility.yul\":6822:6839   */\n      and\n        /* \"#utility.yul\":6812:6839   */\n      swap2\n      pop\n        /* \"#utility.yul\":6768:6849   */\n    tag_170:\n        /* \"#utility.yul\":6896:6898   */\n      0x20\n        /* \"#utility.yul\":6888:6894   */\n      dup3\n        /* \"#utility.yul\":6885:6899   */\n      lt\n        /* \"#utility.yul\":6865:6883   */\n      dup2\n        /* \"#utility.yul\":6862:6900   */\n      sub\n        /* \"#utility.yul\":6859:6943   */\n      tag_171\n      jumpi\n        /* \"#utility.yul\":6915:6933   */\n      tag_172\n      tag_82\n      jump\t// in\n    tag_172:\n        /* \"#utility.yul\":6859:6943   */\n    tag_171:\n        /* \"#utility.yul\":6680:6949   */\n      pop\n        /* \"#utility.yul\":6629:6949   */\n      swap2\n      swap1\n      pop\n      jump\t// out\n        /* \"#utility.yul\":6955:7096   */\n    tag_83:\n        /* \"#utility.yul\":7004:7008   */\n      0x00\n        /* \"#utility.yul\":7027:7030   */\n      dup2\n        /* \"#utility.yul\":7019:7030   */\n      swap1\n      pop\n        /* \"#utility.yul\":7050:7053   */\n      dup2\n        /* \"#utility.yul\":7047:7048   */\n      0x00\n        /* \"#utility.yul\":7040:7054   */\n      mstore\n        /* \"#utility.yul\":7084:7088   */\n      0x20\n        /* \"#utility.yul\":7081:7082   */\n      0x00\n        /* \"#utility.yul\":7071:7089   */\n      keccak256\n        /* \"#utility.yul\":7063:7089   */\n      swap1\n      pop\n        /* \"#utility.yul\":6955:7096   */\n      swap2\n      swap1\n      pop\n      jump\t// out\n        /* \"#utility.yul\":7102:7195   */\n    tag_84:\n        /* \"#utility.yul\":7139:7145   */\n      0x00\n        /* \"#utility.yul\":7186:7188   */\n      0x20\n        /* \"#utility.yul\":7181:7183   */\n      0x1f\n        /* \"#utility.yul\":7174:7179   */\n      dup4\n        /* \"#utility.yul\":7170:7184   */\n      add\n        /* \"#utility.yul\":7166:7189   */\n      div\n        /* \"#utility.yul\":7156:7189   */\n      swap1\n      pop\n        /* \"#utility.yul\":7102:7195   */\n      swap2\n      swap1\n      pop\n      jump\t// out\n        /* \"#utility.yul\":7201:7308   */\n    tag_85:\n        /* \"#utility.yul\":7245:7253   */\n      0x00\n        /* \"#utility.yul\":7295:7300   */\n      dup3\n        /* \"#utility.yul\":7289:7293   */\n      dup3\n        /* \"#utility.yul\":7285:7301   */\n      shl\n        /* \"#utility.yul\":7264:7301   */\n      swap1\n      pop\n        /* \"#utility.yul\":7201:7308   */\n      swap3\n      swap2\n      pop\n      pop\n      jump\t// out\n        /* \"#utility.yul\":7314:7707   */\n    tag_86:\n        /* \"#utility.yul\":7383:7389   */\n      0x00\n        /* \"#utility.yul\":7433:7434   */\n      0x08\n        /* \"#utility.yul\":7421:7431   */\n      dup4\n        /* \"#utility.yul\":7417:7435   */\n      mul\n        /* \"#utility.yul\":7456:7553   */\n      tag_177\n        /* \"#utility.yul\":7486:7552   */\n      0xffffffffffffffffffffffffffffffffffffffffffffffffffffffffffffffff\n        /* \"#utility.yul\":7475:7484   */\n      dup3\n        /* \"#utility.yul\":7456:7553   */\n      tag_85\n      jump\t// in\n    tag_177:\n        /* \"#utility.yul\":7574:7613   */\n      tag_178\n        /* \"#utility.yul\":7604:7612   */\n      dup7\n        /* \"#utility.yul\":7593:7602   */\n      dup4\n        /* \"#utility.yul\":7574:7613   */\n      tag_85\n      jump\t// in\n    tag_178:\n        /* \"#utility.yul\":7562:7613   */\n      swap6\n      pop\n        /* \"#utility.yul\":7646:7650   */\n      dup1\n        /* \"#utility.yul\":7642:7651   */\n      not\n        /* \"#utility.yul\":7635:7640   */\n      dup5\n        /* \"#utility.yul\":7631:7652   */\n      and\n        /* \"#utility.yul\":7622:7652   */\n      swap4\n      pop\n        /* \"#utility.yul\":7695:7699   */\n      dup1\n        /* \"#utility.yul\":7685:7693   */\n      dup7\n        /* \"#utility.yul\":7681:7700   */\n      and\n        /* \"#utility.yul\":7674:7679   */\n      dup5\n        /* \"#utility.yul\":7671:7701   */\n      or\n        /* \"#utility.yul\":7661:7701   */\n      swap3\n      pop\n        /* \"#utility.yul\":7390:7707   */\n      pop\n      pop\n        /* \"#utility.yul\":7314:7707   */\n      swap4\n      swap3\n      pop\n      pop\n      pop\n      jump\t// out\n        /* \"#utility.yul\":7713:7790   */\n    tag_87:\n        /* \"#utility.yul\":7750:7757   */\n      0x00\n        /* \"#utility.yul\":7779:7784   */\n      dup2\n        /* \"#utility.yul\":7768:7784   */\n      swap1\n      pop\n        /* \"#utility.yul\":7713:7790   */\n      swap2\n      swap1\n      pop\n      jump\t// out\n        /* \"#utility.yul\":7796:7856   */\n    tag_88:\n        /* \"#utility.yul\":7824:7827   */\n      0x00\n        /* \"#utility.yul\":7845:7850   */\n      dup2\n        /* \"#utility.yul\":7838:7850   */\n      swap1\n      pop\n        /* \"#utility.yul\":7796:7856   */\n      swap2\n      swap1\n      pop\n      jump\t// out\n        /* \"#utility.yul\":7862:8004   */\n    tag_89:\n        /* \"#utility.yul\":7912:7921   */\n      0x00\n        /* \"#utility.yul\":7945:7998   */\n      tag_182\n        /* \"#utility.yul\":7963:7997   */\n      tag_183\n        /* \"#utility.yul\":7972:7996   */\n      tag_184\n        /* \"#utility.yul\":7990:7995   */\n      dup5\n        /* \"#utility.yul\":7972:7996   */\n      tag_87\n      jump\t// in\n    tag_184:\n        /* \"#utility.yul\":7963:7997   */\n      tag_88\n      jump\t// in\n    tag_183:\n        /* \"#utility.yul\":7945:7998   */\n      tag_87\n      jump\t// in\n    tag_182:\n        /* \"#utility.yul\":7932:7998   */\n      swap1\n      pop\n        /* \"#utility.yul\":7862:8004   */\n      swap2\n      swap1\n      pop\n      jump\t// out\n        /* \"#utility.yul\":8010:8085   */\n    tag_90:\n        /* \"#utility.yul\":8053:8056   */\n      0x00\n        /* \"#utility.yul\":8074:8079   */\n      dup2\n        /* \"#utility.yul\":8067:8079   */\n      swap1\n      pop\n        /* \"#utility.yul\":8010:8085   */\n      swap2\n      swap1\n      pop\n      jump\t// out\n        /* \"#utility.yul\":8091:8360   */\n    tag_91:\n        /* \"#utility.yul\":8201:8240   */\n      tag_187\n        /* \"#utility.yul\":8232:8239   */\n      dup4\n        /* \"#utility.yul\":8201:8240   */\n      tag_89\n      jump\t// in\n    tag_187:\n        /* \"#utility.yul\":8262:8353   */\n      tag_188\n        /* \"#utility.yul\":8311:8352   */\n      tag_189\n        /* \"#utility.yul\":8335:8351   */\n      dup3\n        /* \"#utility.yul\":8311:8352   */\n      tag_90\n      jump\t// in\n    tag_189:\n        /* \"#utility.yul\":8303:8309   */\n      dup5\n        /* \"#utility.yul\":8296:8300   */\n      dup5\n        /* \"#utility.yul\":8290:8301   */\n      sload\n        /* \"#utility.yul\":8262:8353   */\n      tag_86\n      jump\t// in\n    tag_188:\n        /* \"#utility.yul\":8256:8260   */\n      dup3\n        /* \"#utility.yul\":8249:8354   */\n      sstore\n        /* \"#utility.yul\":8167:8360   */\n      pop\n        /* \"#utility.yul\":8091:8360   */\n      pop\n      pop\n      pop\n      jump\t// out\n        /* \"#utility.yul\":8366:8439   */\n    tag_92:\n        /* \"#utility.yul\":8411:8414   */\n      0x00\n        /* \"#utility.yul\":8366:8439   */\n      swap1\n      jump\t// out\n        /* \"#utility.yul\":8445:8634   */\n    tag_93:\n        /* \"#utility.yul\":8522:8554   */\n      tag_192\n      tag_92\n      jump\t// in\n    tag_192:\n        /* \"#utility.yul\":8563:8628   */\n      tag_193\n        /* \"#utility.yul\":8621:8627   */\n      dup2\n        /* \"#utility.yul\":8613:8619   */\n      dup5\n        /* \"#utility.yul\":8607:8611   */\n      dup5\n        /* \"#utility.yul\":8563:8628   */\n      tag_91\n      jump\t// in\n    tag_193:\n        /* \"#utility.yul\":8498:8634   */\n      pop\n        /* \"#utility.yul\":8445:8634   */\n      pop\n      pop\n      jump\t// out\n        /* \"#utility.yul\":8640:8826   */\n    tag_94:\n        /* \"#utility.yul\":8700:8820   */\n    tag_195:\n        /* \"#utility.yul\":8717:8720   */\n      dup2\n        /* \"#utility.yul\":8710:8715   */\n      dup2\n        /* \"#utility.yul\":8707:8721   */\n      lt\n        /* \"#utility.yul\":8700:8820   */\n      iszero\n      tag_197\n      jumpi\n        /* \"#utility.yul\":8771:8810   */\n      tag_198\n        /* \"#utility.yul\":8808:8809   */\n      0x00\n        /* \"#utility.yul\":8801:8806   */\n      dup3\n        /* \"#utility.yul\":8771:8810   */\n      tag_93\n      jump\t// in\n    tag_198:\n        /* \"#utility.yul\":8744:8745   */\n      0x01\n        /* \"#utility.yul\":8737:8742   */\n      dup2\n        /* \"#utility.yul\":8733:8746   */\n      add\n        /* \"#utility.yul\":8724:8746   */\n      swap1\n      pop\n        /* \"#utility.yul\":8700:8820   */\n      jump(tag_195)\n    tag_197:\n        /* \"#utility.yul\":8640:8826   */\n      pop\n      pop\n      jump\t// out\n        /* \"#utility.yul\":8832:9375   */\n    tag_95:\n        /* \"#utility.yul\":8933:8935   */\n      0x1f\n        /* \"#utility.yul\":8928:8931   */\n      dup3\n        /* \"#utility.yul\":8925:8936   */\n      gt\n        /* \"#utility.yul\":8922:9368   */\n      iszero\n      tag_200\n      jumpi\n        /* \"#utility.yul\":8967:9005   */\n      tag_201\n        /* \"#utility.yul\":8999:9004   */\n      dup2\n        /* \"#utility.yul\":8967:9005   */\n      tag_83\n      jump\t// in\n    tag_201:\n        /* \"#utility.yul\":9051:9080   */\n      tag_202\n        /* \"#utility.yul\":9069:9079   */\n      dup5\n        /* \"#utility.yul\":9051:9080   */\n      tag_84\n      jump\t// in\n    tag_202:\n        /* \"#utility.yul\":9041:9049   */\n      dup2\n        /* \"#utility.yul\":9037:9081   */\n      add\n        /* \"#utility.yul\":9234:9236   */\n      0x20\n        /* \"#utility.yul\":9222:9232   */\n      dup6\n        /* \"#utility.yul\":9219:9237   */\n      lt\n        /* \"#utility.yul\":9216:9265   */\n      iszero\n      tag_203\n      jumpi\n        /* \"#utility.yul\":9255:9263   */\n      dup2\n        /* \"#utility.yul\":9240:9263   */\n      swap1\n      pop\n        /* \"#utility.yul\":9216:9265   */\n    tag_203:\n        /* \"#utility.yul\":9278:9358   */\n      tag_204\n        /* \"#utility.yul\":9334:9356   */\n      tag_205\n        /* \"#utility.yul\":9352:9355   */\n      dup6\n        /* \"#utility.yul\":9334:9356   */\n      tag_84\n      jump\t// in\n    tag_205:\n        /* \"#utility.yul\":9324:9332   */\n      dup4\n        /* \"#utility.yul\":9320:9357   */\n      add\n        /* \"#utility.yul\":9307:9318   */\n      dup3\n        /* \"#utility.yul\":9278:9358   */\n      tag_94\n      jump\t// in\n    tag_204:\n        /* \"#utility.yul\":8937:9368   */\n      pop\n      pop\n        /* \"#utility.yul\":8922:9368   */\n    tag_200:\n        /* \"#utility.yul\":8832:9375   */\n      pop\n      pop\n      pop\n      jump\t// out\n        /* \"#utility.yul\":9381:9498   */\n    tag_96:\n        /* \"#utility.yul\":9435:9443   */\n      0x00\n        /* \"#utility.yul\":9485:9490   */\n      dup3\n        /* \"#utility.yul\":9479:9483   */\n      dup3\n        /* \"#utility.yul\":9475:9491   */\n      shr\n        /* \"#utility.yul\":9454:9491   */\n      swap1\n      pop\n        /* \"#utility.yul\":9381:9498   */\n      swap3\n      swap2\n      pop\n      pop\n      jump\t// out\n        /* \"#utility.yul\":9504:9673   */\n    tag_97:\n        /* \"#utility.yul\":9548:9554   */\n      0x00\n        /* \"#utility.yul\":9581:9632   */\n      tag_208\n        /* \"#utility.yul\":9629:9630   */\n      0x00\n        /* \"#utility.yul\":9625:9631   */\n      not\n        /* \"#utility.yul\":9617:9622   */\n      dup5\n        /* \"#utility.yul\":9614:9615   */\n      0x08\n        /* \"#utility.yul\":9610:9623   */\n      mul\n        /* \"#utility.yul\":9581:9632   */\n      tag_96\n      jump\t// in\n    tag_208:\n        /* \"#utility.yul\":9577:9633   */\n      not\n        /* \"#utility.yul\":9662:9666   */\n      dup1\n        /* \"#utility.yul\":9656:9660   */\n      dup4\n        /* \"#utility.yul\":9652:9667   */\n      and\n        /* \"#utility.yul\":9642:9667   */\n      swap2\n      pop\n        /* \"#utility.yul\":9555:9673   */\n      pop\n        /* \"#utility.yul\":9504:9673   */\n      swap3\n      swap2\n      pop\n      pop\n      jump\t// out\n        /* \"#utility.yul\":9678:9973   */\n    tag_98:\n        /* \"#utility.yul\":9754:9758   */\n      0x00\n        /* \"#utility.yul\":9900:9929   */\n      tag_210\n        /* \"#utility.yul\":9925:9928   */\n      dup4\n        /* \"#utility.yul\":9919:9923   */\n      dup4\n        /* \"#utility.yul\":9900:9929   */\n      tag_97\n      jump\t// in\n    tag_210:\n        /* \"#utility.yul\":9892:9929   */\n      swap2\n      pop\n        /* \"#utility.yul\":9962:9965   */\n      dup3\n        /* \"#utility.yul\":9959:9960   */\n      0x02\n        /* \"#utility.yul\":9955:9966   */\n      mul\n        /* \"#utility.yul\":9949:9953   */\n      dup3\n        /* \"#utility.yul\":9946:9967   */\n      or\n        /* \"#utility.yul\":9938:9967   */\n      swap1\n      pop\n        /* \"#utility.yul\":9678:9973   */\n      swap3\n      swap2\n      pop\n      pop\n      jump\t// out\n        /* \"#utility.yul\":9978:11373   */\n    tag_29:\n        /* \"#utility.yul\":10095:10132   */\n      tag_212\n        /* \"#utility.yul\":10128:10131   */\n      dup3\n        /* \"#utility.yul\":10095:10132   */\n      tag_76\n      jump\t// in\n    tag_212:\n        /* \"#utility.yul\":10197:10215   */\n      0xffffffffffffffff\n        /* \"#utility.yul\":10189:10195   */\n      dup2\n        /* \"#utility.yul\":10186:10216   */\n      gt\n        /* \"#utility.yul\":10183:10239   */\n      iszero\n      tag_213\n      jumpi\n        /* \"#utility.yul\":10219:10237   */\n      tag_214\n      tag_69\n      jump\t// in\n    tag_214:\n        /* \"#utility.yul\":10183:10239   */\n    tag_213:\n        /* \"#utility.yul\":10263:10301   */\n      tag_215\n        /* \"#utility.yul\":10295:10299   */\n      dup3\n        /* \"#utility.yul\":10289:10300   */\n      sload\n        /* \"#utility.yul\":10263:10301   */\n      tag_36\n      jump\t// in\n    tag_215:\n        /* \"#utility.yul\":10348:10415   */\n      tag_216\n        /* \"#utility.yul\":10408:10414   */\n      dup3\n        /* \"#utility.yul\":10400:10406   */\n      dup3\n        /* \"#utility.yul\":10394:10398   */\n      dup6\n        /* \"#utility.yul\":10348:10415   */\n      tag_95\n      jump\t// in\n    tag_216:\n        /* \"#utility.yul\":10442:10443   */\n      0x00\n        /* \"#utility.yul\":10466:10470   */\n      0x20\n        /* \"#utility.yul\":10453:10470   */\n      swap1\n      pop\n        /* \"#utility.yul\":10498:10500   */\n      0x1f\n        /* \"#utility.yul\":10490:10496   */\n      dup4\n        /* \"#utility.yul\":10487:10501   */\n      gt\n        /* \"#utility.yul\":10515:10516   */\n      0x01\n        /* \"#utility.yul\":10510:11128   */\n      dup2\n      eq\n      tag_218\n      jumpi\n        /* \"#utility.yul\":11172:11173   */\n      0x00\n        /* \"#utility.yul\":11189:11195   */\n      dup5\n        /* \"#utility.yul\":11186:11263   */\n      iszero\n      tag_219\n      jumpi\n        /* \"#utility.yul\":11238:11247   */\n      dup3\n        /* \"#utility.yul\":11233:11236   */\n      dup8\n        /* \"#utility.yul\":11229:11248   */\n      add\n        /* \"#utility.yul\":11223:11249   */\n      mload\n        /* \"#utility.yul\":11214:11249   */\n      swap1\n      pop\n        /* \"#utility.yul\":11186:11263   */\n    tag_219:\n        /* \"#utility.yul\":11289:11356   */\n      tag_220\n        /* \"#utility.yul\":11349:11355   */\n      dup6\n        /* \"#utility.yul\":11342:11347   */\n      dup3\n        /* \"#utility.yul\":11289:11356   */\n      tag_98\n      jump\t// in\n    tag_220:\n        /* \"#utility.yul\":11283:11287   */\n      dup7\n        /* \"#utility.yul\":11276:11357   */\n      sstore\n        /* \"#utility.yul\":11145:11367   */\n      pop\n        /* \"#utility.yul\":10480:11367   */\n      jump(tag_217)\n        /* \"#utility.yul\":10510:11128   */\n    tag_218:\n        /* \"#utility.yul\":10562:10566   */\n      0x1f\n        /* \"#utility.yul\":10558:10567   */\n      not\n        /* \"#utility.yul\":10550:10556   */\n      dup5\n        /* \"#utility.yul\":10546:10568   */\n      and\n        /* \"#utility.yul\":10596:10633   */\n      tag_221\n        /* \"#utility.yul\":10628:10632   */\n      dup7\n        /* \"#utility.yul\":10596:10633   */\n      tag_83\n      jump\t// in\n    tag_221:\n        /* \"#utility.yul\":10655:10656   */\n      0x00\n        /* \"#utility.yul\":10669:10877   */\n    tag_222:\n        /* \"#utility.yul\":10683:10690   */\n      dup3\n        /* \"#utility.yul\":10680:10681   */\n      dup2\n        /* \"#utility.yul\":10677:10691   */\n      lt\n        /* \"#utility.yul\":10669:10877   */\n      iszero\n      tag_224\n      jumpi\n        /* \"#utility.yul\":10762:10771   */\n      dup5\n        /* \"#utility.yul\":10757:10760   */\n      dup10\n        /* \"#utility.yul\":10753:10772   */\n      add\n        /* \"#utility.yul\":10747:10773   */\n      mload\n        /* \"#utility.yul\":10739:10745   */\n      dup3\n        /* \"#utility.yul\":10732:10774   */\n      sstore\n        /* \"#utility.yul\":10813:10814   */\n      0x01\n        /* \"#utility.yul\":10805:10811   */\n      dup3\n        /* \"#utility.yul\":10801:10815   */\n      add\n        /* \"#utility.yul\":10791:10815   */\n      swap2\n      pop\n        /* \"#utility.yul\":10860:10862   */\n      0x20\n        /* \"#utility.yul\":10849:10858   */\n      dup6\n        /* \"#utility.yul\":10845:10863   */\n      add\n        /* \"#utility.yul\":10832:10863   */\n      swap5\n      pop\n        /* \"#utility.yul\":10706:10710   */\n      0x20\n        /* \"#utility.yul\":10703:10704   */\n      dup2\n        /* \"#utility.yul\":10699:10711   */\n      add\n        /* \"#utility.yul\":10694:10711   */\n      swap1\n      pop\n        /* \"#utility.yul\":10669:10877   */\n      jump(tag_222)\n    tag_224:\n        /* \"#utility.yul\":10905:10911   */\n      dup7\n        /* \"#utility.yul\":10896:10903   */\n      dup4\n        /* \"#utility.yul\":10893:10912   */\n      lt\n        /* \"#utility.yul\":10890:11069   */\n      iszero\n      tag_225\n      jumpi\n        /* \"#utility.yul\":10963:10972   */\n      dup5\n        /* \"#utility.yul\":10958:10961   */\n      dup10\n        /* \"#utility.yul\":10954:10973   */\n      add\n        /* \"#utility.yul\":10948:10974   */\n      mload\n        /* \"#utility.yul\":11006:11054   */\n      tag_226\n        /* \"#utility.yul\":11048:11052   */\n      0x1f\n        /* \"#utility.yul\":11040:11046   */\n      dup10\n        /* \"#utility.yul\":11036:11053   */\n      and\n        /* \"#utility.yul\":11025:11034   */\n      dup3\n        /* \"#utility.yul\":11006:11054   */\n      tag_97\n      jump\t// in\n    tag_226:\n        /* \"#utility.yul\":10998:11004   */\n      dup4\n        /* \"#utility.yul\":10991:11055   */\n      sstore\n        /* \"#utility.yul\":10913:11069   */\n      pop\n        /* \"#utility.yul\":10890:11069   */\n    tag_225:\n        /* \"#utility.yul\":11115:11116   */\n      0x01\n        /* \"#utility.yul\":11111:11112   */\n      0x02\n        /* \"#utility.yul\":11103:11109   */\n      dup9\n        /* \"#utility.yul\":11099:11113   */\n      mul\n        /* \"#utility.yul\":11095:11117   */\n      add\n        /* \"#utility.yul\":11089:11093   */\n      dup9\n        /* \"#utility.yul\":11082:11118   */\n      sstore\n        /* \"#utility.yul\":10517:11128   */\n      pop\n      pop\n      pop\n        /* \"#utility.yul\":10480:11367   */\n    tag_217:\n      pop\n        /* \"#utility.yul\":10070:11373   */\n      pop\n      pop\n      pop\n        /* \"#utility.yul\":9978:11373   */\n      pop\n      pop\n      jump\t// out\n\n    auxdata: 0xa2646970667358221220f9b0de74ce61c01a9b952ed38efb323b91ce29ed3caaf769e7d37770346a593964736f6c63430008120033\n}\n",
				"bytecode": {
					"linkReferences": {},
					"object": "608060405234801561001057600080fd5b50610ada806100206000396000f3fe608060405234801561001057600080fd5b50600436106100575760003560e01c806316a239561461005c5780632d1ca992146100785780634897089e146100945780636835d01e146100b0578063832880e7146100cc575b600080fd5b610076600480360381019061007191906104b7565b6100ea565b005b610092600480360381019061008d919061062a565b61010d565b005b6100ae60048036038101906100a991906104b7565b610155565b005b6100ca60048036038101906100c591906104b7565b610163565b005b6100d46102ca565b6040516100e1919061079a565b60405180910390f35b6000818160010160006101000a81548160ff021916908360ff1602179055505050565b8260008001908161011e91906109d2565b5081600060010160006101000a81548160ff021916908360ff160217905550806000600201908161014f91906109d2565b50505050565b610160600082610425565b50565b600080604051806060016040529081600082018054610181906107eb565b80601f01602080910402602001604051908101604052809291908181526020018280546101ad906107eb565b80156101fa5780601f106101cf576101008083540402835291602001916101fa565b820191906000526020600020905b8154815290600101906020018083116101dd57829003601f168201915b505050505081526020016001820160009054906101000a900460ff1660ff1660ff168152602001600282018054610230906107eb565b80601f016020809104026020016040519081016040528092919081815260200182805461025c906107eb565b80156102a95780601f1061027e576101008083540402835291602001916102a9565b820191906000526020600020905b81548152906001019060200180831161028c57829003601f168201915b505050505081525050905081816020019060ff16908160ff16815250505050565b6102d2610446565b60006040518060600160405290816000820180546102ef906107eb565b80601f016020809104026020016040519081016040528092919081815260200182805461031b906107eb565b80156103685780601f1061033d57610100808354040283529160200191610368565b820191906000526020600020905b81548152906001019060200180831161034b57829003601f168201915b505050505081526020016001820160009054906101000a900460ff1660ff1660ff16815260200160028201805461039e906107eb565b80601f01602080910402602001604051908101604052809291908181526020018280546103ca906107eb565b80156104175780601f106103ec57610100808354040283529160200191610417565b820191906000526020600020905b8154815290600101906020018083116103fa57829003601f168201915b505050505081525050905090565b808260010160006101000a81548160ff021916908360ff1602179055505050565b604051806060016040528060608152602001600060ff168152602001606081525090565b6000604051905090565b600080fd5b600080fd5b600060ff82169050919050565b6104948161047e565b811461049f57600080fd5b50565b6000813590506104b18161048b565b92915050565b6000602082840312156104cd576104cc610474565b5b60006104db848285016104a2565b91505092915050565b600080fd5b600080fd5b6000601f19601f8301169050919050565b7f4e487b7100000000000000000000000000000000000000000000000000000000600052604160045260246000fd5b610537826104ee565b810181811067ffffffffffffffff82111715610556576105556104ff565b5b80604052505050565b600061056961046a565b9050610575828261052e565b919050565b600067ffffffffffffffff821115610595576105946104ff565b5b61059e826104ee565b9050602081019050919050565b82818337600083830152505050565b60006105cd6105c88461057a565b61055f565b9050828152602081018484840111156105e9576105e86104e9565b5b6105f48482856105ab565b509392505050565b600082601f830112610611576106106104e4565b5b81356106218482602086016105ba565b91505092915050565b60008060006060848603121561064357610642610474565b5b600084013567ffffffffffffffff81111561066157610660610479565b5b61066d868287016105fc565b935050602061067e868287016104a2565b925050604084013567ffffffffffffffff81111561069f5761069e610479565b5b6106ab868287016105fc565b9150509250925092565b600081519050919050565b600082825260208201905092915050565b60005b838110156106ef5780820151818401526020810190506106d4565b60008484015250505050565b6000610706826106b5565b61071081856106c0565b93506107208185602086016106d1565b610729816104ee565b840191505092915050565b61073d8161047e565b82525050565b6000606083016000830151848203600086015261076082826106fb565b91505060208301516107756020860182610734565b506040830151848203604086015261078d82826106fb565b9150508091505092915050565b600060208201905081810360008301526107b48184610743565b905092915050565b7f4e487b7100000000000000000000000000000000000000000000000000000000600052602260045260246000fd5b6000600282049050600182168061080357607f821691505b602082108103610816576108156107bc565b5b50919050565b60008190508160005260206000209050919050565b60006020601f8301049050919050565b600082821b905092915050565b60006008830261087e7fffffffffffffffffffffffffffffffffffffffffffffffffffffffffffffffff82610841565b6108888683610841565b95508019841693508086168417925050509392505050565b6000819050919050565b6000819050919050565b60006108cf6108ca6108c5846108a0565b6108aa565b6108a0565b9050919050565b6000819050919050565b6108e9836108b4565b6108fd6108f5826108d6565b84845461084e565b825550505050565b600090565b610912610905565b61091d8184846108e0565b505050565b5b818110156109415761093660008261090a565b600181019050610923565b5050565b601f821115610986576109578161081c565b61096084610831565b8101602085101561096f578190505b61098361097b85610831565b830182610922565b50505b505050565b600082821c905092915050565b60006109a96000198460080261098b565b1980831691505092915050565b60006109c28383610998565b9150826002028217905092915050565b6109db826106b5565b67ffffffffffffffff8111156109f4576109f36104ff565b5b6109fe82546107eb565b610a09828285610945565b600060209050601f831160018114610a3c5760008415610a2a578287015190505b610a3485826109b6565b865550610a9c565b601f198416610a4a8661081c565b60005b82811015610a7257848901518255600182019150602085019450602081019050610a4d565b86831015610a8f5784890151610a8b601f891682610998565b8355505b6001600288020188555050505b50505050505056fea2646970667358221220f9b0de74ce61c01a9b952ed38efb323b91ce29ed3caaf769e7d37770346a593964736f6c63430008120033",
					"opcodes": "PUSH1 0x80 PUSH1 0x40 MSTORE CALLVALUE DUP1 ISZERO PUSH2 0x10 JUMPI PUSH1 0x0 DUP1 REVERT JUMPDEST POP PUSH2 0xADA DUP1 PUSH2 0x20 PUSH1 0x0 CODECOPY PUSH1 0x0 RETURN INVALID PUSH1 0x80 PUSH1 0x40 MSTORE CALLVALUE DUP1 ISZERO PUSH2 0x10 JUMPI PUSH1 0x0 DUP1 REVERT JUMPDEST POP PUSH1 0x4 CALLDATASIZE LT PUSH2 0x57 JUMPI PUSH1 0x0 CALLDATALOAD PUSH1 0xE0 SHR DUP1 PUSH4 0x16A23956 EQ PUSH2 0x5C JUMPI DUP1 PUSH4 0x2D1CA992 EQ PUSH2 0x78 JUMPI DUP1 PUSH4 0x4897089E EQ PUSH2 0x94 JUMPI DUP1 PUSH4 0x6835D01E EQ PUSH2 0xB0 JUMPI DUP1 PUSH4 0x832880E7 EQ PUSH2 0xCC JUMPI JUMPDEST PUSH1 0x0 DUP1 REVERT JUMPDEST PUSH2 0x76 PUSH1 0x4 DUP1 CALLDATASIZE SUB DUP2 ADD SWAP1 PUSH2 0x71 SWAP2 SWAP1 PUSH2 0x4B7 JUMP JUMPDEST PUSH2 0xEA JUMP JUMPDEST STOP JUMPDEST PUSH2 0x92 PUSH1 0x4 DUP1 CALLDATASIZE SUB DUP2 ADD SWAP1 PUSH2 0x8D SWAP2 SWAP1 PUSH2 0x62A JUMP JUMPDEST PUSH2 0x10D JUMP JUMPDEST STOP JUMPDEST PUSH2 0xAE PUSH1 0x4 DUP1 CALLDATASIZE SUB DUP2 ADD SWAP1 PUSH2 0xA9 SWAP2 SWAP1 PUSH2 0x4B7 JUMP JUMPDEST PUSH2 0x155 JUMP JUMPDEST STOP JUMPDEST PUSH2 0xCA PUSH1 0x4 DUP1 CALLDATASIZE SUB DUP2 ADD SWAP1 PUSH2 0xC5 SWAP2 SWAP1 PUSH2 0x4B7 JUMP JUMPDEST PUSH2 0x163 JUMP JUMPDEST STOP JUMPDEST PUSH2 0xD4 PUSH2 0x2CA JUMP JUMPDEST PUSH1 0x40 MLOAD PUSH2 0xE1 SWAP2 SWAP1 PUSH2 0x79A JUMP JUMPDEST PUSH1 0x40 MLOAD DUP1 SWAP2 SUB SWAP1 RETURN JUMPDEST PUSH1 0x0 DUP2 DUP2 PUSH1 0x1 ADD PUSH1 0x0 PUSH2 0x100 EXP DUP2 SLOAD DUP2 PUSH1 0xFF MUL NOT AND SWAP1 DUP4 PUSH1 0xFF AND MUL OR SWAP1 SSTORE POP POP POP JUMP JUMPDEST DUP3 PUSH1 0x0 DUP1 ADD SWAP1 DUP2 PUSH2 0x11E SWAP2 SWAP1 PUSH2 0x9D2 JUMP JUMPDEST POP DUP2 PUSH1 0x0 PUSH1 0x1 ADD PUSH1 0x0 PUSH2 0x100 EXP DUP2 SLOAD DUP2 PUSH1 0xFF MUL NOT AND SWAP1 DUP4 PUSH1 0xFF AND MUL OR SWAP1 SSTORE POP DUP1 PUSH1 0x0 PUSH1 0x2 ADD SWAP1 DUP2 PUSH2 0x14F SWAP2 SWAP1 PUSH2 0x9D2 JUMP JUMPDEST POP POP POP POP JUMP JUMPDEST PUSH2 0x160 PUSH1 0x0 DUP3 PUSH2 0x425 JUMP JUMPDEST POP JUMP JUMPDEST PUSH1 0x0 DUP1 PUSH1 0x40 MLOAD DUP1 PUSH1 0x60 ADD PUSH1 0x40 MSTORE SWAP1 DUP2 PUSH1 0x0 DUP3 ADD DUP1 SLOAD PUSH2 0x181 SWAP1 PUSH2 0x7EB JUMP JUMPDEST DUP1 PUSH1 0x1F ADD PUSH1 0x20 DUP1 SWAP2 DIV MUL PUSH1 0x20 ADD PUSH1 0x40 MLOAD SWAP1 DUP2 ADD PUSH1 0x40 MSTORE DUP1 SWAP3 SWAP2 SWAP1 DUP2 DUP2 MSTORE PUSH1 0x20 ADD DUP3 DUP1 SLOAD PUSH2 0x1AD SWAP1 PUSH2 0x7EB JUMP JUMPDEST DUP1 ISZERO PUSH2 0x1FA JUMPI DUP1 PUSH1 0x1F LT PUSH2 0x1CF JUMPI PUSH2 0x100 DUP1 DUP4 SLOAD DIV MUL DUP4 MSTORE SWAP2 PUSH1 0x20 ADD SWAP2 PUSH2 0x1FA JUMP JUMPDEST DUP3 ADD SWAP2 SWAP1 PUSH1 0x0 MSTORE PUSH1 0x20 PUSH1 0x0 KECCAK256 SWAP1 JUMPDEST DUP2 SLOAD DUP2 MSTORE SWAP1 PUSH1 0x1 ADD SWAP1 PUSH1 0x20 ADD DUP1 DUP4 GT PUSH2 0x1DD JUMPI DUP3 SWAP1 SUB PUSH1 0x1F AND DUP3 ADD SWAP2 JUMPDEST POP POP POP POP POP DUP2 MSTORE PUSH1 0x20 ADD PUSH1 0x1 DUP3 ADD PUSH1 0x0 SWAP1 SLOAD SWAP1 PUSH2 0x100 EXP SWAP1 DIV PUSH1 0xFF AND PUSH1 0xFF AND PUSH1 0xFF AND DUP2 MSTORE PUSH1 0x20 ADD PUSH1 0x2 DUP3 ADD DUP1 SLOAD PUSH2 0x230 SWAP1 PUSH2 0x7EB JUMP JUMPDEST DUP1 PUSH1 0x1F ADD PUSH1 0x20 DUP1 SWAP2 DIV MUL PUSH1 0x20 ADD PUSH1 0x40 MLOAD SWAP1 DUP2 ADD PUSH1 0x40 MSTORE DUP1 SWAP3 SWAP2 SWAP1 DUP2 DUP2 MSTORE PUSH1 0x20 ADD DUP3 DUP1 SLOAD PUSH2 0x25C SWAP1 PUSH2 0x7EB JUMP JUMPDEST DUP1 ISZERO PUSH2 0x2A9 JUMPI DUP1 PUSH1 0x1F LT PUSH2 0x27E JUMPI PUSH2 0x100 DUP1 DUP4 SLOAD DIV MUL DUP4 MSTORE SWAP2 PUSH1 0x20 ADD SWAP2 PUSH2 0x2A9 JUMP JUMPDEST DUP3 ADD SWAP2 SWAP1 PUSH1 0x0 MSTORE PUSH1 0x20 PUSH1 0x0 KECCAK256 SWAP1 JUMPDEST DUP2 SLOAD DUP2 MSTORE SWAP1 PUSH1 0x1 ADD SWAP1 PUSH1 0x20 ADD DUP1 DUP4 GT PUSH2 0x28C JUMPI DUP3 SWAP1 SUB PUSH1 0x1F AND DUP3 ADD SWAP2 JUMPDEST POP POP POP POP POP DUP2 MSTORE POP POP SWAP1 POP DUP2 DUP2 PUSH1 0x20 ADD SWAP1 PUSH1 0xFF AND SWAP1 DUP2 PUSH1 0xFF AND DUP2 MSTORE POP POP POP POP JUMP JUMPDEST PUSH2 0x2D2 PUSH2 0x446 JUMP JUMPDEST PUSH1 0x0 PUSH1 0x40 MLOAD DUP1 PUSH1 0x60 ADD PUSH1 0x40 MSTORE SWAP1 DUP2 PUSH1 0x0 DUP3 ADD DUP1 SLOAD PUSH2 0x2EF SWAP1 PUSH2 0x7EB JUMP JUMPDEST DUP1 PUSH1 0x1F ADD PUSH1 0x20 DUP1 SWAP2 DIV MUL PUSH1 0x20 ADD PUSH1 0x40 MLOAD SWAP1 DUP2 ADD PUSH1 0x40 MSTORE DUP1 SWAP3 SWAP2 SWAP1 DUP2 DUP2 MSTORE PUSH1 0x20 ADD DUP3 DUP1 SLOAD PUSH2 0x31B SWAP1 PUSH2 0x7EB JUMP JUMPDEST DUP1 ISZERO PUSH2 0x368 JUMPI DUP1 PUSH1 0x1F LT PUSH2 0x33D JUMPI PUSH2 0x100 DUP1 DUP4 SLOAD DIV MUL DUP4 MSTORE SWAP2 PUSH1 0x20 ADD SWAP2 PUSH2 0x368 JUMP JUMPDEST DUP3 ADD SWAP2 SWAP1 PUSH1 0x0 MSTORE PUSH1 0x20 PUSH1 0x0 KECCAK256 SWAP1 JUMPDEST DUP2 SLOAD DUP2 MSTORE SWAP1 PUSH1 0x1 ADD SWAP1 PUSH1 0x20 ADD DUP1 DUP4 GT PUSH2 0x34B JUMPI DUP3 SWAP1 SUB PUSH1 0x1F AND DUP3 ADD SWAP2 JUMPDEST POP POP POP POP POP DUP2 MSTORE PUSH1 0x20 ADD PUSH1 0x1 DUP3 ADD PUSH1 0x0 SWAP1 SLOAD SWAP1 PUSH2 0x100 EXP SWAP1 DIV PUSH1 0xFF AND PUSH1 0xFF AND PUSH1 0xFF AND DUP2 MSTORE PUSH1 0x20 ADD PUSH1 0x2 DUP3 ADD DUP1 SLOAD PUSH2 0x39E SWAP1 PUSH2 0x7EB JUMP JUMPDEST DUP1 PUSH1 0x1F ADD PUSH1 0x20 DUP1 SWAP2 DIV MUL PUSH1 0x20 ADD PUSH1 0x40 MLOAD SWAP1 DUP2 ADD PUSH1 0x40 MSTORE DUP1 SWAP3 SWAP2 SWAP1 DUP2 DUP2 MSTORE PUSH1 0x20 ADD DUP3 DUP1 SLOAD PUSH2 0x3CA SWAP1 PUSH2 0x7EB JUMP JUMPDEST DUP1 ISZERO PUSH2 0x417 JUMPI DUP1 PUSH1 0x1F LT PUSH2 0x3EC JUMPI PUSH2 0x100 DUP1 DUP4 SLOAD DIV MUL DUP4 MSTORE SWAP2 PUSH1 0x20 ADD SWAP2 PUSH2 0x417 JUMP JUMPDEST DUP3 ADD SWAP2 SWAP1 PUSH1 0x0 MSTORE PUSH1 0x20 PUSH1 0x0 KECCAK256 SWAP1 JUMPDEST DUP2 SLOAD DUP2 MSTORE SWAP1 PUSH1 0x1 ADD SWAP1 PUSH1 0x20 ADD DUP1 DUP4 GT PUSH2 0x3FA JUMPI DUP3 SWAP1 SUB PUSH1 0x1F AND DUP3 ADD SWAP2 JUMPDEST POP POP POP POP POP DUP2 MSTORE POP POP SWAP1 POP SWAP1 JUMP JUMPDEST DUP1 DUP3 PUSH1 0x1 ADD PUSH1 0x0 PUSH2 0x100 EXP DUP2 SLOAD DUP2 PUSH1 0xFF MUL NOT AND SWAP1 DUP4 PUSH1 0xFF AND MUL OR SWAP1 SSTORE POP POP POP JUMP JUMPDEST PUSH1 0x40 MLOAD DUP1 PUSH1 0x60 ADD PUSH1 0x40 MSTORE DUP1 PUSH1 0x60 DUP2 MSTORE PUSH1 0x20 ADD PUSH1 0x0 PUSH1 0xFF AND DUP2 MSTORE PUSH1 0x20 ADD PUSH1 0x60 DUP2 MSTORE POP SWAP1 JUMP JUMPDEST PUSH1 0x0 PUSH1 0x40 MLOAD SWAP1 POP SWAP1 JUMP JUMPDEST PUSH1 0x0 DUP1 REVERT JUMPDEST PUSH1 0x0 DUP1 REVERT JUMPDEST PUSH1 0x0 PUSH1 0xFF DUP3 AND SWAP1 POP SWAP2 SWAP1 POP JUMP JUMPDEST PUSH2 0x494 DUP2 PUSH2 0x47E JUMP JUMPDEST DUP2 EQ PUSH2 0x49F JUMPI PUSH1 0x0 DUP1 REVERT JUMPDEST POP JUMP JUMPDEST PUSH1 0x0 DUP2 CALLDATALOAD SWAP1 POP PUSH2 0x4B1 DUP2 PUSH2 0x48B JUMP JUMPDEST SWAP3 SWAP2 POP POP JUMP JUMPDEST PUSH1 0x0 PUSH1 0x20 DUP3 DUP5 SUB SLT ISZERO PUSH2 0x4CD JUMPI PUSH2 0x4CC PUSH2 0x474 JUMP JUMPDEST JUMPDEST PUSH1 0x0 PUSH2 0x4DB DUP5 DUP3 DUP6 ADD PUSH2 0x4A2 JUMP JUMPDEST SWAP2 POP POP SWAP3 SWAP2 POP POP JUMP JUMPDEST PUSH1 0x0 DUP1 REVERT JUMPDEST PUSH1 0x0 DUP1 REVERT JUMPDEST PUSH1 0x0 PUSH1 0x1F NOT PUSH1 0x1F DUP4 ADD AND SWAP1 POP SWAP2 SWAP1 POP JUMP JUMPDEST PUSH32 0x4E487B7100000000000000000000000000000000000000000000000000000000 PUSH1 0x0 MSTORE PUSH1 0x41 PUSH1 0x4 MSTORE PUSH1 0x24 PUSH1 0x0 REVERT JUMPDEST PUSH2 0x537 DUP3 PUSH2 0x4EE JUMP JUMPDEST DUP2 ADD DUP2 DUP2 LT PUSH8 0xFFFFFFFFFFFFFFFF DUP3 GT OR ISZERO PUSH2 0x556 JUMPI PUSH2 0x555 PUSH2 0x4FF JUMP JUMPDEST JUMPDEST DUP1 PUSH1 0x40 MSTORE POP POP POP JUMP JUMPDEST PUSH1 0x0 PUSH2 0x569 PUSH2 0x46A JUMP JUMPDEST SWAP1 POP PUSH2 0x575 DUP3 DUP3 PUSH2 0x52E JUMP JUMPDEST SWAP2 SWAP1 POP JUMP JUMPDEST PUSH1 0x0 PUSH8 0xFFFFFFFFFFFFFFFF DUP3 GT ISZERO PUSH2 0x595 JUMPI PUSH2 0x594 PUSH2 0x4FF JUMP JUMPDEST JUMPDEST PUSH2 0x59E DUP3 PUSH2 0x4EE JUMP JUMPDEST SWAP1 POP PUSH1 0x20 DUP2 ADD SWAP1 POP SWAP2 SWAP1 POP JUMP JUMPDEST DUP3 DUP2 DUP4 CALLDATACOPY PUSH1 0x0 DUP4 DUP4 ADD MSTORE POP POP POP JUMP JUMPDEST PUSH1 0x0 PUSH2 0x5CD PUSH2 0x5C8 DUP5 PUSH2 0x57A JUMP JUMPDEST PUSH2 0x55F JUMP JUMPDEST SWAP1 POP DUP3 DUP2 MSTORE PUSH1 0x20 DUP2 ADD DUP5 DUP5 DUP5 ADD GT ISZERO PUSH2 0x5E9 JUMPI PUSH2 0x5E8 PUSH2 0x4E9 JUMP JUMPDEST JUMPDEST PUSH2 0x5F4 DUP5 DUP3 DUP6 PUSH2 0x5AB JUMP JUMPDEST POP SWAP4 SWAP3 POP POP POP JUMP JUMPDEST PUSH1 0x0 DUP3 PUSH1 0x1F DUP4 ADD SLT PUSH2 0x611 JUMPI PUSH2 0x610 PUSH2 0x4E4 JUMP JUMPDEST JUMPDEST DUP2 CALLDATALOAD PUSH2 0x621 DUP5 DUP3 PUSH1 0x20 DUP7 ADD PUSH2 0x5BA JUMP JUMPDEST SWAP2 POP POP SWAP3 SWAP2 POP POP JUMP JUMPDEST PUSH1 0x0 DUP1 PUSH1 0x0 PUSH1 0x60 DUP5 DUP7 SUB SLT ISZERO PUSH2 0x643 JUMPI PUSH2 0x642 PUSH2 0x474 JUMP JUMPDEST JUMPDEST PUSH1 0x0 DUP5 ADD CALLDATALOAD PUSH8 0xFFFFFFFFFFFFFFFF DUP2 GT ISZERO PUSH2 0x661 JUMPI PUSH2 0x660 PUSH2 0x479 JUMP JUMPDEST JUMPDEST PUSH2 0x66D DUP7 DUP3 DUP8 ADD PUSH2 0x5FC JUMP JUMPDEST SWAP4 POP POP PUSH1 0x20 PUSH2 0x67E DUP7 DUP3 DUP8 ADD PUSH2 0x4A2 JUMP JUMPDEST SWAP3 POP POP PUSH1 0x40 DUP5 ADD CALLDATALOAD PUSH8 0xFFFFFFFFFFFFFFFF DUP2 GT ISZERO PUSH2 0x69F JUMPI PUSH2 0x69E PUSH2 0x479 JUMP JUMPDEST JUMPDEST PUSH2 0x6AB DUP7 DUP3 DUP8 ADD PUSH2 0x5FC JUMP JUMPDEST SWAP2 POP POP SWAP3 POP SWAP3 POP SWAP3 JUMP JUMPDEST PUSH1 0x0 DUP2 MLOAD SWAP1 POP SWAP2 SWAP1 POP JUMP JUMPDEST PUSH1 0x0 DUP3 DUP3 MSTORE PUSH1 0x20 DUP3 ADD SWAP1 POP SWAP3 SWAP2 POP POP JUMP JUMPDEST PUSH1 0x0 JUMPDEST DUP4 DUP2 LT ISZERO PUSH2 0x6EF JUMPI DUP1 DUP3 ADD MLOAD DUP2 DUP5 ADD MSTORE PUSH1 0x20 DUP2 ADD SWAP1 POP PUSH2 0x6D4 JUMP JUMPDEST PUSH1 0x0 DUP5 DUP5 ADD MSTORE POP POP POP POP JUMP JUMPDEST PUSH1 0x0 PUSH2 0x706 DUP3 PUSH2 0x6B5 JUMP JUMPDEST PUSH2 0x710 DUP2 DUP6 PUSH2 0x6C0 JUMP JUMPDEST SWAP4 POP PUSH2 0x720 DUP2 DUP6 PUSH1 0x20 DUP7 ADD PUSH2 0x6D1 JUMP JUMPDEST PUSH2 0x729 DUP2 PUSH2 0x4EE JUMP JUMPDEST DUP5 ADD SWAP2 POP POP SWAP3 SWAP2 POP POP JUMP JUMPDEST PUSH2 0x73D DUP2 PUSH2 0x47E JUMP JUMPDEST DUP3 MSTORE POP POP JUMP JUMPDEST PUSH1 0x0 PUSH1 0x60 DUP4 ADD PUSH1 0x0 DUP4 ADD MLOAD DUP5 DUP3 SUB PUSH1 0x0 DUP7 ADD MSTORE PUSH2 0x760 DUP3 DUP3 PUSH2 0x6FB JUMP JUMPDEST SWAP2 POP POP PUSH1 0x20 DUP4 ADD MLOAD PUSH2 0x775 PUSH1 0x20 DUP7 ADD DUP3 PUSH2 0x734 JUMP JUMPDEST POP PUSH1 0x40 DUP4 ADD MLOAD DUP5 DUP3 SUB PUSH1 0x40 DUP7 ADD MSTORE PUSH2 0x78D DUP3 DUP3 PUSH2 0x6FB JUMP JUMPDEST SWAP2 POP POP DUP1 SWAP2 POP POP SWAP3 SWAP2 POP POP JUMP JUMPDEST PUSH1 0x0 PUSH1 0x20 DUP3 ADD SWAP1 POP DUP2 DUP2 SUB PUSH1 0x0 DUP4 ADD MSTORE PUSH2 0x7B4 DUP2 DUP5 PUSH2 0x743 JUMP JUMPDEST SWAP1 POP SWAP3 SWAP2 POP POP JUMP JUMPDEST PUSH32 0x4E487B7100000000000000000000000000000000000000000000000000000000 PUSH1 0x0 MSTORE PUSH1 0x22 PUSH1 0x4 MSTORE PUSH1 0x24 PUSH1 0x0 REVERT JUMPDEST PUSH1 0x0 PUSH1 0x2 DUP3 DIV SWAP1 POP PUSH1 0x1 DUP3 AND DUP1 PUSH2 0x803 JUMPI PUSH1 0x7F DUP3 AND SWAP2 POP JUMPDEST PUSH1 0x20 DUP3 LT DUP2 SUB PUSH2 0x816 JUMPI PUSH2 0x815 PUSH2 0x7BC JUMP JUMPDEST JUMPDEST POP SWAP2 SWAP1 POP JUMP JUMPDEST PUSH1 0x0 DUP2 SWAP1 POP DUP2 PUSH1 0x0 MSTORE PUSH1 0x20 PUSH1 0x0 KECCAK256 SWAP1 POP SWAP2 SWAP1 POP JUMP JUMPDEST PUSH1 0x0 PUSH1 0x20 PUSH1 0x1F DUP4 ADD DIV SWAP1 POP SWAP2 SWAP1 POP JUMP JUMPDEST PUSH1 0x0 DUP3 DUP3 SHL SWAP1 POP SWAP3 SWAP2 POP POP JUMP JUMPDEST PUSH1 0x0 PUSH1 0x8 DUP4 MUL PUSH2 0x87E PUSH32 0xFFFFFFFFFFFFFFFFFFFFFFFFFFFFFFFFFFFFFFFFFFFFFFFFFFFFFFFFFFFFFFFF DUP3 PUSH2 0x841 JUMP JUMPDEST PUSH2 0x888 DUP7 DUP4 PUSH2 0x841 JUMP JUMPDEST SWAP6 POP DUP1 NOT DUP5 AND SWAP4 POP DUP1 DUP7 AND DUP5 OR SWAP3 POP POP POP SWAP4 SWAP3 POP POP POP JUMP JUMPDEST PUSH1 0x0 DUP2 SWAP1 POP SWAP2 SWAP1 POP JUMP JUMPDEST PUSH1 0x0 DUP2 SWAP1 POP SWAP2 SWAP1 POP JUMP JUMPDEST PUSH1 0x0 PUSH2 0x8CF PUSH2 0x8CA PUSH2 0x8C5 DUP5 PUSH2 0x8A0 JUMP JUMPDEST PUSH2 0x8AA JUMP JUMPDEST PUSH2 0x8A0 JUMP JUMPDEST SWAP1 POP SWAP2 SWAP1 POP JUMP JUMPDEST PUSH1 0x0 DUP2 SWAP1 POP SWAP2 SWAP1 POP JUMP JUMPDEST PUSH2 0x8E9 DUP4 PUSH2 0x8B4 JUMP JUMPDEST PUSH2 0x8FD PUSH2 0x8F5 DUP3 PUSH2 0x8D6 JUMP JUMPDEST DUP5 DUP5 SLOAD PUSH2 0x84E JUMP JUMPDEST DUP3 SSTORE POP POP POP POP JUMP JUMPDEST PUSH1 0x0 SWAP1 JUMP JUMPDEST PUSH2 0x912 PUSH2 0x905 JUMP JUMPDEST PUSH2 0x91D DUP2 DUP5 DUP5 PUSH2 0x8E0 JUMP JUMPDEST POP POP POP JUMP JUMPDEST JUMPDEST DUP2 DUP2 LT ISZERO PUSH2 0x941 JUMPI PUSH2 0x936 PUSH1 0x0 DUP3 PUSH2 0x90A JUMP JUMPDEST PUSH1 0x1 DUP2 ADD SWAP1 POP PUSH2 0x923 JUMP JUMPDEST POP POP JUMP JUMPDEST PUSH1 0x1F DUP3 GT ISZERO PUSH2 0x986 JUMPI PUSH2 0x957 DUP2 PUSH2 0x81C JUMP JUMPDEST PUSH2 0x960 DUP5 PUSH2 0x831 JUMP JUMPDEST DUP2 ADD PUSH1 0x20 DUP6 LT ISZERO PUSH2 0x96F JUMPI DUP2 SWAP1 POP JUMPDEST PUSH2 0x983 PUSH2 0x97B DUP6 PUSH2 0x831 JUMP JUMPDEST DUP4 ADD DUP3 PUSH2 0x922 JUMP JUMPDEST POP POP JUMPDEST POP POP POP JUMP JUMPDEST PUSH1 0x0 DUP3 DUP3 SHR SWAP1 POP SWAP3 SWAP2 POP POP JUMP JUMPDEST PUSH1 0x0 PUSH2 0x9A9 PUSH1 0x0 NOT DUP5 PUSH1 0x8 MUL PUSH2 0x98B JUMP JUMPDEST NOT DUP1 DUP4 AND SWAP2 POP POP SWAP3 SWAP2 POP POP JUMP JUMPDEST PUSH1 0x0 PUSH2 0x9C2 DUP4 DUP4 PUSH2 0x998 JUMP JUMPDEST SWAP2 POP DUP3 PUSH1 0x2 MUL DUP3 OR SWAP1 POP SWAP3 SWAP2 POP POP JUMP JUMPDEST PUSH2 0x9DB DUP3 PUSH2 0x6B5 JUMP JUMPDEST PUSH8 0xFFFFFFFFFFFFFFFF DUP2 GT ISZERO PUSH2 0x9F4 JUMPI PUSH2 0x9F3 PUSH2 0x4FF JUMP JUMPDEST JUMPDEST PUSH2 0x9FE DUP3 SLOAD PUSH2 0x7EB JUMP JUMPDEST PUSH2 0xA09 DUP3 DUP3 DUP6 PUSH2 0x945 JUMP JUMPDEST PUSH1 0x0 PUSH1 0x20 SWAP1 POP PUSH1 0x1F DUP4 GT PUSH1 0x1 DUP2 EQ PUSH2 0xA3C JUMPI PUSH1 0x0 DUP5 ISZERO PUSH2 0xA2A JUMPI DUP3 DUP8 ADD MLOAD SWAP1 POP JUMPDEST PUSH2 0xA34 DUP6 DUP3 PUSH2 0x9B6 JUMP JUMPDEST DUP7 SSTORE POP PUSH2 0xA9C JUMP JUMPDEST PUSH1 0x1F NOT DUP5 AND PUSH2 0xA4A DUP7 PUSH2 0x81C JUMP JUMPDEST PUSH1 0x0 JUMPDEST DUP3 DUP2 LT ISZERO PUSH2 0xA72 JUMPI DUP5 DUP10 ADD MLOAD DUP3 SSTORE PUSH1 0x1 DUP3 ADD SWAP2 POP PUSH1 0x20 DUP6 ADD SWAP5 POP PUSH1 0x20 DUP2 ADD SWAP1 POP PUSH2 0xA4D JUMP JUMPDEST DUP7 DUP4 LT ISZERO PUSH2 0xA8F JUMPI DUP5 DUP10 ADD MLOAD PUSH2 0xA8B PUSH1 0x1F DUP10 AND DUP3 PUSH2 0x998 JUMP JUMPDEST DUP4 SSTORE POP JUMPDEST PUSH1 0x1 PUSH1 0x2 DUP9 MUL ADD DUP9 SSTORE POP POP POP JUMPDEST POP POP POP POP POP POP JUMP INVALID LOG2 PUSH5 0x6970667358 0x22 SLT KECCAK256 0xF9 0xB0 0xDE PUSH21 0xCE61C01A9B952ED38EFB323B91CE29ED3CAAF769E7 0xD3 PUSH24 0x70346A593964736F6C634300081200330000000000000000 "
				},
				"gasEstimates": {
					"creation": {
						"codeDepositCost": "555600",
						"executionCost": "587",
						"totalCost": "556187"
					},
					"external": {
						"callsetAge3(uint8)": "24741",
						"getUser()": "infinite",
						"setAge1(uint8)": "infinite",
						"setAge2(uint8)": "24668",
						"setUser(string,uint8,string)": "infinite"
					},
					"internal": {
						"setAge3(struct User storage pointer,uint8)": "24286"
					}
				},
				"methodIdentifiers": {
					"callsetAge3(uint8)": "4897089e",
					"getUser()": "832880e7",
					"setAge1(uint8)": "6835d01e",
					"setAge2(uint8)": "16a23956",
					"setUser(string,uint8,string)": "2d1ca992"
				}
			},
			"storageLayout": {
				"storage": [
					{
						"astId": 11,
						"contract": "contracts/10-storage_demo.sol:storage_demo",
						"label": "adminUser",
						"offset": 0,
						"slot": "0",
						"type": "t_struct(User)8_storage"
					}
				],
				"types": {
					"t_string_storage": {
						"encoding": "bytes",
						"label": "string",
						"numberOfBytes": "32"
					},
					"t_struct(User)8_storage": {
						"encoding": "inplace",
						"label": "struct User",
						"members": [
							{
								"astId": 3,
								"contract": "contracts/10-storage_demo.sol:storage_demo",
								"label": "name",
								"offset": 0,
								"slot": "0",
								"type": "t_string_storage"
							},
							{
								"astId": 5,
								"contract": "contracts/10-storage_demo.sol:storage_demo",
								"label": "age",
								"offset": 0,
								"slot": "1",
								"type": "t_uint8"
							},
							{
								"astId": 7,
								"contract": "contracts/10-storage_demo.sol:storage_demo",
								"label": "sex",
								"offset": 0,
								"slot": "2",
								"type": "t_string_storage"
							}
						],
						"numberOfBytes": "96"
					},
					"t_uint8": {
						"encoding": "inplace",
						"label": "uint8",
						"numberOfBytes": "1"
					}
				}
			},
			"userdoc": {
				"kind": "user",
				"methods": {},
				"version": 1
			}
		}
	}
}