{
	"data": {
		"bytecode": {
			"linkReferences": {},
			"object": "608060405234801561001057600080fd5b506101ac806100206000396000f3fe608060405234801561001057600080fd5b50600436106100365760003560e01c8063034899bc1461003b578063e699e7591461005b575b600080fd5b610043610079565b60405161005293929190610124565b60405180910390f35b6100636100b8565b604051610070919061015b565b60405180910390f35b6000806000807f18edda4f06495ff44ae143db709ffbcc26668fb78b2c5a674fea2285cf9372b9905080816318edda4f60e01b93509350935050909192565b60006331feb67160e01b6318edda4f60e01b18905090565b6000819050919050565b6100e3816100d0565b82525050565b60007fffffffff0000000000000000000000000000000000000000000000000000000082169050919050565b61011e816100e9565b82525050565b600060608201905061013960008301866100da565b6101466020830185610115565b6101536040830184610115565b949350505050565b60006020820190506101706000830184610115565b9291505056fea2646970667358221220f915f44e1f0b4abfdd9ef1febe8681c2d13ed674625db6201e0492a1103a631364736f6c63430008120033",
			"opcodes": "PUSH1 0x80 PUSH1 0x40 MSTORE CALLVALUE DUP1 ISZERO PUSH2 0x10 JUMPI PUSH1 0x0 DUP1 REVERT JUMPDEST POP PUSH2 0x1AC DUP1 PUSH2 0x20 PUSH1 0x0 CODECOPY PUSH1 0x0 RETURN INVALID PUSH1 0x80 PUSH1 0x40 MSTORE CALLVALUE DUP1 ISZERO PUSH2 0x10 JUMPI PUSH1 0x0 DUP1 REVERT JUMPDEST POP PUSH1 0x4 CALLDATASIZE LT PUSH2 0x36 JUMPI PUSH1 0x0 CALLDATALOAD PUSH1 0xE0 SHR DUP1 PUSH4 0x34899BC EQ PUSH2 0x3B JUMPI DUP1 PUSH4 0xE699E759 EQ PUSH2 0x5B JUMPI JUMPDEST PUSH1 0x0 DUP1 REVERT JUMPDEST PUSH2 0x43 PUSH2 0x79 JUMP JUMPDEST PUSH1 0x40 MLOAD PUSH2 0x52 SWAP4 SWAP3 SWAP2 SWAP1 PUSH2 0x124 JUMP JUMPDEST PUSH1 0x40 MLOAD DUP1 SWAP2 SUB SWAP1 RETURN JUMPDEST PUSH2 0x63 PUSH2 0xB8 JUMP JUMPDEST PUSH1 0x40 MLOAD PUSH2 0x70 SWAP2 SWAP1 PUSH2 0x15B JUMP JUMPDEST PUSH1 0x40 MLOAD DUP1 SWAP2 SUB SWAP1 RETURN JUMPDEST PUSH1 0x0 DUP1 PUSH1 0x0 DUP1 PUSH32 0x18EDDA4F06495FF44AE143DB709FFBCC26668FB78B2C5A674FEA2285CF9372B9 SWAP1 POP DUP1 DUP2 PUSH4 0x18EDDA4F PUSH1 0xE0 SHL SWAP4 POP SWAP4 POP SWAP4 POP POP SWAP1 SWAP2 SWAP3 JUMP JUMPDEST PUSH1 0x0 PUSH4 0x31FEB671 PUSH1 0xE0 SHL PUSH4 0x18EDDA4F PUSH1 0xE0 SHL XOR SWAP1 POP SWAP1 JUMP JUMPDEST PUSH1 0x0 DUP2 SWAP1 POP SWAP2 SWAP1 POP JUMP JUMPDEST PUSH2 0xE3 DUP2 PUSH2 0xD0 JUMP JUMPDEST DUP3 MSTORE POP POP JUMP JUMPDEST PUSH1 0x0 PUSH32 0xFFFFFFFF00000000000000000000000000000000000000000000000000000000 DUP3 AND SWAP1 POP SWAP2 SWAP1 POP JUMP JUMPDEST PUSH2 0x11E DUP2 PUSH2 0xE9 JUMP JUMPDEST DUP3 MSTORE POP POP JUMP JUMPDEST PUSH1 0x0 PUSH1 0x60 DUP3 ADD SWAP1 POP PUSH2 0x139 PUSH1 0x0 DUP4 ADD DUP7 PUSH2 0xDA JUMP JUMPDEST PUSH2 0x146 PUSH1 0x20 DUP4 ADD DUP6 PUSH2 0x115 JUMP JUMPDEST PUSH2 0x153 PUSH1 0x40 DUP4 ADD DUP5 PUSH2 0x115 JUMP JUMPDEST SWAP5 SWAP4 POP POP POP POP JUMP JUMPDEST PUSH1 0x0 PUSH1 0x20 DUP3 ADD SWAP1 POP PUSH2 0x170 PUSH1 0x0 DUP4 ADD DUP5 PUSH2 0x115 JUMP JUMPDEST SWAP3 SWAP2 POP POP JUMP INVALID LOG2 PUSH5 0x6970667358 0x22 SLT KECCAK256 0xF9 ISZERO DELEGATECALL 0x4E 0x1F SIGNEXTEND 0x4A 0xBF 0xDD SWAP15 CALL INVALID 0xBE DUP7 DUP2 0xC2 0xD1 RETURNDATACOPY 0xD6 PUSH21 0x625DB6201E0492A1103A631364736F6C6343000812 STOP CALLER "
		},
		"gasEstimates": {
			"creation": {
				"codeDepositCost": "85600",
				"executionCost": "135",
				"totalCost": "85735"
			},
			"external": {
				"getInterfaceID()": "361",
				"getSelector()": "infinite"
			}
		},
		"methodIdentifiers": {
			"getInterfaceID()": "e699e759",
			"getSelector()": "034899bc"
		}
	},
	"abi": [
		{
			"inputs": [],
			"name": "getInterfaceID",
			"outputs": [
				{
					"internalType": "bytes4",
					"name": "",
					"type": "bytes4"
				}
			],
			"stateMutability": "pure",
			"type": "function"
		},
		{
			"inputs": [],
			"name": "getSelector",
			"outputs": [
				{
					"internalType": "bytes32",
					"name": "",
					"type": "bytes32"
				},
				{
					"internalType": "bytes4",
					"name": "",
					"type": "bytes4"
				},
				{
					"internalType": "bytes4",
					"name": "",
					"type": "bytes4"
				}
			],
			"stateMutability": "pure",
			"type": "function"
		}
	]
}