{
	"data": {
		"bytecode": {
			"linkReferences": {},
			"object": "60806040523480156200001157600080fd5b5060405162000a1838038062000a188339818101604052810190620000379190620002b3565b82600090816200004891906200056f565b5081600160006101000a81548160ff021916908360ff160217905550806002819055508282826040516020016200008293929190620006ca565b604051602081830303815290604052805190602001206003819055505050506200070e565b6000604051905090565b600080fd5b600080fd5b600080fd5b600080fd5b6000601f19601f8301169050919050565b7f4e487b7100000000000000000000000000000000000000000000000000000000600052604160045260246000fd5b6200011082620000c5565b810181811067ffffffffffffffff82111715620001325762000131620000d6565b5b80604052505050565b600062000147620000a7565b905062000155828262000105565b919050565b600067ffffffffffffffff821115620001785762000177620000d6565b5b6200018382620000c5565b9050602081019050919050565b60005b83811015620001b057808201518184015260208101905062000193565b60008484015250505050565b6000620001d3620001cd846200015a565b6200013b565b905082815260208101848484011115620001f257620001f1620000c0565b5b620001ff84828562000190565b509392505050565b600082601f8301126200021f576200021e620000bb565b5b815162000231848260208601620001bc565b91505092915050565b600060ff82169050919050565b62000252816200023a565b81146200025e57600080fd5b50565b600081519050620002728162000247565b92915050565b6000819050919050565b6200028d8162000278565b81146200029957600080fd5b50565b600081519050620002ad8162000282565b92915050565b600080600060608486031215620002cf57620002ce620000b1565b5b600084015167ffffffffffffffff811115620002f057620002ef620000b6565b5b620002fe8682870162000207565b9350506020620003118682870162000261565b925050604062000324868287016200029c565b9150509250925092565b600081519050919050565b7f4e487b7100000000000000000000000000000000000000000000000000000000600052602260045260246000fd5b600060028204905060018216806200038157607f821691505b60208210810362000397576200039662000339565b5b50919050565b60008190508160005260206000209050919050565b60006020601f8301049050919050565b600082821b905092915050565b600060088302620004017fffffffffffffffffffffffffffffffffffffffffffffffffffffffffffffffff82620003c2565b6200040d8683620003c2565b95508019841693508086168417925050509392505050565b6000819050919050565b6000620004506200044a620004448462000278565b62000425565b62000278565b9050919050565b6000819050919050565b6200046c836200042f565b620004846200047b8262000457565b848454620003cf565b825550505050565b600090565b6200049b6200048c565b620004a881848462000461565b505050565b5b81811015620004d057620004c460008262000491565b600181019050620004ae565b5050565b601f8211156200051f57620004e9816200039d565b620004f484620003b2565b8101602085101562000504578190505b6200051c6200051385620003b2565b830182620004ad565b50505b505050565b600082821c905092915050565b6000620005446000198460080262000524565b1980831691505092915050565b60006200055f838362000531565b9150826002028217905092915050565b6200057a826200032e565b67ffffffffffffffff811115620005965762000595620000d6565b5b620005a2825462000368565b620005af828285620004d4565b600060209050601f831160018114620005e75760008415620005d2578287015190505b620005de858262000551565b8655506200064e565b601f198416620005f7866200039d565b60005b828110156200062157848901518255600182019150602085019450602081019050620005fa565b868310156200064157848901516200063d601f89168262000531565b8355505b6001600288020188555050505b505050505050565b600082825260208201905092915050565b600062000674826200032e565b62000680818562000656565b93506200069281856020860162000190565b6200069d81620000c5565b840191505092915050565b620006b3816200023a565b82525050565b620006c48162000278565b82525050565b60006060820190508181036000830152620006e6818662000667565b9050620006f76020830185620006a8565b620007066040830184620006b9565b949350505050565b6102fa806200071e6000396000f3fe608060405234801561001057600080fd5b50600436106100415760003560e01c806302017cbc14610046578063d19779f714610064578063e491364214610082575b600080fd5b61004e6100a0565b60405161005b9190610163565b60405180910390f35b61006c6100b3565b604051610079919061020e565b60405180910390f35b61008a610141565b6040516100979190610249565b60405180910390f35b600160009054906101000a900460ff1681565b600080546100c090610293565b80601f01602080910402602001604051908101604052809291908181526020018280546100ec90610293565b80156101395780601f1061010e57610100808354040283529160200191610139565b820191906000526020600020905b81548152906001019060200180831161011c57829003601f168201915b505050505081565b60035481565b600060ff82169050919050565b61015d81610147565b82525050565b60006020820190506101786000830184610154565b92915050565b600081519050919050565b600082825260208201905092915050565b60005b838110156101b857808201518184015260208101905061019d565b60008484015250505050565b6000601f19601f8301169050919050565b60006101e08261017e565b6101ea8185610189565b93506101fa81856020860161019a565b610203816101c4565b840191505092915050565b6000602082019050818103600083015261022881846101d5565b905092915050565b6000819050919050565b61024381610230565b82525050565b600060208201905061025e600083018461023a565b92915050565b7f4e487b7100000000000000000000000000000000000000000000000000000000600052602260045260246000fd5b600060028204905060018216806102ab57607f821691505b6020821081036102be576102bd610264565b5b5091905056fea264697066735822122019f4058d8afcc1d89455057daa343ed52e76c93ce4ba5524c693a53836d2bd4364736f6c63430008120033",
			"opcodes": "PUSH1 0x80 PUSH1 0x40 MSTORE CALLVALUE DUP1 ISZERO PUSH3 0x11 JUMPI PUSH1 0x0 DUP1 REVERT JUMPDEST POP PUSH1 0x40 MLOAD PUSH3 0xA18 CODESIZE SUB DUP1 PUSH3 0xA18 DUP4 CODECOPY DUP2 DUP2 ADD PUSH1 0x40 MSTORE DUP2 ADD SWAP1 PUSH3 0x37 SWAP2 SWAP1 PUSH3 0x2B3 JUMP JUMPDEST DUP3 PUSH1 0x0 SWAP1 DUP2 PUSH3 0x48 SWAP2 SWAP1 PUSH3 0x56F JUMP JUMPDEST POP DUP2 PUSH1 0x1 PUSH1 0x0 PUSH2 0x100 EXP DUP2 SLOAD DUP2 PUSH1 0xFF MUL NOT AND SWAP1 DUP4 PUSH1 0xFF AND MUL OR SWAP1 SSTORE POP DUP1 PUSH1 0x2 DUP2 SWAP1 SSTORE POP DUP3 DUP3 DUP3 PUSH1 0x40 MLOAD PUSH1 0x20 ADD PUSH3 0x82 SWAP4 SWAP3 SWAP2 SWAP1 PUSH3 0x6CA JUMP JUMPDEST PUSH1 0x40 MLOAD PUSH1 0x20 DUP2 DUP4 SUB SUB DUP2 MSTORE SWAP1 PUSH1 0x40 MSTORE DUP1 MLOAD SWAP1 PUSH1 0x20 ADD KECCAK256 PUSH1 0x3 DUP2 SWAP1 SSTORE POP POP POP POP PUSH3 0x70E JUMP JUMPDEST PUSH1 0x0 PUSH1 0x40 MLOAD SWAP1 POP SWAP1 JUMP JUMPDEST PUSH1 0x0 DUP1 REVERT JUMPDEST PUSH1 0x0 DUP1 REVERT JUMPDEST PUSH1 0x0 DUP1 REVERT JUMPDEST PUSH1 0x0 DUP1 REVERT JUMPDEST PUSH1 0x0 PUSH1 0x1F NOT PUSH1 0x1F DUP4 ADD AND SWAP1 POP SWAP2 SWAP1 POP JUMP JUMPDEST PUSH32 0x4E487B7100000000000000000000000000000000000000000000000000000000 PUSH1 0x0 MSTORE PUSH1 0x41 PUSH1 0x4 MSTORE PUSH1 0x24 PUSH1 0x0 REVERT JUMPDEST PUSH3 0x110 DUP3 PUSH3 0xC5 JUMP JUMPDEST DUP2 ADD DUP2 DUP2 LT PUSH8 0xFFFFFFFFFFFFFFFF DUP3 GT OR ISZERO PUSH3 0x132 JUMPI PUSH3 0x131 PUSH3 0xD6 JUMP JUMPDEST JUMPDEST DUP1 PUSH1 0x40 MSTORE POP POP POP JUMP JUMPDEST PUSH1 0x0 PUSH3 0x147 PUSH3 0xA7 JUMP JUMPDEST SWAP1 POP PUSH3 0x155 DUP3 DUP3 PUSH3 0x105 JUMP JUMPDEST SWAP2 SWAP1 POP JUMP JUMPDEST PUSH1 0x0 PUSH8 0xFFFFFFFFFFFFFFFF DUP3 GT ISZERO PUSH3 0x178 JUMPI PUSH3 0x177 PUSH3 0xD6 JUMP JUMPDEST JUMPDEST PUSH3 0x183 DUP3 PUSH3 0xC5 JUMP JUMPDEST SWAP1 POP PUSH1 0x20 DUP2 ADD SWAP1 POP SWAP2 SWAP1 POP JUMP JUMPDEST PUSH1 0x0 JUMPDEST DUP4 DUP2 LT ISZERO PUSH3 0x1B0 JUMPI DUP1 DUP3 ADD MLOAD DUP2 DUP5 ADD MSTORE PUSH1 0x20 DUP2 ADD SWAP1 POP PUSH3 0x193 JUMP JUMPDEST PUSH1 0x0 DUP5 DUP5 ADD MSTORE POP POP POP POP JUMP JUMPDEST PUSH1 0x0 PUSH3 0x1D3 PUSH3 0x1CD DUP5 PUSH3 0x15A JUMP JUMPDEST PUSH3 0x13B JUMP JUMPDEST SWAP1 POP DUP3 DUP2 MSTORE PUSH1 0x20 DUP2 ADD DUP5 DUP5 DUP5 ADD GT ISZERO PUSH3 0x1F2 JUMPI PUSH3 0x1F1 PUSH3 0xC0 JUMP JUMPDEST JUMPDEST PUSH3 0x1FF DUP5 DUP3 DUP6 PUSH3 0x190 JUMP JUMPDEST POP SWAP4 SWAP3 POP POP POP JUMP JUMPDEST PUSH1 0x0 DUP3 PUSH1 0x1F DUP4 ADD SLT PUSH3 0x21F JUMPI PUSH3 0x21E PUSH3 0xBB JUMP JUMPDEST JUMPDEST DUP2 MLOAD PUSH3 0x231 DUP5 DUP3 PUSH1 0x20 DUP7 ADD PUSH3 0x1BC JUMP JUMPDEST SWAP2 POP POP SWAP3 SWAP2 POP POP JUMP JUMPDEST PUSH1 0x0 PUSH1 0xFF DUP3 AND SWAP1 POP SWAP2 SWAP1 POP JUMP JUMPDEST PUSH3 0x252 DUP2 PUSH3 0x23A JUMP JUMPDEST DUP2 EQ PUSH3 0x25E JUMPI PUSH1 0x0 DUP1 REVERT JUMPDEST POP JUMP JUMPDEST PUSH1 0x0 DUP2 MLOAD SWAP1 POP PUSH3 0x272 DUP2 PUSH3 0x247 JUMP JUMPDEST SWAP3 SWAP2 POP POP JUMP JUMPDEST PUSH1 0x0 DUP2 SWAP1 POP SWAP2 SWAP1 POP JUMP JUMPDEST PUSH3 0x28D DUP2 PUSH3 0x278 JUMP JUMPDEST DUP2 EQ PUSH3 0x299 JUMPI PUSH1 0x0 DUP1 REVERT JUMPDEST POP JUMP JUMPDEST PUSH1 0x0 DUP2 MLOAD SWAP1 POP PUSH3 0x2AD DUP2 PUSH3 0x282 JUMP JUMPDEST SWAP3 SWAP2 POP POP JUMP JUMPDEST PUSH1 0x0 DUP1 PUSH1 0x0 PUSH1 0x60 DUP5 DUP7 SUB SLT ISZERO PUSH3 0x2CF JUMPI PUSH3 0x2CE PUSH3 0xB1 JUMP JUMPDEST JUMPDEST PUSH1 0x0 DUP5 ADD MLOAD PUSH8 0xFFFFFFFFFFFFFFFF DUP2 GT ISZERO PUSH3 0x2F0 JUMPI PUSH3 0x2EF PUSH3 0xB6 JUMP JUMPDEST JUMPDEST PUSH3 0x2FE DUP7 DUP3 DUP8 ADD PUSH3 0x207 JUMP JUMPDEST SWAP4 POP POP PUSH1 0x20 PUSH3 0x311 DUP7 DUP3 DUP8 ADD PUSH3 0x261 JUMP JUMPDEST SWAP3 POP POP PUSH1 0x40 PUSH3 0x324 DUP7 DUP3 DUP8 ADD PUSH3 0x29C JUMP JUMPDEST SWAP2 POP POP SWAP3 POP SWAP3 POP SWAP3 JUMP JUMPDEST PUSH1 0x0 DUP2 MLOAD SWAP1 POP SWAP2 SWAP1 POP JUMP JUMPDEST PUSH32 0x4E487B7100000000000000000000000000000000000000000000000000000000 PUSH1 0x0 MSTORE PUSH1 0x22 PUSH1 0x4 MSTORE PUSH1 0x24 PUSH1 0x0 REVERT JUMPDEST PUSH1 0x0 PUSH1 0x2 DUP3 DIV SWAP1 POP PUSH1 0x1 DUP3 AND DUP1 PUSH3 0x381 JUMPI PUSH1 0x7F DUP3 AND SWAP2 POP JUMPDEST PUSH1 0x20 DUP3 LT DUP2 SUB PUSH3 0x397 JUMPI PUSH3 0x396 PUSH3 0x339 JUMP JUMPDEST JUMPDEST POP SWAP2 SWAP1 POP JUMP JUMPDEST PUSH1 0x0 DUP2 SWAP1 POP DUP2 PUSH1 0x0 MSTORE PUSH1 0x20 PUSH1 0x0 KECCAK256 SWAP1 POP SWAP2 SWAP1 POP JUMP JUMPDEST PUSH1 0x0 PUSH1 0x20 PUSH1 0x1F DUP4 ADD DIV SWAP1 POP SWAP2 SWAP1 POP JUMP JUMPDEST PUSH1 0x0 DUP3 DUP3 SHL SWAP1 POP SWAP3 SWAP2 POP POP JUMP JUMPDEST PUSH1 0x0 PUSH1 0x8 DUP4 MUL PUSH3 0x401 PUSH32 0xFFFFFFFFFFFFFFFFFFFFFFFFFFFFFFFFFFFFFFFFFFFFFFFFFFFFFFFFFFFFFFFF DUP3 PUSH3 0x3C2 JUMP JUMPDEST PUSH3 0x40D DUP7 DUP4 PUSH3 0x3C2 JUMP JUMPDEST SWAP6 POP DUP1 NOT DUP5 AND SWAP4 POP DUP1 DUP7 AND DUP5 OR SWAP3 POP POP POP SWAP4 SWAP3 POP POP POP JUMP JUMPDEST PUSH1 0x0 DUP2 SWAP1 POP SWAP2 SWAP1 POP JUMP JUMPDEST PUSH1 0x0 PUSH3 0x450 PUSH3 0x44A PUSH3 0x444 DUP5 PUSH3 0x278 JUMP JUMPDEST PUSH3 0x425 JUMP JUMPDEST PUSH3 0x278 JUMP JUMPDEST SWAP1 POP SWAP2 SWAP1 POP JUMP JUMPDEST PUSH1 0x0 DUP2 SWAP1 POP SWAP2 SWAP1 POP JUMP JUMPDEST PUSH3 0x46C DUP4 PUSH3 0x42F JUMP JUMPDEST PUSH3 0x484 PUSH3 0x47B DUP3 PUSH3 0x457 JUMP JUMPDEST DUP5 DUP5 SLOAD PUSH3 0x3CF JUMP JUMPDEST DUP3 SSTORE POP POP POP POP JUMP JUMPDEST PUSH1 0x0 SWAP1 JUMP JUMPDEST PUSH3 0x49B PUSH3 0x48C JUMP JUMPDEST PUSH3 0x4A8 DUP2 DUP5 DUP5 PUSH3 0x461 JUMP JUMPDEST POP POP POP JUMP JUMPDEST JUMPDEST DUP2 DUP2 LT ISZERO PUSH3 0x4D0 JUMPI PUSH3 0x4C4 PUSH1 0x0 DUP3 PUSH3 0x491 JUMP JUMPDEST PUSH1 0x1 DUP2 ADD SWAP1 POP PUSH3 0x4AE JUMP JUMPDEST POP POP JUMP JUMPDEST PUSH1 0x1F DUP3 GT ISZERO PUSH3 0x51F JUMPI PUSH3 0x4E9 DUP2 PUSH3 0x39D JUMP JUMPDEST PUSH3 0x4F4 DUP5 PUSH3 0x3B2 JUMP JUMPDEST DUP2 ADD PUSH1 0x20 DUP6 LT ISZERO PUSH3 0x504 JUMPI DUP2 SWAP1 POP JUMPDEST PUSH3 0x51C PUSH3 0x513 DUP6 PUSH3 0x3B2 JUMP JUMPDEST DUP4 ADD DUP3 PUSH3 0x4AD JUMP JUMPDEST POP POP JUMPDEST POP POP POP JUMP JUMPDEST PUSH1 0x0 DUP3 DUP3 SHR SWAP1 POP SWAP3 SWAP2 POP POP JUMP JUMPDEST PUSH1 0x0 PUSH3 0x544 PUSH1 0x0 NOT DUP5 PUSH1 0x8 MUL PUSH3 0x524 JUMP JUMPDEST NOT DUP1 DUP4 AND SWAP2 POP POP SWAP3 SWAP2 POP POP JUMP JUMPDEST PUSH1 0x0 PUSH3 0x55F DUP4 DUP4 PUSH3 0x531 JUMP JUMPDEST SWAP2 POP DUP3 PUSH1 0x2 MUL DUP3 OR SWAP1 POP SWAP3 SWAP2 POP POP JUMP JUMPDEST PUSH3 0x57A DUP3 PUSH3 0x32E JUMP JUMPDEST PUSH8 0xFFFFFFFFFFFFFFFF DUP2 GT ISZERO PUSH3 0x596 JUMPI PUSH3 0x595 PUSH3 0xD6 JUMP JUMPDEST JUMPDEST PUSH3 0x5A2 DUP3 SLOAD PUSH3 0x368 JUMP JUMPDEST PUSH3 0x5AF DUP3 DUP3 DUP6 PUSH3 0x4D4 JUMP JUMPDEST PUSH1 0x0 PUSH1 0x20 SWAP1 POP PUSH1 0x1F DUP4 GT PUSH1 0x1 DUP2 EQ PUSH3 0x5E7 JUMPI PUSH1 0x0 DUP5 ISZERO PUSH3 0x5D2 JUMPI DUP3 DUP8 ADD MLOAD SWAP1 POP JUMPDEST PUSH3 0x5DE DUP6 DUP3 PUSH3 0x551 JUMP JUMPDEST DUP7 SSTORE POP PUSH3 0x64E JUMP JUMPDEST PUSH1 0x1F NOT DUP5 AND PUSH3 0x5F7 DUP7 PUSH3 0x39D JUMP JUMPDEST PUSH1 0x0 JUMPDEST DUP3 DUP2 LT ISZERO PUSH3 0x621 JUMPI DUP5 DUP10 ADD MLOAD DUP3 SSTORE PUSH1 0x1 DUP3 ADD SWAP2 POP PUSH1 0x20 DUP6 ADD SWAP5 POP PUSH1 0x20 DUP2 ADD SWAP1 POP PUSH3 0x5FA JUMP JUMPDEST DUP7 DUP4 LT ISZERO PUSH3 0x641 JUMPI DUP5 DUP10 ADD MLOAD PUSH3 0x63D PUSH1 0x1F DUP10 AND DUP3 PUSH3 0x531 JUMP JUMPDEST DUP4 SSTORE POP JUMPDEST PUSH1 0x1 PUSH1 0x2 DUP9 MUL ADD DUP9 SSTORE POP POP POP JUMPDEST POP POP POP POP POP POP JUMP JUMPDEST PUSH1 0x0 DUP3 DUP3 MSTORE PUSH1 0x20 DUP3 ADD SWAP1 POP SWAP3 SWAP2 POP POP JUMP JUMPDEST PUSH1 0x0 PUSH3 0x674 DUP3 PUSH3 0x32E JUMP JUMPDEST PUSH3 0x680 DUP2 DUP6 PUSH3 0x656 JUMP JUMPDEST SWAP4 POP PUSH3 0x692 DUP2 DUP6 PUSH1 0x20 DUP7 ADD PUSH3 0x190 JUMP JUMPDEST PUSH3 0x69D DUP2 PUSH3 0xC5 JUMP JUMPDEST DUP5 ADD SWAP2 POP POP SWAP3 SWAP2 POP POP JUMP JUMPDEST PUSH3 0x6B3 DUP2 PUSH3 0x23A JUMP JUMPDEST DUP3 MSTORE POP POP JUMP JUMPDEST PUSH3 0x6C4 DUP2 PUSH3 0x278 JUMP JUMPDEST DUP3 MSTORE POP POP JUMP JUMPDEST PUSH1 0x0 PUSH1 0x60 DUP3 ADD SWAP1 POP DUP2 DUP2 SUB PUSH1 0x0 DUP4 ADD MSTORE PUSH3 0x6E6 DUP2 DUP7 PUSH3 0x667 JUMP JUMPDEST SWAP1 POP PUSH3 0x6F7 PUSH1 0x20 DUP4 ADD DUP6 PUSH3 0x6A8 JUMP JUMPDEST PUSH3 0x706 PUSH1 0x40 DUP4 ADD DUP5 PUSH3 0x6B9 JUMP JUMPDEST SWAP5 SWAP4 POP POP POP POP JUMP JUMPDEST PUSH2 0x2FA DUP1 PUSH3 0x71E PUSH1 0x0 CODECOPY PUSH1 0x0 RETURN INVALID PUSH1 0x80 PUSH1 0x40 MSTORE CALLVALUE DUP1 ISZERO PUSH2 0x10 JUMPI PUSH1 0x0 DUP1 REVERT JUMPDEST POP PUSH1 0x4 CALLDATASIZE LT PUSH2 0x41 JUMPI PUSH1 0x0 CALLDATALOAD PUSH1 0xE0 SHR DUP1 PUSH4 0x2017CBC EQ PUSH2 0x46 JUMPI DUP1 PUSH4 0xD19779F7 EQ PUSH2 0x64 JUMPI DUP1 PUSH4 0xE4913642 EQ PUSH2 0x82 JUMPI JUMPDEST PUSH1 0x0 DUP1 REVERT JUMPDEST PUSH2 0x4E PUSH2 0xA0 JUMP JUMPDEST PUSH1 0x40 MLOAD PUSH2 0x5B SWAP2 SWAP1 PUSH2 0x163 JUMP JUMPDEST PUSH1 0x40 MLOAD DUP1 SWAP2 SUB SWAP1 RETURN JUMPDEST PUSH2 0x6C PUSH2 0xB3 JUMP JUMPDEST PUSH1 0x40 MLOAD PUSH2 0x79 SWAP2 SWAP1 PUSH2 0x20E JUMP JUMPDEST PUSH1 0x40 MLOAD DUP1 SWAP2 SUB SWAP1 RETURN JUMPDEST PUSH2 0x8A PUSH2 0x141 JUMP JUMPDEST PUSH1 0x40 MLOAD PUSH2 0x97 SWAP2 SWAP1 PUSH2 0x249 JUMP JUMPDEST PUSH1 0x40 MLOAD DUP1 SWAP2 SUB SWAP1 RETURN JUMPDEST PUSH1 0x1 PUSH1 0x0 SWAP1 SLOAD SWAP1 PUSH2 0x100 EXP SWAP1 DIV PUSH1 0xFF AND DUP2 JUMP JUMPDEST PUSH1 0x0 DUP1 SLOAD PUSH2 0xC0 SWAP1 PUSH2 0x293 JUMP JUMPDEST DUP1 PUSH1 0x1F ADD PUSH1 0x20 DUP1 SWAP2 DIV MUL PUSH1 0x20 ADD PUSH1 0x40 MLOAD SWAP1 DUP2 ADD PUSH1 0x40 MSTORE DUP1 SWAP3 SWAP2 SWAP1 DUP2 DUP2 MSTORE PUSH1 0x20 ADD DUP3 DUP1 SLOAD PUSH2 0xEC SWAP1 PUSH2 0x293 JUMP JUMPDEST DUP1 ISZERO PUSH2 0x139 JUMPI DUP1 PUSH1 0x1F LT PUSH2 0x10E JUMPI PUSH2 0x100 DUP1 DUP4 SLOAD DIV MUL DUP4 MSTORE SWAP2 PUSH1 0x20 ADD SWAP2 PUSH2 0x139 JUMP JUMPDEST DUP3 ADD SWAP2 SWAP1 PUSH1 0x0 MSTORE PUSH1 0x20 PUSH1 0x0 KECCAK256 SWAP1 JUMPDEST DUP2 SLOAD DUP2 MSTORE SWAP1 PUSH1 0x1 ADD SWAP1 PUSH1 0x20 ADD DUP1 DUP4 GT PUSH2 0x11C JUMPI DUP3 SWAP1 SUB PUSH1 0x1F AND DUP3 ADD SWAP2 JUMPDEST POP POP POP POP POP DUP2 JUMP JUMPDEST PUSH1 0x3 SLOAD DUP2 JUMP JUMPDEST PUSH1 0x0 PUSH1 0xFF DUP3 AND SWAP1 POP SWAP2 SWAP1 POP JUMP JUMPDEST PUSH2 0x15D DUP2 PUSH2 0x147 JUMP JUMPDEST DUP3 MSTORE POP POP JUMP JUMPDEST PUSH1 0x0 PUSH1 0x20 DUP3 ADD SWAP1 POP PUSH2 0x178 PUSH1 0x0 DUP4 ADD DUP5 PUSH2 0x154 JUMP JUMPDEST SWAP3 SWAP2 POP POP JUMP JUMPDEST PUSH1 0x0 DUP2 MLOAD SWAP1 POP SWAP2 SWAP1 POP JUMP JUMPDEST PUSH1 0x0 DUP3 DUP3 MSTORE PUSH1 0x20 DUP3 ADD SWAP1 POP SWAP3 SWAP2 POP POP JUMP JUMPDEST PUSH1 0x0 JUMPDEST DUP4 DUP2 LT ISZERO PUSH2 0x1B8 JUMPI DUP1 DUP3 ADD MLOAD DUP2 DUP5 ADD MSTORE PUSH1 0x20 DUP2 ADD SWAP1 POP PUSH2 0x19D JUMP JUMPDEST PUSH1 0x0 DUP5 DUP5 ADD MSTORE POP POP POP POP JUMP JUMPDEST PUSH1 0x0 PUSH1 0x1F NOT PUSH1 0x1F DUP4 ADD AND SWAP1 POP SWAP2 SWAP1 POP JUMP JUMPDEST PUSH1 0x0 PUSH2 0x1E0 DUP3 PUSH2 0x17E JUMP JUMPDEST PUSH2 0x1EA DUP2 DUP6 PUSH2 0x189 JUMP JUMPDEST SWAP4 POP PUSH2 0x1FA DUP2 DUP6 PUSH1 0x20 DUP7 ADD PUSH2 0x19A JUMP JUMPDEST PUSH2 0x203 DUP2 PUSH2 0x1C4 JUMP JUMPDEST DUP5 ADD SWAP2 POP POP SWAP3 SWAP2 POP POP JUMP JUMPDEST PUSH1 0x0 PUSH1 0x20 DUP3 ADD SWAP1 POP DUP2 DUP2 SUB PUSH1 0x0 DUP4 ADD MSTORE PUSH2 0x228 DUP2 DUP5 PUSH2 0x1D5 JUMP JUMPDEST SWAP1 POP SWAP3 SWAP2 POP POP JUMP JUMPDEST PUSH1 0x0 DUP2 SWAP1 POP SWAP2 SWAP1 POP JUMP JUMPDEST PUSH2 0x243 DUP2 PUSH2 0x230 JUMP JUMPDEST DUP3 MSTORE POP POP JUMP JUMPDEST PUSH1 0x0 PUSH1 0x20 DUP3 ADD SWAP1 POP PUSH2 0x25E PUSH1 0x0 DUP4 ADD DUP5 PUSH2 0x23A JUMP JUMPDEST SWAP3 SWAP2 POP POP JUMP JUMPDEST PUSH32 0x4E487B7100000000000000000000000000000000000000000000000000000000 PUSH1 0x0 MSTORE PUSH1 0x22 PUSH1 0x4 MSTORE PUSH1 0x24 PUSH1 0x0 REVERT JUMPDEST PUSH1 0x0 PUSH1 0x2 DUP3 DIV SWAP1 POP PUSH1 0x1 DUP3 AND DUP1 PUSH2 0x2AB JUMPI PUSH1 0x7F DUP3 AND SWAP2 POP JUMPDEST PUSH1 0x20 DUP3 LT DUP2 SUB PUSH2 0x2BE JUMPI PUSH2 0x2BD PUSH2 0x264 JUMP JUMPDEST JUMPDEST POP SWAP2 SWAP1 POP JUMP INVALID LOG2 PUSH5 0x6970667358 0x22 SLT KECCAK256 NOT DELEGATECALL SDIV DUP14 DUP11 0xFC 0xC1 0xD8 SWAP5 SSTORE SDIV PUSH30 0xAA343ED52E76C93CE4BA5524C693A53836D2BD4364736F6C634300081200 CALLER "
		},
		"gasEstimates": {
			"creation": {
				"codeDepositCost": "152400",
				"executionCost": "infinite",
				"totalCost": "infinite"
			},
			"external": {
				"authName()": "infinite",
				"authorAge()": "2449",
				"authorHash()": "2451"
			}
		},
		"methodIdentifiers": {
			"authName()": "d19779f7",
			"authorAge()": "02017cbc",
			"authorHash()": "e4913642"
		}
	},
	"abi": [
		{
			"inputs": [
				{
					"internalType": "string",
					"name": "_name",
					"type": "string"
				},
				{
					"internalType": "uint8",
					"name": "_age",
					"type": "uint8"
				},
				{
					"internalType": "uint256",
					"name": "_salary",
					"type": "uint256"
				}
			],
			"stateMutability": "nonpayable",
			"type": "constructor"
		},
		{
			"inputs": [],
			"name": "authName",
			"outputs": [
				{
					"internalType": "string",
					"name": "",
					"type": "string"
				}
			],
			"stateMutability": "view",
			"type": "function"
		},
		{
			"inputs": [],
			"name": "authorAge",
			"outputs": [
				{
					"internalType": "uint8",
					"name": "",
					"type": "uint8"
				}
			],
			"stateMutability": "view",
			"type": "function"
		},
		{
			"inputs": [],
			"name": "authorHash",
			"outputs": [
				{
					"internalType": "bytes32",
					"name": "",
					"type": "bytes32"
				}
			],
			"stateMutability": "view",
			"type": "function"
		}
	]
}